{
  "_format": "hh-sol-artifact-1",
  "contractName": "DK",
  "sourceName": "contracts/DK.sol",
  "address": "0x908384CB5Dd201a48f71eE7763E091A1D04D6B59",
  "abi": [
    {
      "inputs": [],
      "stateMutability": "nonpayable",
      "type": "constructor"
    },
    {
      "inputs": [
        {
          "internalType": "uint256",
          "name": "",
          "type": "uint256"
        },
        {
          "internalType": "uint256",
          "name": "",
          "type": "uint256"
        }
      ],
      "name": "SHGToMember",
      "outputs": [
        {
          "internalType": "address",
          "name": "memaddress",
          "type": "address"
        },
        {
          "internalType": "string",
          "name": "name",
          "type": "string"
        },
        {
          "internalType": "uint256",
          "name": "aadhaar",
          "type": "uint256"
        },
        {
          "internalType": "string",
          "name": "desig",
          "type": "string"
        },
        {
          "internalType": "uint256",
          "name": "balance",
          "type": "uint256"
        },
        {
          "internalType": "uint256",
          "name": "loan",
          "type": "uint256"
        }
      ],
      "stateMutability": "view",
      "type": "function"
    },
    {
      "inputs": [
        {
          "internalType": "uint256",
          "name": "index",
          "type": "uint256"
        }
      ],
      "name": "approveSHG",
      "outputs": [],
      "stateMutability": "nonpayable",
      "type": "function"
    },
    {
      "inputs": [
        {
          "internalType": "uint256",
          "name": "",
          "type": "uint256"
        }
      ],
      "name": "approvedSHGs",
      "outputs": [
        {
          "internalType": "string",
          "name": "name",
          "type": "string"
        },
        {
          "internalType": "string",
          "name": "applicant",
          "type": "string"
        },
        {
          "internalType": "string",
          "name": "location",
          "type": "string"
        },
        {
          "internalType": "address",
          "name": "applicant_address",
          "type": "address"
        }
      ],
      "stateMutability": "view",
      "type": "function"
    },
    {
      "inputs": [],
      "name": "cdsdash",
      "outputs": [
        {
          "internalType": "uint256",
          "name": "",
          "type": "uint256"
        },
        {
          "internalType": "uint256",
          "name": "",
          "type": "uint256"
        },
        {
          "internalType": "uint256",
          "name": "",
          "type": "uint256"
        }
      ],
      "stateMutability": "view",
      "type": "function"
    },
    {
      "inputs": [
        {
          "internalType": "string",
          "name": "_title",
          "type": "string"
        },
        {
          "internalType": "string",
          "name": "_desc",
          "type": "string"
        },
        {
          "internalType": "string",
          "name": "_link",
          "type": "string"
        }
      ],
      "name": "createNotification",
      "outputs": [],
      "stateMutability": "nonpayable",
      "type": "function"
    },
    {
      "inputs": [
        {
          "internalType": "string",
          "name": "_name",
          "type": "string"
        },
        {
          "internalType": "string",
          "name": "_applicant",
          "type": "string"
        },
        {
          "internalType": "string",
          "name": "_location",
          "type": "string"
        }
      ],
      "name": "createSHG",
      "outputs": [],
      "stateMutability": "nonpayable",
      "type": "function"
    },
    {
      "inputs": [],
      "name": "getApprovedSHGs",
      "outputs": [
        {
          "components": [
            {
              "internalType": "string",
              "name": "name",
              "type": "string"
            },
            {
              "internalType": "string",
              "name": "applicant",
              "type": "string"
            },
            {
              "internalType": "string",
              "name": "location",
              "type": "string"
            },
            {
              "internalType": "address",
              "name": "applicant_address",
              "type": "address"
            }
          ],
          "internalType": "struct DK.SHG[]",
          "name": "",
          "type": "tuple[]"
        }
      ],
      "stateMutability": "view",
      "type": "function"
    },
    {
      "inputs": [],
      "name": "getNotifications",
      "outputs": [
        {
          "components": [
            {
              "internalType": "string",
              "name": "title",
              "type": "string"
            },
            {
              "internalType": "string",
              "name": "desc",
              "type": "string"
            },
            {
              "internalType": "string",
              "name": "link",
              "type": "string"
            }
          ],
          "internalType": "struct DK.Notification[]",
          "name": "",
          "type": "tuple[]"
        }
      ],
      "stateMutability": "view",
      "type": "function"
    },
    {
      "inputs": [],
      "name": "getPendingSHGs",
      "outputs": [
        {
          "components": [
            {
              "internalType": "string",
              "name": "name",
              "type": "string"
            },
            {
              "internalType": "string",
              "name": "applicant",
              "type": "string"
            },
            {
              "internalType": "string",
              "name": "location",
              "type": "string"
            },
            {
              "internalType": "address",
              "name": "applicant_address",
              "type": "address"
            }
          ],
          "internalType": "struct DK.SHG[]",
          "name": "",
          "type": "tuple[]"
        }
      ],
      "stateMutability": "view",
      "type": "function"
    },
    {
      "inputs": [],
      "name": "loanPay",
      "outputs": [],
      "stateMutability": "payable",
      "type": "function"
    },
    {
      "inputs": [
        {
          "internalType": "string",
          "name": "_name",
          "type": "string"
        },
        {
          "internalType": "uint256",
          "name": "_aadhar",
          "type": "uint256"
        },
        {
          "internalType": "uint256",
          "name": "SHGindex",
          "type": "uint256"
        }
      ],
      "name": "memRegandJoin",
      "outputs": [],
      "stateMutability": "nonpayable",
      "type": "function"
    },
    {
      "inputs": [
        {
          "internalType": "address",
          "name": "",
          "type": "address"
        }
      ],
      "name": "memberToSHG",
      "outputs": [
        {
          "internalType": "string",
          "name": "name",
          "type": "string"
        },
        {
          "internalType": "string",
          "name": "applicant",
          "type": "string"
        },
        {
          "internalType": "string",
          "name": "location",
          "type": "string"
        },
        {
          "internalType": "address",
          "name": "applicant_address",
          "type": "address"
        }
      ],
      "stateMutability": "view",
      "type": "function"
    },
    {
      "inputs": [
        {
          "internalType": "uint256",
          "name": "",
          "type": "uint256"
        }
      ],
      "name": "members",
      "outputs": [
        {
          "internalType": "address",
          "name": "memaddress",
          "type": "address"
        },
        {
          "internalType": "string",
          "name": "name",
          "type": "string"
        },
        {
          "internalType": "uint256",
          "name": "aadhaar",
          "type": "uint256"
        },
        {
          "internalType": "string",
          "name": "desig",
          "type": "string"
        },
        {
          "internalType": "uint256",
          "name": "balance",
          "type": "uint256"
        },
        {
          "internalType": "uint256",
          "name": "loan",
          "type": "uint256"
        }
      ],
      "stateMutability": "view",
      "type": "function"
    },
    {
      "inputs": [
        {
          "internalType": "uint256",
          "name": "",
          "type": "uint256"
        }
      ],
      "name": "n",
      "outputs": [
        {
          "internalType": "string",
          "name": "title",
          "type": "string"
        },
        {
          "internalType": "string",
          "name": "desc",
          "type": "string"
        },
        {
          "internalType": "string",
          "name": "link",
          "type": "string"
        }
      ],
      "stateMutability": "view",
      "type": "function"
    },
    {
      "inputs": [
        {
          "internalType": "uint256",
          "name": "",
          "type": "uint256"
        }
      ],
      "name": "pendingSHGs",
      "outputs": [
        {
          "internalType": "string",
          "name": "name",
          "type": "string"
        },
        {
          "internalType": "string",
          "name": "applicant",
          "type": "string"
        },
        {
          "internalType": "string",
          "name": "location",
          "type": "string"
        },
        {
          "internalType": "address",
          "name": "applicant_address",
          "type": "address"
        }
      ],
      "stateMutability": "view",
      "type": "function"
    },
    {
      "inputs": [],
      "name": "weeklyPay",
      "outputs": [],
      "stateMutability": "payable",
      "type": "function"
    }
  ],
  "bytecode": "0x608060405234801561001057600080fd5b5033600560006101000a81548173ffffffffffffffffffffffffffffffffffffffff021916908373ffffffffffffffffffffffffffffffffffffffff16021790555061325e806100616000396000f3fe6080604052600436106100f35760003560e01c80638881aba41161008a578063cc5870e411610059578063cc5870e414610341578063cf48bd2c1461034b578063cf71355b14610376578063ff78c7e31461039f576100f3565b80638881aba4146102a1578063a2bc7eb4146102ce578063a6ef2b5c146102d8578063b40ebaaf14610318576100f3565b80632f6f3a84116100c65780632f6f3a84146101cb5780635daf08ca1461020b5780636005fec61461024d5780637c3d483e14610276576100f3565b80631436e435146100f85780631514e44b146101385780632495b5fc146101635780632d22f7fb146101a2575b600080fd5b34801561010457600080fd5b5061011f600480360381019061011a919061229c565b6103e1565b60405161012f949392919061239a565b60405180910390f35b34801561014457600080fd5b5061014d6105d9565b60405161015a9190612580565b60405180910390f35b34801561016f57600080fd5b5061018a6004803603810190610185919061229c565b610844565b604051610199939291906125a2565b60405180910390f35b3480156101ae57600080fd5b506101c960048036038101906101c49190612723565b610a16565b005b3480156101d757600080fd5b506101f260048036038101906101ed91906127be565b610ec0565b604051610202949392919061239a565b60405180910390f35b34801561021757600080fd5b50610232600480360381019061022d919061229c565b6110a8565b604051610244969594939291906127fa565b60405180910390f35b34801561025957600080fd5b50610274600480360381019061026f919061229c565b611224565b005b34801561028257600080fd5b5061028b6114f9565b6040516102989190612580565b60405180910390f35b3480156102ad57600080fd5b506102b6611764565b6040516102c593929190612869565b60405180910390f35b6102d6611816565b005b3480156102e457600080fd5b506102ff60048036038101906102fa919061229c565b611932565b60405161030f949392919061239a565b60405180910390f35b34801561032457600080fd5b5061033f600480360381019061033a91906128a0565b611b2a565b005b610349611c1c565b005b34801561035757600080fd5b50610360611d38565b60405161036d9190612a67565b60405180910390f35b34801561038257600080fd5b5061039d600480360381019061039891906128a0565b611f4d565b005b3480156103ab57600080fd5b506103c660048036038101906103c19190612a89565b61206c565b6040516103d8969594939291906127fa565b60405180910390f35b600181815481106103f157600080fd5b906000526020600020906004020160009150905080600001805461041490612af8565b80601f016020809104026020016040519081016040528092919081815260200182805461044090612af8565b801561048d5780601f106104625761010080835404028352916020019161048d565b820191906000526020600020905b81548152906001019060200180831161047057829003601f168201915b5050505050908060010180546104a290612af8565b80601f01602080910402602001604051908101604052809291908181526020018280546104ce90612af8565b801561051b5780601f106104f05761010080835404028352916020019161051b565b820191906000526020600020905b8154815290600101906020018083116104fe57829003601f168201915b50505050509080600201805461053090612af8565b80601f016020809104026020016040519081016040528092919081815260200182805461055c90612af8565b80156105a95780601f1061057e576101008083540402835291602001916105a9565b820191906000526020600020905b81548152906001019060200180831161058c57829003601f168201915b5050505050908060030160009054906101000a900473ffffffffffffffffffffffffffffffffffffffff16905084565b60606001805480602002602001604051908101604052809291908181526020016000905b8282101561083b578382906000526020600020906004020160405180608001604052908160008201805461063090612af8565b80601f016020809104026020016040519081016040528092919081815260200182805461065c90612af8565b80156106a95780601f1061067e576101008083540402835291602001916106a9565b820191906000526020600020905b81548152906001019060200180831161068c57829003601f168201915b505050505081526020016001820180546106c290612af8565b80601f01602080910402602001604051908101604052809291908181526020018280546106ee90612af8565b801561073b5780601f106107105761010080835404028352916020019161073b565b820191906000526020600020905b81548152906001019060200180831161071e57829003601f168201915b5050505050815260200160028201805461075490612af8565b80601f016020809104026020016040519081016040528092919081815260200182805461078090612af8565b80156107cd5780601f106107a2576101008083540402835291602001916107cd565b820191906000526020600020905b8154815290600101906020018083116107b057829003601f168201915b505050505081526020016003820160009054906101000a900473ffffffffffffffffffffffffffffffffffffffff1673ffffffffffffffffffffffffffffffffffffffff1673ffffffffffffffffffffffffffffffffffffffff1681525050815260200190600101906105fd565b50505050905090565b6006818154811061085457600080fd5b906000526020600020906003020160009150905080600001805461087790612af8565b80601f01602080910402602001604051908101604052809291908181526020018280546108a390612af8565b80156108f05780601f106108c5576101008083540402835291602001916108f0565b820191906000526020600020905b8154815290600101906020018083116108d357829003601f168201915b50505050509080600101805461090590612af8565b80601f016020809104026020016040519081016040528092919081815260200182805461093190612af8565b801561097e5780601f106109535761010080835404028352916020019161097e565b820191906000526020600020905b81548152906001019060200180831161096157829003601f168201915b50505050509080600201805461099390612af8565b80601f01602080910402602001604051908101604052809291908181526020018280546109bf90612af8565b8015610a0c5780601f106109e157610100808354040283529160200191610a0c565b820191906000526020600020905b8154815290600101906020018083116109ef57829003601f168201915b5050505050905083565b60005b600280549050811015610ae6573373ffffffffffffffffffffffffffffffffffffffff1660028281548110610a5157610a50612b29565b5b906000526020600020906006020160000160009054906101000a900473ffffffffffffffffffffffffffffffffffffffff1673ffffffffffffffffffffffffffffffffffffffff1603610ad9576040517f08c379a0000000000000000000000000000000000000000000000000000000008152600401610ad090612ba4565b60405180910390fd5b8080600101915050610a19565b5060008181548110610afb57610afa612b29565b5b9060005260206000209060040201600360003373ffffffffffffffffffffffffffffffffffffffff1673ffffffffffffffffffffffffffffffffffffffff16815260200190815260200160002060008201816000019081610b5c9190612d86565b5060018201816001019081610b719190612d86565b5060028201816002019081610b869190612d86565b506003820160009054906101000a900473ffffffffffffffffffffffffffffffffffffffff168160030160006101000a81548173ffffffffffffffffffffffffffffffffffffffff021916908373ffffffffffffffffffffffffffffffffffffffff160217905550905050606060008281548110610c0757610c06612b29565b5b906000526020600020906004020160030160009054906101000a900473ffffffffffffffffffffffffffffffffffffffff1673ffffffffffffffffffffffffffffffffffffffff163373ffffffffffffffffffffffffffffffffffffffff1603610ca8576040518060400160405280600981526020017f507265736964656e7400000000000000000000000000000000000000000000008152509050610ce1565b6040518060400160405280600681526020017f4d656d626572000000000000000000000000000000000000000000000000000081525090505b60006040518060c001604052803373ffffffffffffffffffffffffffffffffffffffff1681526020018681526020018581526020018381526020016000815260200160008152509050600281908060018154018082558091505060019003906000526020600020906006020160009091909190915060008201518160000160006101000a81548173ffffffffffffffffffffffffffffffffffffffff021916908373ffffffffffffffffffffffffffffffffffffffff1602179055506020820151816001019081610db29190612e6e565b50604082015181600201556060820151816003019081610dd29190612e6e565b506080820151816004015560a0820151816005015550506004600084815260200190815260200160002081908060018154018082558091505060019003906000526020600020906006020160009091909190915060008201518160000160006101000a81548173ffffffffffffffffffffffffffffffffffffffff021916908373ffffffffffffffffffffffffffffffffffffffff1602179055506020820151816001019081610e829190612e6e565b50604082015181600201556060820151816003019081610ea29190612e6e565b506080820151816004015560a0820151816005015550505050505050565b6003602052806000526040600020600091509050806000018054610ee390612af8565b80601f0160208091040260200160405190810160405280929190818152602001828054610f0f90612af8565b8015610f5c5780601f10610f3157610100808354040283529160200191610f5c565b820191906000526020600020905b815481529060010190602001808311610f3f57829003601f168201915b505050505090806001018054610f7190612af8565b80601f0160208091040260200160405190810160405280929190818152602001828054610f9d90612af8565b8015610fea5780601f10610fbf57610100808354040283529160200191610fea565b820191906000526020600020905b815481529060010190602001808311610fcd57829003601f168201915b505050505090806002018054610fff90612af8565b80601f016020809104026020016040519081016040528092919081815260200182805461102b90612af8565b80156110785780601f1061104d57610100808354040283529160200191611078565b820191906000526020600020905b81548152906001019060200180831161105b57829003601f168201915b5050505050908060030160009054906101000a900473ffffffffffffffffffffffffffffffffffffffff16905084565b600281815481106110b857600080fd5b90600052602060002090600602016000915090508060000160009054906101000a900473ffffffffffffffffffffffffffffffffffffffff169080600101805461110190612af8565b80601f016020809104026020016040519081016040528092919081815260200182805461112d90612af8565b801561117a5780601f1061114f5761010080835404028352916020019161117a565b820191906000526020600020905b81548152906001019060200180831161115d57829003601f168201915b50505050509080600201549080600301805461119590612af8565b80601f01602080910402602001604051908101604052809291908181526020018280546111c190612af8565b801561120e5780601f106111e35761010080835404028352916020019161120e565b820191906000526020600020905b8154815290600101906020018083116111f157829003601f168201915b5050505050908060040154908060050154905086565b600180549050811061126b576040517f08c379a000000000000000000000000000000000000000000000000000000000815260040161126290612f8c565b60405180910390fd5b60006001828154811061128157611280612b29565b5b90600052602060002090600402019080600181540180825580915050600190039060005260206000209060040201600090919091909150600082018160000190816112cc9190612d86565b50600182018160010190816112e19190612d86565b50600282018160020190816112f69190612d86565b506003820160009054906101000a900473ffffffffffffffffffffffffffffffffffffffff168160030160006101000a81548173ffffffffffffffffffffffffffffffffffffffff021916908373ffffffffffffffffffffffffffffffffffffffff1602179055505050600180805490506113719190612fdb565b81146114745760018080805490506113899190612fdb565b8154811061139a57611399612b29565b5b9060005260206000209060040201600182815481106113bc576113bb612b29565b5b9060005260206000209060040201600082018160000190816113de9190612d86565b50600182018160010190816113f39190612d86565b50600282018160020190816114089190612d86565b506003820160009054906101000a900473ffffffffffffffffffffffffffffffffffffffff168160030160006101000a81548173ffffffffffffffffffffffffffffffffffffffff021916908373ffffffffffffffffffffffffffffffffffffffff1602179055509050505b60018054806114865761148561300f565b5b6001900381819060005260206000209060040201600080820160006114ab91906121f5565b6001820160006114bb91906121f5565b6002820160006114cb91906121f5565b6003820160006101000a81549073ffffffffffffffffffffffffffffffffffffffff02191690555050905550565b60606000805480602002602001604051908101604052809291908181526020016000905b8282101561175b578382906000526020600020906004020160405180608001604052908160008201805461155090612af8565b80601f016020809104026020016040519081016040528092919081815260200182805461157c90612af8565b80156115c95780601f1061159e576101008083540402835291602001916115c9565b820191906000526020600020905b8154815290600101906020018083116115ac57829003601f168201915b505050505081526020016001820180546115e290612af8565b80601f016020809104026020016040519081016040528092919081815260200182805461160e90612af8565b801561165b5780601f106116305761010080835404028352916020019161165b565b820191906000526020600020905b81548152906001019060200180831161163e57829003601f168201915b5050505050815260200160028201805461167490612af8565b80601f01602080910402602001604051908101604052809291908181526020018280546116a090612af8565b80156116ed5780601f106116c2576101008083540402835291602001916116ed565b820191906000526020600020905b8154815290600101906020018083116116d057829003601f168201915b505050505081526020016003820160009054906101000a900473ffffffffffffffffffffffffffffffffffffffff1673ffffffffffffffffffffffffffffffffffffffff1673ffffffffffffffffffffffffffffffffffffffff16815250508152602001906001019061151d565b50505050905090565b6000806000600560009054906101000a900473ffffffffffffffffffffffffffffffffffffffff1673ffffffffffffffffffffffffffffffffffffffff163373ffffffffffffffffffffffffffffffffffffffff16146117f9576040517f08c379a00000000000000000000000000000000000000000000000000000000081526004016117f0906130d6565b60405180910390fd5b600080549050600280549050600180549050925092509250909192565b60003411611859576040517f08c379a000000000000000000000000000000000000000000000000000000000815260040161185090613142565b60405180910390fd5b60005b60028054905081101561192f573373ffffffffffffffffffffffffffffffffffffffff166002828154811061189457611893612b29565b5b906000526020600020906006020160000160009054906101000a900473ffffffffffffffffffffffffffffffffffffffff1673ffffffffffffffffffffffffffffffffffffffff16036119225734600282815481106118f6576118f5612b29565b5b906000526020600020906006020160050160008282546119169190612fdb565b9250508190555061192f565b808060010191505061185c565b50565b6000818154811061194257600080fd5b906000526020600020906004020160009150905080600001805461196590612af8565b80601f016020809104026020016040519081016040528092919081815260200182805461199190612af8565b80156119de5780601f106119b3576101008083540402835291602001916119de565b820191906000526020600020905b8154815290600101906020018083116119c157829003601f168201915b5050505050908060010180546119f390612af8565b80601f0160208091040260200160405190810160405280929190818152602001828054611a1f90612af8565b8015611a6c5780601f10611a4157610100808354040283529160200191611a6c565b820191906000526020600020905b815481529060010190602001808311611a4f57829003601f168201915b505050505090806002018054611a8190612af8565b80601f0160208091040260200160405190810160405280929190818152602001828054611aad90612af8565b8015611afa5780601f10611acf57610100808354040283529160200191611afa565b820191906000526020600020905b815481529060010190602001808311611add57829003601f168201915b5050505050908060030160009054906101000a900473ffffffffffffffffffffffffffffffffffffffff16905084565b600160405180608001604052808581526020018481526020018381526020013373ffffffffffffffffffffffffffffffffffffffff1681525090806001815401808255809150506001900390600052602060002090600402016000909190919091506000820151816000019081611ba19190612e6e565b506020820151816001019081611bb79190612e6e565b506040820151816002019081611bcd9190612e6e565b5060608201518160030160006101000a81548173ffffffffffffffffffffffffffffffffffffffff021916908373ffffffffffffffffffffffffffffffffffffffff1602179055505050505050565b60003411611c5f576040517f08c379a0000000000000000000000000000000000000000000000000000000008152600401611c5690613142565b60405180910390fd5b60005b600280549050811015611d35573373ffffffffffffffffffffffffffffffffffffffff1660028281548110611c9a57611c99612b29565b5b906000526020600020906006020160000160009054906101000a900473ffffffffffffffffffffffffffffffffffffffff1673ffffffffffffffffffffffffffffffffffffffff1603611d28573460028281548110611cfc57611cfb612b29565b5b90600052602060002090600602016004016000828254611d1c9190613162565b92505081905550611d35565b8080600101915050611c62565b50565b60606006805480602002602001604051908101604052809291908181526020016000905b82821015611f445783829060005260206000209060030201604051806060016040529081600082018054611d8f90612af8565b80601f0160208091040260200160405190810160405280929190818152602001828054611dbb90612af8565b8015611e085780601f10611ddd57610100808354040283529160200191611e08565b820191906000526020600020905b815481529060010190602001808311611deb57829003601f168201915b50505050508152602001600182018054611e2190612af8565b80601f0160208091040260200160405190810160405280929190818152602001828054611e4d90612af8565b8015611e9a5780601f10611e6f57610100808354040283529160200191611e9a565b820191906000526020600020905b815481529060010190602001808311611e7d57829003601f168201915b50505050508152602001600282018054611eb390612af8565b80601f0160208091040260200160405190810160405280929190818152602001828054611edf90612af8565b8015611f2c5780601f10611f0157610100808354040283529160200191611f2c565b820191906000526020600020905b815481529060010190602001808311611f0f57829003601f168201915b50505050508152505081526020019060010190611d5c565b50505050905090565b600560009054906101000a900473ffffffffffffffffffffffffffffffffffffffff1673ffffffffffffffffffffffffffffffffffffffff163373ffffffffffffffffffffffffffffffffffffffff1614611fdd576040517f08c379a0000000000000000000000000000000000000000000000000000000008152600401611fd490613208565b60405180910390fd5b6006604051806060016040528085815260200184815260200183815250908060018154018082558091505060019003906000526020600020906003020160009091909190915060008201518160000190816120389190612e6e565b50602082015181600101908161204e9190612e6e565b5060408201518160020190816120649190612e6e565b505050505050565b6004602052816000526040600020818154811061208857600080fd5b9060005260206000209060060201600091509150508060000160009054906101000a900473ffffffffffffffffffffffffffffffffffffffff16908060010180546120d290612af8565b80601f01602080910402602001604051908101604052809291908181526020018280546120fe90612af8565b801561214b5780601f106121205761010080835404028352916020019161214b565b820191906000526020600020905b81548152906001019060200180831161212e57829003601f168201915b50505050509080600201549080600301805461216690612af8565b80601f016020809104026020016040519081016040528092919081815260200182805461219290612af8565b80156121df5780601f106121b4576101008083540402835291602001916121df565b820191906000526020600020905b8154815290600101906020018083116121c257829003601f168201915b5050505050908060040154908060050154905086565b50805461220190612af8565b6000825580601f106122135750612232565b601f0160209004906000526020600020908101906122319190612235565b5b50565b5b8082111561224e576000816000905550600101612236565b5090565b6000604051905090565b600080fd5b600080fd5b6000819050919050565b61227981612266565b811461228457600080fd5b50565b60008135905061229681612270565b92915050565b6000602082840312156122b2576122b161225c565b5b60006122c084828501612287565b91505092915050565b600081519050919050565b600082825260208201905092915050565b60005b838110156123035780820151818401526020810190506122e8565b60008484015250505050565b6000601f19601f8301169050919050565b600061232b826122c9565b61233581856122d4565b93506123458185602086016122e5565b61234e8161230f565b840191505092915050565b600073ffffffffffffffffffffffffffffffffffffffff82169050919050565b600061238482612359565b9050919050565b61239481612379565b82525050565b600060808201905081810360008301526123b48187612320565b905081810360208301526123c88186612320565b905081810360408301526123dc8185612320565b90506123eb606083018461238b565b95945050505050565b600081519050919050565b600082825260208201905092915050565b6000819050602082019050919050565b600082825260208201905092915050565b600061243c826122c9565b6124468185612420565b93506124568185602086016122e5565b61245f8161230f565b840191505092915050565b61247381612379565b82525050565b600060808301600083015184820360008601526124968282612431565b915050602083015184820360208601526124b08282612431565b915050604083015184820360408601526124ca8282612431565b91505060608301516124df606086018261246a565b508091505092915050565b60006124f68383612479565b905092915050565b6000602082019050919050565b6000612516826123f4565b61252081856123ff565b93508360208202850161253285612410565b8060005b8581101561256e578484038952815161254f85826124ea565b945061255a836124fe565b925060208a01995050600181019050612536565b50829750879550505050505092915050565b6000602082019050818103600083015261259a818461250b565b905092915050565b600060608201905081810360008301526125bc8186612320565b905081810360208301526125d08185612320565b905081810360408301526125e48184612320565b9050949350505050565b600080fd5b600080fd5b7f4e487b7100000000000000000000000000000000000000000000000000000000600052604160045260246000fd5b6126308261230f565b810181811067ffffffffffffffff8211171561264f5761264e6125f8565b5b80604052505050565b6000612662612252565b905061266e8282612627565b919050565b600067ffffffffffffffff82111561268e5761268d6125f8565b5b6126978261230f565b9050602081019050919050565b82818337600083830152505050565b60006126c66126c184612673565b612658565b9050828152602081018484840111156126e2576126e16125f3565b5b6126ed8482856126a4565b509392505050565b600082601f83011261270a576127096125ee565b5b813561271a8482602086016126b3565b91505092915050565b60008060006060848603121561273c5761273b61225c565b5b600084013567ffffffffffffffff81111561275a57612759612261565b5b612766868287016126f5565b935050602061277786828701612287565b925050604061278886828701612287565b9150509250925092565b61279b81612379565b81146127a657600080fd5b50565b6000813590506127b881612792565b92915050565b6000602082840312156127d4576127d361225c565b5b60006127e2848285016127a9565b91505092915050565b6127f481612266565b82525050565b600060c08201905061280f600083018961238b565b81810360208301526128218188612320565b905061283060408301876127eb565b81810360608301526128428186612320565b905061285160808301856127eb565b61285e60a08301846127eb565b979650505050505050565b600060608201905061287e60008301866127eb565b61288b60208301856127eb565b61289860408301846127eb565b949350505050565b6000806000606084860312156128b9576128b861225c565b5b600084013567ffffffffffffffff8111156128d7576128d6612261565b5b6128e3868287016126f5565b935050602084013567ffffffffffffffff81111561290457612903612261565b5b612910868287016126f5565b925050604084013567ffffffffffffffff81111561293157612930612261565b5b61293d868287016126f5565b9150509250925092565b600081519050919050565b600082825260208201905092915050565b6000819050602082019050919050565b600060608301600083015184820360008601526129908282612431565b915050602083015184820360208601526129aa8282612431565b915050604083015184820360408601526129c48282612431565b9150508091505092915050565b60006129dd8383612973565b905092915050565b6000602082019050919050565b60006129fd82612947565b612a078185612952565b935083602082028501612a1985612963565b8060005b85811015612a555784840389528151612a3685826129d1565b9450612a41836129e5565b925060208a01995050600181019050612a1d565b50829750879550505050505092915050565b60006020820190508181036000830152612a8181846129f2565b905092915050565b60008060408385031215612aa057612a9f61225c565b5b6000612aae85828601612287565b9250506020612abf85828601612287565b9150509250929050565b7f4e487b7100000000000000000000000000000000000000000000000000000000600052602260045260246000fd5b60006002820490506001821680612b1057607f821691505b602082108103612b2357612b22612ac9565b5b50919050565b7f4e487b7100000000000000000000000000000000000000000000000000000000600052603260045260246000fd5b7f4d656d62657220616c7265616479207265676973746572656400000000000000600082015250565b6000612b8e6019836122d4565b9150612b9982612b58565b602082019050919050565b60006020820190508181036000830152612bbd81612b81565b9050919050565b600081549050612bd381612af8565b9050919050565b60008190508160005260206000209050919050565b60006020601f8301049050919050565b600082821b905092915050565b600060088302612c3c7fffffffffffffffffffffffffffffffffffffffffffffffffffffffffffffffff82612bff565b612c468683612bff565b95508019841693508086168417925050509392505050565b6000819050919050565b6000612c83612c7e612c7984612266565b612c5e565b612266565b9050919050565b6000819050919050565b612c9d83612c68565b612cb1612ca982612c8a565b848454612c0c565b825550505050565b600090565b612cc6612cb9565b612cd1818484612c94565b505050565b5b81811015612cf557612cea600082612cbe565b600181019050612cd7565b5050565b601f821115612d3a57612d0b81612bda565b612d1484612bef565b81016020851015612d23578190505b612d37612d2f85612bef565b830182612cd6565b50505b505050565b600082821c905092915050565b6000612d5d60001984600802612d3f565b1980831691505092915050565b6000612d768383612d4c565b9150826002028217905092915050565b818103612d94575050612e6c565b612d9d82612bc4565b67ffffffffffffffff811115612db657612db56125f8565b5b612dc08254612af8565b612dcb828285612cf9565b6000601f831160018114612dfa5760008415612de8578287015490505b612df28582612d6a565b865550612e65565b601f198416612e0887612bda565b9650612e1386612bda565b60005b82811015612e3b57848901548255600182019150600185019450602081019050612e16565b86831015612e585784890154612e54601f891682612d4c565b8355505b6001600288020188555050505b5050505050505b565b612e77826122c9565b67ffffffffffffffff811115612e9057612e8f6125f8565b5b612e9a8254612af8565b612ea5828285612cf9565b600060209050601f831160018114612ed85760008415612ec6578287015190505b612ed08582612d6a565b865550612f38565b601f198416612ee686612bda565b60005b82811015612f0e57848901518255600182019150602085019450602081019050612ee9565b86831015612f2b5784890151612f27601f891682612d4c565b8355505b6001600288020188555050505b505050505050565b7f496e76616c696420696e64657800000000000000000000000000000000000000600082015250565b6000612f76600d836122d4565b9150612f8182612f40565b602082019050919050565b60006020820190508181036000830152612fa581612f69565b9050919050565b7f4e487b7100000000000000000000000000000000000000000000000000000000600052601160045260246000fd5b6000612fe682612266565b9150612ff183612266565b925082820390508181111561300957613008612fac565b5b92915050565b7f4e487b7100000000000000000000000000000000000000000000000000000000600052603160045260246000fd5b7f496e76616c696420617574686f72697a6174696f6e2c204f6e6c79204344532060008201527f41646d696e2063616e2061636365737320746869732064617368626f6172642160208201527f2121000000000000000000000000000000000000000000000000000000000000604082015250565b60006130c06042836122d4565b91506130cb8261303e565b606082019050919050565b600060208201905081810360008301526130ef816130b3565b9050919050565b7f4e6f2076616c75652073656e7400000000000000000000000000000000000000600082015250565b600061312c600d836122d4565b9150613137826130f6565b602082019050919050565b6000602082019050818103600083015261315b8161311f565b9050919050565b600061316d82612266565b915061317883612266565b92508282019050808211156131905761318f612fac565b5b92915050565b7f4f6e6c79204344532041646d696e2063616e20637265617465206e6f7469666960008201527f636174696f6e2100000000000000000000000000000000000000000000000000602082015250565b60006131f26027836122d4565b91506131fd82613196565b604082019050919050565b60006020820190508181036000830152613221816131e5565b905091905056fea26469706673582212207d56d4a012599b950e541077ffaa9c05e3b0e5a3e2df90f52cd69bef5bbf74cd64736f6c63430008180033",
  "linkReferences": {},
  "deployedLinkReferences": {}
}