{
  "_format": "hh-sol-artifact-1",
  "contractName": "DK",
  "sourceName": "contracts/DK.sol",
  "address": "0xBE0699478ca64E531560644126A0716D0F038650",
  "abi": [
    {
      "inputs": [],
      "stateMutability": "nonpayable",
      "type": "constructor"
    },
    {
      "inputs": [
        {
          "internalType": "uint256",
          "name": "",
          "type": "uint256"
        },
        {
          "internalType": "uint256",
          "name": "",
          "type": "uint256"
        }
      ],
      "name": "SHGToMember",
      "outputs": [
        {
          "internalType": "address",
          "name": "memaddress",
          "type": "address"
        },
        {
          "internalType": "string",
          "name": "name",
          "type": "string"
        },
        {
          "internalType": "uint256",
          "name": "aadhaar",
          "type": "uint256"
        },
        {
          "internalType": "string",
          "name": "desig",
          "type": "string"
        },
        {
          "internalType": "uint256",
          "name": "balance",
          "type": "uint256"
        },
        {
          "internalType": "uint256",
          "name": "loan",
          "type": "uint256"
        }
      ],
      "stateMutability": "view",
      "type": "function"
    },
    {
      "inputs": [
        {
          "internalType": "uint256",
          "name": "index",
          "type": "uint256"
        }
      ],
      "name": "approveSHG",
      "outputs": [],
      "stateMutability": "nonpayable",
      "type": "function"
    },
    {
      "inputs": [
        {
          "internalType": "uint256",
          "name": "",
          "type": "uint256"
        }
      ],
      "name": "approvedSHGs",
      "outputs": [
        {
          "internalType": "string",
          "name": "name",
          "type": "string"
        },
        {
          "internalType": "string",
          "name": "applicant",
          "type": "string"
        },
        {
          "internalType": "string",
          "name": "location",
          "type": "string"
        },
        {
          "internalType": "address",
          "name": "applicant_address",
          "type": "address"
        }
      ],
      "stateMutability": "view",
      "type": "function"
    },
    {
      "inputs": [],
      "name": "cdsdash",
      "outputs": [
        {
          "internalType": "uint256",
          "name": "",
          "type": "uint256"
        },
        {
          "internalType": "uint256",
          "name": "",
          "type": "uint256"
        },
        {
          "internalType": "uint256",
          "name": "",
          "type": "uint256"
        }
      ],
      "stateMutability": "view",
      "type": "function"
    },
    {
      "inputs": [
        {
          "internalType": "string",
          "name": "_title",
          "type": "string"
        },
        {
          "internalType": "string",
          "name": "_desc",
          "type": "string"
        },
        {
          "internalType": "string",
          "name": "_link",
          "type": "string"
        }
      ],
      "name": "createNotification",
      "outputs": [],
      "stateMutability": "nonpayable",
      "type": "function"
    },
    {
      "inputs": [
        {
          "internalType": "string",
          "name": "_name",
          "type": "string"
        },
        {
          "internalType": "string",
          "name": "_applicant",
          "type": "string"
        },
        {
          "internalType": "string",
          "name": "_location",
          "type": "string"
        }
      ],
      "name": "createSHG",
      "outputs": [],
      "stateMutability": "nonpayable",
      "type": "function"
    },
    {
      "inputs": [],
      "name": "getApprovedSHGs",
      "outputs": [
        {
          "components": [
            {
              "internalType": "string",
              "name": "name",
              "type": "string"
            },
            {
              "internalType": "string",
              "name": "applicant",
              "type": "string"
            },
            {
              "internalType": "string",
              "name": "location",
              "type": "string"
            },
            {
              "internalType": "address",
              "name": "applicant_address",
              "type": "address"
            }
          ],
          "internalType": "struct DK.SHG[]",
          "name": "",
          "type": "tuple[]"
        }
      ],
      "stateMutability": "view",
      "type": "function"
    },
    {
      "inputs": [],
      "name": "getNotifications",
      "outputs": [
        {
          "components": [
            {
              "internalType": "string",
              "name": "title",
              "type": "string"
            },
            {
              "internalType": "string",
              "name": "desc",
              "type": "string"
            },
            {
              "internalType": "string",
              "name": "link",
              "type": "string"
            }
          ],
          "internalType": "struct DK.Notification[]",
          "name": "",
          "type": "tuple[]"
        }
      ],
      "stateMutability": "view",
      "type": "function"
    },
    {
      "inputs": [],
      "name": "getPendingSHGs",
      "outputs": [
        {
          "components": [
            {
              "internalType": "string",
              "name": "name",
              "type": "string"
            },
            {
              "internalType": "string",
              "name": "applicant",
              "type": "string"
            },
            {
              "internalType": "string",
              "name": "location",
              "type": "string"
            },
            {
              "internalType": "address",
              "name": "applicant_address",
              "type": "address"
            }
          ],
          "internalType": "struct DK.SHG[]",
          "name": "",
          "type": "tuple[]"
        }
      ],
      "stateMutability": "view",
      "type": "function"
    },
    {
      "inputs": [],
      "name": "loanPay",
      "outputs": [],
      "stateMutability": "payable",
      "type": "function"
    },
    {
      "inputs": [
        {
          "internalType": "string",
          "name": "_name",
          "type": "string"
        },
        {
          "internalType": "uint256",
          "name": "_aadhar",
          "type": "uint256"
        },
        {
          "internalType": "uint256",
          "name": "SHGindex",
          "type": "uint256"
        }
      ],
      "name": "memRegandJoin",
      "outputs": [],
      "stateMutability": "nonpayable",
      "type": "function"
    },
    {
      "inputs": [
        {
          "internalType": "address",
          "name": "",
          "type": "address"
        }
      ],
      "name": "memberToSHGIndex",
      "outputs": [
        {
          "internalType": "uint256",
          "name": "",
          "type": "uint256"
        }
      ],
      "stateMutability": "view",
      "type": "function"
    },
    {
      "inputs": [
        {
          "internalType": "uint256",
          "name": "",
          "type": "uint256"
        }
      ],
      "name": "members",
      "outputs": [
        {
          "internalType": "address",
          "name": "memaddress",
          "type": "address"
        },
        {
          "internalType": "string",
          "name": "name",
          "type": "string"
        },
        {
          "internalType": "uint256",
          "name": "aadhaar",
          "type": "uint256"
        },
        {
          "internalType": "string",
          "name": "desig",
          "type": "string"
        },
        {
          "internalType": "uint256",
          "name": "balance",
          "type": "uint256"
        },
        {
          "internalType": "uint256",
          "name": "loan",
          "type": "uint256"
        }
      ],
      "stateMutability": "view",
      "type": "function"
    },
    {
      "inputs": [],
      "name": "memdash",
      "outputs": [
        {
          "internalType": "uint256",
          "name": "",
          "type": "uint256"
        },
        {
          "internalType": "uint256",
          "name": "",
          "type": "uint256"
        },
        {
          "internalType": "uint256",
          "name": "",
          "type": "uint256"
        }
      ],
      "stateMutability": "view",
      "type": "function"
    },
    {
      "inputs": [
        {
          "internalType": "uint256",
          "name": "",
          "type": "uint256"
        }
      ],
      "name": "n",
      "outputs": [
        {
          "internalType": "string",
          "name": "title",
          "type": "string"
        },
        {
          "internalType": "string",
          "name": "desc",
          "type": "string"
        },
        {
          "internalType": "string",
          "name": "link",
          "type": "string"
        }
      ],
      "stateMutability": "view",
      "type": "function"
    },
    {
      "inputs": [
        {
          "internalType": "uint256",
          "name": "",
          "type": "uint256"
        }
      ],
      "name": "pendingSHGs",
      "outputs": [
        {
          "internalType": "string",
          "name": "name",
          "type": "string"
        },
        {
          "internalType": "string",
          "name": "applicant",
          "type": "string"
        },
        {
          "internalType": "string",
          "name": "location",
          "type": "string"
        },
        {
          "internalType": "address",
          "name": "applicant_address",
          "type": "address"
        }
      ],
      "stateMutability": "view",
      "type": "function"
    },
    {
      "inputs": [],
      "name": "weeklyPay",
      "outputs": [],
      "stateMutability": "payable",
      "type": "function"
    }
  ],
  "bytecode": "0x608060405234801561001057600080fd5b5033600560006101000a81548173ffffffffffffffffffffffffffffffffffffffff021916908373ffffffffffffffffffffffffffffffffffffffff16021790555061353d806100616000396000f3fe6080604052600436106100fe5760003560e01c80638916eee311610095578063cc5870e411610064578063cc5870e414610339578063cde2342414610343578063cf48bd2c14610380578063cf71355b146103ab578063ff78c7e3146103d4576100fe565b80638916eee314610299578063a2bc7eb4146102c6578063a6ef2b5c146102d0578063b40ebaaf14610310576100fe565b80635daf08ca116100d15780635daf08ca146101d65780636005fec6146102185780637c3d483e146102415780638881aba41461026c576100fe565b80631436e435146101035780631514e44b146101435780632495b5fc1461016e5780632d22f7fb146101ad575b600080fd5b34801561010f57600080fd5b5061012a60048036038101906101259190612462565b610416565b60405161013a9493929190612560565b60405180910390f35b34801561014f57600080fd5b5061015861060e565b6040516101659190612746565b60405180910390f35b34801561017a57600080fd5b5061019560048036038101906101909190612462565b610879565b6040516101a493929190612768565b60405180910390f35b3480156101b957600080fd5b506101d460048036038101906101cf91906128e9565b610a4b565b005b3480156101e257600080fd5b506101fd60048036038101906101f89190612462565b610e76565b60405161020f96959493929190612967565b60405180910390f35b34801561022457600080fd5b5061023f600480360381019061023a9190612462565b610ff2565b005b34801561024d57600080fd5b506102566112c7565b6040516102639190612746565b60405180910390f35b34801561027857600080fd5b50610281611532565b604051610290939291906129d6565b60405180910390f35b3480156102a557600080fd5b506102ae6115e4565b6040516102bd939291906129d6565b60405180910390f35b6102ce6119c4565b005b3480156102dc57600080fd5b506102f760048036038101906102f29190612462565b611ae0565b6040516103079493929190612560565b60405180910390f35b34801561031c57600080fd5b5061033760048036038101906103329190612a0d565b611cd8565b005b610341611dca565b005b34801561034f57600080fd5b5061036a60048036038101906103659190612ae0565b611ee6565b6040516103779190612b0d565b60405180910390f35b34801561038c57600080fd5b50610395611efe565b6040516103a29190612c48565b60405180910390f35b3480156103b757600080fd5b506103d260048036038101906103cd9190612a0d565b612113565b005b3480156103e057600080fd5b506103fb60048036038101906103f69190612c6a565b612232565b60405161040d96959493929190612967565b60405180910390f35b6001818154811061042657600080fd5b906000526020600020906004020160009150905080600001805461044990612cd9565b80601f016020809104026020016040519081016040528092919081815260200182805461047590612cd9565b80156104c25780601f10610497576101008083540402835291602001916104c2565b820191906000526020600020905b8154815290600101906020018083116104a557829003601f168201915b5050505050908060010180546104d790612cd9565b80601f016020809104026020016040519081016040528092919081815260200182805461050390612cd9565b80156105505780601f1061052557610100808354040283529160200191610550565b820191906000526020600020905b81548152906001019060200180831161053357829003601f168201915b50505050509080600201805461056590612cd9565b80601f016020809104026020016040519081016040528092919081815260200182805461059190612cd9565b80156105de5780601f106105b3576101008083540402835291602001916105de565b820191906000526020600020905b8154815290600101906020018083116105c157829003601f168201915b5050505050908060030160009054906101000a900473ffffffffffffffffffffffffffffffffffffffff16905084565b60606001805480602002602001604051908101604052809291908181526020016000905b82821015610870578382906000526020600020906004020160405180608001604052908160008201805461066590612cd9565b80601f016020809104026020016040519081016040528092919081815260200182805461069190612cd9565b80156106de5780601f106106b3576101008083540402835291602001916106de565b820191906000526020600020905b8154815290600101906020018083116106c157829003601f168201915b505050505081526020016001820180546106f790612cd9565b80601f016020809104026020016040519081016040528092919081815260200182805461072390612cd9565b80156107705780601f1061074557610100808354040283529160200191610770565b820191906000526020600020905b81548152906001019060200180831161075357829003601f168201915b5050505050815260200160028201805461078990612cd9565b80601f01602080910402602001604051908101604052809291908181526020018280546107b590612cd9565b80156108025780601f106107d757610100808354040283529160200191610802565b820191906000526020600020905b8154815290600101906020018083116107e557829003601f168201915b505050505081526020016003820160009054906101000a900473ffffffffffffffffffffffffffffffffffffffff1673ffffffffffffffffffffffffffffffffffffffff1673ffffffffffffffffffffffffffffffffffffffff168152505081526020019060010190610632565b50505050905090565b6006818154811061088957600080fd5b90600052602060002090600302016000915090508060000180546108ac90612cd9565b80601f01602080910402602001604051908101604052809291908181526020018280546108d890612cd9565b80156109255780601f106108fa57610100808354040283529160200191610925565b820191906000526020600020905b81548152906001019060200180831161090857829003601f168201915b50505050509080600101805461093a90612cd9565b80601f016020809104026020016040519081016040528092919081815260200182805461096690612cd9565b80156109b35780601f10610988576101008083540402835291602001916109b3565b820191906000526020600020905b81548152906001019060200180831161099657829003601f168201915b5050505050908060020180546109c890612cd9565b80601f01602080910402602001604051908101604052809291908181526020018280546109f490612cd9565b8015610a415780601f10610a1657610100808354040283529160200191610a41565b820191906000526020600020905b815481529060010190602001808311610a2457829003601f168201915b5050505050905083565b60005b600280549050811015610b1b573373ffffffffffffffffffffffffffffffffffffffff1660028281548110610a8657610a85612d0a565b5b906000526020600020906006020160000160009054906101000a900473ffffffffffffffffffffffffffffffffffffffff1673ffffffffffffffffffffffffffffffffffffffff1603610b0e576040517f08c379a0000000000000000000000000000000000000000000000000000000008152600401610b0590612d85565b60405180910390fd5b8080600101915050610a4e565b506000805490508110610b63576040517f08c379a0000000000000000000000000000000000000000000000000000000008152600401610b5a90612df1565b60405180910390fd5b80600360003373ffffffffffffffffffffffffffffffffffffffff1673ffffffffffffffffffffffffffffffffffffffff16815260200190815260200160002081905550606060008281548110610bbd57610bbc612d0a565b5b906000526020600020906004020160030160009054906101000a900473ffffffffffffffffffffffffffffffffffffffff1673ffffffffffffffffffffffffffffffffffffffff163373ffffffffffffffffffffffffffffffffffffffff1603610c5e576040518060400160405280600981526020017f507265736964656e7400000000000000000000000000000000000000000000008152509050610c97565b6040518060400160405280600681526020017f4d656d626572000000000000000000000000000000000000000000000000000081525090505b60006040518060c001604052803373ffffffffffffffffffffffffffffffffffffffff1681526020018681526020018581526020018381526020016000815260200160008152509050600281908060018154018082558091505060019003906000526020600020906006020160009091909190915060008201518160000160006101000a81548173ffffffffffffffffffffffffffffffffffffffff021916908373ffffffffffffffffffffffffffffffffffffffff1602179055506020820151816001019081610d689190612fbd565b50604082015181600201556060820151816003019081610d889190612fbd565b506080820151816004015560a0820151816005015550506004600084815260200190815260200160002081908060018154018082558091505060019003906000526020600020906006020160009091909190915060008201518160000160006101000a81548173ffffffffffffffffffffffffffffffffffffffff021916908373ffffffffffffffffffffffffffffffffffffffff1602179055506020820151816001019081610e389190612fbd565b50604082015181600201556060820151816003019081610e589190612fbd565b506080820151816004015560a0820151816005015550505050505050565b60028181548110610e8657600080fd5b90600052602060002090600602016000915090508060000160009054906101000a900473ffffffffffffffffffffffffffffffffffffffff1690806001018054610ecf90612cd9565b80601f0160208091040260200160405190810160405280929190818152602001828054610efb90612cd9565b8015610f485780601f10610f1d57610100808354040283529160200191610f48565b820191906000526020600020905b815481529060010190602001808311610f2b57829003601f168201915b505050505090806002015490806003018054610f6390612cd9565b80601f0160208091040260200160405190810160405280929190818152602001828054610f8f90612cd9565b8015610fdc5780601f10610fb157610100808354040283529160200191610fdc565b820191906000526020600020905b815481529060010190602001808311610fbf57829003601f168201915b5050505050908060040154908060050154905086565b6001805490508110611039576040517f08c379a0000000000000000000000000000000000000000000000000000000008152600401611030906130db565b60405180910390fd5b60006001828154811061104f5761104e612d0a565b5b906000526020600020906004020190806001815401808255809150506001900390600052602060002090600402016000909190919091506000820181600001908161109a9190613111565b50600182018160010190816110af9190613111565b50600282018160020190816110c49190613111565b506003820160009054906101000a900473ffffffffffffffffffffffffffffffffffffffff168160030160006101000a81548173ffffffffffffffffffffffffffffffffffffffff021916908373ffffffffffffffffffffffffffffffffffffffff16021790555050506001808054905061113f9190613228565b81146112425760018080805490506111579190613228565b8154811061116857611167612d0a565b5b90600052602060002090600402016001828154811061118a57611189612d0a565b5b9060005260206000209060040201600082018160000190816111ac9190613111565b50600182018160010190816111c19190613111565b50600282018160020190816111d69190613111565b506003820160009054906101000a900473ffffffffffffffffffffffffffffffffffffffff168160030160006101000a81548173ffffffffffffffffffffffffffffffffffffffff021916908373ffffffffffffffffffffffffffffffffffffffff1602179055509050505b60018054806112545761125361325c565b5b60019003818190600052602060002090600402016000808201600061127991906123bb565b60018201600061128991906123bb565b60028201600061129991906123bb565b6003820160006101000a81549073ffffffffffffffffffffffffffffffffffffffff02191690555050905550565b60606000805480602002602001604051908101604052809291908181526020016000905b82821015611529578382906000526020600020906004020160405180608001604052908160008201805461131e90612cd9565b80601f016020809104026020016040519081016040528092919081815260200182805461134a90612cd9565b80156113975780601f1061136c57610100808354040283529160200191611397565b820191906000526020600020905b81548152906001019060200180831161137a57829003601f168201915b505050505081526020016001820180546113b090612cd9565b80601f01602080910402602001604051908101604052809291908181526020018280546113dc90612cd9565b80156114295780601f106113fe57610100808354040283529160200191611429565b820191906000526020600020905b81548152906001019060200180831161140c57829003601f168201915b5050505050815260200160028201805461144290612cd9565b80601f016020809104026020016040519081016040528092919081815260200182805461146e90612cd9565b80156114bb5780601f10611490576101008083540402835291602001916114bb565b820191906000526020600020905b81548152906001019060200180831161149e57829003601f168201915b505050505081526020016003820160009054906101000a900473ffffffffffffffffffffffffffffffffffffffff1673ffffffffffffffffffffffffffffffffffffffff1673ffffffffffffffffffffffffffffffffffffffff1681525050815260200190600101906112eb565b50505050905090565b6000806000600560009054906101000a900473ffffffffffffffffffffffffffffffffffffffff1673ffffffffffffffffffffffffffffffffffffffff163373ffffffffffffffffffffffffffffffffffffffff16146115c7576040517f08c379a00000000000000000000000000000000000000000000000000000000081526004016115be90613323565b60405180910390fd5b600080549050600280549050600180549050925092509250909192565b6000806000806000905060008060008060005b600280549050811015611724573373ffffffffffffffffffffffffffffffffffffffff166002828154811061162f5761162e612d0a565b5b906000526020600020906006020160000160009054906101000a900473ffffffffffffffffffffffffffffffffffffffff1673ffffffffffffffffffffffffffffffffffffffff160361171757600192506002818154811061169457611693612d0a565b5b9060005260206000209060060201600401549550600281815481106116bc576116bb612d0a565b5b9060005260206000209060060201600501549450600360003373ffffffffffffffffffffffffffffffffffffffff1673ffffffffffffffffffffffffffffffffffffffff168152602001908152602001600020549150611724565b80806001019150506115f7565b5081611765576040517f08c379a000000000000000000000000000000000000000000000000000000000815260040161175c906133b5565b60405180910390fd5b600060046000838152602001908152602001600020805480602002602001604051908101604052809291908181526020016000905b8282101561196457838290600052602060002090600602016040518060c00160405290816000820160009054906101000a900473ffffffffffffffffffffffffffffffffffffffff1673ffffffffffffffffffffffffffffffffffffffff1673ffffffffffffffffffffffffffffffffffffffff16815260200160018201805461182390612cd9565b80601f016020809104026020016040519081016040528092919081815260200182805461184f90612cd9565b801561189c5780601f106118715761010080835404028352916020019161189c565b820191906000526020600020905b81548152906001019060200180831161187f57829003601f168201915b50505050508152602001600282015481526020016003820180546118bf90612cd9565b80601f01602080910402602001604051908101604052809291908181526020018280546118eb90612cd9565b80156119385780601f1061190d57610100808354040283529160200191611938565b820191906000526020600020905b81548152906001019060200180831161191b57829003601f168201915b50505050508152602001600482015481526020016005820154815250508152602001906001019061179a565b50505050905060005b81518110156119af5781818151811061198957611988612d0a565b5b602002602001015160800151856119a091906133d5565b9450808060010191505061196d565b50858585985098509850505050505050909192565b60003411611a07576040517f08c379a00000000000000000000000000000000000000000000000000000000081526004016119fe90613455565b60405180910390fd5b60005b600280549050811015611add573373ffffffffffffffffffffffffffffffffffffffff1660028281548110611a4257611a41612d0a565b5b906000526020600020906006020160000160009054906101000a900473ffffffffffffffffffffffffffffffffffffffff1673ffffffffffffffffffffffffffffffffffffffff1603611ad0573460028281548110611aa457611aa3612d0a565b5b90600052602060002090600602016005016000828254611ac49190613228565b92505081905550611add565b8080600101915050611a0a565b50565b60008181548110611af057600080fd5b9060005260206000209060040201600091509050806000018054611b1390612cd9565b80601f0160208091040260200160405190810160405280929190818152602001828054611b3f90612cd9565b8015611b8c5780601f10611b6157610100808354040283529160200191611b8c565b820191906000526020600020905b815481529060010190602001808311611b6f57829003601f168201915b505050505090806001018054611ba190612cd9565b80601f0160208091040260200160405190810160405280929190818152602001828054611bcd90612cd9565b8015611c1a5780601f10611bef57610100808354040283529160200191611c1a565b820191906000526020600020905b815481529060010190602001808311611bfd57829003601f168201915b505050505090806002018054611c2f90612cd9565b80601f0160208091040260200160405190810160405280929190818152602001828054611c5b90612cd9565b8015611ca85780601f10611c7d57610100808354040283529160200191611ca8565b820191906000526020600020905b815481529060010190602001808311611c8b57829003601f168201915b5050505050908060030160009054906101000a900473ffffffffffffffffffffffffffffffffffffffff16905084565b600160405180608001604052808581526020018481526020018381526020013373ffffffffffffffffffffffffffffffffffffffff1681525090806001815401808255809150506001900390600052602060002090600402016000909190919091506000820151816000019081611d4f9190612fbd565b506020820151816001019081611d659190612fbd565b506040820151816002019081611d7b9190612fbd565b5060608201518160030160006101000a81548173ffffffffffffffffffffffffffffffffffffffff021916908373ffffffffffffffffffffffffffffffffffffffff1602179055505050505050565b60003411611e0d576040517f08c379a0000000000000000000000000000000000000000000000000000000008152600401611e0490613455565b60405180910390fd5b60005b600280549050811015611ee3573373ffffffffffffffffffffffffffffffffffffffff1660028281548110611e4857611e47612d0a565b5b906000526020600020906006020160000160009054906101000a900473ffffffffffffffffffffffffffffffffffffffff1673ffffffffffffffffffffffffffffffffffffffff1603611ed6573460028281548110611eaa57611ea9612d0a565b5b90600052602060002090600602016004016000828254611eca91906133d5565b92505081905550611ee3565b8080600101915050611e10565b50565b60036020528060005260406000206000915090505481565b60606006805480602002602001604051908101604052809291908181526020016000905b8282101561210a5783829060005260206000209060030201604051806060016040529081600082018054611f5590612cd9565b80601f0160208091040260200160405190810160405280929190818152602001828054611f8190612cd9565b8015611fce5780601f10611fa357610100808354040283529160200191611fce565b820191906000526020600020905b815481529060010190602001808311611fb157829003601f168201915b50505050508152602001600182018054611fe790612cd9565b80601f016020809104026020016040519081016040528092919081815260200182805461201390612cd9565b80156120605780601f1061203557610100808354040283529160200191612060565b820191906000526020600020905b81548152906001019060200180831161204357829003601f168201915b5050505050815260200160028201805461207990612cd9565b80601f01602080910402602001604051908101604052809291908181526020018280546120a590612cd9565b80156120f25780601f106120c7576101008083540402835291602001916120f2565b820191906000526020600020905b8154815290600101906020018083116120d557829003601f168201915b50505050508152505081526020019060010190611f22565b50505050905090565b600560009054906101000a900473ffffffffffffffffffffffffffffffffffffffff1673ffffffffffffffffffffffffffffffffffffffff163373ffffffffffffffffffffffffffffffffffffffff16146121a3576040517f08c379a000000000000000000000000000000000000000000000000000000000815260040161219a906134e7565b60405180910390fd5b6006604051806060016040528085815260200184815260200183815250908060018154018082558091505060019003906000526020600020906003020160009091909190915060008201518160000190816121fe9190612fbd565b5060208201518160010190816122149190612fbd565b50604082015181600201908161222a9190612fbd565b505050505050565b6004602052816000526040600020818154811061224e57600080fd5b9060005260206000209060060201600091509150508060000160009054906101000a900473ffffffffffffffffffffffffffffffffffffffff169080600101805461229890612cd9565b80601f01602080910402602001604051908101604052809291908181526020018280546122c490612cd9565b80156123115780601f106122e657610100808354040283529160200191612311565b820191906000526020600020905b8154815290600101906020018083116122f457829003601f168201915b50505050509080600201549080600301805461232c90612cd9565b80601f016020809104026020016040519081016040528092919081815260200182805461235890612cd9565b80156123a55780601f1061237a576101008083540402835291602001916123a5565b820191906000526020600020905b81548152906001019060200180831161238857829003601f168201915b5050505050908060040154908060050154905086565b5080546123c790612cd9565b6000825580601f106123d957506123f8565b601f0160209004906000526020600020908101906123f791906123fb565b5b50565b5b808211156124145760008160009055506001016123fc565b5090565b6000604051905090565b600080fd5b600080fd5b6000819050919050565b61243f8161242c565b811461244a57600080fd5b50565b60008135905061245c81612436565b92915050565b60006020828403121561247857612477612422565b5b60006124868482850161244d565b91505092915050565b600081519050919050565b600082825260208201905092915050565b60005b838110156124c95780820151818401526020810190506124ae565b60008484015250505050565b6000601f19601f8301169050919050565b60006124f18261248f565b6124fb818561249a565b935061250b8185602086016124ab565b612514816124d5565b840191505092915050565b600073ffffffffffffffffffffffffffffffffffffffff82169050919050565b600061254a8261251f565b9050919050565b61255a8161253f565b82525050565b6000608082019050818103600083015261257a81876124e6565b9050818103602083015261258e81866124e6565b905081810360408301526125a281856124e6565b90506125b16060830184612551565b95945050505050565b600081519050919050565b600082825260208201905092915050565b6000819050602082019050919050565b600082825260208201905092915050565b60006126028261248f565b61260c81856125e6565b935061261c8185602086016124ab565b612625816124d5565b840191505092915050565b6126398161253f565b82525050565b6000608083016000830151848203600086015261265c82826125f7565b9150506020830151848203602086015261267682826125f7565b9150506040830151848203604086015261269082826125f7565b91505060608301516126a56060860182612630565b508091505092915050565b60006126bc838361263f565b905092915050565b6000602082019050919050565b60006126dc826125ba565b6126e681856125c5565b9350836020820285016126f8856125d6565b8060005b85811015612734578484038952815161271585826126b0565b9450612720836126c4565b925060208a019950506001810190506126fc565b50829750879550505050505092915050565b6000602082019050818103600083015261276081846126d1565b905092915050565b6000606082019050818103600083015261278281866124e6565b9050818103602083015261279681856124e6565b905081810360408301526127aa81846124e6565b9050949350505050565b600080fd5b600080fd5b7f4e487b7100000000000000000000000000000000000000000000000000000000600052604160045260246000fd5b6127f6826124d5565b810181811067ffffffffffffffff82111715612815576128146127be565b5b80604052505050565b6000612828612418565b905061283482826127ed565b919050565b600067ffffffffffffffff821115612854576128536127be565b5b61285d826124d5565b9050602081019050919050565b82818337600083830152505050565b600061288c61288784612839565b61281e565b9050828152602081018484840111156128a8576128a76127b9565b5b6128b384828561286a565b509392505050565b600082601f8301126128d0576128cf6127b4565b5b81356128e0848260208601612879565b91505092915050565b60008060006060848603121561290257612901612422565b5b600084013567ffffffffffffffff8111156129205761291f612427565b5b61292c868287016128bb565b935050602061293d8682870161244d565b925050604061294e8682870161244d565b9150509250925092565b6129618161242c565b82525050565b600060c08201905061297c6000830189612551565b818103602083015261298e81886124e6565b905061299d6040830187612958565b81810360608301526129af81866124e6565b90506129be6080830185612958565b6129cb60a0830184612958565b979650505050505050565b60006060820190506129eb6000830186612958565b6129f86020830185612958565b612a056040830184612958565b949350505050565b600080600060608486031215612a2657612a25612422565b5b600084013567ffffffffffffffff811115612a4457612a43612427565b5b612a50868287016128bb565b935050602084013567ffffffffffffffff811115612a7157612a70612427565b5b612a7d868287016128bb565b925050604084013567ffffffffffffffff811115612a9e57612a9d612427565b5b612aaa868287016128bb565b9150509250925092565b612abd8161253f565b8114612ac857600080fd5b50565b600081359050612ada81612ab4565b92915050565b600060208284031215612af657612af5612422565b5b6000612b0484828501612acb565b91505092915050565b6000602082019050612b226000830184612958565b92915050565b600081519050919050565b600082825260208201905092915050565b6000819050602082019050919050565b60006060830160008301518482036000860152612b7182826125f7565b91505060208301518482036020860152612b8b82826125f7565b91505060408301518482036040860152612ba582826125f7565b9150508091505092915050565b6000612bbe8383612b54565b905092915050565b6000602082019050919050565b6000612bde82612b28565b612be88185612b33565b935083602082028501612bfa85612b44565b8060005b85811015612c365784840389528151612c178582612bb2565b9450612c2283612bc6565b925060208a01995050600181019050612bfe565b50829750879550505050505092915050565b60006020820190508181036000830152612c628184612bd3565b905092915050565b60008060408385031215612c8157612c80612422565b5b6000612c8f8582860161244d565b9250506020612ca08582860161244d565b9150509250929050565b7f4e487b7100000000000000000000000000000000000000000000000000000000600052602260045260246000fd5b60006002820490506001821680612cf157607f821691505b602082108103612d0457612d03612caa565b5b50919050565b7f4e487b7100000000000000000000000000000000000000000000000000000000600052603260045260246000fd5b7f4d656d62657220616c7265616479207265676973746572656400000000000000600082015250565b6000612d6f60198361249a565b9150612d7a82612d39565b602082019050919050565b60006020820190508181036000830152612d9e81612d62565b9050919050565b7f496e76616c69642053484720696e646578000000000000000000000000000000600082015250565b6000612ddb60118361249a565b9150612de682612da5565b602082019050919050565b60006020820190508181036000830152612e0a81612dce565b9050919050565b60008190508160005260206000209050919050565b60006020601f8301049050919050565b600082821b905092915050565b600060088302612e737fffffffffffffffffffffffffffffffffffffffffffffffffffffffffffffffff82612e36565b612e7d8683612e36565b95508019841693508086168417925050509392505050565b6000819050919050565b6000612eba612eb5612eb08461242c565b612e95565b61242c565b9050919050565b6000819050919050565b612ed483612e9f565b612ee8612ee082612ec1565b848454612e43565b825550505050565b600090565b612efd612ef0565b612f08818484612ecb565b505050565b5b81811015612f2c57612f21600082612ef5565b600181019050612f0e565b5050565b601f821115612f7157612f4281612e11565b612f4b84612e26565b81016020851015612f5a578190505b612f6e612f6685612e26565b830182612f0d565b50505b505050565b600082821c905092915050565b6000612f9460001984600802612f76565b1980831691505092915050565b6000612fad8383612f83565b9150826002028217905092915050565b612fc68261248f565b67ffffffffffffffff811115612fdf57612fde6127be565b5b612fe98254612cd9565b612ff4828285612f30565b600060209050601f8311600181146130275760008415613015578287015190505b61301f8582612fa1565b865550613087565b601f19841661303586612e11565b60005b8281101561305d57848901518255600182019150602085019450602081019050613038565b8683101561307a5784890151613076601f891682612f83565b8355505b6001600288020188555050505b505050505050565b7f496e76616c696420696e64657800000000000000000000000000000000000000600082015250565b60006130c5600d8361249a565b91506130d08261308f565b602082019050919050565b600060208201905081810360008301526130f4816130b8565b9050919050565b60008154905061310a81612cd9565b9050919050565b81810361311f5750506131f7565b613128826130fb565b67ffffffffffffffff811115613141576131406127be565b5b61314b8254612cd9565b613156828285612f30565b6000601f8311600181146131855760008415613173578287015490505b61317d8582612fa1565b8655506131f0565b601f19841661319387612e11565b965061319e86612e11565b60005b828110156131c6578489015482556001820191506001850194506020810190506131a1565b868310156131e357848901546131df601f891682612f83565b8355505b6001600288020188555050505b5050505050505b565b7f4e487b7100000000000000000000000000000000000000000000000000000000600052601160045260246000fd5b60006132338261242c565b915061323e8361242c565b9250828203905081811115613256576132556131f9565b5b92915050565b7f4e487b7100000000000000000000000000000000000000000000000000000000600052603160045260246000fd5b7f496e76616c696420617574686f72697a6174696f6e2c204f6e6c79204344532060008201527f41646d696e2063616e2061636365737320746869732064617368626f6172642160208201527f2121000000000000000000000000000000000000000000000000000000000000604082015250565b600061330d60428361249a565b91506133188261328b565b606082019050919050565b6000602082019050818103600083015261333c81613300565b9050919050565b7f43616c6c6572206973206e6f7420612072656769737465726564206d656d626560008201527f7200000000000000000000000000000000000000000000000000000000000000602082015250565b600061339f60218361249a565b91506133aa82613343565b604082019050919050565b600060208201905081810360008301526133ce81613392565b9050919050565b60006133e08261242c565b91506133eb8361242c565b9250828201905080821115613403576134026131f9565b5b92915050565b7f4e6f2076616c75652073656e7400000000000000000000000000000000000000600082015250565b600061343f600d8361249a565b915061344a82613409565b602082019050919050565b6000602082019050818103600083015261346e81613432565b9050919050565b7f4f6e6c79204344532041646d696e2063616e20637265617465206e6f7469666960008201527f636174696f6e2100000000000000000000000000000000000000000000000000602082015250565b60006134d160278361249a565b91506134dc82613475565b604082019050919050565b60006020820190508181036000830152613500816134c4565b905091905056fea2646970667358221220b1eb45633afad5a4a12a48b056c3dbc88ecaa7807448601994e4e5ef0e2694c964736f6c63430008180033",
  "linkReferences": {},
  "deployedLinkReferences": {}
}