{
  "_format": "hh-sol-artifact-1",
  "contractName": "DK",
  "address": "0x28ef2e3ebd597e5cea3683586F92a7376F01D015",
  "sourceName": "contracts/DK.sol",
  "abi": [
    {
      "inputs": [],
      "stateMutability": "nonpayable",
      "type": "constructor"
    },
    {
      "anonymous": false,
      "inputs": [
        {
          "indexed": false,
          "internalType": "string",
          "name": "name",
          "type": "string"
        }
      ],
      "name": "NewPresidentAssigned",
      "type": "event"
    },
    {
      "inputs": [
        {
          "internalType": "uint256",
          "name": "",
          "type": "uint256"
        },
        {
          "internalType": "uint256",
          "name": "",
          "type": "uint256"
        }
      ],
      "name": "SHGToMember",
      "outputs": [
        {
          "internalType": "address",
          "name": "memaddress",
          "type": "address"
        },
        {
          "internalType": "string",
          "name": "name",
          "type": "string"
        },
        {
          "internalType": "uint256",
          "name": "aadhaar",
          "type": "uint256"
        },
        {
          "internalType": "string",
          "name": "desig",
          "type": "string"
        },
        {
          "internalType": "uint256",
          "name": "balance",
          "type": "uint256"
        },
        {
          "internalType": "uint256",
          "name": "loan",
          "type": "uint256"
        }
      ],
      "stateMutability": "view",
      "type": "function"
    },
    {
      "inputs": [
        {
          "internalType": "uint256",
          "name": "shgIndex",
          "type": "uint256"
        }
      ],
      "name": "allMembersHaveVoted",
      "outputs": [
        {
          "internalType": "bool",
          "name": "",
          "type": "bool"
        }
      ],
      "stateMutability": "view",
      "type": "function"
    },
    {
      "inputs": [
        {
          "internalType": "uint256",
          "name": "index",
          "type": "uint256"
        }
      ],
      "name": "approveSHG",
      "outputs": [],
      "stateMutability": "nonpayable",
      "type": "function"
    },
    {
      "inputs": [
        {
          "internalType": "uint256",
          "name": "",
          "type": "uint256"
        }
      ],
      "name": "approvedSHGs",
      "outputs": [
        {
          "internalType": "string",
          "name": "name",
          "type": "string"
        },
        {
          "internalType": "string",
          "name": "applicant",
          "type": "string"
        },
        {
          "internalType": "string",
          "name": "location",
          "type": "string"
        },
        {
          "internalType": "address",
          "name": "applicant_address",
          "type": "address"
        },
        {
          "internalType": "uint256",
          "name": "SHGRegisterTime",
          "type": "uint256"
        }
      ],
      "stateMutability": "view",
      "type": "function"
    },
    {
      "inputs": [
        {
          "internalType": "uint256",
          "name": "shgIndex",
          "type": "uint256"
        }
      ],
      "name": "assignNewPresident",
      "outputs": [],
      "stateMutability": "nonpayable",
      "type": "function"
    },
    {
      "inputs": [],
      "name": "cdsdash",
      "outputs": [
        {
          "internalType": "uint256",
          "name": "",
          "type": "uint256"
        },
        {
          "internalType": "uint256",
          "name": "",
          "type": "uint256"
        },
        {
          "internalType": "uint256",
          "name": "",
          "type": "uint256"
        }
      ],
      "stateMutability": "view",
      "type": "function"
    },
    {
      "inputs": [],
      "name": "checkPresidentTenureOver",
      "outputs": [
        {
          "internalType": "bool",
          "name": "",
          "type": "bool"
        }
      ],
      "stateMutability": "view",
      "type": "function"
    },
    {
      "inputs": [
        {
          "internalType": "uint256",
          "name": "_index",
          "type": "uint256"
        }
      ],
      "name": "claimVote",
      "outputs": [],
      "stateMutability": "nonpayable",
      "type": "function"
    },
    {
      "inputs": [
        {
          "internalType": "string",
          "name": "_agenta",
          "type": "string"
        },
        {
          "internalType": "string",
          "name": "_link",
          "type": "string"
        },
        {
          "internalType": "string",
          "name": "_time",
          "type": "string"
        },
        {
          "internalType": "string",
          "name": "_date",
          "type": "string"
        },
        {
          "internalType": "bool",
          "name": "_isSet",
          "type": "bool"
        }
      ],
      "name": "createMeet",
      "outputs": [],
      "stateMutability": "nonpayable",
      "type": "function"
    },
    {
      "inputs": [
        {
          "internalType": "string",
          "name": "_title",
          "type": "string"
        },
        {
          "internalType": "string",
          "name": "_desc",
          "type": "string"
        },
        {
          "internalType": "string",
          "name": "_link",
          "type": "string"
        }
      ],
      "name": "createNotification",
      "outputs": [],
      "stateMutability": "nonpayable",
      "type": "function"
    },
    {
      "inputs": [
        {
          "internalType": "string",
          "name": "_name",
          "type": "string"
        },
        {
          "internalType": "string",
          "name": "_applicant",
          "type": "string"
        },
        {
          "internalType": "string",
          "name": "_location",
          "type": "string"
        }
      ],
      "name": "createSHG",
      "outputs": [],
      "stateMutability": "nonpayable",
      "type": "function"
    },
    {
      "inputs": [
        {
          "internalType": "uint256",
          "name": "_amount",
          "type": "uint256"
        }
      ],
      "name": "createloan",
      "outputs": [],
      "stateMutability": "nonpayable",
      "type": "function"
    },
    {
      "inputs": [],
      "name": "getApprovedSHGs",
      "outputs": [
        {
          "components": [
            {
              "internalType": "string",
              "name": "name",
              "type": "string"
            },
            {
              "internalType": "string",
              "name": "applicant",
              "type": "string"
            },
            {
              "internalType": "string",
              "name": "location",
              "type": "string"
            },
            {
              "internalType": "address",
              "name": "applicant_address",
              "type": "address"
            },
            {
              "internalType": "uint256",
              "name": "SHGRegisterTime",
              "type": "uint256"
            }
          ],
          "internalType": "struct DK.SHG[]",
          "name": "",
          "type": "tuple[]"
        }
      ],
      "stateMutability": "view",
      "type": "function"
    },
    {
      "inputs": [],
      "name": "getContractBalance",
      "outputs": [
        {
          "internalType": "uint256",
          "name": "",
          "type": "uint256"
        }
      ],
      "stateMutability": "view",
      "type": "function"
    },
    {
      "inputs": [],
      "name": "getMembers",
      "outputs": [
        {
          "components": [
            {
              "internalType": "address",
              "name": "memaddress",
              "type": "address"
            },
            {
              "internalType": "string",
              "name": "name",
              "type": "string"
            },
            {
              "internalType": "uint256",
              "name": "aadhaar",
              "type": "uint256"
            },
            {
              "internalType": "string",
              "name": "desig",
              "type": "string"
            },
            {
              "internalType": "uint256",
              "name": "balance",
              "type": "uint256"
            },
            {
              "internalType": "uint256",
              "name": "loan",
              "type": "uint256"
            }
          ],
          "internalType": "struct DK.Member[]",
          "name": "",
          "type": "tuple[]"
        }
      ],
      "stateMutability": "view",
      "type": "function"
    },
    {
      "inputs": [],
      "name": "getNotifications",
      "outputs": [
        {
          "components": [
            {
              "internalType": "string",
              "name": "title",
              "type": "string"
            },
            {
              "internalType": "string",
              "name": "desc",
              "type": "string"
            },
            {
              "internalType": "string",
              "name": "link",
              "type": "string"
            }
          ],
          "internalType": "struct DK.Notification[]",
          "name": "",
          "type": "tuple[]"
        }
      ],
      "stateMutability": "view",
      "type": "function"
    },
    {
      "inputs": [],
      "name": "getNumberOfMembersInSHG",
      "outputs": [
        {
          "internalType": "uint256",
          "name": "",
          "type": "uint256"
        }
      ],
      "stateMutability": "view",
      "type": "function"
    },
    {
      "inputs": [],
      "name": "getPendingSHGs",
      "outputs": [
        {
          "components": [
            {
              "internalType": "string",
              "name": "name",
              "type": "string"
            },
            {
              "internalType": "string",
              "name": "applicant",
              "type": "string"
            },
            {
              "internalType": "string",
              "name": "location",
              "type": "string"
            },
            {
              "internalType": "address",
              "name": "applicant_address",
              "type": "address"
            },
            {
              "internalType": "uint256",
              "name": "SHGRegisterTime",
              "type": "uint256"
            }
          ],
          "internalType": "struct DK.SHG[]",
          "name": "",
          "type": "tuple[]"
        }
      ],
      "stateMutability": "view",
      "type": "function"
    },
    {
      "inputs": [
        {
          "internalType": "uint256",
          "name": "",
          "type": "uint256"
        },
        {
          "internalType": "address",
          "name": "",
          "type": "address"
        }
      ],
      "name": "hasVoted",
      "outputs": [
        {
          "internalType": "bool",
          "name": "",
          "type": "bool"
        }
      ],
      "stateMutability": "view",
      "type": "function"
    },
    {
      "inputs": [
        {
          "internalType": "uint256",
          "name": "",
          "type": "uint256"
        },
        {
          "internalType": "address",
          "name": "",
          "type": "address"
        }
      ],
      "name": "hasVotedForNominee",
      "outputs": [
        {
          "internalType": "bool",
          "name": "",
          "type": "bool"
        }
      ],
      "stateMutability": "view",
      "type": "function"
    },
    {
      "inputs": [],
      "name": "loanPay",
      "outputs": [],
      "stateMutability": "payable",
      "type": "function"
    },
    {
      "inputs": [
        {
          "internalType": "string",
          "name": "_name",
          "type": "string"
        },
        {
          "internalType": "uint256",
          "name": "_aadhar",
          "type": "uint256"
        },
        {
          "internalType": "uint256",
          "name": "SHGindex",
          "type": "uint256"
        }
      ],
      "name": "memRegandJoin",
      "outputs": [],
      "stateMutability": "nonpayable",
      "type": "function"
    },
    {
      "inputs": [
        {
          "internalType": "address",
          "name": "",
          "type": "address"
        }
      ],
      "name": "memberToSHGIndex",
      "outputs": [
        {
          "internalType": "uint256",
          "name": "",
          "type": "uint256"
        }
      ],
      "stateMutability": "view",
      "type": "function"
    },
    {
      "inputs": [
        {
          "internalType": "uint256",
          "name": "",
          "type": "uint256"
        }
      ],
      "name": "members",
      "outputs": [
        {
          "internalType": "address",
          "name": "memaddress",
          "type": "address"
        },
        {
          "internalType": "string",
          "name": "name",
          "type": "string"
        },
        {
          "internalType": "uint256",
          "name": "aadhaar",
          "type": "uint256"
        },
        {
          "internalType": "string",
          "name": "desig",
          "type": "string"
        },
        {
          "internalType": "uint256",
          "name": "balance",
          "type": "uint256"
        },
        {
          "internalType": "uint256",
          "name": "loan",
          "type": "uint256"
        }
      ],
      "stateMutability": "view",
      "type": "function"
    },
    {
      "inputs": [],
      "name": "memdash",
      "outputs": [
        {
          "internalType": "uint256",
          "name": "",
          "type": "uint256"
        },
        {
          "internalType": "uint256",
          "name": "",
          "type": "uint256"
        },
        {
          "internalType": "uint256",
          "name": "",
          "type": "uint256"
        }
      ],
      "stateMutability": "view",
      "type": "function"
    },
    {
      "inputs": [
        {
          "internalType": "uint256",
          "name": "",
          "type": "uint256"
        }
      ],
      "name": "n",
      "outputs": [
        {
          "internalType": "string",
          "name": "title",
          "type": "string"
        },
        {
          "internalType": "string",
          "name": "desc",
          "type": "string"
        },
        {
          "internalType": "string",
          "name": "link",
          "type": "string"
        }
      ],
      "stateMutability": "view",
      "type": "function"
    },
    {
      "inputs": [],
      "name": "nominatePresident",
      "outputs": [],
      "stateMutability": "nonpayable",
      "type": "function"
    },
    {
      "inputs": [
        {
          "internalType": "uint256",
          "name": "",
          "type": "uint256"
        }
      ],
      "name": "pendingSHGs",
      "outputs": [
        {
          "internalType": "string",
          "name": "name",
          "type": "string"
        },
        {
          "internalType": "string",
          "name": "applicant",
          "type": "string"
        },
        {
          "internalType": "string",
          "name": "location",
          "type": "string"
        },
        {
          "internalType": "address",
          "name": "applicant_address",
          "type": "address"
        },
        {
          "internalType": "uint256",
          "name": "SHGRegisterTime",
          "type": "uint256"
        }
      ],
      "stateMutability": "view",
      "type": "function"
    },
    {
      "inputs": [
        {
          "internalType": "uint256",
          "name": "",
          "type": "uint256"
        },
        {
          "internalType": "uint256",
          "name": "",
          "type": "uint256"
        }
      ],
      "name": "shgIndexToLoan",
      "outputs": [
        {
          "internalType": "address payable",
          "name": "applicant_add",
          "type": "address"
        },
        {
          "internalType": "string",
          "name": "applicant_name",
          "type": "string"
        },
        {
          "internalType": "uint256",
          "name": "amount",
          "type": "uint256"
        },
        {
          "internalType": "uint256",
          "name": "yesCount",
          "type": "uint256"
        },
        {
          "internalType": "bool",
          "name": "completed",
          "type": "bool"
        },
        {
          "internalType": "bool",
          "name": "claimed",
          "type": "bool"
        },
        {
          "internalType": "uint256",
          "name": "startTime",
          "type": "uint256"
        }
      ],
      "stateMutability": "view",
      "type": "function"
    },
    {
      "inputs": [
        {
          "internalType": "uint256",
          "name": "",
          "type": "uint256"
        },
        {
          "internalType": "address",
          "name": "",
          "type": "address"
        }
      ],
      "name": "shgNominations",
      "outputs": [
        {
          "internalType": "address",
          "name": "nominee",
          "type": "address"
        },
        {
          "internalType": "string",
          "name": "name",
          "type": "string"
        },
        {
          "internalType": "uint256",
          "name": "timestamp",
          "type": "uint256"
        },
        {
          "internalType": "uint256",
          "name": "supportCount",
          "type": "uint256"
        }
      ],
      "stateMutability": "view",
      "type": "function"
    },
    {
      "inputs": [
        {
          "internalType": "uint256",
          "name": "",
          "type": "uint256"
        }
      ],
      "name": "shgToMeet",
      "outputs": [
        {
          "internalType": "string",
          "name": "agenda",
          "type": "string"
        },
        {
          "internalType": "string",
          "name": "link",
          "type": "string"
        },
        {
          "internalType": "string",
          "name": "time",
          "type": "string"
        },
        {
          "internalType": "string",
          "name": "date",
          "type": "string"
        },
        {
          "internalType": "bool",
          "name": "isSet",
          "type": "bool"
        }
      ],
      "stateMutability": "view",
      "type": "function"
    },
    {
      "inputs": [],
      "name": "viewMeet",
      "outputs": [
        {
          "components": [
            {
              "internalType": "string",
              "name": "agenda",
              "type": "string"
            },
            {
              "internalType": "string",
              "name": "link",
              "type": "string"
            },
            {
              "internalType": "string",
              "name": "time",
              "type": "string"
            },
            {
              "internalType": "string",
              "name": "date",
              "type": "string"
            },
            {
              "internalType": "bool",
              "name": "isSet",
              "type": "bool"
            }
          ],
          "internalType": "struct DK.Meet",
          "name": "meet",
          "type": "tuple"
        }
      ],
      "stateMutability": "view",
      "type": "function"
    },
    {
      "inputs": [],
      "name": "viewNominations",
      "outputs": [
        {
          "components": [
            {
              "internalType": "address",
              "name": "nominee",
              "type": "address"
            },
            {
              "internalType": "string",
              "name": "name",
              "type": "string"
            },
            {
              "internalType": "uint256",
              "name": "timestamp",
              "type": "uint256"
            },
            {
              "internalType": "uint256",
              "name": "supportCount",
              "type": "uint256"
            }
          ],
          "internalType": "struct DK.Nomination[]",
          "name": "",
          "type": "tuple[]"
        }
      ],
      "stateMutability": "view",
      "type": "function"
    },
    {
      "inputs": [],
      "name": "viewloan",
      "outputs": [
        {
          "components": [
            {
              "internalType": "address payable",
              "name": "applicant_add",
              "type": "address"
            },
            {
              "internalType": "string",
              "name": "applicant_name",
              "type": "string"
            },
            {
              "internalType": "uint256",
              "name": "amount",
              "type": "uint256"
            },
            {
              "internalType": "uint256",
              "name": "yesCount",
              "type": "uint256"
            },
            {
              "internalType": "bool",
              "name": "completed",
              "type": "bool"
            },
            {
              "internalType": "bool",
              "name": "claimed",
              "type": "bool"
            },
            {
              "internalType": "uint256",
              "name": "startTime",
              "type": "uint256"
            }
          ],
          "internalType": "struct DK.Loanvote[]",
          "name": "",
          "type": "tuple[]"
        }
      ],
      "stateMutability": "view",
      "type": "function"
    },
    {
      "inputs": [
        {
          "internalType": "uint256",
          "name": "_index",
          "type": "uint256"
        }
      ],
      "name": "vote",
      "outputs": [],
      "stateMutability": "nonpayable",
      "type": "function"
    },
    {
      "inputs": [
        {
          "internalType": "address",
          "name": "nominee",
          "type": "address"
        }
      ],
      "name": "voteNominee",
      "outputs": [],
      "stateMutability": "nonpayable",
      "type": "function"
    },
    {
      "inputs": [],
      "name": "weeklyPay",
      "outputs": [],
      "stateMutability": "payable",
      "type": "function"
    }
  ],
  "bytecode": "0x608060405234801561001057600080fd5b50600580546001600160a01b03191633179055614e3f806100326000396000f3fe60806040526004361061021a5760003560e01c80638a957a6d11610123578063b7ea07a9116100ab578063e11ed6e91161006f578063e11ed6e914610690578063eca6e1ae146106cb578063f11021a2146106e0578063f8571c96146106f5578063ff78c7e31461071557600080fd5b8063b7ea07a9146105f7578063cc5870e414610619578063cde2342414610621578063cf48bd2c1461064e578063cf71355b1461067057600080fd5b8063a3a4333b116100f2578063a3a4333b14610534578063a64fc4ec14610554578063a6ef2b5c14610584578063b40ebaaf146105a4578063b515e12c146105c457600080fd5b80638a957a6d146104ca57806391e5c024146104ea5780639eab52531461050a578063a2bc7eb41461052c57600080fd5b806343859632116101a65780636f9fb98a116101755780636f9fb98a146104315780637c276e291461044e5780637c3d483e146104705780638881aba4146104855780638916eee3146104b557600080fd5b8063438596321461038257806354736af1146103bd5780635daf08ca146103df5780636005fec61461041157600080fd5b80631cd9ad7b116101ed5780631cd9ad7b146102bd5780632495b5fc146102ed5780632d22f7fb1461031c57806330edbbaa1461033c5780633296fd341461036d57600080fd5b80630121b93f1461021f5780630e16199d146102415780631436e435146102615780631514e44b1461029b575b600080fd5b34801561022b57600080fd5b5061023f61023a366004614126565b610735565b005b34801561024d57600080fd5b5061023f61025c366004614126565b6108d7565b34801561026d57600080fd5b5061028161027c366004614126565b610ad8565b604051610292959493929190614185565b60405180910390f35b3480156102a757600080fd5b506102b0610cc0565b60405161029291906141dc565b3480156102c957600080fd5b506102dd6102d8366004614126565b610ef8565b6040519015158152602001610292565b3480156102f957600080fd5b5061030d610308366004614126565b61112c565b6040516102929392919061429c565b34801561032857600080fd5b5061023f610337366004614382565b6112fe565b34801561034857600080fd5b5061035c610357366004614126565b6115f4565b6040516102929594939291906143d0565b34801561037957600080fd5b5061023f611845565b34801561038e57600080fd5b506102dd61039d36600461444e565b600b60209081526000928352604080842090915290825290205460ff1681565b3480156103c957600080fd5b506103d2611af7565b604051610292919061447a565b3480156103eb57600080fd5b506103ff6103fa366004614126565b611c7b565b60405161029296959493929190614526565b34801561041d57600080fd5b5061023f61042c366004614126565b611ddd565b34801561043d57600080fd5b50475b604051908152602001610292565b34801561045a57600080fd5b50610463611fe9565b6040516102929190614578565b34801561047c57600080fd5b506102b061239a565b34801561049157600080fd5b5061049a6125c9565b60408051938452602084019290925290820152606001610292565b3480156104c157600080fd5b5061049a61266d565b3480156104d657600080fd5b5061023f6104e5366004614602565b6129b7565b3480156104f657600080fd5b5061023f610505366004614126565b612b8c565b34801561051657600080fd5b5061051f612deb565b6040516102929190614624565b61023f612f99565b34801561054057600080fd5b5061023f61054f366004614126565b6130f5565b34801561056057600080fd5b5061057461056f36600461444e565b613380565b60405161029294939291906146d3565b34801561059057600080fd5b5061028161059f366004614126565b613446565b3480156105b057600080fd5b5061023f6105bf36600461470a565b613456565b3480156105d057600080fd5b506105e46105df366004614792565b613523565b60405161029297969594939291906147b4565b34801561060357600080fd5b5061060c613619565b6040516102929190614804565b61023f6138d6565b34801561062d57600080fd5b5061044061063c366004614602565b60036020526000908152604090205481565b34801561065a57600080fd5b50610663613a89565b6040516102929190614892565b34801561067c57600080fd5b5061023f61068b36600461470a565b613c95565b34801561069c57600080fd5b506102dd6106ab36600461444e565b600760209081526000928352604080842090915290825290205460ff1681565b3480156106d757600080fd5b506102dd613d91565b3480156106ec57600080fd5b50610440613de4565b34801561070157600080fd5b5061023f610710366004614927565b613fd7565b34801561072157600080fd5b506103ff610730366004614792565b61408b565b33600081815260036020908152604080832054858452600b83528184209484529390915290205460ff16156107bf5760405162461bcd60e51b815260206004820152602560248201527f596f75206861766520616c726561647920766f74656420666f722074686973206044820152640d2dcc8caf60db1b60648201526084015b60405180910390fd5b6000818152600a602052604081208054849081106107df576107df6149ee565b60009182526020909120600690910201600481015490915060ff161561086d5760405162461bcd60e51b815260206004820152603c60248201527f566f74696e672069732065697468657220636f6d706c65746564206f7220746960448201527f6d6520686173206578706972656420666f722074686973206c6f616e0000000060648201526084016107b6565b600581015461087f9062015180614a1a565b42111561089857600401805460ff191660011790555050565b6003810180549060006108aa83614a33565b909155505050600091825250600b602090815260408083203384529091529020805460ff19166001179055565b336000908152600360209081526040808320548084526004909252822090916060905b82548110156109f957336001600160a01b031683828154811061091f5761091f6149ee565b60009182526020909120600690910201546001600160a01b0316036109f157828181548110610950576109506149ee565b9060005260206000209060060201600101805461096c90614a4c565b80601f016020809104026020016040519081016040528092919081815260200182805461099890614a4c565b80156109e55780601f106109ba576101008083540402835291602001916109e5565b820191906000526020600020905b8154815290600101906020018083116109c857829003601f168201915b505050505091506109f9565b6001016108fa565b506000838152600a60209081526040808320815160e081018352338152808401868152928101899052606081018590526080810185905260a081018590524260c082015281546001808201845592865293909420845160069094020180546001600160a01b0319166001600160a01b03909416939093178355905190820190610a829082614ad3565b506040820151600282015560608201516003820155608082015160048201805460a085015115156101000261ff00199315159390931661ffff199091161791909117905560c09091015160059091015550505050565b60018181548110610ae857600080fd5b9060005260206000209060050201600091509050806000018054610b0b90614a4c565b80601f0160208091040260200160405190810160405280929190818152602001828054610b3790614a4c565b8015610b845780601f10610b5957610100808354040283529160200191610b84565b820191906000526020600020905b815481529060010190602001808311610b6757829003601f168201915b505050505090806001018054610b9990614a4c565b80601f0160208091040260200160405190810160405280929190818152602001828054610bc590614a4c565b8015610c125780601f10610be757610100808354040283529160200191610c12565b820191906000526020600020905b815481529060010190602001808311610bf557829003601f168201915b505050505090806002018054610c2790614a4c565b80601f0160208091040260200160405190810160405280929190818152602001828054610c5390614a4c565b8015610ca05780601f10610c7557610100808354040283529160200191610ca0565b820191906000526020600020905b815481529060010190602001808311610c8357829003601f168201915b50505050600383015460049093015491926001600160a01b031691905085565b60606001805480602002602001604051908101604052809291908181526020016000905b82821015610eef57838290600052602060002090600502016040518060a0016040529081600082018054610d1790614a4c565b80601f0160208091040260200160405190810160405280929190818152602001828054610d4390614a4c565b8015610d905780601f10610d6557610100808354040283529160200191610d90565b820191906000526020600020905b815481529060010190602001808311610d7357829003601f168201915b50505050508152602001600182018054610da990614a4c565b80601f0160208091040260200160405190810160405280929190818152602001828054610dd590614a4c565b8015610e225780601f10610df757610100808354040283529160200191610e22565b820191906000526020600020905b815481529060010190602001808311610e0557829003601f168201915b50505050508152602001600282018054610e3b90614a4c565b80601f0160208091040260200160405190810160405280929190818152602001828054610e6790614a4c565b8015610eb45780601f10610e8957610100808354040283529160200191610eb4565b820191906000526020600020905b815481529060010190602001808311610e9757829003601f168201915b505050918352505060038201546001600160a01b03166020808301919091526004909201546040909101529082526001929092019101610ce4565b50505050905090565b600081815260046020908152604080832080548251818502810185019093528083528493849084015b828210156110ab5760008481526020908190206040805160c081019091526006850290910180546001600160a01b031682526001810180549293919291840191610f6a90614a4c565b80601f0160208091040260200160405190810160405280929190818152602001828054610f9690614a4c565b8015610fe35780601f10610fb857610100808354040283529160200191610fe3565b820191906000526020600020905b815481529060010190602001808311610fc657829003601f168201915b505050505081526020016002820154815260200160038201805461100690614a4c565b80601f016020809104026020016040519081016040528092919081815260200182805461103290614a4c565b801561107f5780601f106110545761010080835404028352916020019161107f565b820191906000526020600020905b81548152906001019060200180831161106257829003601f168201915b505050505081526020016004820154815260200160058201548152505081526020019060010190610f21565b50505050905060005b8151811015611122576007600085815260200190815260200160002060008383815181106110e4576110e46149ee565b602090810291909101810151516001600160a01b031682528101919091526040016000205460ff1661111a575060009392505050565b6001016110b4565b5060019392505050565b6008818154811061113c57600080fd5b906000526020600020906003020160009150905080600001805461115f90614a4c565b80601f016020809104026020016040519081016040528092919081815260200182805461118b90614a4c565b80156111d85780601f106111ad576101008083540402835291602001916111d8565b820191906000526020600020905b8154815290600101906020018083116111bb57829003601f168201915b5050505050908060010180546111ed90614a4c565b80601f016020809104026020016040519081016040528092919081815260200182805461121990614a4c565b80156112665780601f1061123b57610100808354040283529160200191611266565b820191906000526020600020905b81548152906001019060200180831161124957829003601f168201915b50505050509080600201805461127b90614a4c565b80601f01602080910402602001604051908101604052809291908181526020018280546112a790614a4c565b80156112f45780601f106112c9576101008083540402835291602001916112f4565b820191906000526020600020905b8154815290600101906020018083116112d757829003601f168201915b5050505050905083565b60005b60025481101561139757336001600160a01b031660028281548110611328576113286149ee565b60009182526020909120600690910201546001600160a01b03160361138f5760405162461bcd60e51b815260206004820152601960248201527f4d656d62657220616c726561647920726567697374657265640000000000000060448201526064016107b6565b600101611301565b5060005481106113dd5760405162461bcd60e51b8152602060048201526011602482015270092dcecc2d8d2c840a6908e40d2dcc8caf607b1b60448201526064016107b6565b33600090815260036020526040812082905580546060919083908110611405576114056149ee565b60009182526020909120600360059092020101546001600160a01b0316330361144e5750604080518082019091526009815268141c995cda59195b9d60ba1b602082015261146d565b5060408051808201909152600681526526b2b6b132b960d11b60208201525b6040805160c081018252338152602081018681529181018590526060810183905260006080820181905260a0820181905260028054600181018255915281517f405787fa12a823e0f2b7631cc41b3ba8828b3321ca811111fa75cd3aa3bb5ace600690920291820180546001600160a01b0319166001600160a01b0390921691909117815592519192839290917f405787fa12a823e0f2b7631cc41b3ba8828b3321ca811111fa75cd3aa3bb5acf01906115279082614ad3565b5060408201516002820155606082015160038201906115469082614ad3565b50608082015160048281019190915560a090920151600590910155600084815260209182526040812080546001808201835591835291839020845160069093020180546001600160a01b0319166001600160a01b039093169290921782559183015183928201906115b79082614ad3565b5060408201516002820155606082015160038201906115d69082614ad3565b506080820151816004015560a0820151816005015550505050505050565b60096020526000908152604090208054819061160f90614a4c565b80601f016020809104026020016040519081016040528092919081815260200182805461163b90614a4c565b80156116885780601f1061165d57610100808354040283529160200191611688565b820191906000526020600020905b81548152906001019060200180831161166b57829003601f168201915b50505050509080600101805461169d90614a4c565b80601f01602080910402602001604051908101604052809291908181526020018280546116c990614a4c565b80156117165780601f106116eb57610100808354040283529160200191611716565b820191906000526020600020905b8154815290600101906020018083116116f957829003601f168201915b50505050509080600201805461172b90614a4c565b80601f016020809104026020016040519081016040528092919081815260200182805461175790614a4c565b80156117a45780601f10611779576101008083540402835291602001916117a4565b820191906000526020600020905b81548152906001019060200180831161178757829003601f168201915b5050505050908060030180546117b990614a4c565b80601f01602080910402602001604051908101604052809291908181526020018280546117e590614a4c565b80156118325780601f1061180757610100808354040283529160200191611832565b820191906000526020600020905b81548152906001019060200180831161181557829003601f168201915b5050506004909301549192505060ff1685565b33600090815260036020526040812054905481106118755760405162461bcd60e51b81526004016107b690614b93565b60008181548110611888576118886149ee565b906000526020600020906005020160040154620151806118a89190614a1a565b4211156119025760405162461bcd60e51b815260206004820152602260248201527f54696d6520666f72206e6f6d696e6174696f6e7320616c726561647920656e64604482015261195960f21b60648201526084016107b6565b60008181526006602090815260408083203384529091529020600201541561196c5760405162461bcd60e51b815260206004820152601a60248201527f596f75206861766520616c7265616479206e6f6d696e6174656400000000000060448201526064016107b6565b606060005b600254811015611a7357336001600160a01b031660028281548110611998576119986149ee565b60009182526020909120600690910201546001600160a01b031603611a6b57600281815481106119ca576119ca6149ee565b906000526020600020906006020160010180546119e690614a4c565b80601f0160208091040260200160405190810160405280929190818152602001828054611a1290614a4c565b8015611a5f5780601f10611a3457610100808354040283529160200191611a5f565b820191906000526020600020905b815481529060010190602001808311611a4257829003601f168201915b50505050509150611a73565b600101611971565b506040805160808101825233808252602080830185815242848601526000606085018190528781526006835285812093815292909152929020815181546001600160a01b0319166001600160a01b0390911617815591519091906001820190611adc9082614ad3565b50604082015160028201556060909101516003909101555050565b336000908152600360205260408120549054606091908110611b2b5760405162461bcd60e51b81526004016107b690614b93565b6000818152600a6020908152604080832080548251818502810185019093528083529193909284015b82821015611c715760008481526020908190206040805160e081019091526006850290910180546001600160a01b031682526001810180549293919291840191611b9d90614a4c565b80601f0160208091040260200160405190810160405280929190818152602001828054611bc990614a4c565b8015611c165780601f10611beb57610100808354040283529160200191611c16565b820191906000526020600020905b815481529060010190602001808311611bf957829003601f168201915b5050509183525050600282015460208083019190915260038301546040830152600483015460ff80821615156060850152610100909104161515608083015260059092015460a0909101529082526001929092019101611b54565b5050505091505090565b60028181548110611c8b57600080fd5b6000918252602090912060069091020180546001820180546001600160a01b03909216935090611cba90614a4c565b80601f0160208091040260200160405190810160405280929190818152602001828054611ce690614a4c565b8015611d335780601f10611d0857610100808354040283529160200191611d33565b820191906000526020600020905b815481529060010190602001808311611d1657829003601f168201915b505050505090806002015490806003018054611d4e90614a4c565b80601f0160208091040260200160405190810160405280929190818152602001828054611d7a90614a4c565b8015611dc75780601f10611d9c57610100808354040283529160200191611dc7565b820191906000526020600020905b815481529060010190602001808311611daa57829003601f168201915b5050505050908060040154908060050154905086565b6001548110611e1e5760405162461bcd60e51b815260206004820152600d60248201526c092dcecc2d8d2c840d2dcc8caf609b1b60448201526064016107b6565b600060018281548110611e3357611e336149ee565b6000918252602080832084546001810186559484529220600591820290920192020180611e608382614bdd565b50600181810190611e7390840182614bdd565b50600281810190611e8690840182614bdd565b5060038281015490820180546001600160a01b0319166001600160a01b0390921691909117905560049182015491015560018054611ec49190614cb8565b8114611f7c5760018054611ed9908290614cb8565b81548110611ee957611ee96149ee565b906000526020600020906005020160018281548110611f0a57611f0a6149ee565b6000918252602090912060059091020180611f258382614bdd565b50600181810190611f3890840182614bdd565b50600281810190611f4b90840182614bdd565b5060038281015490820180546001600160a01b0319166001600160a01b039092169190911790556004918201549101555b6001805480611f8d57611f8d614ccb565b60008281526020812060001990920191600583020190611fad82826140d8565b611fbb6001830160006140d8565b611fc96002830160006140d8565b506003810180546001600160a01b03191690556000600490910155905550565b33600090815260036020526040812054905460609190811061201d5760405162461bcd60e51b81526004016107b690614b93565b600081815260046020908152604080832080548251818502810185019093528083529192909190849084015b828210156121d35760008481526020908190206040805160c081019091526006850290910180546001600160a01b03168252600181018054929391929184019161209290614a4c565b80601f01602080910402602001604051908101604052809291908181526020018280546120be90614a4c565b801561210b5780601f106120e05761010080835404028352916020019161210b565b820191906000526020600020905b8154815290600101906020018083116120ee57829003601f168201915b505050505081526020016002820154815260200160038201805461212e90614a4c565b80601f016020809104026020016040519081016040528092919081815260200182805461215a90614a4c565b80156121a75780601f1061217c576101008083540402835291602001916121a7565b820191906000526020600020905b81548152906001019060200180831161218a57829003601f168201915b505050505081526020016004820154815260200160058201548152505081526020019060010190612049565b5050505090506000815167ffffffffffffffff8111156121f5576121f56142df565b60405190808252806020026020018201604052801561225a57816020015b612247604051806080016040528060006001600160a01b031681526020016060815260200160008152602001600081525090565b8152602001906001900390816122135790505b50905060005b825181101561239257600083828151811061227d5761227d6149ee565b6020908102919091018101515160008781526006835260408082206001600160a01b038085168452908552918190208151608081019092528054909216815260018201805493955090939192918401916122d690614a4c565b80601f016020809104026020016040519081016040528092919081815260200182805461230290614a4c565b801561234f5780601f106123245761010080835404028352916020019161234f565b820191906000526020600020905b81548152906001019060200180831161233257829003601f168201915b505050505081526020016002820154815260200160038201548152505083838151811061237e5761237e6149ee565b602090810291909101015250600101612260565b509392505050565b60606000805480602002602001604051908101604052809291908181526020016000905b82821015610eef57838290600052602060002090600502016040518060a00160405290816000820180546123f190614a4c565b80601f016020809104026020016040519081016040528092919081815260200182805461241d90614a4c565b801561246a5780601f1061243f5761010080835404028352916020019161246a565b820191906000526020600020905b81548152906001019060200180831161244d57829003601f168201915b5050505050815260200160018201805461248390614a4c565b80601f01602080910402602001604051908101604052809291908181526020018280546124af90614a4c565b80156124fc5780601f106124d1576101008083540402835291602001916124fc565b820191906000526020600020905b8154815290600101906020018083116124df57829003601f168201915b5050505050815260200160028201805461251590614a4c565b80601f016020809104026020016040519081016040528092919081815260200182805461254190614a4c565b801561258e5780601f106125635761010080835404028352916020019161258e565b820191906000526020600020905b81548152906001019060200180831161257157829003601f168201915b505050918352505060038201546001600160a01b031660208083019190915260049092015460409091015290825260019290920191016123be565b600554600090819081906001600160a01b0316331461265b5760405162461bcd60e51b815260206004820152604260248201527f496e76616c696420617574686f72697a6174696f6e2c204f6e6c79204344532060448201527f41646d696e2063616e2061636365737320746869732064617368626f61726421606482015261212160f01b608482015260a4016107b6565b50506000546002546001549193909250565b600080808080808080805b60025481101561274557336001600160a01b03166002828154811061269f5761269f6149ee565b60009182526020909120600690910201546001600160a01b03160361273d5760019250600281815481106126d5576126d56149ee565b9060005260206000209060060201600401549550600281815481106126fc576126fc6149ee565b906000526020600020906006020160050154945060036000336001600160a01b03166001600160a01b03168152602001908152602001600020549150612745565b600101612678565b508161279d5760405162461bcd60e51b815260206004820152602160248201527f43616c6c6572206973206e6f7420612072656769737465726564206d656d62656044820152603960f91b60648201526084016107b6565b5033600090815260036020908152604080832054808452600483528184208054835181860281018601909452808452919493909190849084015b828210156129615760008481526020908190206040805160c081019091526006850290910180546001600160a01b03168252600181018054929391929184019161282090614a4c565b80601f016020809104026020016040519081016040528092919081815260200182805461284c90614a4c565b80156128995780601f1061286e57610100808354040283529160200191612899565b820191906000526020600020905b81548152906001019060200180831161287c57829003601f168201915b50505050508152602001600282015481526020016003820180546128bc90614a4c565b80601f01602080910402602001604051908101604052809291908181526020018280546128e890614a4c565b80156129355780601f1061290a57610100808354040283529160200191612935565b820191906000526020600020905b81548152906001019060200180831161291857829003601f168201915b5050505050815260200160048201548152602001600582015481525050815260200190600101906127d7565b50505050905060005b81518110156129a657818181518110612985576129856149ee565b6020026020010151608001518561299c9190614a1a565b945060010161296a565b509498939750919550919350505050565b33600090815260036020526040812054905481106129e75760405162461bcd60e51b81526004016107b690614b93565b600081815260076020908152604080832033845290915290205460ff1615612a515760405162461bcd60e51b815260206004820152601860248201527f43616c6c65722068617320616c726561647920766f746564000000000000000060448201526064016107b6565b6000818152600460205260408120815b8154811015612ab657846001600160a01b0316828281548110612a8657612a866149ee565b60009182526020909120600690910201546001600160a01b031603612aae5760019250612ab6565b600101612a61565b5081612b155760405162461bcd60e51b815260206004820152602860248201527f4e6f6d696e6565206d7573742062652061206d656d626572206f66207468652060448201526773616d652053484760c01b60648201526084016107b6565b60008381526006602090815260408083206001600160a01b03881684529091528120600301805491612b4683614a33565b909155505060008381526007602090815260408083203384529091529020805460ff19166001179055612b7883610ef8565b15612b8657612b8683612b8c565b50505050565b60008181526004602052604081209080805b8354811015612c0c576000848281548110612bbb57612bbb6149ee565b600091825260208083206006928302015489845291815260408084206001600160a01b03909316808552929091529091206003015490915083811115612c02578093508194505b5050600101612b9e565b5060005b8354811015612d8557826001600160a01b0316848281548110612c3557612c356149ee565b60009182526020909120600690910201546001600160a01b031603612cab5760405180604001604052806009815260200168141c995cda59195b9d60ba1b815250848281548110612c8857612c886149ee565b90600052602060002090600602016003019081612ca59190614ad3565b50612d7d565b604080518082019091526009815268141c995cda59195b9d60ba1b60209091015283547fe4908534c74d6a5bdfd3b1ff6c0cdaff6418140d4c5c84d5c706dfe7e9fdc28e90859083908110612d0257612d026149ee565b9060005260206000209060060201600301604051612d209190614ce1565b604051809103902003612d7d576040518060400160405280600681526020016526b2b6b132b960d11b815250848281548110612d5e57612d5e6149ee565b90600052602060002090600602016003019081612d7b9190614ad3565b505b600101612c10565b5060008481526006602090815260408083206001600160a01b03861684529091529081902090517f7a5d29e32af9a8cc7984d4e609b51e96e2dd51aef64e3109b0ba93a70f47a9cc91612ddd91600190910190614d57565b60405180910390a150505050565b60606002805480602002602001604051908101604052809291908181526020016000905b82821015610eef5760008481526020908190206040805160c081019091526006850290910180546001600160a01b031682526001810180549293919291840191612e5890614a4c565b80601f0160208091040260200160405190810160405280929190818152602001828054612e8490614a4c565b8015612ed15780601f10612ea657610100808354040283529160200191612ed1565b820191906000526020600020905b815481529060010190602001808311612eb457829003601f168201915b5050505050815260200160028201548152602001600382018054612ef490614a4c565b80601f0160208091040260200160405190810160405280929190818152602001828054612f2090614a4c565b8015612f6d5780601f10612f4257610100808354040283529160200191612f6d565b820191906000526020600020905b815481529060010190602001808311612f5057829003601f168201915b505050505081526020016004820154815260200160058201548152505081526020019060010190612e0f565b60003411612fd95760405162461bcd60e51b815260206004820152600d60248201526c139bc81d985b1d59481cd95b9d609a1b60448201526064016107b6565b60005b6002548110156130f257336001600160a01b031660028281548110613003576130036149ee565b60009182526020909120600690910201546001600160a01b0316036130ea5760028181548110613035576130356149ee565b9060005260206000209060060201600501543411156130ab5760405162461bcd60e51b815260206004820152602c60248201527f506c656173652073656e6420616e20616d6f756e74206c657373207468616e2060448201526b3cb7bab9103637b0b717171760a11b60648201526084016107b6565b34600282815481106130bf576130bf6149ee565b906000526020600020906006020160050160008282546130df9190614cb8565b909155506130f29050565b600101612fdc565b50565b33600090815260036020526040812054905481106131255760405162461bcd60e51b81526004016107b690614b93565b6000818152600a60205260408120805484908110613145576131456149ee565b6000918252602090912060069091020180549091506001600160a01b031633146131c05760405162461bcd60e51b815260206004820152602660248201527f4f6e6c7920746865206170706c6963616e742063616e20636c61696d20746865604482015265103b37ba329760d11b60648201526084016107b6565b6004810154610100900460ff161561321a5760405162461bcd60e51b815260206004820152601e60248201527f4c6f616e2068617320616c7265616479206265656e20636c61696d65642e000060448201526064016107b6565b6000828152600460205260409020546003820154613239600283614de7565b81116132975760405162461bcd60e51b815260206004820152602760248201527f4e6f7420656e6f7567682079657320766f74657320746f20636c61696d20746860448201526632903b37ba329760c91b60648201526084016107b6565b825460028401546040516001600160a01b039092169181156108fc0291906000818181858888f193505050501580156132d4573d6000803e3d6000fd5b5060005b60025481101561336957336001600160a01b0316600282815481106132ff576132ff6149ee565b60009182526020909120600690910201546001600160a01b03160361336157836002015460028281548110613336576133366149ee565b906000526020600020906006020160050160008282546133569190614a1a565b909155506133699050565b6001016132d8565b505050600401805461ff0019166101001790555050565b6006602090815260009283526040808420909152908252902080546001820180546001600160a01b0390921692916133b790614a4c565b80601f01602080910402602001604051908101604052809291908181526020018280546133e390614a4c565b80156134305780601f1061340557610100808354040283529160200191613430565b820191906000526020600020905b81548152906001019060200180831161341357829003601f168201915b5050505050908060020154908060030154905084565b60008181548110610ae857600080fd5b6040805160a08101825284815260208101849052908101829052336060820152426080820152600180548082018255600091909152815160059091027fb10e2d527612073b26eecdfd717e6a320cf44b4afac2b0732d9fcbe2b7fa0cf6019081906134c19082614ad3565b50602082015160018201906134d69082614ad3565b50604082015160028201906134eb9082614ad3565b5060608201516003820180546001600160a01b0319166001600160a01b03909216919091179055608090910151600490910155505050565b600a602052816000526040600020818154811061353f57600080fd5b6000918252602090912060069091020180546001820180546001600160a01b03909216945091925061357090614a4c565b80601f016020809104026020016040519081016040528092919081815260200182805461359c90614a4c565b80156135e95780601f106135be576101008083540402835291602001916135e9565b820191906000526020600020905b8154815290600101906020018083116135cc57829003601f168201915b505050506002830154600384015460048501546005909501549394919390925060ff808316926101009004169087565b61364d6040518060a00160405280606081526020016060815260200160608152602001606081526020016000151581525090565b336000908152600360209081526040808320548084526009909252808320815160a0810190925280549293928290829061368690614a4c565b80601f01602080910402602001604051908101604052809291908181526020018280546136b290614a4c565b80156136ff5780601f106136d4576101008083540402835291602001916136ff565b820191906000526020600020905b8154815290600101906020018083116136e257829003601f168201915b5050505050815260200160018201805461371890614a4c565b80601f016020809104026020016040519081016040528092919081815260200182805461374490614a4c565b80156137915780601f1061376657610100808354040283529160200191613791565b820191906000526020600020905b81548152906001019060200180831161377457829003601f168201915b505050505081526020016002820180546137aa90614a4c565b80601f01602080910402602001604051908101604052809291908181526020018280546137d690614a4c565b80156138235780601f106137f857610100808354040283529160200191613823565b820191906000526020600020905b81548152906001019060200180831161380657829003601f168201915b5050505050815260200160038201805461383c90614a4c565b80601f016020809104026020016040519081016040528092919081815260200182805461386890614a4c565b80156138b55780601f1061388a576101008083540402835291602001916138b5565b820191906000526020600020905b81548152906001019060200180831161389857829003601f168201915b50505091835250506004919091015460ff1615156020909101529392505050565b600034116139165760405162461bcd60e51b815260206004820152600d60248201526c139bc81d985b1d59481cd95b9d609a1b60448201526064016107b6565b33600090815260036020526040812054905481106139465760405162461bcd60e51b81526004016107b690614b93565b60005b6002548110156139d657336001600160a01b031660028281548110613970576139706149ee565b60009182526020909120600690910201546001600160a01b0316036139ce5734600282815481106139a3576139a36149ee565b906000526020600020906006020160040160008282546139c39190614a1a565b909155506139d69050565b600101613949565b506000818152600460205260408120815b8154811015613a3b57336001600160a01b0316828281548110613a0c57613a0c6149ee565b60009182526020909120600690910201546001600160a01b031603613a3357809250613a3b565b6001016139e7565b506000838152600460205260409020805434919084908110613a5f57613a5f6149ee565b90600052602060002090600602016004016000828254613a7f9190614a1a565b9091555050505050565b60606008805480602002602001604051908101604052809291908181526020016000905b82821015610eef5783829060005260206000209060030201604051806060016040529081600082018054613ae090614a4c565b80601f0160208091040260200160405190810160405280929190818152602001828054613b0c90614a4c565b8015613b595780601f10613b2e57610100808354040283529160200191613b59565b820191906000526020600020905b815481529060010190602001808311613b3c57829003601f168201915b50505050508152602001600182018054613b7290614a4c565b80601f0160208091040260200160405190810160405280929190818152602001828054613b9e90614a4c565b8015613beb5780601f10613bc057610100808354040283529160200191613beb565b820191906000526020600020905b815481529060010190602001808311613bce57829003601f168201915b50505050508152602001600282018054613c0490614a4c565b80601f0160208091040260200160405190810160405280929190818152602001828054613c3090614a4c565b8015613c7d5780601f10613c5257610100808354040283529160200191613c7d565b820191906000526020600020905b815481529060010190602001808311613c6057829003601f168201915b50505050508152505081526020019060010190613aad565b6005546001600160a01b03163314613cff5760405162461bcd60e51b815260206004820152602760248201527f4f6e6c79204344532041646d696e2063616e20637265617465206e6f74696669604482015266636174696f6e2160c81b60648201526084016107b6565b604080516060810182528481526020810184905290810182905260088054600181018255600091909152815160039091027ff3f7a9fe364faab93b216da50a3214154f22a0a2b415b23a84c8169e8b636ee301908190613d5f9082614ad3565b5060208201516001820190613d749082614ad3565b5060408201516002820190613d899082614ad3565b505050505050565b3360009081526003602052604081205481548290819083908110613db757613db76149ee565b90600052602060002090600502016004015490508062015180613dda9190614a1a565b4210159250505090565b3360009081526003602052604081205481548110613e145760405162461bcd60e51b81526004016107b690614b93565b600081815260046020908152604080832080548251818502810185019093528083529192909190849084015b82821015613fca5760008481526020908190206040805160c081019091526006850290910180546001600160a01b031682526001810180549293919291840191613e8990614a4c565b80601f0160208091040260200160405190810160405280929190818152602001828054613eb590614a4c565b8015613f025780601f10613ed757610100808354040283529160200191613f02565b820191906000526020600020905b815481529060010190602001808311613ee557829003601f168201915b5050505050815260200160028201548152602001600382018054613f2590614a4c565b80601f0160208091040260200160405190810160405280929190818152602001828054613f5190614a4c565b8015613f9e5780601f10613f7357610100808354040283529160200191613f9e565b820191906000526020600020905b815481529060010190602001808311613f8157829003601f168201915b505050505081526020016004820154815260200160058201548152505081526020019060010190613e40565b5050915195945050505050565b33600090815260036020908152604080832054815160a08101835289815280840189905280830188905260608101879052851515608082015281855260099093529220815181906140289082614ad3565b506020820151600182019061403d9082614ad3565b50604082015160028201906140529082614ad3565b50606082015160038201906140679082614ad3565b50608091909101516004909101805460ff1916911515919091179055505050505050565b600460205281600052604060002081815481106140a757600080fd5b6000918252602090912060069091020180546001820180546001600160a01b039092169450919250611cba90614a4c565b5080546140e490614a4c565b6000825580601f106140f4575050565b601f0160209004906000526020600020908101906130f291905b80821115614122576000815560010161410e565b5090565b60006020828403121561413857600080fd5b5035919050565b6000815180845260005b8181101561416557602081850181015186830182015201614149565b506000602082860101526020601f19601f83011685010191505092915050565b60a08152600061419860a083018861413f565b82810360208401526141aa818861413f565b905082810360408401526141be818761413f565b6001600160a01b039590951660608401525050608001529392505050565b600060208083018184528085518083526040925060408601915060408160051b87010184880160005b8381101561428e57603f19898403018552815160a0815181865261422b8287018261413f565b915050888201518582038a870152614243828261413f565b915050878201518582038987015261425b828261413f565b6060848101516001600160a01b031690880152608093840151939096019290925250509386019390860190600101614205565b509098975050505050505050565b6060815260006142af606083018661413f565b82810360208401526142c1818661413f565b905082810360408401526142d5818561413f565b9695505050505050565b634e487b7160e01b600052604160045260246000fd5b600082601f83011261430657600080fd5b813567ffffffffffffffff80821115614321576143216142df565b604051601f8301601f19908116603f01168101908282118183101715614349576143496142df565b8160405283815286602085880101111561436257600080fd5b836020870160208301376000602085830101528094505050505092915050565b60008060006060848603121561439757600080fd5b833567ffffffffffffffff8111156143ae57600080fd5b6143ba868287016142f5565b9660208601359650604090950135949350505050565b60a0815260006143e360a083018861413f565b82810360208401526143f5818861413f565b90508281036040840152614409818761413f565b9050828103606084015261441d818661413f565b91505082151560808301529695505050505050565b80356001600160a01b038116811461444957600080fd5b919050565b6000806040838503121561446157600080fd5b8235915061447160208401614432565b90509250929050565b600060208083018184528085518083526040925060408601915060408160051b87010184880160005b8381101561428e57888303603f19018552815180516001600160a01b031684528781015160e0898601819052906144dc8287018261413f565b838a0151878b01526060808501519088015260808085015115159088015260a08085015115159088015260c0938401519390960192909252505093860193908601906001016144a3565b6001600160a01b038716815260c06020820181905260009061454a9083018861413f565b8660408401528281036060840152614562818761413f565b6080840195909552505060a00152949350505050565b600060208083018184528085518083526040925060408601915060408160051b87010184880160005b8381101561428e57888303603f19018552815180516001600160a01b03168452878101516080898601819052906145da8287018261413f565b838a0151878b01526060938401519390960192909252505093860193908601906001016145a1565b60006020828403121561461457600080fd5b61461d82614432565b9392505050565b600060208083018184528085518083526040925060408601915060408160051b87010184880160005b8381101561428e57888303603f19018552815180516001600160a01b031684528781015160c0898601819052906146868287018261413f565b9150508782015188860152606080830151868303828801526146a8838261413f565b6080858101519089015260a0948501519490970193909352505050938601939086019060010161464d565b6001600160a01b03851681526080602082018190526000906146f79083018661413f565b6040830194909452506060015292915050565b60008060006060848603121561471f57600080fd5b833567ffffffffffffffff8082111561473757600080fd5b614743878388016142f5565b9450602086013591508082111561475957600080fd5b614765878388016142f5565b9350604086013591508082111561477b57600080fd5b50614788868287016142f5565b9150509250925092565b600080604083850312156147a557600080fd5b50508035926020909101359150565b6001600160a01b038816815260e0602082018190526000906147d89083018961413f565b60408301979097525060608101949094529115156080840152151560a083015260c09091015292915050565b602081526000825160a0602084015261482060c084018261413f565b90506020840151601f198085840301604086015261483e838361413f565b9250604086015191508085840301606086015261485b838361413f565b9250606086015191508085840301608086015250614879828261413f565b9150506080840151151560a08401528091505092915050565b600060208083018184528085518083526040925060408601915060408160051b87010184880160005b8381101561428e57603f198984030185528151606081518186526148e18287018261413f565b915050888201518582038a8701526148f9828261413f565b91505087820151915084810388860152614913818361413f565b9689019694505050908601906001016148bb565b600080600080600060a0868803121561493f57600080fd5b853567ffffffffffffffff8082111561495757600080fd5b61496389838a016142f5565b9650602088013591508082111561497957600080fd5b61498589838a016142f5565b9550604088013591508082111561499b57600080fd5b6149a789838a016142f5565b945060608801359150808211156149bd57600080fd5b506149ca888289016142f5565b925050608086013580151581146149e057600080fd5b809150509295509295909350565b634e487b7160e01b600052603260045260246000fd5b634e487b7160e01b600052601160045260246000fd5b80820180821115614a2d57614a2d614a04565b92915050565b600060018201614a4557614a45614a04565b5060010190565b600181811c90821680614a6057607f821691505b602082108103614a8057634e487b7160e01b600052602260045260246000fd5b50919050565b601f821115614ace576000816000526020600020601f850160051c81016020861015614aaf5750805b601f850160051c820191505b81811015613d8957828155600101614abb565b505050565b815167ffffffffffffffff811115614aed57614aed6142df565b614b0181614afb8454614a4c565b84614a86565b602080601f831160018114614b365760008415614b1e5750858301515b600019600386901b1c1916600185901b178555613d89565b600085815260208120601f198616915b82811015614b6557888601518255948401946001909101908401614b46565b5085821015614b835787850151600019600388901b60f8161c191681555b5050505050600190811b01905550565b6020808252602a908201527f43616c6c6572206973206e6f742061206d656d626572206f6620616e7920617060408201526970726f7665642053484760b01b606082015260800190565b818103614be8575050565b614bf28254614a4c565b67ffffffffffffffff811115614c0a57614c0a6142df565b614c1881614afb8454614a4c565b6000601f821160018114614c4c5760008315614c345750848201545b600019600385901b1c1916600184901b178455614cb1565b600085815260209020601f19841690600086815260209020845b83811015614c865782860154825560019586019590910190602001614c66565b5085831015614ca45781850154600019600388901b60f8161c191681555b50505060018360011b0184555b5050505050565b81810381811115614a2d57614a2d614a04565b634e487b7160e01b600052603160045260246000fd5b6000808354614cef81614a4c565b60018281168015614d075760018114614d1c57614d4b565b60ff1984168752821515830287019450614d4b565b8760005260208060002060005b85811015614d425781548a820152908401908201614d29565b50505082870194505b50929695505050505050565b6000602080835260008454614d6b81614a4c565b8060208701526040600180841660008114614d8d5760018114614da957614dd9565b60ff19851660408a0152604084151560051b8a01019550614dd9565b89600052602060002060005b85811015614dd05781548b8201860152908301908801614db5565b8a016040019650505b509398975050505050505050565b600082614e0457634e487b7160e01b600052601260045260246000fd5b50049056fea2646970667358221220b372078054d26f060f0688fa57258cd6a351d4701b005cd8ad6753b62d14224664736f6c63430008180033",
  "linkReferences": {},
  "deployedLinkReferences": {}
}