{
  "_format": "hh-sol-artifact-1",
  "contractName": "DK",
  "sourceName": "contracts/DK.sol",
  "address": "0xd8a5dB605871e756e2D062E0cb37965F7156EDd8",
  "abi": [
    {
      "inputs": [],
      "stateMutability": "nonpayable",
      "type": "constructor"
    },
    {
      "anonymous": false,
      "inputs": [
        {
          "indexed": false,
          "internalType": "string",
          "name": "name",
          "type": "string"
        }
      ],
      "name": "NewPresidentAssigned",
      "type": "event"
    },
    {
      "inputs": [
        {
          "internalType": "uint256",
          "name": "",
          "type": "uint256"
        },
        {
          "internalType": "uint256",
          "name": "",
          "type": "uint256"
        }
      ],
      "name": "SHGToMember",
      "outputs": [
        {
          "internalType": "address",
          "name": "memaddress",
          "type": "address"
        },
        {
          "internalType": "string",
          "name": "name",
          "type": "string"
        },
        {
          "internalType": "uint256",
          "name": "aadhaar",
          "type": "uint256"
        },
        {
          "internalType": "string",
          "name": "desig",
          "type": "string"
        },
        {
          "internalType": "uint256",
          "name": "balance",
          "type": "uint256"
        },
        {
          "internalType": "uint256",
          "name": "loan",
          "type": "uint256"
        }
      ],
      "stateMutability": "view",
      "type": "function"
    },
    {
      "inputs": [
        {
          "internalType": "uint256",
          "name": "shgIndex",
          "type": "uint256"
        }
      ],
      "name": "allMembersHaveVoted",
      "outputs": [
        {
          "internalType": "bool",
          "name": "",
          "type": "bool"
        }
      ],
      "stateMutability": "view",
      "type": "function"
    },
    {
      "inputs": [
        {
          "internalType": "uint256",
          "name": "index",
          "type": "uint256"
        }
      ],
      "name": "approveSHG",
      "outputs": [],
      "stateMutability": "nonpayable",
      "type": "function"
    },
    {
      "inputs": [
        {
          "internalType": "uint256",
          "name": "",
          "type": "uint256"
        }
      ],
      "name": "approvedSHGs",
      "outputs": [
        {
          "internalType": "string",
          "name": "name",
          "type": "string"
        },
        {
          "internalType": "string",
          "name": "applicant",
          "type": "string"
        },
        {
          "internalType": "string",
          "name": "location",
          "type": "string"
        },
        {
          "internalType": "address",
          "name": "applicant_address",
          "type": "address"
        },
        {
          "internalType": "uint256",
          "name": "SHGRegisterTime",
          "type": "uint256"
        }
      ],
      "stateMutability": "view",
      "type": "function"
    },
    {
      "inputs": [
        {
          "internalType": "uint256",
          "name": "shgIndex",
          "type": "uint256"
        }
      ],
      "name": "assignNewPresident",
      "outputs": [],
      "stateMutability": "nonpayable",
      "type": "function"
    },
    {
      "inputs": [],
      "name": "cdsdash",
      "outputs": [
        {
          "internalType": "uint256",
          "name": "",
          "type": "uint256"
        },
        {
          "internalType": "uint256",
          "name": "",
          "type": "uint256"
        },
        {
          "internalType": "uint256",
          "name": "",
          "type": "uint256"
        }
      ],
      "stateMutability": "view",
      "type": "function"
    },
    {
      "inputs": [],
      "name": "checkPresidentTenureOver",
      "outputs": [
        {
          "internalType": "bool",
          "name": "",
          "type": "bool"
        }
      ],
      "stateMutability": "view",
      "type": "function"
    },
    {
      "inputs": [
        {
          "internalType": "uint256",
          "name": "_index",
          "type": "uint256"
        }
      ],
      "name": "claimVote",
      "outputs": [],
      "stateMutability": "nonpayable",
      "type": "function"
    },
    {
      "inputs": [
        {
          "internalType": "string",
          "name": "_agenta",
          "type": "string"
        },
        {
          "internalType": "string",
          "name": "_link",
          "type": "string"
        },
        {
          "internalType": "string",
          "name": "_time",
          "type": "string"
        },
        {
          "internalType": "string",
          "name": "_date",
          "type": "string"
        },
        {
          "internalType": "bool",
          "name": "_isSet",
          "type": "bool"
        }
      ],
      "name": "createMeet",
      "outputs": [],
      "stateMutability": "nonpayable",
      "type": "function"
    },
    {
      "inputs": [
        {
          "internalType": "string",
          "name": "_title",
          "type": "string"
        },
        {
          "internalType": "string",
          "name": "_desc",
          "type": "string"
        },
        {
          "internalType": "string",
          "name": "_link",
          "type": "string"
        }
      ],
      "name": "createNotification",
      "outputs": [],
      "stateMutability": "nonpayable",
      "type": "function"
    },
    {
      "inputs": [
        {
          "internalType": "string",
          "name": "_name",
          "type": "string"
        },
        {
          "internalType": "string",
          "name": "_applicant",
          "type": "string"
        },
        {
          "internalType": "string",
          "name": "_location",
          "type": "string"
        }
      ],
      "name": "createSHG",
      "outputs": [],
      "stateMutability": "nonpayable",
      "type": "function"
    },
    {
      "inputs": [
        {
          "internalType": "uint256",
          "name": "_amount",
          "type": "uint256"
        }
      ],
      "name": "createloan",
      "outputs": [],
      "stateMutability": "nonpayable",
      "type": "function"
    },
    {
      "inputs": [],
      "name": "getApprovedSHGs",
      "outputs": [
        {
          "components": [
            {
              "internalType": "string",
              "name": "name",
              "type": "string"
            },
            {
              "internalType": "string",
              "name": "applicant",
              "type": "string"
            },
            {
              "internalType": "string",
              "name": "location",
              "type": "string"
            },
            {
              "internalType": "address",
              "name": "applicant_address",
              "type": "address"
            },
            {
              "internalType": "uint256",
              "name": "SHGRegisterTime",
              "type": "uint256"
            }
          ],
          "internalType": "struct DK.SHG[]",
          "name": "",
          "type": "tuple[]"
        }
      ],
      "stateMutability": "view",
      "type": "function"
    },
    {
      "inputs": [],
      "name": "getContractBalance",
      "outputs": [
        {
          "internalType": "uint256",
          "name": "",
          "type": "uint256"
        }
      ],
      "stateMutability": "view",
      "type": "function"
    },
    {
      "inputs": [],
      "name": "getMembers",
      "outputs": [
        {
          "components": [
            {
              "internalType": "address",
              "name": "memaddress",
              "type": "address"
            },
            {
              "internalType": "string",
              "name": "name",
              "type": "string"
            },
            {
              "internalType": "uint256",
              "name": "aadhaar",
              "type": "uint256"
            },
            {
              "internalType": "string",
              "name": "desig",
              "type": "string"
            },
            {
              "internalType": "uint256",
              "name": "balance",
              "type": "uint256"
            },
            {
              "internalType": "uint256",
              "name": "loan",
              "type": "uint256"
            }
          ],
          "internalType": "struct DK.Member[]",
          "name": "",
          "type": "tuple[]"
        }
      ],
      "stateMutability": "view",
      "type": "function"
    },
    {
      "inputs": [],
      "name": "getNotifications",
      "outputs": [
        {
          "components": [
            {
              "internalType": "string",
              "name": "title",
              "type": "string"
            },
            {
              "internalType": "string",
              "name": "desc",
              "type": "string"
            },
            {
              "internalType": "string",
              "name": "link",
              "type": "string"
            }
          ],
          "internalType": "struct DK.Notification[]",
          "name": "",
          "type": "tuple[]"
        }
      ],
      "stateMutability": "view",
      "type": "function"
    },
    {
      "inputs": [],
      "name": "getNumberOfMembersInSHG",
      "outputs": [
        {
          "internalType": "uint256",
          "name": "",
          "type": "uint256"
        }
      ],
      "stateMutability": "view",
      "type": "function"
    },
    {
      "inputs": [],
      "name": "getPendingSHGs",
      "outputs": [
        {
          "components": [
            {
              "internalType": "string",
              "name": "name",
              "type": "string"
            },
            {
              "internalType": "string",
              "name": "applicant",
              "type": "string"
            },
            {
              "internalType": "string",
              "name": "location",
              "type": "string"
            },
            {
              "internalType": "address",
              "name": "applicant_address",
              "type": "address"
            },
            {
              "internalType": "uint256",
              "name": "SHGRegisterTime",
              "type": "uint256"
            }
          ],
          "internalType": "struct DK.SHG[]",
          "name": "",
          "type": "tuple[]"
        }
      ],
      "stateMutability": "view",
      "type": "function"
    },
    {
      "inputs": [
        {
          "internalType": "uint256",
          "name": "",
          "type": "uint256"
        },
        {
          "internalType": "address",
          "name": "",
          "type": "address"
        }
      ],
      "name": "hasVoted",
      "outputs": [
        {
          "internalType": "bool",
          "name": "",
          "type": "bool"
        }
      ],
      "stateMutability": "view",
      "type": "function"
    },
    {
      "inputs": [
        {
          "internalType": "uint256",
          "name": "",
          "type": "uint256"
        },
        {
          "internalType": "address",
          "name": "",
          "type": "address"
        }
      ],
      "name": "hasVotedForNominee",
      "outputs": [
        {
          "internalType": "bool",
          "name": "",
          "type": "bool"
        }
      ],
      "stateMutability": "view",
      "type": "function"
    },
    {
      "inputs": [],
      "name": "loanPay",
      "outputs": [],
      "stateMutability": "payable",
      "type": "function"
    },
    {
      "inputs": [
        {
          "internalType": "string",
          "name": "_name",
          "type": "string"
        },
        {
          "internalType": "uint256",
          "name": "_aadhar",
          "type": "uint256"
        },
        {
          "internalType": "uint256",
          "name": "SHGindex",
          "type": "uint256"
        }
      ],
      "name": "memRegandJoin",
      "outputs": [],
      "stateMutability": "nonpayable",
      "type": "function"
    },
    {
      "inputs": [
        {
          "internalType": "address",
          "name": "",
          "type": "address"
        }
      ],
      "name": "memberToSHGIndex",
      "outputs": [
        {
          "internalType": "uint256",
          "name": "",
          "type": "uint256"
        }
      ],
      "stateMutability": "view",
      "type": "function"
    },
    {
      "inputs": [
        {
          "internalType": "uint256",
          "name": "",
          "type": "uint256"
        }
      ],
      "name": "members",
      "outputs": [
        {
          "internalType": "address",
          "name": "memaddress",
          "type": "address"
        },
        {
          "internalType": "string",
          "name": "name",
          "type": "string"
        },
        {
          "internalType": "uint256",
          "name": "aadhaar",
          "type": "uint256"
        },
        {
          "internalType": "string",
          "name": "desig",
          "type": "string"
        },
        {
          "internalType": "uint256",
          "name": "balance",
          "type": "uint256"
        },
        {
          "internalType": "uint256",
          "name": "loan",
          "type": "uint256"
        }
      ],
      "stateMutability": "view",
      "type": "function"
    },
    {
      "inputs": [],
      "name": "memdash",
      "outputs": [
        {
          "internalType": "uint256",
          "name": "",
          "type": "uint256"
        },
        {
          "internalType": "uint256",
          "name": "",
          "type": "uint256"
        },
        {
          "internalType": "uint256",
          "name": "",
          "type": "uint256"
        }
      ],
      "stateMutability": "view",
      "type": "function"
    },
    {
      "inputs": [
        {
          "internalType": "uint256",
          "name": "",
          "type": "uint256"
        }
      ],
      "name": "n",
      "outputs": [
        {
          "internalType": "string",
          "name": "title",
          "type": "string"
        },
        {
          "internalType": "string",
          "name": "desc",
          "type": "string"
        },
        {
          "internalType": "string",
          "name": "link",
          "type": "string"
        }
      ],
      "stateMutability": "view",
      "type": "function"
    },
    {
      "inputs": [],
      "name": "nominatePresident",
      "outputs": [],
      "stateMutability": "nonpayable",
      "type": "function"
    },
    {
      "inputs": [
        {
          "internalType": "uint256",
          "name": "",
          "type": "uint256"
        }
      ],
      "name": "pendingSHGs",
      "outputs": [
        {
          "internalType": "string",
          "name": "name",
          "type": "string"
        },
        {
          "internalType": "string",
          "name": "applicant",
          "type": "string"
        },
        {
          "internalType": "string",
          "name": "location",
          "type": "string"
        },
        {
          "internalType": "address",
          "name": "applicant_address",
          "type": "address"
        },
        {
          "internalType": "uint256",
          "name": "SHGRegisterTime",
          "type": "uint256"
        }
      ],
      "stateMutability": "view",
      "type": "function"
    },
    {
      "inputs": [
        {
          "internalType": "uint256",
          "name": "",
          "type": "uint256"
        },
        {
          "internalType": "uint256",
          "name": "",
          "type": "uint256"
        }
      ],
      "name": "shgIndexToLoan",
      "outputs": [
        {
          "internalType": "address payable",
          "name": "applicant_add",
          "type": "address"
        },
        {
          "internalType": "string",
          "name": "applicant_name",
          "type": "string"
        },
        {
          "internalType": "uint256",
          "name": "amount",
          "type": "uint256"
        },
        {
          "internalType": "uint256",
          "name": "yesCount",
          "type": "uint256"
        },
        {
          "internalType": "bool",
          "name": "completed",
          "type": "bool"
        },
        {
          "internalType": "bool",
          "name": "claimed",
          "type": "bool"
        },
        {
          "internalType": "uint256",
          "name": "startTime",
          "type": "uint256"
        }
      ],
      "stateMutability": "view",
      "type": "function"
    },
    {
      "inputs": [
        {
          "internalType": "uint256",
          "name": "",
          "type": "uint256"
        },
        {
          "internalType": "address",
          "name": "",
          "type": "address"
        }
      ],
      "name": "shgNominations",
      "outputs": [
        {
          "internalType": "address",
          "name": "nominee",
          "type": "address"
        },
        {
          "internalType": "string",
          "name": "name",
          "type": "string"
        },
        {
          "internalType": "uint256",
          "name": "timestamp",
          "type": "uint256"
        },
        {
          "internalType": "uint256",
          "name": "supportCount",
          "type": "uint256"
        }
      ],
      "stateMutability": "view",
      "type": "function"
    },
    {
      "inputs": [
        {
          "internalType": "uint256",
          "name": "",
          "type": "uint256"
        }
      ],
      "name": "shgToMeet",
      "outputs": [
        {
          "internalType": "string",
          "name": "agenda",
          "type": "string"
        },
        {
          "internalType": "string",
          "name": "link",
          "type": "string"
        },
        {
          "internalType": "string",
          "name": "time",
          "type": "string"
        },
        {
          "internalType": "string",
          "name": "date",
          "type": "string"
        },
        {
          "internalType": "bool",
          "name": "isSet",
          "type": "bool"
        }
      ],
      "stateMutability": "view",
      "type": "function"
    },
    {
      "inputs": [],
      "name": "viewMeet",
      "outputs": [
        {
          "components": [
            {
              "internalType": "string",
              "name": "agenda",
              "type": "string"
            },
            {
              "internalType": "string",
              "name": "link",
              "type": "string"
            },
            {
              "internalType": "string",
              "name": "time",
              "type": "string"
            },
            {
              "internalType": "string",
              "name": "date",
              "type": "string"
            },
            {
              "internalType": "bool",
              "name": "isSet",
              "type": "bool"
            }
          ],
          "internalType": "struct DK.Meet",
          "name": "meet",
          "type": "tuple"
        }
      ],
      "stateMutability": "view",
      "type": "function"
    },
    {
      "inputs": [],
      "name": "viewNominations",
      "outputs": [
        {
          "components": [
            {
              "internalType": "address",
              "name": "nominee",
              "type": "address"
            },
            {
              "internalType": "string",
              "name": "name",
              "type": "string"
            },
            {
              "internalType": "uint256",
              "name": "timestamp",
              "type": "uint256"
            },
            {
              "internalType": "uint256",
              "name": "supportCount",
              "type": "uint256"
            }
          ],
          "internalType": "struct DK.Nomination[]",
          "name": "",
          "type": "tuple[]"
        }
      ],
      "stateMutability": "view",
      "type": "function"
    },
    {
      "inputs": [],
      "name": "viewloan",
      "outputs": [
        {
          "components": [
            {
              "internalType": "address payable",
              "name": "applicant_add",
              "type": "address"
            },
            {
              "internalType": "string",
              "name": "applicant_name",
              "type": "string"
            },
            {
              "internalType": "uint256",
              "name": "amount",
              "type": "uint256"
            },
            {
              "internalType": "uint256",
              "name": "yesCount",
              "type": "uint256"
            },
            {
              "internalType": "bool",
              "name": "completed",
              "type": "bool"
            },
            {
              "internalType": "bool",
              "name": "claimed",
              "type": "bool"
            },
            {
              "internalType": "uint256",
              "name": "startTime",
              "type": "uint256"
            }
          ],
          "internalType": "struct DK.Loanvote[]",
          "name": "",
          "type": "tuple[]"
        }
      ],
      "stateMutability": "view",
      "type": "function"
    },
    {
      "inputs": [
        {
          "internalType": "uint256",
          "name": "_index",
          "type": "uint256"
        }
      ],
      "name": "vote",
      "outputs": [],
      "stateMutability": "nonpayable",
      "type": "function"
    },
    {
      "inputs": [
        {
          "internalType": "address",
          "name": "nominee",
          "type": "address"
        }
      ],
      "name": "voteNominee",
      "outputs": [],
      "stateMutability": "nonpayable",
      "type": "function"
    },
    {
      "inputs": [],
      "name": "weeklyPay",
      "outputs": [],
      "stateMutability": "payable",
      "type": "function"
    }
  ],
  "bytecode": "0x608060405234801561001057600080fd5b50600580546001600160a01b03191633179055614d33806100326000396000f3fe60806040526004361061021a5760003560e01c80638a957a6d11610123578063b7ea07a9116100ab578063e11ed6e91161006f578063e11ed6e914610692578063eca6e1ae146106cd578063f11021a2146106e2578063f8571c96146106f7578063ff78c7e31461071757600080fd5b8063b7ea07a9146105f9578063cc5870e41461061b578063cde2342414610623578063cf48bd2c14610650578063cf71355b1461067257600080fd5b8063a3a4333b116100f2578063a3a4333b14610536578063a64fc4ec14610556578063a6ef2b5c14610586578063b40ebaaf146105a6578063b515e12c146105c657600080fd5b80638a957a6d146104cc57806391e5c024146104ec5780639eab52531461050c578063a2bc7eb41461052e57600080fd5b806343859632116101a65780636f9fb98a116101755780636f9fb98a146104315780637c276e291461044e5780637c3d483e146104705780638881aba4146104855780638916eee3146104b757600080fd5b8063438596321461038257806354736af1146103bd5780635daf08ca146103df5780636005fec61461041157600080fd5b80631cd9ad7b116101ed5780631cd9ad7b146102bd5780632495b5fc146102ed5780632d22f7fb1461031c57806330edbbaa1461033c5780633296fd341461036d57600080fd5b80630121b93f1461021f5780630e16199d146102415780631436e435146102615780631514e44b1461029b575b600080fd5b34801561022b57600080fd5b5061023f61023a36600461401a565b610737565b005b34801561024d57600080fd5b5061023f61025c36600461401a565b6108d9565b34801561026d57600080fd5b5061028161027c36600461401a565b610ada565b604051610292959493929190614079565b60405180910390f35b3480156102a757600080fd5b506102b0610cc2565b60405161029291906140d0565b3480156102c957600080fd5b506102dd6102d836600461401a565b610efa565b6040519015158152602001610292565b3480156102f957600080fd5b5061030d61030836600461401a565b61112e565b60405161029293929190614190565b34801561032857600080fd5b5061023f610337366004614276565b611300565b34801561034857600080fd5b5061035c61035736600461401a565b6115f6565b6040516102929594939291906142c4565b34801561037957600080fd5b5061023f611847565b34801561038e57600080fd5b506102dd61039d366004614342565b600b60209081526000928352604080842090915290825290205460ff1681565b3480156103c957600080fd5b506103d2611af9565b604051610292919061436e565b3480156103eb57600080fd5b506103ff6103fa36600461401a565b611c7d565b6040516102929695949392919061441a565b34801561041d57600080fd5b5061023f61042c36600461401a565b611ddf565b34801561043d57600080fd5b50475b604051908152602001610292565b34801561045a57600080fd5b50610463611feb565b604051610292919061446c565b34801561047c57600080fd5b506102b061239c565b34801561049157600080fd5b506000546002546001545b60408051938452602084019290925290820152606001610292565b3480156104c357600080fd5b5061049c6125cb565b3480156104d857600080fd5b5061023f6104e73660046144f6565b612915565b3480156104f857600080fd5b5061023f61050736600461401a565b612aea565b34801561051857600080fd5b50610521612d49565b6040516102929190614518565b61023f612ef7565b34801561054257600080fd5b5061023f61055136600461401a565b613053565b34801561056257600080fd5b50610576610571366004614342565b6132de565b60405161029294939291906145c7565b34801561059257600080fd5b506102816105a136600461401a565b6133a4565b3480156105b257600080fd5b5061023f6105c13660046145fe565b6133b4565b3480156105d257600080fd5b506105e66105e1366004614686565b613481565b60405161029297969594939291906146a8565b34801561060557600080fd5b5061060e613577565b60405161029291906146f8565b61023f613834565b34801561062f57600080fd5b5061044061063e3660046144f6565b60036020526000908152604090205481565b34801561065c57600080fd5b506106656139e7565b6040516102929190614786565b34801561067e57600080fd5b5061023f61068d3660046145fe565b613bf3565b34801561069e57600080fd5b506102dd6106ad366004614342565b600760209081526000928352604080842090915290825290205460ff1681565b3480156106d957600080fd5b506102dd613c85565b3480156106ee57600080fd5b50610440613cd8565b34801561070357600080fd5b5061023f61071236600461481b565b613ecb565b34801561072357600080fd5b506103ff610732366004614686565b613f7f565b33600081815260036020908152604080832054858452600b83528184209484529390915290205460ff16156107c15760405162461bcd60e51b815260206004820152602560248201527f596f75206861766520616c726561647920766f74656420666f722074686973206044820152640d2dcc8caf60db1b60648201526084015b60405180910390fd5b6000818152600a602052604081208054849081106107e1576107e16148e2565b60009182526020909120600690910201600481015490915060ff161561086f5760405162461bcd60e51b815260206004820152603c60248201527f566f74696e672069732065697468657220636f6d706c65746564206f7220746960448201527f6d6520686173206578706972656420666f722074686973206c6f616e0000000060648201526084016107b8565b6005810154610881906201518061490e565b42111561089a57600401805460ff191660011790555050565b6003810180549060006108ac83614927565b909155505050600091825250600b602090815260408083203384529091529020805460ff19166001179055565b336000908152600360209081526040808320548084526004909252822090916060905b82548110156109fb57336001600160a01b0316838281548110610921576109216148e2565b60009182526020909120600690910201546001600160a01b0316036109f357828181548110610952576109526148e2565b9060005260206000209060060201600101805461096e90614940565b80601f016020809104026020016040519081016040528092919081815260200182805461099a90614940565b80156109e75780601f106109bc576101008083540402835291602001916109e7565b820191906000526020600020905b8154815290600101906020018083116109ca57829003601f168201915b505050505091506109fb565b6001016108fc565b506000838152600a60209081526040808320815160e081018352338152808401868152928101899052606081018590526080810185905260a081018590524260c082015281546001808201845592865293909420845160069094020180546001600160a01b0319166001600160a01b03909416939093178355905190820190610a8490826149c7565b506040820151600282015560608201516003820155608082015160048201805460a085015115156101000261ff00199315159390931661ffff199091161791909117905560c09091015160059091015550505050565b60018181548110610aea57600080fd5b9060005260206000209060050201600091509050806000018054610b0d90614940565b80601f0160208091040260200160405190810160405280929190818152602001828054610b3990614940565b8015610b865780601f10610b5b57610100808354040283529160200191610b86565b820191906000526020600020905b815481529060010190602001808311610b6957829003601f168201915b505050505090806001018054610b9b90614940565b80601f0160208091040260200160405190810160405280929190818152602001828054610bc790614940565b8015610c145780601f10610be957610100808354040283529160200191610c14565b820191906000526020600020905b815481529060010190602001808311610bf757829003601f168201915b505050505090806002018054610c2990614940565b80601f0160208091040260200160405190810160405280929190818152602001828054610c5590614940565b8015610ca25780601f10610c7757610100808354040283529160200191610ca2565b820191906000526020600020905b815481529060010190602001808311610c8557829003601f168201915b50505050600383015460049093015491926001600160a01b031691905085565b60606001805480602002602001604051908101604052809291908181526020016000905b82821015610ef157838290600052602060002090600502016040518060a0016040529081600082018054610d1990614940565b80601f0160208091040260200160405190810160405280929190818152602001828054610d4590614940565b8015610d925780601f10610d6757610100808354040283529160200191610d92565b820191906000526020600020905b815481529060010190602001808311610d7557829003601f168201915b50505050508152602001600182018054610dab90614940565b80601f0160208091040260200160405190810160405280929190818152602001828054610dd790614940565b8015610e245780601f10610df957610100808354040283529160200191610e24565b820191906000526020600020905b815481529060010190602001808311610e0757829003601f168201915b50505050508152602001600282018054610e3d90614940565b80601f0160208091040260200160405190810160405280929190818152602001828054610e6990614940565b8015610eb65780601f10610e8b57610100808354040283529160200191610eb6565b820191906000526020600020905b815481529060010190602001808311610e9957829003601f168201915b505050918352505060038201546001600160a01b03166020808301919091526004909201546040909101529082526001929092019101610ce6565b50505050905090565b600081815260046020908152604080832080548251818502810185019093528083528493849084015b828210156110ad5760008481526020908190206040805160c081019091526006850290910180546001600160a01b031682526001810180549293919291840191610f6c90614940565b80601f0160208091040260200160405190810160405280929190818152602001828054610f9890614940565b8015610fe55780601f10610fba57610100808354040283529160200191610fe5565b820191906000526020600020905b815481529060010190602001808311610fc857829003601f168201915b505050505081526020016002820154815260200160038201805461100890614940565b80601f016020809104026020016040519081016040528092919081815260200182805461103490614940565b80156110815780601f1061105657610100808354040283529160200191611081565b820191906000526020600020905b81548152906001019060200180831161106457829003601f168201915b505050505081526020016004820154815260200160058201548152505081526020019060010190610f23565b50505050905060005b8151811015611124576007600085815260200190815260200160002060008383815181106110e6576110e66148e2565b602090810291909101810151516001600160a01b031682528101919091526040016000205460ff1661111c575060009392505050565b6001016110b6565b5060019392505050565b6008818154811061113e57600080fd5b906000526020600020906003020160009150905080600001805461116190614940565b80601f016020809104026020016040519081016040528092919081815260200182805461118d90614940565b80156111da5780601f106111af576101008083540402835291602001916111da565b820191906000526020600020905b8154815290600101906020018083116111bd57829003601f168201915b5050505050908060010180546111ef90614940565b80601f016020809104026020016040519081016040528092919081815260200182805461121b90614940565b80156112685780601f1061123d57610100808354040283529160200191611268565b820191906000526020600020905b81548152906001019060200180831161124b57829003601f168201915b50505050509080600201805461127d90614940565b80601f01602080910402602001604051908101604052809291908181526020018280546112a990614940565b80156112f65780601f106112cb576101008083540402835291602001916112f6565b820191906000526020600020905b8154815290600101906020018083116112d957829003601f168201915b5050505050905083565b60005b60025481101561139957336001600160a01b03166002828154811061132a5761132a6148e2565b60009182526020909120600690910201546001600160a01b0316036113915760405162461bcd60e51b815260206004820152601960248201527f4d656d62657220616c726561647920726567697374657265640000000000000060448201526064016107b8565b600101611303565b5060005481106113df5760405162461bcd60e51b8152602060048201526011602482015270092dcecc2d8d2c840a6908e40d2dcc8caf607b1b60448201526064016107b8565b33600090815260036020526040812082905580546060919083908110611407576114076148e2565b60009182526020909120600360059092020101546001600160a01b031633036114505750604080518082019091526009815268141c995cda59195b9d60ba1b602082015261146f565b5060408051808201909152600681526526b2b6b132b960d11b60208201525b6040805160c081018252338152602081018681529181018590526060810183905260006080820181905260a0820181905260028054600181018255915281517f405787fa12a823e0f2b7631cc41b3ba8828b3321ca811111fa75cd3aa3bb5ace600690920291820180546001600160a01b0319166001600160a01b0390921691909117815592519192839290917f405787fa12a823e0f2b7631cc41b3ba8828b3321ca811111fa75cd3aa3bb5acf019061152990826149c7565b50604082015160028201556060820151600382019061154890826149c7565b50608082015160048281019190915560a090920151600590910155600084815260209182526040812080546001808201835591835291839020845160069093020180546001600160a01b0319166001600160a01b039093169290921782559183015183928201906115b990826149c7565b5060408201516002820155606082015160038201906115d890826149c7565b506080820151816004015560a0820151816005015550505050505050565b60096020526000908152604090208054819061161190614940565b80601f016020809104026020016040519081016040528092919081815260200182805461163d90614940565b801561168a5780601f1061165f5761010080835404028352916020019161168a565b820191906000526020600020905b81548152906001019060200180831161166d57829003601f168201915b50505050509080600101805461169f90614940565b80601f01602080910402602001604051908101604052809291908181526020018280546116cb90614940565b80156117185780601f106116ed57610100808354040283529160200191611718565b820191906000526020600020905b8154815290600101906020018083116116fb57829003601f168201915b50505050509080600201805461172d90614940565b80601f016020809104026020016040519081016040528092919081815260200182805461175990614940565b80156117a65780601f1061177b576101008083540402835291602001916117a6565b820191906000526020600020905b81548152906001019060200180831161178957829003601f168201915b5050505050908060030180546117bb90614940565b80601f01602080910402602001604051908101604052809291908181526020018280546117e790614940565b80156118345780601f1061180957610100808354040283529160200191611834565b820191906000526020600020905b81548152906001019060200180831161181757829003601f168201915b5050506004909301549192505060ff1685565b33600090815260036020526040812054905481106118775760405162461bcd60e51b81526004016107b890614a87565b6000818154811061188a5761188a6148e2565b906000526020600020906005020160040154620151806118aa919061490e565b4211156119045760405162461bcd60e51b815260206004820152602260248201527f54696d6520666f72206e6f6d696e6174696f6e7320616c726561647920656e64604482015261195960f21b60648201526084016107b8565b60008181526006602090815260408083203384529091529020600201541561196e5760405162461bcd60e51b815260206004820152601a60248201527f596f75206861766520616c7265616479206e6f6d696e6174656400000000000060448201526064016107b8565b606060005b600254811015611a7557336001600160a01b03166002828154811061199a5761199a6148e2565b60009182526020909120600690910201546001600160a01b031603611a6d57600281815481106119cc576119cc6148e2565b906000526020600020906006020160010180546119e890614940565b80601f0160208091040260200160405190810160405280929190818152602001828054611a1490614940565b8015611a615780601f10611a3657610100808354040283529160200191611a61565b820191906000526020600020905b815481529060010190602001808311611a4457829003601f168201915b50505050509150611a75565b600101611973565b506040805160808101825233808252602080830185815242848601526000606085018190528781526006835285812093815292909152929020815181546001600160a01b0319166001600160a01b0390911617815591519091906001820190611ade90826149c7565b50604082015160028201556060909101516003909101555050565b336000908152600360205260408120549054606091908110611b2d5760405162461bcd60e51b81526004016107b890614a87565b6000818152600a6020908152604080832080548251818502810185019093528083529193909284015b82821015611c735760008481526020908190206040805160e081019091526006850290910180546001600160a01b031682526001810180549293919291840191611b9f90614940565b80601f0160208091040260200160405190810160405280929190818152602001828054611bcb90614940565b8015611c185780601f10611bed57610100808354040283529160200191611c18565b820191906000526020600020905b815481529060010190602001808311611bfb57829003601f168201915b5050509183525050600282015460208083019190915260038301546040830152600483015460ff80821615156060850152610100909104161515608083015260059092015460a0909101529082526001929092019101611b56565b5050505091505090565b60028181548110611c8d57600080fd5b6000918252602090912060069091020180546001820180546001600160a01b03909216935090611cbc90614940565b80601f0160208091040260200160405190810160405280929190818152602001828054611ce890614940565b8015611d355780601f10611d0a57610100808354040283529160200191611d35565b820191906000526020600020905b815481529060010190602001808311611d1857829003601f168201915b505050505090806002015490806003018054611d5090614940565b80601f0160208091040260200160405190810160405280929190818152602001828054611d7c90614940565b8015611dc95780601f10611d9e57610100808354040283529160200191611dc9565b820191906000526020600020905b815481529060010190602001808311611dac57829003601f168201915b5050505050908060040154908060050154905086565b6001548110611e205760405162461bcd60e51b815260206004820152600d60248201526c092dcecc2d8d2c840d2dcc8caf609b1b60448201526064016107b8565b600060018281548110611e3557611e356148e2565b6000918252602080832084546001810186559484529220600591820290920192020180611e628382614ad1565b50600181810190611e7590840182614ad1565b50600281810190611e8890840182614ad1565b5060038281015490820180546001600160a01b0319166001600160a01b0390921691909117905560049182015491015560018054611ec69190614bac565b8114611f7e5760018054611edb908290614bac565b81548110611eeb57611eeb6148e2565b906000526020600020906005020160018281548110611f0c57611f0c6148e2565b6000918252602090912060059091020180611f278382614ad1565b50600181810190611f3a90840182614ad1565b50600281810190611f4d90840182614ad1565b5060038281015490820180546001600160a01b0319166001600160a01b039092169190911790556004918201549101555b6001805480611f8f57611f8f614bbf565b60008281526020812060001990920191600583020190611faf8282613fcc565b611fbd600183016000613fcc565b611fcb600283016000613fcc565b506003810180546001600160a01b03191690556000600490910155905550565b33600090815260036020526040812054905460609190811061201f5760405162461bcd60e51b81526004016107b890614a87565b600081815260046020908152604080832080548251818502810185019093528083529192909190849084015b828210156121d55760008481526020908190206040805160c081019091526006850290910180546001600160a01b03168252600181018054929391929184019161209490614940565b80601f01602080910402602001604051908101604052809291908181526020018280546120c090614940565b801561210d5780601f106120e25761010080835404028352916020019161210d565b820191906000526020600020905b8154815290600101906020018083116120f057829003601f168201915b505050505081526020016002820154815260200160038201805461213090614940565b80601f016020809104026020016040519081016040528092919081815260200182805461215c90614940565b80156121a95780601f1061217e576101008083540402835291602001916121a9565b820191906000526020600020905b81548152906001019060200180831161218c57829003601f168201915b50505050508152602001600482015481526020016005820154815250508152602001906001019061204b565b5050505090506000815167ffffffffffffffff8111156121f7576121f76141d3565b60405190808252806020026020018201604052801561225c57816020015b612249604051806080016040528060006001600160a01b031681526020016060815260200160008152602001600081525090565b8152602001906001900390816122155790505b50905060005b825181101561239457600083828151811061227f5761227f6148e2565b6020908102919091018101515160008781526006835260408082206001600160a01b038085168452908552918190208151608081019092528054909216815260018201805493955090939192918401916122d890614940565b80601f016020809104026020016040519081016040528092919081815260200182805461230490614940565b80156123515780601f1061232657610100808354040283529160200191612351565b820191906000526020600020905b81548152906001019060200180831161233457829003601f168201915b5050505050815260200160028201548152602001600382015481525050838381518110612380576123806148e2565b602090810291909101015250600101612262565b509392505050565b60606000805480602002602001604051908101604052809291908181526020016000905b82821015610ef157838290600052602060002090600502016040518060a00160405290816000820180546123f390614940565b80601f016020809104026020016040519081016040528092919081815260200182805461241f90614940565b801561246c5780601f106124415761010080835404028352916020019161246c565b820191906000526020600020905b81548152906001019060200180831161244f57829003601f168201915b5050505050815260200160018201805461248590614940565b80601f01602080910402602001604051908101604052809291908181526020018280546124b190614940565b80156124fe5780601f106124d3576101008083540402835291602001916124fe565b820191906000526020600020905b8154815290600101906020018083116124e157829003601f168201915b5050505050815260200160028201805461251790614940565b80601f016020809104026020016040519081016040528092919081815260200182805461254390614940565b80156125905780601f1061256557610100808354040283529160200191612590565b820191906000526020600020905b81548152906001019060200180831161257357829003601f168201915b505050918352505060038201546001600160a01b031660208083019190915260049092015460409091015290825260019290920191016123c0565b600080808080808080805b6002548110156126a357336001600160a01b0316600282815481106125fd576125fd6148e2565b60009182526020909120600690910201546001600160a01b03160361269b576001925060028181548110612633576126336148e2565b90600052602060002090600602016004015495506002818154811061265a5761265a6148e2565b906000526020600020906006020160050154945060036000336001600160a01b03166001600160a01b031681526020019081526020016000205491506126a3565b6001016125d6565b50816126fb5760405162461bcd60e51b815260206004820152602160248201527f43616c6c6572206973206e6f7420612072656769737465726564206d656d62656044820152603960f91b60648201526084016107b8565b5033600090815260036020908152604080832054808452600483528184208054835181860281018601909452808452919493909190849084015b828210156128bf5760008481526020908190206040805160c081019091526006850290910180546001600160a01b03168252600181018054929391929184019161277e90614940565b80601f01602080910402602001604051908101604052809291908181526020018280546127aa90614940565b80156127f75780601f106127cc576101008083540402835291602001916127f7565b820191906000526020600020905b8154815290600101906020018083116127da57829003601f168201915b505050505081526020016002820154815260200160038201805461281a90614940565b80601f016020809104026020016040519081016040528092919081815260200182805461284690614940565b80156128935780601f1061286857610100808354040283529160200191612893565b820191906000526020600020905b81548152906001019060200180831161287657829003601f168201915b505050505081526020016004820154815260200160058201548152505081526020019060010190612735565b50505050905060005b8151811015612904578181815181106128e3576128e36148e2565b602002602001015160800151856128fa919061490e565b94506001016128c8565b509498939750919550919350505050565b33600090815260036020526040812054905481106129455760405162461bcd60e51b81526004016107b890614a87565b600081815260076020908152604080832033845290915290205460ff16156129af5760405162461bcd60e51b815260206004820152601860248201527f43616c6c65722068617320616c726561647920766f746564000000000000000060448201526064016107b8565b6000818152600460205260408120815b8154811015612a1457846001600160a01b03168282815481106129e4576129e46148e2565b60009182526020909120600690910201546001600160a01b031603612a0c5760019250612a14565b6001016129bf565b5081612a735760405162461bcd60e51b815260206004820152602860248201527f4e6f6d696e6565206d7573742062652061206d656d626572206f66207468652060448201526773616d652053484760c01b60648201526084016107b8565b60008381526006602090815260408083206001600160a01b03881684529091528120600301805491612aa483614927565b909155505060008381526007602090815260408083203384529091529020805460ff19166001179055612ad683610efa565b15612ae457612ae483612aea565b50505050565b60008181526004602052604081209080805b8354811015612b6a576000848281548110612b1957612b196148e2565b600091825260208083206006928302015489845291815260408084206001600160a01b03909316808552929091529091206003015490915083811115612b60578093508194505b5050600101612afc565b5060005b8354811015612ce357826001600160a01b0316848281548110612b9357612b936148e2565b60009182526020909120600690910201546001600160a01b031603612c095760405180604001604052806009815260200168141c995cda59195b9d60ba1b815250848281548110612be657612be66148e2565b90600052602060002090600602016003019081612c0391906149c7565b50612cdb565b604080518082019091526009815268141c995cda59195b9d60ba1b60209091015283547fe4908534c74d6a5bdfd3b1ff6c0cdaff6418140d4c5c84d5c706dfe7e9fdc28e90859083908110612c6057612c606148e2565b9060005260206000209060060201600301604051612c7e9190614bd5565b604051809103902003612cdb576040518060400160405280600681526020016526b2b6b132b960d11b815250848281548110612cbc57612cbc6148e2565b90600052602060002090600602016003019081612cd991906149c7565b505b600101612b6e565b5060008481526006602090815260408083206001600160a01b03861684529091529081902090517f7a5d29e32af9a8cc7984d4e609b51e96e2dd51aef64e3109b0ba93a70f47a9cc91612d3b91600190910190614c4b565b60405180910390a150505050565b60606002805480602002602001604051908101604052809291908181526020016000905b82821015610ef15760008481526020908190206040805160c081019091526006850290910180546001600160a01b031682526001810180549293919291840191612db690614940565b80601f0160208091040260200160405190810160405280929190818152602001828054612de290614940565b8015612e2f5780601f10612e0457610100808354040283529160200191612e2f565b820191906000526020600020905b815481529060010190602001808311612e1257829003601f168201915b5050505050815260200160028201548152602001600382018054612e5290614940565b80601f0160208091040260200160405190810160405280929190818152602001828054612e7e90614940565b8015612ecb5780601f10612ea057610100808354040283529160200191612ecb565b820191906000526020600020905b815481529060010190602001808311612eae57829003601f168201915b505050505081526020016004820154815260200160058201548152505081526020019060010190612d6d565b60003411612f375760405162461bcd60e51b815260206004820152600d60248201526c139bc81d985b1d59481cd95b9d609a1b60448201526064016107b8565b60005b60025481101561305057336001600160a01b031660028281548110612f6157612f616148e2565b60009182526020909120600690910201546001600160a01b0316036130485760028181548110612f9357612f936148e2565b9060005260206000209060060201600501543411156130095760405162461bcd60e51b815260206004820152602c60248201527f506c656173652073656e6420616e20616d6f756e74206c657373207468616e2060448201526b3cb7bab9103637b0b717171760a11b60648201526084016107b8565b346002828154811061301d5761301d6148e2565b9060005260206000209060060201600501600082825461303d9190614bac565b909155506130509050565b600101612f3a565b50565b33600090815260036020526040812054905481106130835760405162461bcd60e51b81526004016107b890614a87565b6000818152600a602052604081208054849081106130a3576130a36148e2565b6000918252602090912060069091020180549091506001600160a01b0316331461311e5760405162461bcd60e51b815260206004820152602660248201527f4f6e6c7920746865206170706c6963616e742063616e20636c61696d20746865604482015265103b37ba329760d11b60648201526084016107b8565b6004810154610100900460ff16156131785760405162461bcd60e51b815260206004820152601e60248201527f4c6f616e2068617320616c7265616479206265656e20636c61696d65642e000060448201526064016107b8565b6000828152600460205260409020546003820154613197600283614cdb565b81116131f55760405162461bcd60e51b815260206004820152602760248201527f4e6f7420656e6f7567682079657320766f74657320746f20636c61696d20746860448201526632903b37ba329760c91b60648201526084016107b8565b825460028401546040516001600160a01b039092169181156108fc0291906000818181858888f19350505050158015613232573d6000803e3d6000fd5b5060005b6002548110156132c757336001600160a01b03166002828154811061325d5761325d6148e2565b60009182526020909120600690910201546001600160a01b0316036132bf57836002015460028281548110613294576132946148e2565b906000526020600020906006020160050160008282546132b4919061490e565b909155506132c79050565b600101613236565b505050600401805461ff0019166101001790555050565b6006602090815260009283526040808420909152908252902080546001820180546001600160a01b03909216929161331590614940565b80601f016020809104026020016040519081016040528092919081815260200182805461334190614940565b801561338e5780601f106133635761010080835404028352916020019161338e565b820191906000526020600020905b81548152906001019060200180831161337157829003601f168201915b5050505050908060020154908060030154905084565b60008181548110610aea57600080fd5b6040805160a08101825284815260208101849052908101829052336060820152426080820152600180548082018255600091909152815160059091027fb10e2d527612073b26eecdfd717e6a320cf44b4afac2b0732d9fcbe2b7fa0cf60190819061341f90826149c7565b506020820151600182019061343490826149c7565b506040820151600282019061344990826149c7565b5060608201516003820180546001600160a01b0319166001600160a01b03909216919091179055608090910151600490910155505050565b600a602052816000526040600020818154811061349d57600080fd5b6000918252602090912060069091020180546001820180546001600160a01b0390921694509192506134ce90614940565b80601f01602080910402602001604051908101604052809291908181526020018280546134fa90614940565b80156135475780601f1061351c57610100808354040283529160200191613547565b820191906000526020600020905b81548152906001019060200180831161352a57829003601f168201915b505050506002830154600384015460048501546005909501549394919390925060ff808316926101009004169087565b6135ab6040518060a00160405280606081526020016060815260200160608152602001606081526020016000151581525090565b336000908152600360209081526040808320548084526009909252808320815160a081019092528054929392829082906135e490614940565b80601f016020809104026020016040519081016040528092919081815260200182805461361090614940565b801561365d5780601f106136325761010080835404028352916020019161365d565b820191906000526020600020905b81548152906001019060200180831161364057829003601f168201915b5050505050815260200160018201805461367690614940565b80601f01602080910402602001604051908101604052809291908181526020018280546136a290614940565b80156136ef5780601f106136c4576101008083540402835291602001916136ef565b820191906000526020600020905b8154815290600101906020018083116136d257829003601f168201915b5050505050815260200160028201805461370890614940565b80601f016020809104026020016040519081016040528092919081815260200182805461373490614940565b80156137815780601f1061375657610100808354040283529160200191613781565b820191906000526020600020905b81548152906001019060200180831161376457829003601f168201915b5050505050815260200160038201805461379a90614940565b80601f01602080910402602001604051908101604052809291908181526020018280546137c690614940565b80156138135780601f106137e857610100808354040283529160200191613813565b820191906000526020600020905b8154815290600101906020018083116137f657829003601f168201915b50505091835250506004919091015460ff1615156020909101529392505050565b600034116138745760405162461bcd60e51b815260206004820152600d60248201526c139bc81d985b1d59481cd95b9d609a1b60448201526064016107b8565b33600090815260036020526040812054905481106138a45760405162461bcd60e51b81526004016107b890614a87565b60005b60025481101561393457336001600160a01b0316600282815481106138ce576138ce6148e2565b60009182526020909120600690910201546001600160a01b03160361392c573460028281548110613901576139016148e2565b90600052602060002090600602016004016000828254613921919061490e565b909155506139349050565b6001016138a7565b506000818152600460205260408120815b815481101561399957336001600160a01b031682828154811061396a5761396a6148e2565b60009182526020909120600690910201546001600160a01b03160361399157809250613999565b600101613945565b5060008381526004602052604090208054349190849081106139bd576139bd6148e2565b906000526020600020906006020160040160008282546139dd919061490e565b9091555050505050565b60606008805480602002602001604051908101604052809291908181526020016000905b82821015610ef15783829060005260206000209060030201604051806060016040529081600082018054613a3e90614940565b80601f0160208091040260200160405190810160405280929190818152602001828054613a6a90614940565b8015613ab75780601f10613a8c57610100808354040283529160200191613ab7565b820191906000526020600020905b815481529060010190602001808311613a9a57829003601f168201915b50505050508152602001600182018054613ad090614940565b80601f0160208091040260200160405190810160405280929190818152602001828054613afc90614940565b8015613b495780601f10613b1e57610100808354040283529160200191613b49565b820191906000526020600020905b815481529060010190602001808311613b2c57829003601f168201915b50505050508152602001600282018054613b6290614940565b80601f0160208091040260200160405190810160405280929190818152602001828054613b8e90614940565b8015613bdb5780601f10613bb057610100808354040283529160200191613bdb565b820191906000526020600020905b815481529060010190602001808311613bbe57829003601f168201915b50505050508152505081526020019060010190613a0b565b604080516060810182528481526020810184905290810182905260088054600181018255600091909152815160039091027ff3f7a9fe364faab93b216da50a3214154f22a0a2b415b23a84c8169e8b636ee301908190613c5390826149c7565b5060208201516001820190613c6890826149c7565b5060408201516002820190613c7d90826149c7565b505050505050565b3360009081526003602052604081205481548290819083908110613cab57613cab6148e2565b90600052602060002090600502016004015490508062015180613cce919061490e565b4210159250505090565b3360009081526003602052604081205481548110613d085760405162461bcd60e51b81526004016107b890614a87565b600081815260046020908152604080832080548251818502810185019093528083529192909190849084015b82821015613ebe5760008481526020908190206040805160c081019091526006850290910180546001600160a01b031682526001810180549293919291840191613d7d90614940565b80601f0160208091040260200160405190810160405280929190818152602001828054613da990614940565b8015613df65780601f10613dcb57610100808354040283529160200191613df6565b820191906000526020600020905b815481529060010190602001808311613dd957829003601f168201915b5050505050815260200160028201548152602001600382018054613e1990614940565b80601f0160208091040260200160405190810160405280929190818152602001828054613e4590614940565b8015613e925780601f10613e6757610100808354040283529160200191613e92565b820191906000526020600020905b815481529060010190602001808311613e7557829003601f168201915b505050505081526020016004820154815260200160058201548152505081526020019060010190613d34565b5050915195945050505050565b33600090815260036020908152604080832054815160a0810183528981528084018990528083018890526060810187905285151560808201528185526009909352922081518190613f1c90826149c7565b5060208201516001820190613f3190826149c7565b5060408201516002820190613f4690826149c7565b5060608201516003820190613f5b90826149c7565b50608091909101516004909101805460ff1916911515919091179055505050505050565b60046020528160005260406000208181548110613f9b57600080fd5b6000918252602090912060069091020180546001820180546001600160a01b039092169450919250611cbc90614940565b508054613fd890614940565b6000825580601f10613fe8575050565b601f01602090049060005260206000209081019061305091905b808211156140165760008155600101614002565b5090565b60006020828403121561402c57600080fd5b5035919050565b6000815180845260005b818110156140595760208185018101518683018201520161403d565b506000602082860101526020601f19601f83011685010191505092915050565b60a08152600061408c60a0830188614033565b828103602084015261409e8188614033565b905082810360408401526140b28187614033565b6001600160a01b039590951660608401525050608001529392505050565b600060208083018184528085518083526040925060408601915060408160051b87010184880160005b8381101561418257603f19898403018552815160a0815181865261411f82870182614033565b915050888201518582038a8701526141378282614033565b915050878201518582038987015261414f8282614033565b6060848101516001600160a01b0316908801526080938401519390960192909252505093860193908601906001016140f9565b509098975050505050505050565b6060815260006141a36060830186614033565b82810360208401526141b58186614033565b905082810360408401526141c98185614033565b9695505050505050565b634e487b7160e01b600052604160045260246000fd5b600082601f8301126141fa57600080fd5b813567ffffffffffffffff80821115614215576142156141d3565b604051601f8301601f19908116603f0116810190828211818310171561423d5761423d6141d3565b8160405283815286602085880101111561425657600080fd5b836020870160208301376000602085830101528094505050505092915050565b60008060006060848603121561428b57600080fd5b833567ffffffffffffffff8111156142a257600080fd5b6142ae868287016141e9565b9660208601359650604090950135949350505050565b60a0815260006142d760a0830188614033565b82810360208401526142e98188614033565b905082810360408401526142fd8187614033565b905082810360608401526143118186614033565b91505082151560808301529695505050505050565b80356001600160a01b038116811461433d57600080fd5b919050565b6000806040838503121561435557600080fd5b8235915061436560208401614326565b90509250929050565b600060208083018184528085518083526040925060408601915060408160051b87010184880160005b8381101561418257888303603f19018552815180516001600160a01b031684528781015160e0898601819052906143d082870182614033565b838a0151878b01526060808501519088015260808085015115159088015260a08085015115159088015260c093840151939096019290925250509386019390860190600101614397565b6001600160a01b038716815260c06020820181905260009061443e90830188614033565b86604084015282810360608401526144568187614033565b6080840195909552505060a00152949350505050565b600060208083018184528085518083526040925060408601915060408160051b87010184880160005b8381101561418257888303603f19018552815180516001600160a01b03168452878101516080898601819052906144ce82870182614033565b838a0151878b0152606093840151939096019290925250509386019390860190600101614495565b60006020828403121561450857600080fd5b61451182614326565b9392505050565b600060208083018184528085518083526040925060408601915060408160051b87010184880160005b8381101561418257888303603f19018552815180516001600160a01b031684528781015160c08986018190529061457a82870182614033565b91505087820151888601526060808301518683038288015261459c8382614033565b6080858101519089015260a09485015194909701939093525050509386019390860190600101614541565b6001600160a01b03851681526080602082018190526000906145eb90830186614033565b6040830194909452506060015292915050565b60008060006060848603121561461357600080fd5b833567ffffffffffffffff8082111561462b57600080fd5b614637878388016141e9565b9450602086013591508082111561464d57600080fd5b614659878388016141e9565b9350604086013591508082111561466f57600080fd5b5061467c868287016141e9565b9150509250925092565b6000806040838503121561469957600080fd5b50508035926020909101359150565b6001600160a01b038816815260e0602082018190526000906146cc90830189614033565b60408301979097525060608101949094529115156080840152151560a083015260c09091015292915050565b602081526000825160a0602084015261471460c0840182614033565b90506020840151601f19808584030160408601526147328383614033565b9250604086015191508085840301606086015261474f8383614033565b925060608601519150808584030160808601525061476d8282614033565b9150506080840151151560a08401528091505092915050565b600060208083018184528085518083526040925060408601915060408160051b87010184880160005b8381101561418257603f198984030185528151606081518186526147d582870182614033565b915050888201518582038a8701526147ed8282614033565b915050878201519150848103888601526148078183614033565b9689019694505050908601906001016147af565b600080600080600060a0868803121561483357600080fd5b853567ffffffffffffffff8082111561484b57600080fd5b61485789838a016141e9565b9650602088013591508082111561486d57600080fd5b61487989838a016141e9565b9550604088013591508082111561488f57600080fd5b61489b89838a016141e9565b945060608801359150808211156148b157600080fd5b506148be888289016141e9565b925050608086013580151581146148d457600080fd5b809150509295509295909350565b634e487b7160e01b600052603260045260246000fd5b634e487b7160e01b600052601160045260246000fd5b80820180821115614921576149216148f8565b92915050565b600060018201614939576149396148f8565b5060010190565b600181811c9082168061495457607f821691505b60208210810361497457634e487b7160e01b600052602260045260246000fd5b50919050565b601f8211156149c2576000816000526020600020601f850160051c810160208610156149a35750805b601f850160051c820191505b81811015613c7d578281556001016149af565b505050565b815167ffffffffffffffff8111156149e1576149e16141d3565b6149f5816149ef8454614940565b8461497a565b602080601f831160018114614a2a5760008415614a125750858301515b600019600386901b1c1916600185901b178555613c7d565b600085815260208120601f198616915b82811015614a5957888601518255948401946001909101908401614a3a565b5085821015614a775787850151600019600388901b60f8161c191681555b5050505050600190811b01905550565b6020808252602a908201527f43616c6c6572206973206e6f742061206d656d626572206f6620616e7920617060408201526970726f7665642053484760b01b606082015260800190565b818103614adc575050565b614ae68254614940565b67ffffffffffffffff811115614afe57614afe6141d3565b614b0c816149ef8454614940565b6000601f821160018114614b405760008315614b285750848201545b600019600385901b1c1916600184901b178455614ba5565b600085815260209020601f19841690600086815260209020845b83811015614b7a5782860154825560019586019590910190602001614b5a565b5085831015614b985781850154600019600388901b60f8161c191681555b50505060018360011b0184555b5050505050565b81810381811115614921576149216148f8565b634e487b7160e01b600052603160045260246000fd5b6000808354614be381614940565b60018281168015614bfb5760018114614c1057614c3f565b60ff1984168752821515830287019450614c3f565b8760005260208060002060005b85811015614c365781548a820152908401908201614c1d565b50505082870194505b50929695505050505050565b6000602080835260008454614c5f81614940565b8060208701526040600180841660008114614c815760018114614c9d57614ccd565b60ff19851660408a0152604084151560051b8a01019550614ccd565b89600052602060002060005b85811015614cc45781548b8201860152908301908801614ca9565b8a016040019650505b509398975050505050505050565b600082614cf857634e487b7160e01b600052601260045260246000fd5b50049056fea264697066735822122004762c082aacc695f0da3fac30b59f6f6b790eaf91c7d41ab08adbf514ded6a864736f6c63430008180033",
  "linkReferences": {},
  "deployedLinkReferences": {}
}