{
  "_format": "hh-sol-artifact-1",
  "contractName": "DK",
  "address": "0xEAb83CB26039331C5e782B1968C9158CF0237d81",
  "sourceName": "contracts/DK.sol",
  "abi": [
    {
      "inputs": [],
      "stateMutability": "nonpayable",
      "type": "constructor"
    },
    {
      "anonymous": false,
      "inputs": [
        {
          "indexed": false,
          "internalType": "string",
          "name": "name",
          "type": "string"
        }
      ],
      "name": "NewPresidentAssigned",
      "type": "event"
    },
    {
      "inputs": [
        {
          "internalType": "uint256",
          "name": "",
          "type": "uint256"
        },
        {
          "internalType": "uint256",
          "name": "",
          "type": "uint256"
        }
      ],
      "name": "SHGToMember",
      "outputs": [
        {
          "internalType": "address",
          "name": "memaddress",
          "type": "address"
        },
        {
          "internalType": "string",
          "name": "name",
          "type": "string"
        },
        {
          "internalType": "uint256",
          "name": "aadhaar",
          "type": "uint256"
        },
        {
          "internalType": "string",
          "name": "desig",
          "type": "string"
        },
        {
          "internalType": "uint256",
          "name": "balance",
          "type": "uint256"
        },
        {
          "internalType": "uint256",
          "name": "loan",
          "type": "uint256"
        }
      ],
      "stateMutability": "view",
      "type": "function"
    },
    {
      "inputs": [
        {
          "internalType": "uint256",
          "name": "shgIndex",
          "type": "uint256"
        }
      ],
      "name": "allMembersHaveVoted",
      "outputs": [
        {
          "internalType": "bool",
          "name": "",
          "type": "bool"
        }
      ],
      "stateMutability": "view",
      "type": "function"
    },
    {
      "inputs": [
        {
          "internalType": "uint256",
          "name": "index",
          "type": "uint256"
        }
      ],
      "name": "approveSHG",
      "outputs": [],
      "stateMutability": "nonpayable",
      "type": "function"
    },
    {
      "inputs": [
        {
          "internalType": "uint256",
          "name": "",
          "type": "uint256"
        }
      ],
      "name": "approvedSHGs",
      "outputs": [
        {
          "internalType": "string",
          "name": "name",
          "type": "string"
        },
        {
          "internalType": "string",
          "name": "applicant",
          "type": "string"
        },
        {
          "internalType": "string",
          "name": "location",
          "type": "string"
        },
        {
          "internalType": "address",
          "name": "applicant_address",
          "type": "address"
        },
        {
          "internalType": "uint256",
          "name": "SHGRegisterTime",
          "type": "uint256"
        }
      ],
      "stateMutability": "view",
      "type": "function"
    },
    {
      "inputs": [
        {
          "internalType": "uint256",
          "name": "shgIndex",
          "type": "uint256"
        }
      ],
      "name": "assignNewPresident",
      "outputs": [],
      "stateMutability": "nonpayable",
      "type": "function"
    },
    {
      "inputs": [],
      "name": "cdsdash",
      "outputs": [
        {
          "internalType": "uint256",
          "name": "",
          "type": "uint256"
        },
        {
          "internalType": "uint256",
          "name": "",
          "type": "uint256"
        },
        {
          "internalType": "uint256",
          "name": "",
          "type": "uint256"
        }
      ],
      "stateMutability": "view",
      "type": "function"
    },
    {
      "inputs": [],
      "name": "checkPresidentTenureOver",
      "outputs": [
        {
          "internalType": "bool",
          "name": "",
          "type": "bool"
        }
      ],
      "stateMutability": "view",
      "type": "function"
    },
    {
      "inputs": [
        {
          "internalType": "uint256",
          "name": "_index",
          "type": "uint256"
        }
      ],
      "name": "claimVote",
      "outputs": [],
      "stateMutability": "nonpayable",
      "type": "function"
    },
    {
      "inputs": [
        {
          "internalType": "string",
          "name": "_agenta",
          "type": "string"
        },
        {
          "internalType": "string",
          "name": "_link",
          "type": "string"
        },
        {
          "internalType": "string",
          "name": "_time",
          "type": "string"
        },
        {
          "internalType": "string",
          "name": "_date",
          "type": "string"
        },
        {
          "internalType": "bool",
          "name": "_isSet",
          "type": "bool"
        }
      ],
      "name": "createMeet",
      "outputs": [],
      "stateMutability": "nonpayable",
      "type": "function"
    },
    {
      "inputs": [
        {
          "internalType": "string",
          "name": "_title",
          "type": "string"
        },
        {
          "internalType": "string",
          "name": "_desc",
          "type": "string"
        },
        {
          "internalType": "string",
          "name": "_link",
          "type": "string"
        }
      ],
      "name": "createNotification",
      "outputs": [],
      "stateMutability": "nonpayable",
      "type": "function"
    },
    {
      "inputs": [
        {
          "internalType": "string",
          "name": "_name",
          "type": "string"
        },
        {
          "internalType": "string",
          "name": "_applicant",
          "type": "string"
        },
        {
          "internalType": "string",
          "name": "_location",
          "type": "string"
        }
      ],
      "name": "createSHG",
      "outputs": [],
      "stateMutability": "nonpayable",
      "type": "function"
    },
    {
      "inputs": [
        {
          "internalType": "uint256",
          "name": "_amount",
          "type": "uint256"
        }
      ],
      "name": "createloan",
      "outputs": [],
      "stateMutability": "nonpayable",
      "type": "function"
    },
    {
      "inputs": [],
      "name": "getApprovedSHGs",
      "outputs": [
        {
          "components": [
            {
              "internalType": "string",
              "name": "name",
              "type": "string"
            },
            {
              "internalType": "string",
              "name": "applicant",
              "type": "string"
            },
            {
              "internalType": "string",
              "name": "location",
              "type": "string"
            },
            {
              "internalType": "address",
              "name": "applicant_address",
              "type": "address"
            },
            {
              "internalType": "uint256",
              "name": "SHGRegisterTime",
              "type": "uint256"
            }
          ],
          "internalType": "struct DK.SHG[]",
          "name": "",
          "type": "tuple[]"
        }
      ],
      "stateMutability": "view",
      "type": "function"
    },
    {
      "inputs": [],
      "name": "getContractBalance",
      "outputs": [
        {
          "internalType": "uint256",
          "name": "",
          "type": "uint256"
        }
      ],
      "stateMutability": "view",
      "type": "function"
    },
    {
      "inputs": [],
      "name": "getNotifications",
      "outputs": [
        {
          "components": [
            {
              "internalType": "string",
              "name": "title",
              "type": "string"
            },
            {
              "internalType": "string",
              "name": "desc",
              "type": "string"
            },
            {
              "internalType": "string",
              "name": "link",
              "type": "string"
            }
          ],
          "internalType": "struct DK.Notification[]",
          "name": "",
          "type": "tuple[]"
        }
      ],
      "stateMutability": "view",
      "type": "function"
    },
    {
      "inputs": [],
      "name": "getNumberOfMembersInSHG",
      "outputs": [
        {
          "internalType": "uint256",
          "name": "",
          "type": "uint256"
        }
      ],
      "stateMutability": "view",
      "type": "function"
    },
    {
      "inputs": [],
      "name": "getPendingSHGs",
      "outputs": [
        {
          "components": [
            {
              "internalType": "string",
              "name": "name",
              "type": "string"
            },
            {
              "internalType": "string",
              "name": "applicant",
              "type": "string"
            },
            {
              "internalType": "string",
              "name": "location",
              "type": "string"
            },
            {
              "internalType": "address",
              "name": "applicant_address",
              "type": "address"
            },
            {
              "internalType": "uint256",
              "name": "SHGRegisterTime",
              "type": "uint256"
            }
          ],
          "internalType": "struct DK.SHG[]",
          "name": "",
          "type": "tuple[]"
        }
      ],
      "stateMutability": "view",
      "type": "function"
    },
    {
      "inputs": [
        {
          "internalType": "uint256",
          "name": "",
          "type": "uint256"
        },
        {
          "internalType": "address",
          "name": "",
          "type": "address"
        }
      ],
      "name": "hasVoted",
      "outputs": [
        {
          "internalType": "bool",
          "name": "",
          "type": "bool"
        }
      ],
      "stateMutability": "view",
      "type": "function"
    },
    {
      "inputs": [
        {
          "internalType": "uint256",
          "name": "",
          "type": "uint256"
        },
        {
          "internalType": "address",
          "name": "",
          "type": "address"
        }
      ],
      "name": "hasVotedForNominee",
      "outputs": [
        {
          "internalType": "bool",
          "name": "",
          "type": "bool"
        }
      ],
      "stateMutability": "view",
      "type": "function"
    },
    {
      "inputs": [],
      "name": "loanPay",
      "outputs": [],
      "stateMutability": "payable",
      "type": "function"
    },
    {
      "inputs": [
        {
          "internalType": "string",
          "name": "_name",
          "type": "string"
        },
        {
          "internalType": "uint256",
          "name": "_aadhar",
          "type": "uint256"
        },
        {
          "internalType": "uint256",
          "name": "SHGindex",
          "type": "uint256"
        }
      ],
      "name": "memRegandJoin",
      "outputs": [],
      "stateMutability": "nonpayable",
      "type": "function"
    },
    {
      "inputs": [
        {
          "internalType": "address",
          "name": "",
          "type": "address"
        }
      ],
      "name": "memberToSHGIndex",
      "outputs": [
        {
          "internalType": "uint256",
          "name": "",
          "type": "uint256"
        }
      ],
      "stateMutability": "view",
      "type": "function"
    },
    {
      "inputs": [
        {
          "internalType": "uint256",
          "name": "",
          "type": "uint256"
        }
      ],
      "name": "members",
      "outputs": [
        {
          "internalType": "address",
          "name": "memaddress",
          "type": "address"
        },
        {
          "internalType": "string",
          "name": "name",
          "type": "string"
        },
        {
          "internalType": "uint256",
          "name": "aadhaar",
          "type": "uint256"
        },
        {
          "internalType": "string",
          "name": "desig",
          "type": "string"
        },
        {
          "internalType": "uint256",
          "name": "balance",
          "type": "uint256"
        },
        {
          "internalType": "uint256",
          "name": "loan",
          "type": "uint256"
        }
      ],
      "stateMutability": "view",
      "type": "function"
    },
    {
      "inputs": [],
      "name": "memdash",
      "outputs": [
        {
          "internalType": "uint256",
          "name": "",
          "type": "uint256"
        },
        {
          "internalType": "uint256",
          "name": "",
          "type": "uint256"
        },
        {
          "internalType": "uint256",
          "name": "",
          "type": "uint256"
        }
      ],
      "stateMutability": "view",
      "type": "function"
    },
    {
      "inputs": [
        {
          "internalType": "uint256",
          "name": "",
          "type": "uint256"
        }
      ],
      "name": "n",
      "outputs": [
        {
          "internalType": "string",
          "name": "title",
          "type": "string"
        },
        {
          "internalType": "string",
          "name": "desc",
          "type": "string"
        },
        {
          "internalType": "string",
          "name": "link",
          "type": "string"
        }
      ],
      "stateMutability": "view",
      "type": "function"
    },
    {
      "inputs": [],
      "name": "nominatePresident",
      "outputs": [],
      "stateMutability": "nonpayable",
      "type": "function"
    },
    {
      "inputs": [
        {
          "internalType": "uint256",
          "name": "",
          "type": "uint256"
        }
      ],
      "name": "pendingSHGs",
      "outputs": [
        {
          "internalType": "string",
          "name": "name",
          "type": "string"
        },
        {
          "internalType": "string",
          "name": "applicant",
          "type": "string"
        },
        {
          "internalType": "string",
          "name": "location",
          "type": "string"
        },
        {
          "internalType": "address",
          "name": "applicant_address",
          "type": "address"
        },
        {
          "internalType": "uint256",
          "name": "SHGRegisterTime",
          "type": "uint256"
        }
      ],
      "stateMutability": "view",
      "type": "function"
    },
    {
      "inputs": [
        {
          "internalType": "uint256",
          "name": "",
          "type": "uint256"
        },
        {
          "internalType": "uint256",
          "name": "",
          "type": "uint256"
        }
      ],
      "name": "shgIndexToLoan",
      "outputs": [
        {
          "internalType": "address payable",
          "name": "applicant_add",
          "type": "address"
        },
        {
          "internalType": "string",
          "name": "applicant_name",
          "type": "string"
        },
        {
          "internalType": "uint256",
          "name": "amount",
          "type": "uint256"
        },
        {
          "internalType": "uint256",
          "name": "yesCount",
          "type": "uint256"
        },
        {
          "internalType": "bool",
          "name": "completed",
          "type": "bool"
        },
        {
          "internalType": "bool",
          "name": "claimed",
          "type": "bool"
        },
        {
          "internalType": "uint256",
          "name": "startTime",
          "type": "uint256"
        }
      ],
      "stateMutability": "view",
      "type": "function"
    },
    {
      "inputs": [
        {
          "internalType": "uint256",
          "name": "",
          "type": "uint256"
        },
        {
          "internalType": "address",
          "name": "",
          "type": "address"
        }
      ],
      "name": "shgNominations",
      "outputs": [
        {
          "internalType": "address",
          "name": "nominee",
          "type": "address"
        },
        {
          "internalType": "string",
          "name": "name",
          "type": "string"
        },
        {
          "internalType": "uint256",
          "name": "timestamp",
          "type": "uint256"
        },
        {
          "internalType": "uint256",
          "name": "supportCount",
          "type": "uint256"
        }
      ],
      "stateMutability": "view",
      "type": "function"
    },
    {
      "inputs": [
        {
          "internalType": "uint256",
          "name": "",
          "type": "uint256"
        }
      ],
      "name": "shgToMeet",
      "outputs": [
        {
          "internalType": "string",
          "name": "agenda",
          "type": "string"
        },
        {
          "internalType": "string",
          "name": "link",
          "type": "string"
        },
        {
          "internalType": "string",
          "name": "time",
          "type": "string"
        },
        {
          "internalType": "string",
          "name": "date",
          "type": "string"
        },
        {
          "internalType": "bool",
          "name": "isSet",
          "type": "bool"
        }
      ],
      "stateMutability": "view",
      "type": "function"
    },
    {
      "inputs": [],
      "name": "viewMeet",
      "outputs": [
        {
          "components": [
            {
              "internalType": "string",
              "name": "agenda",
              "type": "string"
            },
            {
              "internalType": "string",
              "name": "link",
              "type": "string"
            },
            {
              "internalType": "string",
              "name": "time",
              "type": "string"
            },
            {
              "internalType": "string",
              "name": "date",
              "type": "string"
            },
            {
              "internalType": "bool",
              "name": "isSet",
              "type": "bool"
            }
          ],
          "internalType": "struct DK.Meet",
          "name": "meet",
          "type": "tuple"
        }
      ],
      "stateMutability": "view",
      "type": "function"
    },
    {
      "inputs": [],
      "name": "viewNominations",
      "outputs": [
        {
          "components": [
            {
              "internalType": "address",
              "name": "nominee",
              "type": "address"
            },
            {
              "internalType": "string",
              "name": "name",
              "type": "string"
            },
            {
              "internalType": "uint256",
              "name": "timestamp",
              "type": "uint256"
            },
            {
              "internalType": "uint256",
              "name": "supportCount",
              "type": "uint256"
            }
          ],
          "internalType": "struct DK.Nomination[]",
          "name": "",
          "type": "tuple[]"
        }
      ],
      "stateMutability": "view",
      "type": "function"
    },
    {
      "inputs": [],
      "name": "viewloan",
      "outputs": [
        {
          "components": [
            {
              "internalType": "address payable",
              "name": "applicant_add",
              "type": "address"
            },
            {
              "internalType": "string",
              "name": "applicant_name",
              "type": "string"
            },
            {
              "internalType": "uint256",
              "name": "amount",
              "type": "uint256"
            },
            {
              "internalType": "uint256",
              "name": "yesCount",
              "type": "uint256"
            },
            {
              "internalType": "bool",
              "name": "completed",
              "type": "bool"
            },
            {
              "internalType": "bool",
              "name": "claimed",
              "type": "bool"
            },
            {
              "internalType": "uint256",
              "name": "startTime",
              "type": "uint256"
            }
          ],
          "internalType": "struct DK.Loanvote[]",
          "name": "",
          "type": "tuple[]"
        }
      ],
      "stateMutability": "view",
      "type": "function"
    },
    {
      "inputs": [
        {
          "internalType": "uint256",
          "name": "_index",
          "type": "uint256"
        }
      ],
      "name": "vote",
      "outputs": [],
      "stateMutability": "nonpayable",
      "type": "function"
    },
    {
      "inputs": [
        {
          "internalType": "address",
          "name": "nominee",
          "type": "address"
        }
      ],
      "name": "voteNominee",
      "outputs": [],
      "stateMutability": "nonpayable",
      "type": "function"
    },
    {
      "inputs": [],
      "name": "weeklyPay",
      "outputs": [],
      "stateMutability": "payable",
      "type": "function"
    }
  ],
  "bytecode": "0x608060405234801561001057600080fd5b50600580546001600160a01b03191633179055614bb2806100326000396000f3fe60806040526004361061020f5760003560e01c80638a957a6d11610118578063cc5870e4116100a0578063e11ed6e91161006f578063e11ed6e914610663578063eca6e1ae1461069e578063f11021a2146106b3578063f8571c96146106c8578063ff78c7e3146106e857600080fd5b8063cc5870e4146105ec578063cde23424146105f4578063cf48bd2c14610621578063cf71355b1461064357600080fd5b8063a64fc4ec116100e7578063a64fc4ec14610527578063a6ef2b5c14610557578063b40ebaaf14610577578063b515e12c14610597578063b7ea07a9146105ca57600080fd5b80638a957a6d146104bf57806391e5c024146104df578063a2bc7eb4146104ff578063a3a4333b1461050757600080fd5b8063438596321161019b5780636f9fb98a1161016a5780636f9fb98a146104265780637c276e29146104435780637c3d483e146104655780638881aba41461047a5780638916eee3146104aa57600080fd5b8063438596321461037757806354736af1146103b25780635daf08ca146103d45780636005fec61461040657600080fd5b80631cd9ad7b116101e25780631cd9ad7b146102b25780632495b5fc146102e25780632d22f7fb1461031157806330edbbaa146103315780633296fd341461036257600080fd5b80630121b93f146102145780630e16199d146102365780631436e435146102565780631514e44b14610290575b600080fd5b34801561022057600080fd5b5061023461022f366004613f48565b610708565b005b34801561024257600080fd5b50610234610251366004613f48565b6108a9565b34801561026257600080fd5b50610276610271366004613f48565b610aaa565b604051610287959493929190613fa7565b60405180910390f35b34801561029c57600080fd5b506102a5610c92565b6040516102879190613ffe565b3480156102be57600080fd5b506102d26102cd366004613f48565b610eca565b6040519015158152602001610287565b3480156102ee57600080fd5b506103026102fd366004613f48565b6110fe565b604051610287939291906140be565b34801561031d57600080fd5b5061023461032c3660046141a4565b6112d0565b34801561033d57600080fd5b5061035161034c366004613f48565b6115c6565b6040516102879594939291906141f2565b34801561036e57600080fd5b50610234611817565b34801561038357600080fd5b506102d2610392366004614270565b600b60209081526000928352604080842090915290825290205460ff1681565b3480156103be57600080fd5b506103c7611ac8565b604051610287919061429c565b3480156103e057600080fd5b506103f46103ef366004613f48565b611c4c565b60405161028796959493929190614348565b34801561041257600080fd5b50610234610421366004613f48565b611dae565b34801561043257600080fd5b50475b604051908152602001610287565b34801561044f57600080fd5b50610458611fba565b604051610287919061439a565b34801561047157600080fd5b506102a561236b565b34801561048657600080fd5b5061048f61259a565b60408051938452602084019290925290820152606001610287565b3480156104b657600080fd5b5061048f61263e565b3480156104cb57600080fd5b506102346104da366004614424565b612988565b3480156104eb57600080fd5b506102346104fa366004613f48565b612b5d565b610234612dbc565b34801561051357600080fd5b50610234610522366004613f48565b612f18565b34801561053357600080fd5b50610547610542366004614270565b6131a3565b6040516102879493929190614446565b34801561056357600080fd5b50610276610572366004613f48565b613269565b34801561058357600080fd5b5061023461059236600461447d565b613279565b3480156105a357600080fd5b506105b76105b2366004614505565b613346565b6040516102879796959493929190614527565b3480156105d657600080fd5b506105df61343c565b6040516102879190614577565b6102346136f9565b34801561060057600080fd5b5061043561060f366004614424565b60036020526000908152604090205481565b34801561062d57600080fd5b506106366138ac565b6040516102879190614605565b34801561064f57600080fd5b5061023461065e36600461447d565b613ab8565b34801561066f57600080fd5b506102d261067e366004614270565b600760209081526000928352604080842090915290825290205460ff1681565b3480156106aa57600080fd5b506102d2613bb4565b3480156106bf57600080fd5b50610435613c06565b3480156106d457600080fd5b506102346106e336600461469a565b613df9565b3480156106f457600080fd5b506103f4610703366004614505565b613ead565b33600081815260036020908152604080832054858452600b83528184209484529390915290205460ff16156107925760405162461bcd60e51b815260206004820152602560248201527f596f75206861766520616c726561647920766f74656420666f722074686973206044820152640d2dcc8caf60db1b60648201526084015b60405180910390fd5b6000818152600a602052604081208054849081106107b2576107b2614761565b60009182526020909120600690910201600481015490915060ff16156108405760405162461bcd60e51b815260206004820152603c60248201527f566f74696e672069732065697468657220636f6d706c65746564206f7220746960448201527f6d6520686173206578706972656420666f722074686973206c6f616e000000006064820152608401610789565b6005810154610851906104b061478d565b42111561086a57600401805460ff191660011790555050565b60038101805490600061087c836147a6565b909155505050600091825250600b602090815260408083203384529091529020805460ff19166001179055565b336000908152600360209081526040808320548084526004909252822090916060905b82548110156109cb57336001600160a01b03168382815481106108f1576108f1614761565b60009182526020909120600690910201546001600160a01b0316036109c35782818154811061092257610922614761565b9060005260206000209060060201600101805461093e906147bf565b80601f016020809104026020016040519081016040528092919081815260200182805461096a906147bf565b80156109b75780601f1061098c576101008083540402835291602001916109b7565b820191906000526020600020905b81548152906001019060200180831161099a57829003601f168201915b505050505091506109cb565b6001016108cc565b506000838152600a60209081526040808320815160e081018352338152808401868152928101899052606081018590526080810185905260a081018590524260c082015281546001808201845592865293909420845160069094020180546001600160a01b0319166001600160a01b03909416939093178355905190820190610a549082614846565b506040820151600282015560608201516003820155608082015160048201805460a085015115156101000261ff00199315159390931661ffff199091161791909117905560c09091015160059091015550505050565b60018181548110610aba57600080fd5b9060005260206000209060050201600091509050806000018054610add906147bf565b80601f0160208091040260200160405190810160405280929190818152602001828054610b09906147bf565b8015610b565780601f10610b2b57610100808354040283529160200191610b56565b820191906000526020600020905b815481529060010190602001808311610b3957829003601f168201915b505050505090806001018054610b6b906147bf565b80601f0160208091040260200160405190810160405280929190818152602001828054610b97906147bf565b8015610be45780601f10610bb957610100808354040283529160200191610be4565b820191906000526020600020905b815481529060010190602001808311610bc757829003601f168201915b505050505090806002018054610bf9906147bf565b80601f0160208091040260200160405190810160405280929190818152602001828054610c25906147bf565b8015610c725780601f10610c4757610100808354040283529160200191610c72565b820191906000526020600020905b815481529060010190602001808311610c5557829003601f168201915b50505050600383015460049093015491926001600160a01b031691905085565b60606001805480602002602001604051908101604052809291908181526020016000905b82821015610ec157838290600052602060002090600502016040518060a0016040529081600082018054610ce9906147bf565b80601f0160208091040260200160405190810160405280929190818152602001828054610d15906147bf565b8015610d625780601f10610d3757610100808354040283529160200191610d62565b820191906000526020600020905b815481529060010190602001808311610d4557829003601f168201915b50505050508152602001600182018054610d7b906147bf565b80601f0160208091040260200160405190810160405280929190818152602001828054610da7906147bf565b8015610df45780601f10610dc957610100808354040283529160200191610df4565b820191906000526020600020905b815481529060010190602001808311610dd757829003601f168201915b50505050508152602001600282018054610e0d906147bf565b80601f0160208091040260200160405190810160405280929190818152602001828054610e39906147bf565b8015610e865780601f10610e5b57610100808354040283529160200191610e86565b820191906000526020600020905b815481529060010190602001808311610e6957829003601f168201915b505050918352505060038201546001600160a01b03166020808301919091526004909201546040909101529082526001929092019101610cb6565b50505050905090565b600081815260046020908152604080832080548251818502810185019093528083528493849084015b8282101561107d5760008481526020908190206040805160c081019091526006850290910180546001600160a01b031682526001810180549293919291840191610f3c906147bf565b80601f0160208091040260200160405190810160405280929190818152602001828054610f68906147bf565b8015610fb55780601f10610f8a57610100808354040283529160200191610fb5565b820191906000526020600020905b815481529060010190602001808311610f9857829003601f168201915b5050505050815260200160028201548152602001600382018054610fd8906147bf565b80601f0160208091040260200160405190810160405280929190818152602001828054611004906147bf565b80156110515780601f1061102657610100808354040283529160200191611051565b820191906000526020600020905b81548152906001019060200180831161103457829003601f168201915b505050505081526020016004820154815260200160058201548152505081526020019060010190610ef3565b50505050905060005b81518110156110f4576007600085815260200190815260200160002060008383815181106110b6576110b6614761565b602090810291909101810151516001600160a01b031682528101919091526040016000205460ff166110ec575060009392505050565b600101611086565b5060019392505050565b6008818154811061110e57600080fd5b9060005260206000209060030201600091509050806000018054611131906147bf565b80601f016020809104026020016040519081016040528092919081815260200182805461115d906147bf565b80156111aa5780601f1061117f576101008083540402835291602001916111aa565b820191906000526020600020905b81548152906001019060200180831161118d57829003601f168201915b5050505050908060010180546111bf906147bf565b80601f01602080910402602001604051908101604052809291908181526020018280546111eb906147bf565b80156112385780601f1061120d57610100808354040283529160200191611238565b820191906000526020600020905b81548152906001019060200180831161121b57829003601f168201915b50505050509080600201805461124d906147bf565b80601f0160208091040260200160405190810160405280929190818152602001828054611279906147bf565b80156112c65780601f1061129b576101008083540402835291602001916112c6565b820191906000526020600020905b8154815290600101906020018083116112a957829003601f168201915b5050505050905083565b60005b60025481101561136957336001600160a01b0316600282815481106112fa576112fa614761565b60009182526020909120600690910201546001600160a01b0316036113615760405162461bcd60e51b815260206004820152601960248201527f4d656d62657220616c72656164792072656769737465726564000000000000006044820152606401610789565b6001016112d3565b5060005481106113af5760405162461bcd60e51b8152602060048201526011602482015270092dcecc2d8d2c840a6908e40d2dcc8caf607b1b6044820152606401610789565b336000908152600360205260408120829055805460609190839081106113d7576113d7614761565b60009182526020909120600360059092020101546001600160a01b031633036114205750604080518082019091526009815268141c995cda59195b9d60ba1b602082015261143f565b5060408051808201909152600681526526b2b6b132b960d11b60208201525b6040805160c081018252338152602081018681529181018590526060810183905260006080820181905260a0820181905260028054600181018255915281517f405787fa12a823e0f2b7631cc41b3ba8828b3321ca811111fa75cd3aa3bb5ace600690920291820180546001600160a01b0319166001600160a01b0390921691909117815592519192839290917f405787fa12a823e0f2b7631cc41b3ba8828b3321ca811111fa75cd3aa3bb5acf01906114f99082614846565b5060408201516002820155606082015160038201906115189082614846565b50608082015160048281019190915560a090920151600590910155600084815260209182526040812080546001808201835591835291839020845160069093020180546001600160a01b0319166001600160a01b039093169290921782559183015183928201906115899082614846565b5060408201516002820155606082015160038201906115a89082614846565b506080820151816004015560a0820151816005015550505050505050565b6009602052600090815260409020805481906115e1906147bf565b80601f016020809104026020016040519081016040528092919081815260200182805461160d906147bf565b801561165a5780601f1061162f5761010080835404028352916020019161165a565b820191906000526020600020905b81548152906001019060200180831161163d57829003601f168201915b50505050509080600101805461166f906147bf565b80601f016020809104026020016040519081016040528092919081815260200182805461169b906147bf565b80156116e85780601f106116bd576101008083540402835291602001916116e8565b820191906000526020600020905b8154815290600101906020018083116116cb57829003601f168201915b5050505050908060020180546116fd906147bf565b80601f0160208091040260200160405190810160405280929190818152602001828054611729906147bf565b80156117765780601f1061174b57610100808354040283529160200191611776565b820191906000526020600020905b81548152906001019060200180831161175957829003601f168201915b50505050509080600301805461178b906147bf565b80601f01602080910402602001604051908101604052809291908181526020018280546117b7906147bf565b80156118045780601f106117d957610100808354040283529160200191611804565b820191906000526020600020905b8154815290600101906020018083116117e757829003601f168201915b5050506004909301549192505060ff1685565b33600090815260036020526040812054905481106118475760405162461bcd60e51b815260040161078990614906565b6000818154811061185a5761185a614761565b9060005260206000209060050201600401546104b0611879919061478d565b4211156118d35760405162461bcd60e51b815260206004820152602260248201527f54696d6520666f72206e6f6d696e6174696f6e7320616c726561647920656e64604482015261195960f21b6064820152608401610789565b60008181526006602090815260408083203384529091529020600201541561193d5760405162461bcd60e51b815260206004820152601a60248201527f596f75206861766520616c7265616479206e6f6d696e617465640000000000006044820152606401610789565b606060005b600254811015611a4457336001600160a01b03166002828154811061196957611969614761565b60009182526020909120600690910201546001600160a01b031603611a3c576002818154811061199b5761199b614761565b906000526020600020906006020160010180546119b7906147bf565b80601f01602080910402602001604051908101604052809291908181526020018280546119e3906147bf565b8015611a305780601f10611a0557610100808354040283529160200191611a30565b820191906000526020600020905b815481529060010190602001808311611a1357829003601f168201915b50505050509150611a44565b600101611942565b506040805160808101825233808252602080830185815242848601526000606085018190528781526006835285812093815292909152929020815181546001600160a01b0319166001600160a01b0390911617815591519091906001820190611aad9082614846565b50604082015160028201556060909101516003909101555050565b336000908152600360205260408120549054606091908110611afc5760405162461bcd60e51b815260040161078990614906565b6000818152600a6020908152604080832080548251818502810185019093528083529193909284015b82821015611c425760008481526020908190206040805160e081019091526006850290910180546001600160a01b031682526001810180549293919291840191611b6e906147bf565b80601f0160208091040260200160405190810160405280929190818152602001828054611b9a906147bf565b8015611be75780601f10611bbc57610100808354040283529160200191611be7565b820191906000526020600020905b815481529060010190602001808311611bca57829003601f168201915b5050509183525050600282015460208083019190915260038301546040830152600483015460ff80821615156060850152610100909104161515608083015260059092015460a0909101529082526001929092019101611b25565b5050505091505090565b60028181548110611c5c57600080fd5b6000918252602090912060069091020180546001820180546001600160a01b03909216935090611c8b906147bf565b80601f0160208091040260200160405190810160405280929190818152602001828054611cb7906147bf565b8015611d045780601f10611cd957610100808354040283529160200191611d04565b820191906000526020600020905b815481529060010190602001808311611ce757829003601f168201915b505050505090806002015490806003018054611d1f906147bf565b80601f0160208091040260200160405190810160405280929190818152602001828054611d4b906147bf565b8015611d985780601f10611d6d57610100808354040283529160200191611d98565b820191906000526020600020905b815481529060010190602001808311611d7b57829003601f168201915b5050505050908060040154908060050154905086565b6001548110611def5760405162461bcd60e51b815260206004820152600d60248201526c092dcecc2d8d2c840d2dcc8caf609b1b6044820152606401610789565b600060018281548110611e0457611e04614761565b6000918252602080832084546001810186559484529220600591820290920192020180611e318382614950565b50600181810190611e4490840182614950565b50600281810190611e5790840182614950565b5060038281015490820180546001600160a01b0319166001600160a01b0390921691909117905560049182015491015560018054611e959190614a2b565b8114611f4d5760018054611eaa908290614a2b565b81548110611eba57611eba614761565b906000526020600020906005020160018281548110611edb57611edb614761565b6000918252602090912060059091020180611ef68382614950565b50600181810190611f0990840182614950565b50600281810190611f1c90840182614950565b5060038281015490820180546001600160a01b0319166001600160a01b039092169190911790556004918201549101555b6001805480611f5e57611f5e614a3e565b60008281526020812060001990920191600583020190611f7e8282613efa565b611f8c600183016000613efa565b611f9a600283016000613efa565b506003810180546001600160a01b03191690556000600490910155905550565b336000908152600360205260408120549054606091908110611fee5760405162461bcd60e51b815260040161078990614906565b600081815260046020908152604080832080548251818502810185019093528083529192909190849084015b828210156121a45760008481526020908190206040805160c081019091526006850290910180546001600160a01b031682526001810180549293919291840191612063906147bf565b80601f016020809104026020016040519081016040528092919081815260200182805461208f906147bf565b80156120dc5780601f106120b1576101008083540402835291602001916120dc565b820191906000526020600020905b8154815290600101906020018083116120bf57829003601f168201915b50505050508152602001600282015481526020016003820180546120ff906147bf565b80601f016020809104026020016040519081016040528092919081815260200182805461212b906147bf565b80156121785780601f1061214d57610100808354040283529160200191612178565b820191906000526020600020905b81548152906001019060200180831161215b57829003601f168201915b50505050508152602001600482015481526020016005820154815250508152602001906001019061201a565b5050505090506000815167ffffffffffffffff8111156121c6576121c6614101565b60405190808252806020026020018201604052801561222b57816020015b612218604051806080016040528060006001600160a01b031681526020016060815260200160008152602001600081525090565b8152602001906001900390816121e45790505b50905060005b825181101561236357600083828151811061224e5761224e614761565b6020908102919091018101515160008781526006835260408082206001600160a01b038085168452908552918190208151608081019092528054909216815260018201805493955090939192918401916122a7906147bf565b80601f01602080910402602001604051908101604052809291908181526020018280546122d3906147bf565b80156123205780601f106122f557610100808354040283529160200191612320565b820191906000526020600020905b81548152906001019060200180831161230357829003601f168201915b505050505081526020016002820154815260200160038201548152505083838151811061234f5761234f614761565b602090810291909101015250600101612231565b509392505050565b60606000805480602002602001604051908101604052809291908181526020016000905b82821015610ec157838290600052602060002090600502016040518060a00160405290816000820180546123c2906147bf565b80601f01602080910402602001604051908101604052809291908181526020018280546123ee906147bf565b801561243b5780601f106124105761010080835404028352916020019161243b565b820191906000526020600020905b81548152906001019060200180831161241e57829003601f168201915b50505050508152602001600182018054612454906147bf565b80601f0160208091040260200160405190810160405280929190818152602001828054612480906147bf565b80156124cd5780601f106124a2576101008083540402835291602001916124cd565b820191906000526020600020905b8154815290600101906020018083116124b057829003601f168201915b505050505081526020016002820180546124e6906147bf565b80601f0160208091040260200160405190810160405280929190818152602001828054612512906147bf565b801561255f5780601f106125345761010080835404028352916020019161255f565b820191906000526020600020905b81548152906001019060200180831161254257829003601f168201915b505050918352505060038201546001600160a01b0316602080830191909152600490920154604090910152908252600192909201910161238f565b600554600090819081906001600160a01b0316331461262c5760405162461bcd60e51b815260206004820152604260248201527f496e76616c696420617574686f72697a6174696f6e2c204f6e6c79204344532060448201527f41646d696e2063616e2061636365737320746869732064617368626f61726421606482015261212160f01b608482015260a401610789565b50506000546002546001549193909250565b600080808080808080805b60025481101561271657336001600160a01b03166002828154811061267057612670614761565b60009182526020909120600690910201546001600160a01b03160361270e5760019250600281815481106126a6576126a6614761565b9060005260206000209060060201600401549550600281815481106126cd576126cd614761565b906000526020600020906006020160050154945060036000336001600160a01b03166001600160a01b03168152602001908152602001600020549150612716565b600101612649565b508161276e5760405162461bcd60e51b815260206004820152602160248201527f43616c6c6572206973206e6f7420612072656769737465726564206d656d62656044820152603960f91b6064820152608401610789565b5033600090815260036020908152604080832054808452600483528184208054835181860281018601909452808452919493909190849084015b828210156129325760008481526020908190206040805160c081019091526006850290910180546001600160a01b0316825260018101805492939192918401916127f1906147bf565b80601f016020809104026020016040519081016040528092919081815260200182805461281d906147bf565b801561286a5780601f1061283f5761010080835404028352916020019161286a565b820191906000526020600020905b81548152906001019060200180831161284d57829003601f168201915b505050505081526020016002820154815260200160038201805461288d906147bf565b80601f01602080910402602001604051908101604052809291908181526020018280546128b9906147bf565b80156129065780601f106128db57610100808354040283529160200191612906565b820191906000526020600020905b8154815290600101906020018083116128e957829003601f168201915b5050505050815260200160048201548152602001600582015481525050815260200190600101906127a8565b50505050905060005b81518110156129775781818151811061295657612956614761565b6020026020010151608001518561296d919061478d565b945060010161293b565b509498939750919550919350505050565b33600090815260036020526040812054905481106129b85760405162461bcd60e51b815260040161078990614906565b600081815260076020908152604080832033845290915290205460ff1615612a225760405162461bcd60e51b815260206004820152601860248201527f43616c6c65722068617320616c726561647920766f74656400000000000000006044820152606401610789565b6000818152600460205260408120815b8154811015612a8757846001600160a01b0316828281548110612a5757612a57614761565b60009182526020909120600690910201546001600160a01b031603612a7f5760019250612a87565b600101612a32565b5081612ae65760405162461bcd60e51b815260206004820152602860248201527f4e6f6d696e6565206d7573742062652061206d656d626572206f66207468652060448201526773616d652053484760c01b6064820152608401610789565b60008381526006602090815260408083206001600160a01b03881684529091528120600301805491612b17836147a6565b909155505060008381526007602090815260408083203384529091529020805460ff19166001179055612b4983610eca565b15612b5757612b5783612b5d565b50505050565b60008181526004602052604081209080805b8354811015612bdd576000848281548110612b8c57612b8c614761565b600091825260208083206006928302015489845291815260408084206001600160a01b03909316808552929091529091206003015490915083811115612bd3578093508194505b5050600101612b6f565b5060005b8354811015612d5657826001600160a01b0316848281548110612c0657612c06614761565b60009182526020909120600690910201546001600160a01b031603612c7c5760405180604001604052806009815260200168141c995cda59195b9d60ba1b815250848281548110612c5957612c59614761565b90600052602060002090600602016003019081612c769190614846565b50612d4e565b604080518082019091526009815268141c995cda59195b9d60ba1b60209091015283547fe4908534c74d6a5bdfd3b1ff6c0cdaff6418140d4c5c84d5c706dfe7e9fdc28e90859083908110612cd357612cd3614761565b9060005260206000209060060201600301604051612cf19190614a54565b604051809103902003612d4e576040518060400160405280600681526020016526b2b6b132b960d11b815250848281548110612d2f57612d2f614761565b90600052602060002090600602016003019081612d4c9190614846565b505b600101612be1565b5060008481526006602090815260408083206001600160a01b03861684529091529081902090517f7a5d29e32af9a8cc7984d4e609b51e96e2dd51aef64e3109b0ba93a70f47a9cc91612dae91600190910190614aca565b60405180910390a150505050565b60003411612dfc5760405162461bcd60e51b815260206004820152600d60248201526c139bc81d985b1d59481cd95b9d609a1b6044820152606401610789565b60005b600254811015612f1557336001600160a01b031660028281548110612e2657612e26614761565b60009182526020909120600690910201546001600160a01b031603612f0d5760028181548110612e5857612e58614761565b906000526020600020906006020160050154341115612ece5760405162461bcd60e51b815260206004820152602c60248201527f506c656173652073656e6420616e20616d6f756e74206c657373207468616e2060448201526b3cb7bab9103637b0b717171760a11b6064820152608401610789565b3460028281548110612ee257612ee2614761565b90600052602060002090600602016005016000828254612f029190614a2b565b90915550612f159050565b600101612dff565b50565b3360009081526003602052604081205490548110612f485760405162461bcd60e51b815260040161078990614906565b6000818152600a60205260408120805484908110612f6857612f68614761565b6000918252602090912060069091020180549091506001600160a01b03163314612fe35760405162461bcd60e51b815260206004820152602660248201527f4f6e6c7920746865206170706c6963616e742063616e20636c61696d20746865604482015265103b37ba329760d11b6064820152608401610789565b6004810154610100900460ff161561303d5760405162461bcd60e51b815260206004820152601e60248201527f4c6f616e2068617320616c7265616479206265656e20636c61696d65642e00006044820152606401610789565b600082815260046020526040902054600382015461305c600283614b5a565b81116130ba5760405162461bcd60e51b815260206004820152602760248201527f4e6f7420656e6f7567682079657320766f74657320746f20636c61696d20746860448201526632903b37ba329760c91b6064820152608401610789565b825460028401546040516001600160a01b039092169181156108fc0291906000818181858888f193505050501580156130f7573d6000803e3d6000fd5b5060005b60025481101561318c57336001600160a01b03166002828154811061312257613122614761565b60009182526020909120600690910201546001600160a01b0316036131845783600201546002828154811061315957613159614761565b90600052602060002090600602016005016000828254613179919061478d565b9091555061318c9050565b6001016130fb565b505050600401805461ff0019166101001790555050565b6006602090815260009283526040808420909152908252902080546001820180546001600160a01b0390921692916131da906147bf565b80601f0160208091040260200160405190810160405280929190818152602001828054613206906147bf565b80156132535780601f1061322857610100808354040283529160200191613253565b820191906000526020600020905b81548152906001019060200180831161323657829003601f168201915b5050505050908060020154908060030154905084565b60008181548110610aba57600080fd5b6040805160a08101825284815260208101849052908101829052336060820152426080820152600180548082018255600091909152815160059091027fb10e2d527612073b26eecdfd717e6a320cf44b4afac2b0732d9fcbe2b7fa0cf6019081906132e49082614846565b50602082015160018201906132f99082614846565b506040820151600282019061330e9082614846565b5060608201516003820180546001600160a01b0319166001600160a01b03909216919091179055608090910151600490910155505050565b600a602052816000526040600020818154811061336257600080fd5b6000918252602090912060069091020180546001820180546001600160a01b039092169450919250613393906147bf565b80601f01602080910402602001604051908101604052809291908181526020018280546133bf906147bf565b801561340c5780601f106133e15761010080835404028352916020019161340c565b820191906000526020600020905b8154815290600101906020018083116133ef57829003601f168201915b505050506002830154600384015460048501546005909501549394919390925060ff808316926101009004169087565b6134706040518060a00160405280606081526020016060815260200160608152602001606081526020016000151581525090565b336000908152600360209081526040808320548084526009909252808320815160a081019092528054929392829082906134a9906147bf565b80601f01602080910402602001604051908101604052809291908181526020018280546134d5906147bf565b80156135225780601f106134f757610100808354040283529160200191613522565b820191906000526020600020905b81548152906001019060200180831161350557829003601f168201915b5050505050815260200160018201805461353b906147bf565b80601f0160208091040260200160405190810160405280929190818152602001828054613567906147bf565b80156135b45780601f10613589576101008083540402835291602001916135b4565b820191906000526020600020905b81548152906001019060200180831161359757829003601f168201915b505050505081526020016002820180546135cd906147bf565b80601f01602080910402602001604051908101604052809291908181526020018280546135f9906147bf565b80156136465780601f1061361b57610100808354040283529160200191613646565b820191906000526020600020905b81548152906001019060200180831161362957829003601f168201915b5050505050815260200160038201805461365f906147bf565b80601f016020809104026020016040519081016040528092919081815260200182805461368b906147bf565b80156136d85780601f106136ad576101008083540402835291602001916136d8565b820191906000526020600020905b8154815290600101906020018083116136bb57829003601f168201915b50505091835250506004919091015460ff1615156020909101529392505050565b600034116137395760405162461bcd60e51b815260206004820152600d60248201526c139bc81d985b1d59481cd95b9d609a1b6044820152606401610789565b33600090815260036020526040812054905481106137695760405162461bcd60e51b815260040161078990614906565b60005b6002548110156137f957336001600160a01b03166002828154811061379357613793614761565b60009182526020909120600690910201546001600160a01b0316036137f15734600282815481106137c6576137c6614761565b906000526020600020906006020160040160008282546137e6919061478d565b909155506137f99050565b60010161376c565b506000818152600460205260408120815b815481101561385e57336001600160a01b031682828154811061382f5761382f614761565b60009182526020909120600690910201546001600160a01b0316036138565780925061385e565b60010161380a565b50600083815260046020526040902080543491908490811061388257613882614761565b906000526020600020906006020160040160008282546138a2919061478d565b9091555050505050565b60606008805480602002602001604051908101604052809291908181526020016000905b82821015610ec15783829060005260206000209060030201604051806060016040529081600082018054613903906147bf565b80601f016020809104026020016040519081016040528092919081815260200182805461392f906147bf565b801561397c5780601f106139515761010080835404028352916020019161397c565b820191906000526020600020905b81548152906001019060200180831161395f57829003601f168201915b50505050508152602001600182018054613995906147bf565b80601f01602080910402602001604051908101604052809291908181526020018280546139c1906147bf565b8015613a0e5780601f106139e357610100808354040283529160200191613a0e565b820191906000526020600020905b8154815290600101906020018083116139f157829003601f168201915b50505050508152602001600282018054613a27906147bf565b80601f0160208091040260200160405190810160405280929190818152602001828054613a53906147bf565b8015613aa05780601f10613a7557610100808354040283529160200191613aa0565b820191906000526020600020905b815481529060010190602001808311613a8357829003601f168201915b505050505081525050815260200190600101906138d0565b6005546001600160a01b03163314613b225760405162461bcd60e51b815260206004820152602760248201527f4f6e6c79204344532041646d696e2063616e20637265617465206e6f74696669604482015266636174696f6e2160c81b6064820152608401610789565b604080516060810182528481526020810184905290810182905260088054600181018255600091909152815160039091027ff3f7a9fe364faab93b216da50a3214154f22a0a2b415b23a84c8169e8b636ee301908190613b829082614846565b5060208201516001820190613b979082614846565b5060408201516002820190613bac9082614846565b505050505050565b3360009081526003602052604081205481548290819083908110613bda57613bda614761565b90600052602060002090600502016004015490508061012c613bfc919061478d565b4210159250505090565b3360009081526003602052604081205481548110613c365760405162461bcd60e51b815260040161078990614906565b600081815260046020908152604080832080548251818502810185019093528083529192909190849084015b82821015613dec5760008481526020908190206040805160c081019091526006850290910180546001600160a01b031682526001810180549293919291840191613cab906147bf565b80601f0160208091040260200160405190810160405280929190818152602001828054613cd7906147bf565b8015613d245780601f10613cf957610100808354040283529160200191613d24565b820191906000526020600020905b815481529060010190602001808311613d0757829003601f168201915b5050505050815260200160028201548152602001600382018054613d47906147bf565b80601f0160208091040260200160405190810160405280929190818152602001828054613d73906147bf565b8015613dc05780601f10613d9557610100808354040283529160200191613dc0565b820191906000526020600020905b815481529060010190602001808311613da357829003601f168201915b505050505081526020016004820154815260200160058201548152505081526020019060010190613c62565b5050915195945050505050565b33600090815260036020908152604080832054815160a0810183528981528084018990528083018890526060810187905285151560808201528185526009909352922081518190613e4a9082614846565b5060208201516001820190613e5f9082614846565b5060408201516002820190613e749082614846565b5060608201516003820190613e899082614846565b50608091909101516004909101805460ff1916911515919091179055505050505050565b60046020528160005260406000208181548110613ec957600080fd5b6000918252602090912060069091020180546001820180546001600160a01b039092169450919250611c8b906147bf565b508054613f06906147bf565b6000825580601f10613f16575050565b601f016020900490600052602060002090810190612f1591905b80821115613f445760008155600101613f30565b5090565b600060208284031215613f5a57600080fd5b5035919050565b6000815180845260005b81811015613f8757602081850181015186830182015201613f6b565b506000602082860101526020601f19601f83011685010191505092915050565b60a081526000613fba60a0830188613f61565b8281036020840152613fcc8188613f61565b90508281036040840152613fe08187613f61565b6001600160a01b039590951660608401525050608001529392505050565b600060208083018184528085518083526040925060408601915060408160051b87010184880160005b838110156140b057603f19898403018552815160a0815181865261404d82870182613f61565b915050888201518582038a8701526140658282613f61565b915050878201518582038987015261407d8282613f61565b6060848101516001600160a01b031690880152608093840151939096019290925250509386019390860190600101614027565b509098975050505050505050565b6060815260006140d16060830186613f61565b82810360208401526140e38186613f61565b905082810360408401526140f78185613f61565b9695505050505050565b634e487b7160e01b600052604160045260246000fd5b600082601f83011261412857600080fd5b813567ffffffffffffffff8082111561414357614143614101565b604051601f8301601f19908116603f0116810190828211818310171561416b5761416b614101565b8160405283815286602085880101111561418457600080fd5b836020870160208301376000602085830101528094505050505092915050565b6000806000606084860312156141b957600080fd5b833567ffffffffffffffff8111156141d057600080fd5b6141dc86828701614117565b9660208601359650604090950135949350505050565b60a08152600061420560a0830188613f61565b82810360208401526142178188613f61565b9050828103604084015261422b8187613f61565b9050828103606084015261423f8186613f61565b91505082151560808301529695505050505050565b80356001600160a01b038116811461426b57600080fd5b919050565b6000806040838503121561428357600080fd5b8235915061429360208401614254565b90509250929050565b600060208083018184528085518083526040925060408601915060408160051b87010184880160005b838110156140b057888303603f19018552815180516001600160a01b031684528781015160e0898601819052906142fe82870182613f61565b838a0151878b01526060808501519088015260808085015115159088015260a08085015115159088015260c0938401519390960192909252505093860193908601906001016142c5565b6001600160a01b038716815260c06020820181905260009061436c90830188613f61565b86604084015282810360608401526143848187613f61565b6080840195909552505060a00152949350505050565b600060208083018184528085518083526040925060408601915060408160051b87010184880160005b838110156140b057888303603f19018552815180516001600160a01b03168452878101516080898601819052906143fc82870182613f61565b838a0151878b01526060938401519390960192909252505093860193908601906001016143c3565b60006020828403121561443657600080fd5b61443f82614254565b9392505050565b6001600160a01b038516815260806020820181905260009061446a90830186613f61565b6040830194909452506060015292915050565b60008060006060848603121561449257600080fd5b833567ffffffffffffffff808211156144aa57600080fd5b6144b687838801614117565b945060208601359150808211156144cc57600080fd5b6144d887838801614117565b935060408601359150808211156144ee57600080fd5b506144fb86828701614117565b9150509250925092565b6000806040838503121561451857600080fd5b50508035926020909101359150565b6001600160a01b038816815260e06020820181905260009061454b90830189613f61565b60408301979097525060608101949094529115156080840152151560a083015260c09091015292915050565b602081526000825160a0602084015261459360c0840182613f61565b90506020840151601f19808584030160408601526145b18383613f61565b925060408601519150808584030160608601526145ce8383613f61565b92506060860151915080858403016080860152506145ec8282613f61565b9150506080840151151560a08401528091505092915050565b600060208083018184528085518083526040925060408601915060408160051b87010184880160005b838110156140b057603f1989840301855281516060815181865261465482870182613f61565b915050888201518582038a87015261466c8282613f61565b915050878201519150848103888601526146868183613f61565b96890196945050509086019060010161462e565b600080600080600060a086880312156146b257600080fd5b853567ffffffffffffffff808211156146ca57600080fd5b6146d689838a01614117565b965060208801359150808211156146ec57600080fd5b6146f889838a01614117565b9550604088013591508082111561470e57600080fd5b61471a89838a01614117565b9450606088013591508082111561473057600080fd5b5061473d88828901614117565b9250506080860135801515811461475357600080fd5b809150509295509295909350565b634e487b7160e01b600052603260045260246000fd5b634e487b7160e01b600052601160045260246000fd5b808201808211156147a0576147a0614777565b92915050565b6000600182016147b8576147b8614777565b5060010190565b600181811c908216806147d357607f821691505b6020821081036147f357634e487b7160e01b600052602260045260246000fd5b50919050565b601f821115614841576000816000526020600020601f850160051c810160208610156148225750805b601f850160051c820191505b81811015613bac5782815560010161482e565b505050565b815167ffffffffffffffff81111561486057614860614101565b6148748161486e84546147bf565b846147f9565b602080601f8311600181146148a957600084156148915750858301515b600019600386901b1c1916600185901b178555613bac565b600085815260208120601f198616915b828110156148d8578886015182559484019460019091019084016148b9565b50858210156148f65787850151600019600388901b60f8161c191681555b5050505050600190811b01905550565b6020808252602a908201527f43616c6c6572206973206e6f742061206d656d626572206f6620616e7920617060408201526970726f7665642053484760b01b606082015260800190565b81810361495b575050565b61496582546147bf565b67ffffffffffffffff81111561497d5761497d614101565b61498b8161486e84546147bf565b6000601f8211600181146149bf57600083156149a75750848201545b600019600385901b1c1916600184901b178455614a24565b600085815260209020601f19841690600086815260209020845b838110156149f957828601548255600195860195909101906020016149d9565b5085831015614a175781850154600019600388901b60f8161c191681555b50505060018360011b0184555b5050505050565b818103818111156147a0576147a0614777565b634e487b7160e01b600052603160045260246000fd5b6000808354614a62816147bf565b60018281168015614a7a5760018114614a8f57614abe565b60ff1984168752821515830287019450614abe565b8760005260208060002060005b85811015614ab55781548a820152908401908201614a9c565b50505082870194505b50929695505050505050565b6000602080835260008454614ade816147bf565b8060208701526040600180841660008114614b005760018114614b1c57614b4c565b60ff19851660408a0152604084151560051b8a01019550614b4c565b89600052602060002060005b85811015614b435781548b8201860152908301908801614b28565b8a016040019650505b509398975050505050505050565b600082614b7757634e487b7160e01b600052601260045260246000fd5b50049056fea26469706673582212201dd67582068e71860bfa855364cbb360afa1027fd9bfc6e59cccc900ad42cd4e64736f6c63430008180033",
  "linkReferences": {},
  "deployedLinkReferences": {}
}