{
  "_format": "hh-sol-artifact-1",
  "contractName": "DK",
  "sourceName": "contracts/DK.sol",
  "address": "0x5972f24cBABBf117674307B5d500A99fcbDcf6B1",
  "abi": [
    {
      "inputs": [],
      "stateMutability": "nonpayable",
      "type": "constructor"
    },
    {
      "inputs": [
        {
          "internalType": "uint256",
          "name": "",
          "type": "uint256"
        },
        {
          "internalType": "uint256",
          "name": "",
          "type": "uint256"
        }
      ],
      "name": "SHGToMember",
      "outputs": [
        {
          "internalType": "address",
          "name": "memaddress",
          "type": "address"
        },
        {
          "internalType": "string",
          "name": "name",
          "type": "string"
        },
        {
          "internalType": "uint256",
          "name": "aadhaar",
          "type": "uint256"
        },
        {
          "internalType": "string",
          "name": "desig",
          "type": "string"
        },
        {
          "internalType": "uint256",
          "name": "balance",
          "type": "uint256"
        },
        {
          "internalType": "uint256",
          "name": "loan",
          "type": "uint256"
        }
      ],
      "stateMutability": "view",
      "type": "function"
    },
    {
      "inputs": [
        {
          "internalType": "uint256",
          "name": "index",
          "type": "uint256"
        }
      ],
      "name": "approveSHG",
      "outputs": [],
      "stateMutability": "nonpayable",
      "type": "function"
    },
    {
      "inputs": [
        {
          "internalType": "uint256",
          "name": "",
          "type": "uint256"
        }
      ],
      "name": "approvedSHGs",
      "outputs": [
        {
          "internalType": "string",
          "name": "name",
          "type": "string"
        },
        {
          "internalType": "string",
          "name": "applicant",
          "type": "string"
        },
        {
          "internalType": "string",
          "name": "location",
          "type": "string"
        },
        {
          "internalType": "address",
          "name": "applicant_address",
          "type": "address"
        }
      ],
      "stateMutability": "view",
      "type": "function"
    },
    {
      "inputs": [],
      "name": "cdsdash",
      "outputs": [
        {
          "internalType": "uint256",
          "name": "",
          "type": "uint256"
        },
        {
          "internalType": "uint256",
          "name": "",
          "type": "uint256"
        },
        {
          "internalType": "uint256",
          "name": "",
          "type": "uint256"
        }
      ],
      "stateMutability": "view",
      "type": "function"
    },
    {
      "inputs": [
        {
          "internalType": "uint256",
          "name": "_index",
          "type": "uint256"
        }
      ],
      "name": "claimVote",
      "outputs": [],
      "stateMutability": "nonpayable",
      "type": "function"
    },
    {
      "inputs": [
        {
          "internalType": "string",
          "name": "_title",
          "type": "string"
        },
        {
          "internalType": "string",
          "name": "_desc",
          "type": "string"
        },
        {
          "internalType": "string",
          "name": "_link",
          "type": "string"
        }
      ],
      "name": "createNotification",
      "outputs": [],
      "stateMutability": "nonpayable",
      "type": "function"
    },
    {
      "inputs": [
        {
          "internalType": "string",
          "name": "_name",
          "type": "string"
        },
        {
          "internalType": "string",
          "name": "_applicant",
          "type": "string"
        },
        {
          "internalType": "string",
          "name": "_location",
          "type": "string"
        }
      ],
      "name": "createSHG",
      "outputs": [],
      "stateMutability": "nonpayable",
      "type": "function"
    },
    {
      "inputs": [
        {
          "internalType": "uint256",
          "name": "_amount",
          "type": "uint256"
        }
      ],
      "name": "createloan",
      "outputs": [],
      "stateMutability": "nonpayable",
      "type": "function"
    },
    {
      "inputs": [],
      "name": "getApprovedSHGs",
      "outputs": [
        {
          "components": [
            {
              "internalType": "string",
              "name": "name",
              "type": "string"
            },
            {
              "internalType": "string",
              "name": "applicant",
              "type": "string"
            },
            {
              "internalType": "string",
              "name": "location",
              "type": "string"
            },
            {
              "internalType": "address",
              "name": "applicant_address",
              "type": "address"
            }
          ],
          "internalType": "struct DK.SHG[]",
          "name": "",
          "type": "tuple[]"
        }
      ],
      "stateMutability": "view",
      "type": "function"
    },
    {
      "inputs": [],
      "name": "getNotifications",
      "outputs": [
        {
          "components": [
            {
              "internalType": "string",
              "name": "title",
              "type": "string"
            },
            {
              "internalType": "string",
              "name": "desc",
              "type": "string"
            },
            {
              "internalType": "string",
              "name": "link",
              "type": "string"
            }
          ],
          "internalType": "struct DK.Notification[]",
          "name": "",
          "type": "tuple[]"
        }
      ],
      "stateMutability": "view",
      "type": "function"
    },
    {
      "inputs": [],
      "name": "getPendingSHGs",
      "outputs": [
        {
          "components": [
            {
              "internalType": "string",
              "name": "name",
              "type": "string"
            },
            {
              "internalType": "string",
              "name": "applicant",
              "type": "string"
            },
            {
              "internalType": "string",
              "name": "location",
              "type": "string"
            },
            {
              "internalType": "address",
              "name": "applicant_address",
              "type": "address"
            }
          ],
          "internalType": "struct DK.SHG[]",
          "name": "",
          "type": "tuple[]"
        }
      ],
      "stateMutability": "view",
      "type": "function"
    },
    {
      "inputs": [],
      "name": "loanPay",
      "outputs": [],
      "stateMutability": "payable",
      "type": "function"
    },
    {
      "inputs": [
        {
          "internalType": "string",
          "name": "_name",
          "type": "string"
        },
        {
          "internalType": "uint256",
          "name": "_aadhar",
          "type": "uint256"
        },
        {
          "internalType": "uint256",
          "name": "SHGindex",
          "type": "uint256"
        }
      ],
      "name": "memRegandJoin",
      "outputs": [],
      "stateMutability": "nonpayable",
      "type": "function"
    },
    {
      "inputs": [
        {
          "internalType": "address",
          "name": "",
          "type": "address"
        }
      ],
      "name": "memberToSHGIndex",
      "outputs": [
        {
          "internalType": "uint256",
          "name": "",
          "type": "uint256"
        }
      ],
      "stateMutability": "view",
      "type": "function"
    },
    {
      "inputs": [
        {
          "internalType": "uint256",
          "name": "",
          "type": "uint256"
        }
      ],
      "name": "members",
      "outputs": [
        {
          "internalType": "address",
          "name": "memaddress",
          "type": "address"
        },
        {
          "internalType": "string",
          "name": "name",
          "type": "string"
        },
        {
          "internalType": "uint256",
          "name": "aadhaar",
          "type": "uint256"
        },
        {
          "internalType": "string",
          "name": "desig",
          "type": "string"
        },
        {
          "internalType": "uint256",
          "name": "balance",
          "type": "uint256"
        },
        {
          "internalType": "uint256",
          "name": "loan",
          "type": "uint256"
        }
      ],
      "stateMutability": "view",
      "type": "function"
    },
    {
      "inputs": [],
      "name": "memdash",
      "outputs": [
        {
          "internalType": "uint256",
          "name": "",
          "type": "uint256"
        },
        {
          "internalType": "uint256",
          "name": "",
          "type": "uint256"
        },
        {
          "internalType": "uint256",
          "name": "",
          "type": "uint256"
        }
      ],
      "stateMutability": "view",
      "type": "function"
    },
    {
      "inputs": [
        {
          "internalType": "uint256",
          "name": "",
          "type": "uint256"
        }
      ],
      "name": "n",
      "outputs": [
        {
          "internalType": "string",
          "name": "title",
          "type": "string"
        },
        {
          "internalType": "string",
          "name": "desc",
          "type": "string"
        },
        {
          "internalType": "string",
          "name": "link",
          "type": "string"
        }
      ],
      "stateMutability": "view",
      "type": "function"
    },
    {
      "inputs": [
        {
          "internalType": "uint256",
          "name": "",
          "type": "uint256"
        }
      ],
      "name": "pendingSHGs",
      "outputs": [
        {
          "internalType": "string",
          "name": "name",
          "type": "string"
        },
        {
          "internalType": "string",
          "name": "applicant",
          "type": "string"
        },
        {
          "internalType": "string",
          "name": "location",
          "type": "string"
        },
        {
          "internalType": "address",
          "name": "applicant_address",
          "type": "address"
        }
      ],
      "stateMutability": "view",
      "type": "function"
    },
    {
      "inputs": [
        {
          "internalType": "uint256",
          "name": "",
          "type": "uint256"
        },
        {
          "internalType": "uint256",
          "name": "",
          "type": "uint256"
        }
      ],
      "name": "shgIndexToLoan",
      "outputs": [
        {
          "internalType": "address payable",
          "name": "applicant_add",
          "type": "address"
        },
        {
          "internalType": "uint256",
          "name": "amount",
          "type": "uint256"
        },
        {
          "internalType": "uint256",
          "name": "yes",
          "type": "uint256"
        },
        {
          "internalType": "uint256",
          "name": "no",
          "type": "uint256"
        },
        {
          "internalType": "uint256",
          "name": "nota",
          "type": "uint256"
        },
        {
          "internalType": "bool",
          "name": "completed",
          "type": "bool"
        },
        {
          "internalType": "uint256",
          "name": "startTime",
          "type": "uint256"
        }
      ],
      "stateMutability": "view",
      "type": "function"
    },
    {
      "inputs": [],
      "name": "viewloan",
      "outputs": [
        {
          "components": [
            {
              "internalType": "address payable",
              "name": "applicant_add",
              "type": "address"
            },
            {
              "internalType": "uint256",
              "name": "amount",
              "type": "uint256"
            },
            {
              "internalType": "uint256",
              "name": "yes",
              "type": "uint256"
            },
            {
              "internalType": "uint256",
              "name": "no",
              "type": "uint256"
            },
            {
              "internalType": "uint256",
              "name": "nota",
              "type": "uint256"
            },
            {
              "internalType": "bool",
              "name": "completed",
              "type": "bool"
            },
            {
              "internalType": "uint256",
              "name": "startTime",
              "type": "uint256"
            }
          ],
          "internalType": "struct DK.Loanvote[]",
          "name": "",
          "type": "tuple[]"
        }
      ],
      "stateMutability": "view",
      "type": "function"
    },
    {
      "inputs": [
        {
          "internalType": "uint256",
          "name": "_index",
          "type": "uint256"
        },
        {
          "internalType": "uint256",
          "name": "_decision",
          "type": "uint256"
        }
      ],
      "name": "vote",
      "outputs": [],
      "stateMutability": "nonpayable",
      "type": "function"
    },
    {
      "inputs": [],
      "name": "weeklyPay",
      "outputs": [],
      "stateMutability": "payable",
      "type": "function"
    }
  ],
  "bytecode": "0x608060405234801561001057600080fd5b5033600560006101000a81548173ffffffffffffffffffffffffffffffffffffffff021916908373ffffffffffffffffffffffffffffffffffffffff16021790555061440f806100616000396000f3fe6080604052600436106101355760003560e01c8063a2bc7eb4116100ab578063b515e12c1161006f578063b515e12c14610416578063cc5870e414610459578063cde2342414610463578063cf48bd2c146104a0578063cf71355b146104cb578063ff78c7e3146104f457610135565b8063a2bc7eb414610351578063a3a4333b1461035b578063a6ef2b5c14610384578063b384abef146103c4578063b40ebaaf146103ed57610135565b806354736af1116100fd57806354736af1146102365780635daf08ca146102615780636005fec6146102a35780637c3d483e146102cc5780638881aba4146102f75780638916eee31461032457610135565b80630e16199d1461013a5780631436e435146101635780631514e44b146101a35780632495b5fc146101ce5780632d22f7fb1461020d575b600080fd5b34801561014657600080fd5b50610161600480360381019061015c9190612d35565b610536565b005b34801561016f57600080fd5b5061018a60048036038101906101859190612d35565b6106a4565b60405161019a9493929190612e33565b60405180910390f35b3480156101af57600080fd5b506101b861089c565b6040516101c59190613019565b60405180910390f35b3480156101da57600080fd5b506101f560048036038101906101f09190612d35565b610b07565b6040516102049392919061303b565b60405180910390f35b34801561021957600080fd5b50610234600480360381019061022f91906131bc565b610cd9565b005b34801561024257600080fd5b5061024b611104565b60405161025891906133b3565b60405180910390f35b34801561026d57600080fd5b5061028860048036038101906102839190612d35565b61125c565b60405161029a969594939291906133e4565b60405180910390f35b3480156102af57600080fd5b506102ca60048036038101906102c59190612d35565b6113d8565b005b3480156102d857600080fd5b506102e16116ad565b6040516102ee9190613019565b60405180910390f35b34801561030357600080fd5b5061030c611918565b60405161031b93929190613453565b60405180910390f35b34801561033057600080fd5b506103396119ca565b60405161034893929190613453565b60405180910390f35b610359611daa565b005b34801561036757600080fd5b50610382600480360381019061037d9190612d35565b611ec6565b005b34801561039057600080fd5b506103ab60048036038101906103a69190612d35565b612153565b6040516103bb9493929190612e33565b60405180910390f35b3480156103d057600080fd5b506103eb60048036038101906103e6919061348a565b61234b565b005b3480156103f957600080fd5b50610414600480360381019061040f91906134ca565b61251f565b005b34801561042257600080fd5b5061043d6004803603810190610438919061348a565b612611565b604051610450979695949392919061358f565b60405180910390f35b61046161269d565b005b34801561046f57600080fd5b5061048a6004803603810190610485919061362a565b6127b9565b6040516104979190613657565b60405180910390f35b3480156104ac57600080fd5b506104b56127d1565b6040516104c29190613792565b60405180910390f35b3480156104d757600080fd5b506104f260048036038101906104ed91906134ca565b6129e6565b005b34801561050057600080fd5b5061051b6004803603810190610516919061348a565b612b05565b60405161052d969594939291906133e4565b60405180910390f35b6000600360003373ffffffffffffffffffffffffffffffffffffffff1673ffffffffffffffffffffffffffffffffffffffff168152602001908152602001600020549050600760008281526020019081526020016000206040518060e001604052803373ffffffffffffffffffffffffffffffffffffffff16815260200184815260200160008152602001600081526020016000815260200160001515815260200142815250908060018154018082558091505060019003906000526020600020906007020160009091909190915060008201518160000160006101000a81548173ffffffffffffffffffffffffffffffffffffffff021916908373ffffffffffffffffffffffffffffffffffffffff1602179055506020820151816001015560408201518160020155606082015181600301556080820151816004015560a08201518160050160006101000a81548160ff02191690831515021790555060c0820151816006015550505050565b600181815481106106b457600080fd5b90600052602060002090600402016000915090508060000180546106d7906137e3565b80601f0160208091040260200160405190810160405280929190818152602001828054610703906137e3565b80156107505780601f1061072557610100808354040283529160200191610750565b820191906000526020600020905b81548152906001019060200180831161073357829003601f168201915b505050505090806001018054610765906137e3565b80601f0160208091040260200160405190810160405280929190818152602001828054610791906137e3565b80156107de5780601f106107b3576101008083540402835291602001916107de565b820191906000526020600020905b8154815290600101906020018083116107c157829003601f168201915b5050505050908060020180546107f3906137e3565b80601f016020809104026020016040519081016040528092919081815260200182805461081f906137e3565b801561086c5780601f106108415761010080835404028352916020019161086c565b820191906000526020600020905b81548152906001019060200180831161084f57829003601f168201915b5050505050908060030160009054906101000a900473ffffffffffffffffffffffffffffffffffffffff16905084565b60606001805480602002602001604051908101604052809291908181526020016000905b82821015610afe57838290600052602060002090600402016040518060800160405290816000820180546108f3906137e3565b80601f016020809104026020016040519081016040528092919081815260200182805461091f906137e3565b801561096c5780601f106109415761010080835404028352916020019161096c565b820191906000526020600020905b81548152906001019060200180831161094f57829003601f168201915b50505050508152602001600182018054610985906137e3565b80601f01602080910402602001604051908101604052809291908181526020018280546109b1906137e3565b80156109fe5780601f106109d3576101008083540402835291602001916109fe565b820191906000526020600020905b8154815290600101906020018083116109e157829003601f168201915b50505050508152602001600282018054610a17906137e3565b80601f0160208091040260200160405190810160405280929190818152602001828054610a43906137e3565b8015610a905780601f10610a6557610100808354040283529160200191610a90565b820191906000526020600020905b815481529060010190602001808311610a7357829003601f168201915b505050505081526020016003820160009054906101000a900473ffffffffffffffffffffffffffffffffffffffff1673ffffffffffffffffffffffffffffffffffffffff1673ffffffffffffffffffffffffffffffffffffffff1681525050815260200190600101906108c0565b50505050905090565b60068181548110610b1757600080fd5b9060005260206000209060030201600091509050806000018054610b3a906137e3565b80601f0160208091040260200160405190810160405280929190818152602001828054610b66906137e3565b8015610bb35780601f10610b8857610100808354040283529160200191610bb3565b820191906000526020600020905b815481529060010190602001808311610b9657829003601f168201915b505050505090806001018054610bc8906137e3565b80601f0160208091040260200160405190810160405280929190818152602001828054610bf4906137e3565b8015610c415780601f10610c1657610100808354040283529160200191610c41565b820191906000526020600020905b815481529060010190602001808311610c2457829003601f168201915b505050505090806002018054610c56906137e3565b80601f0160208091040260200160405190810160405280929190818152602001828054610c82906137e3565b8015610ccf5780601f10610ca457610100808354040283529160200191610ccf565b820191906000526020600020905b815481529060010190602001808311610cb257829003601f168201915b5050505050905083565b60005b600280549050811015610da9573373ffffffffffffffffffffffffffffffffffffffff1660028281548110610d1457610d13613814565b5b906000526020600020906006020160000160009054906101000a900473ffffffffffffffffffffffffffffffffffffffff1673ffffffffffffffffffffffffffffffffffffffff1603610d9c576040517f08c379a0000000000000000000000000000000000000000000000000000000008152600401610d939061388f565b60405180910390fd5b8080600101915050610cdc565b506000805490508110610df1576040517f08c379a0000000000000000000000000000000000000000000000000000000008152600401610de8906138fb565b60405180910390fd5b80600360003373ffffffffffffffffffffffffffffffffffffffff1673ffffffffffffffffffffffffffffffffffffffff16815260200190815260200160002081905550606060008281548110610e4b57610e4a613814565b5b906000526020600020906004020160030160009054906101000a900473ffffffffffffffffffffffffffffffffffffffff1673ffffffffffffffffffffffffffffffffffffffff163373ffffffffffffffffffffffffffffffffffffffff1603610eec576040518060400160405280600981526020017f507265736964656e7400000000000000000000000000000000000000000000008152509050610f25565b6040518060400160405280600681526020017f4d656d626572000000000000000000000000000000000000000000000000000081525090505b60006040518060c001604052803373ffffffffffffffffffffffffffffffffffffffff1681526020018681526020018581526020018381526020016000815260200160008152509050600281908060018154018082558091505060019003906000526020600020906006020160009091909190915060008201518160000160006101000a81548173ffffffffffffffffffffffffffffffffffffffff021916908373ffffffffffffffffffffffffffffffffffffffff1602179055506020820151816001019081610ff69190613ac7565b506040820151816002015560608201518160030190816110169190613ac7565b506080820151816004015560a0820151816005015550506004600084815260200190815260200160002081908060018154018082558091505060019003906000526020600020906006020160009091909190915060008201518160000160006101000a81548173ffffffffffffffffffffffffffffffffffffffff021916908373ffffffffffffffffffffffffffffffffffffffff16021790555060208201518160010190816110c69190613ac7565b506040820151816002015560608201518160030190816110e69190613ac7565b506080820151816004015560a0820151816005015550505050505050565b60606000600360003373ffffffffffffffffffffffffffffffffffffffff1673ffffffffffffffffffffffffffffffffffffffff16815260200190815260200160002054905060076000828152602001908152602001600020805480602002602001604051908101604052809291908181526020016000905b8282101561125257838290600052602060002090600702016040518060e00160405290816000820160009054906101000a900473ffffffffffffffffffffffffffffffffffffffff1673ffffffffffffffffffffffffffffffffffffffff1673ffffffffffffffffffffffffffffffffffffffff168152602001600182015481526020016002820154815260200160038201548152602001600482015481526020016005820160009054906101000a900460ff161515151581526020016006820154815250508152602001906001019061117d565b5050505091505090565b6002818154811061126c57600080fd5b90600052602060002090600602016000915090508060000160009054906101000a900473ffffffffffffffffffffffffffffffffffffffff16908060010180546112b5906137e3565b80601f01602080910402602001604051908101604052809291908181526020018280546112e1906137e3565b801561132e5780601f106113035761010080835404028352916020019161132e565b820191906000526020600020905b81548152906001019060200180831161131157829003601f168201915b505050505090806002015490806003018054611349906137e3565b80601f0160208091040260200160405190810160405280929190818152602001828054611375906137e3565b80156113c25780601f10611397576101008083540402835291602001916113c2565b820191906000526020600020905b8154815290600101906020018083116113a557829003601f168201915b5050505050908060040154908060050154905086565b600180549050811061141f576040517f08c379a000000000000000000000000000000000000000000000000000000000815260040161141690613be5565b60405180910390fd5b60006001828154811061143557611434613814565b5b90600052602060002090600402019080600181540180825580915050600190039060005260206000209060040201600090919091909150600082018160000190816114809190613c1b565b50600182018160010190816114959190613c1b565b50600282018160020190816114aa9190613c1b565b506003820160009054906101000a900473ffffffffffffffffffffffffffffffffffffffff168160030160006101000a81548173ffffffffffffffffffffffffffffffffffffffff021916908373ffffffffffffffffffffffffffffffffffffffff1602179055505050600180805490506115259190613d32565b811461162857600180808054905061153d9190613d32565b8154811061154e5761154d613814565b5b9060005260206000209060040201600182815481106115705761156f613814565b5b9060005260206000209060040201600082018160000190816115929190613c1b565b50600182018160010190816115a79190613c1b565b50600282018160020190816115bc9190613c1b565b506003820160009054906101000a900473ffffffffffffffffffffffffffffffffffffffff168160030160006101000a81548173ffffffffffffffffffffffffffffffffffffffff021916908373ffffffffffffffffffffffffffffffffffffffff1602179055509050505b600180548061163a57611639613d66565b5b60019003818190600052602060002090600402016000808201600061165f9190612c8e565b60018201600061166f9190612c8e565b60028201600061167f9190612c8e565b6003820160006101000a81549073ffffffffffffffffffffffffffffffffffffffff02191690555050905550565b60606000805480602002602001604051908101604052809291908181526020016000905b8282101561190f5783829060005260206000209060040201604051806080016040529081600082018054611704906137e3565b80601f0160208091040260200160405190810160405280929190818152602001828054611730906137e3565b801561177d5780601f106117525761010080835404028352916020019161177d565b820191906000526020600020905b81548152906001019060200180831161176057829003601f168201915b50505050508152602001600182018054611796906137e3565b80601f01602080910402602001604051908101604052809291908181526020018280546117c2906137e3565b801561180f5780601f106117e45761010080835404028352916020019161180f565b820191906000526020600020905b8154815290600101906020018083116117f257829003601f168201915b50505050508152602001600282018054611828906137e3565b80601f0160208091040260200160405190810160405280929190818152602001828054611854906137e3565b80156118a15780601f10611876576101008083540402835291602001916118a1565b820191906000526020600020905b81548152906001019060200180831161188457829003601f168201915b505050505081526020016003820160009054906101000a900473ffffffffffffffffffffffffffffffffffffffff1673ffffffffffffffffffffffffffffffffffffffff1673ffffffffffffffffffffffffffffffffffffffff1681525050815260200190600101906116d1565b50505050905090565b6000806000600560009054906101000a900473ffffffffffffffffffffffffffffffffffffffff1673ffffffffffffffffffffffffffffffffffffffff163373ffffffffffffffffffffffffffffffffffffffff16146119ad576040517f08c379a00000000000000000000000000000000000000000000000000000000081526004016119a490613e2d565b60405180910390fd5b600080549050600280549050600180549050925092509250909192565b6000806000806000905060008060008060005b600280549050811015611b0a573373ffffffffffffffffffffffffffffffffffffffff1660028281548110611a1557611a14613814565b5b906000526020600020906006020160000160009054906101000a900473ffffffffffffffffffffffffffffffffffffffff1673ffffffffffffffffffffffffffffffffffffffff1603611afd576001925060028181548110611a7a57611a79613814565b5b906000526020600020906006020160040154955060028181548110611aa257611aa1613814565b5b9060005260206000209060060201600501549450600360003373ffffffffffffffffffffffffffffffffffffffff1673ffffffffffffffffffffffffffffffffffffffff168152602001908152602001600020549150611b0a565b80806001019150506119dd565b5081611b4b576040517f08c379a0000000000000000000000000000000000000000000000000000000008152600401611b4290613ebf565b60405180910390fd5b600060046000838152602001908152602001600020805480602002602001604051908101604052809291908181526020016000905b82821015611d4a57838290600052602060002090600602016040518060c00160405290816000820160009054906101000a900473ffffffffffffffffffffffffffffffffffffffff1673ffffffffffffffffffffffffffffffffffffffff1673ffffffffffffffffffffffffffffffffffffffff168152602001600182018054611c09906137e3565b80601f0160208091040260200160405190810160405280929190818152602001828054611c35906137e3565b8015611c825780601f10611c5757610100808354040283529160200191611c82565b820191906000526020600020905b815481529060010190602001808311611c6557829003601f168201915b5050505050815260200160028201548152602001600382018054611ca5906137e3565b80601f0160208091040260200160405190810160405280929190818152602001828054611cd1906137e3565b8015611d1e5780601f10611cf357610100808354040283529160200191611d1e565b820191906000526020600020905b815481529060010190602001808311611d0157829003601f168201915b505050505081526020016004820154815260200160058201548152505081526020019060010190611b80565b50505050905060005b8151811015611d9557818181518110611d6f57611d6e613814565b5b60200260200101516080015185611d869190613edf565b94508080600101915050611d53565b50858585985098509850505050505050909192565b60003411611ded576040517f08c379a0000000000000000000000000000000000000000000000000000000008152600401611de490613f5f565b60405180910390fd5b60005b600280549050811015611ec3573373ffffffffffffffffffffffffffffffffffffffff1660028281548110611e2857611e27613814565b5b906000526020600020906006020160000160009054906101000a900473ffffffffffffffffffffffffffffffffffffffff1673ffffffffffffffffffffffffffffffffffffffff1603611eb6573460028281548110611e8a57611e89613814565b5b90600052602060002090600602016005016000828254611eaa9190613d32565b92505081905550611ec3565b8080600101915050611df0565b50565b6000600360003373ffffffffffffffffffffffffffffffffffffffff1673ffffffffffffffffffffffffffffffffffffffff1681526020019081526020016000205490506000805490508110611f51576040517f08c379a0000000000000000000000000000000000000000000000000000000008152600401611f4890613ff1565b60405180910390fd5b6000600760008381526020019081526020016000208381548110611f7857611f77613814565b5b906000526020600020906007020190508060000160009054906101000a900473ffffffffffffffffffffffffffffffffffffffff1673ffffffffffffffffffffffffffffffffffffffff163373ffffffffffffffffffffffffffffffffffffffff161461201a576040517f08c379a000000000000000000000000000000000000000000000000000000000815260040161201190614083565b60405180910390fd5b8060050160009054906101000a900460ff1661206b576040517f08c379a0000000000000000000000000000000000000000000000000000000008152600401612062906140ef565b60405180910390fd5b60006004600084815260200190815260200160002080549050905060008260020154905060028261209c919061413e565b81116120dd576040517f08c379a00000000000000000000000000000000000000000000000000000000081526004016120d4906141e1565b60405180910390fd5b8260000160009054906101000a900473ffffffffffffffffffffffffffffffffffffffff1673ffffffffffffffffffffffffffffffffffffffff166108fc84600101549081150290604051600060405180830381858888f1935050505015801561214b573d6000803e3d6000fd5b505050505050565b6000818154811061216357600080fd5b9060005260206000209060040201600091509050806000018054612186906137e3565b80601f01602080910402602001604051908101604052809291908181526020018280546121b2906137e3565b80156121ff5780601f106121d4576101008083540402835291602001916121ff565b820191906000526020600020905b8154815290600101906020018083116121e257829003601f168201915b505050505090806001018054612214906137e3565b80601f0160208091040260200160405190810160405280929190818152602001828054612240906137e3565b801561228d5780601f106122625761010080835404028352916020019161228d565b820191906000526020600020905b81548152906001019060200180831161227057829003601f168201915b5050505050908060020180546122a2906137e3565b80601f01602080910402602001604051908101604052809291908181526020018280546122ce906137e3565b801561231b5780601f106122f05761010080835404028352916020019161231b565b820191906000526020600020905b8154815290600101906020018083116122fe57829003601f168201915b5050505050908060030160009054906101000a900473ffffffffffffffffffffffffffffffffffffffff16905084565b6000600360003373ffffffffffffffffffffffffffffffffffffffff1673ffffffffffffffffffffffffffffffffffffffff168152602001908152602001600020549050600082101580156123a1575060028211155b6123e0576040517f08c379a00000000000000000000000000000000000000000000000000000000081526004016123d79061424d565b60405180910390fd5b600060076000838152602001908152602001600020848154811061240757612406613814565b5b906000526020600020906007020190508060050160009054906101000a900460ff1615612469576040517f08c379a0000000000000000000000000000000000000000000000000000000008152600401612460906142df565b60405180910390fd5b600a816006015461247a9190613edf565b4211156124a55760018160050160006101000a81548160ff021916908315150217905550505061251b565b600083036124cc578060020160008154809291906124c2906142ff565b9190505550612518565b600183036124f3578060030160008154809291906124e9906142ff565b9190505550612517565b6002830361251657806004016000815480929190612510906142ff565b91905055505b5b5b50505b5050565b600160405180608001604052808581526020018481526020018381526020013373ffffffffffffffffffffffffffffffffffffffff16815250908060018154018082558091505060019003906000526020600020906004020160009091909190915060008201518160000190816125969190613ac7565b5060208201518160010190816125ac9190613ac7565b5060408201518160020190816125c29190613ac7565b5060608201518160030160006101000a81548173ffffffffffffffffffffffffffffffffffffffff021916908373ffffffffffffffffffffffffffffffffffffffff1602179055505050505050565b6007602052816000526040600020818154811061262d57600080fd5b9060005260206000209060070201600091509150508060000160009054906101000a900473ffffffffffffffffffffffffffffffffffffffff16908060010154908060020154908060030154908060040154908060050160009054906101000a900460ff16908060060154905087565b600034116126e0576040517f08c379a00000000000000000000000000000000000000000000000000000000081526004016126d790613f5f565b60405180910390fd5b60005b6002805490508110156127b6573373ffffffffffffffffffffffffffffffffffffffff166002828154811061271b5761271a613814565b5b906000526020600020906006020160000160009054906101000a900473ffffffffffffffffffffffffffffffffffffffff1673ffffffffffffffffffffffffffffffffffffffff16036127a957346002828154811061277d5761277c613814565b5b9060005260206000209060060201600401600082825461279d9190613edf565b925050819055506127b6565b80806001019150506126e3565b50565b60036020528060005260406000206000915090505481565b60606006805480602002602001604051908101604052809291908181526020016000905b828210156129dd5783829060005260206000209060030201604051806060016040529081600082018054612828906137e3565b80601f0160208091040260200160405190810160405280929190818152602001828054612854906137e3565b80156128a15780601f10612876576101008083540402835291602001916128a1565b820191906000526020600020905b81548152906001019060200180831161288457829003601f168201915b505050505081526020016001820180546128ba906137e3565b80601f01602080910402602001604051908101604052809291908181526020018280546128e6906137e3565b80156129335780601f1061290857610100808354040283529160200191612933565b820191906000526020600020905b81548152906001019060200180831161291657829003601f168201915b5050505050815260200160028201805461294c906137e3565b80601f0160208091040260200160405190810160405280929190818152602001828054612978906137e3565b80156129c55780601f1061299a576101008083540402835291602001916129c5565b820191906000526020600020905b8154815290600101906020018083116129a857829003601f168201915b505050505081525050815260200190600101906127f5565b50505050905090565b600560009054906101000a900473ffffffffffffffffffffffffffffffffffffffff1673ffffffffffffffffffffffffffffffffffffffff163373ffffffffffffffffffffffffffffffffffffffff1614612a76576040517f08c379a0000000000000000000000000000000000000000000000000000000008152600401612a6d906143b9565b60405180910390fd5b600660405180606001604052808581526020018481526020018381525090806001815401808255809150506001900390600052602060002090600302016000909190919091506000820151816000019081612ad19190613ac7565b506020820151816001019081612ae79190613ac7565b506040820151816002019081612afd9190613ac7565b505050505050565b60046020528160005260406000208181548110612b2157600080fd5b9060005260206000209060060201600091509150508060000160009054906101000a900473ffffffffffffffffffffffffffffffffffffffff1690806001018054612b6b906137e3565b80601f0160208091040260200160405190810160405280929190818152602001828054612b97906137e3565b8015612be45780601f10612bb957610100808354040283529160200191612be4565b820191906000526020600020905b815481529060010190602001808311612bc757829003601f168201915b505050505090806002015490806003018054612bff906137e3565b80601f0160208091040260200160405190810160405280929190818152602001828054612c2b906137e3565b8015612c785780601f10612c4d57610100808354040283529160200191612c78565b820191906000526020600020905b815481529060010190602001808311612c5b57829003601f168201915b5050505050908060040154908060050154905086565b508054612c9a906137e3565b6000825580601f10612cac5750612ccb565b601f016020900490600052602060002090810190612cca9190612cce565b5b50565b5b80821115612ce7576000816000905550600101612ccf565b5090565b6000604051905090565b600080fd5b600080fd5b6000819050919050565b612d1281612cff565b8114612d1d57600080fd5b50565b600081359050612d2f81612d09565b92915050565b600060208284031215612d4b57612d4a612cf5565b5b6000612d5984828501612d20565b91505092915050565b600081519050919050565b600082825260208201905092915050565b60005b83811015612d9c578082015181840152602081019050612d81565b60008484015250505050565b6000601f19601f8301169050919050565b6000612dc482612d62565b612dce8185612d6d565b9350612dde818560208601612d7e565b612de781612da8565b840191505092915050565b600073ffffffffffffffffffffffffffffffffffffffff82169050919050565b6000612e1d82612df2565b9050919050565b612e2d81612e12565b82525050565b60006080820190508181036000830152612e4d8187612db9565b90508181036020830152612e618186612db9565b90508181036040830152612e758185612db9565b9050612e846060830184612e24565b95945050505050565b600081519050919050565b600082825260208201905092915050565b6000819050602082019050919050565b600082825260208201905092915050565b6000612ed582612d62565b612edf8185612eb9565b9350612eef818560208601612d7e565b612ef881612da8565b840191505092915050565b612f0c81612e12565b82525050565b60006080830160008301518482036000860152612f2f8282612eca565b91505060208301518482036020860152612f498282612eca565b91505060408301518482036040860152612f638282612eca565b9150506060830151612f786060860182612f03565b508091505092915050565b6000612f8f8383612f12565b905092915050565b6000602082019050919050565b6000612faf82612e8d565b612fb98185612e98565b935083602082028501612fcb85612ea9565b8060005b858110156130075784840389528151612fe88582612f83565b9450612ff383612f97565b925060208a01995050600181019050612fcf565b50829750879550505050505092915050565b600060208201905081810360008301526130338184612fa4565b905092915050565b600060608201905081810360008301526130558186612db9565b905081810360208301526130698185612db9565b9050818103604083015261307d8184612db9565b9050949350505050565b600080fd5b600080fd5b7f4e487b7100000000000000000000000000000000000000000000000000000000600052604160045260246000fd5b6130c982612da8565b810181811067ffffffffffffffff821117156130e8576130e7613091565b5b80604052505050565b60006130fb612ceb565b905061310782826130c0565b919050565b600067ffffffffffffffff82111561312757613126613091565b5b61313082612da8565b9050602081019050919050565b82818337600083830152505050565b600061315f61315a8461310c565b6130f1565b90508281526020810184848401111561317b5761317a61308c565b5b61318684828561313d565b509392505050565b600082601f8301126131a3576131a2613087565b5b81356131b384826020860161314c565b91505092915050565b6000806000606084860312156131d5576131d4612cf5565b5b600084013567ffffffffffffffff8111156131f3576131f2612cfa565b5b6131ff8682870161318e565b935050602061321086828701612d20565b925050604061322186828701612d20565b9150509250925092565b600081519050919050565b600082825260208201905092915050565b6000819050602082019050919050565b600061326282612df2565b9050919050565b61327281613257565b82525050565b61328181612cff565b82525050565b60008115159050919050565b61329c81613287565b82525050565b60e0820160008201516132b86000850182613269565b5060208201516132cb6020850182613278565b5060408201516132de6040850182613278565b5060608201516132f16060850182613278565b5060808201516133046080850182613278565b5060a082015161331760a0850182613293565b5060c082015161332a60c0850182613278565b50505050565b600061333c83836132a2565b60e08301905092915050565b6000602082019050919050565b60006133608261322b565b61336a8185613236565b935061337583613247565b8060005b838110156133a657815161338d8882613330565b975061339883613348565b925050600181019050613379565b5085935050505092915050565b600060208201905081810360008301526133cd8184613355565b905092915050565b6133de81612cff565b82525050565b600060c0820190506133f96000830189612e24565b818103602083015261340b8188612db9565b905061341a60408301876133d5565b818103606083015261342c8186612db9565b905061343b60808301856133d5565b61344860a08301846133d5565b979650505050505050565b600060608201905061346860008301866133d5565b61347560208301856133d5565b61348260408301846133d5565b949350505050565b600080604083850312156134a1576134a0612cf5565b5b60006134af85828601612d20565b92505060206134c085828601612d20565b9150509250929050565b6000806000606084860312156134e3576134e2612cf5565b5b600084013567ffffffffffffffff81111561350157613500612cfa565b5b61350d8682870161318e565b935050602084013567ffffffffffffffff81111561352e5761352d612cfa565b5b61353a8682870161318e565b925050604084013567ffffffffffffffff81111561355b5761355a612cfa565b5b6135678682870161318e565b9150509250925092565b61357a81613257565b82525050565b61358981613287565b82525050565b600060e0820190506135a4600083018a613571565b6135b160208301896133d5565b6135be60408301886133d5565b6135cb60608301876133d5565b6135d860808301866133d5565b6135e560a0830185613580565b6135f260c08301846133d5565b98975050505050505050565b61360781612e12565b811461361257600080fd5b50565b600081359050613624816135fe565b92915050565b6000602082840312156136405761363f612cf5565b5b600061364e84828501613615565b91505092915050565b600060208201905061366c60008301846133d5565b92915050565b600081519050919050565b600082825260208201905092915050565b6000819050602082019050919050565b600060608301600083015184820360008601526136bb8282612eca565b915050602083015184820360208601526136d58282612eca565b915050604083015184820360408601526136ef8282612eca565b9150508091505092915050565b6000613708838361369e565b905092915050565b6000602082019050919050565b600061372882613672565b613732818561367d565b9350836020820285016137448561368e565b8060005b85811015613780578484038952815161376185826136fc565b945061376c83613710565b925060208a01995050600181019050613748565b50829750879550505050505092915050565b600060208201905081810360008301526137ac818461371d565b905092915050565b7f4e487b7100000000000000000000000000000000000000000000000000000000600052602260045260246000fd5b600060028204905060018216806137fb57607f821691505b60208210810361380e5761380d6137b4565b5b50919050565b7f4e487b7100000000000000000000000000000000000000000000000000000000600052603260045260246000fd5b7f4d656d62657220616c7265616479207265676973746572656400000000000000600082015250565b6000613879601983612d6d565b915061388482613843565b602082019050919050565b600060208201905081810360008301526138a88161386c565b9050919050565b7f496e76616c69642053484720696e646578000000000000000000000000000000600082015250565b60006138e5601183612d6d565b91506138f0826138af565b602082019050919050565b60006020820190508181036000830152613914816138d8565b9050919050565b60008190508160005260206000209050919050565b60006020601f8301049050919050565b600082821b905092915050565b60006008830261397d7fffffffffffffffffffffffffffffffffffffffffffffffffffffffffffffffff82613940565b6139878683613940565b95508019841693508086168417925050509392505050565b6000819050919050565b60006139c46139bf6139ba84612cff565b61399f565b612cff565b9050919050565b6000819050919050565b6139de836139a9565b6139f26139ea826139cb565b84845461394d565b825550505050565b600090565b613a076139fa565b613a128184846139d5565b505050565b5b81811015613a3657613a2b6000826139ff565b600181019050613a18565b5050565b601f821115613a7b57613a4c8161391b565b613a5584613930565b81016020851015613a64578190505b613a78613a7085613930565b830182613a17565b50505b505050565b600082821c905092915050565b6000613a9e60001984600802613a80565b1980831691505092915050565b6000613ab78383613a8d565b9150826002028217905092915050565b613ad082612d62565b67ffffffffffffffff811115613ae957613ae8613091565b5b613af382546137e3565b613afe828285613a3a565b600060209050601f831160018114613b315760008415613b1f578287015190505b613b298582613aab565b865550613b91565b601f198416613b3f8661391b565b60005b82811015613b6757848901518255600182019150602085019450602081019050613b42565b86831015613b845784890151613b80601f891682613a8d565b8355505b6001600288020188555050505b505050505050565b7f496e76616c696420696e64657800000000000000000000000000000000000000600082015250565b6000613bcf600d83612d6d565b9150613bda82613b99565b602082019050919050565b60006020820190508181036000830152613bfe81613bc2565b9050919050565b600081549050613c14816137e3565b9050919050565b818103613c29575050613d01565b613c3282613c05565b67ffffffffffffffff811115613c4b57613c4a613091565b5b613c5582546137e3565b613c60828285613a3a565b6000601f831160018114613c8f5760008415613c7d578287015490505b613c878582613aab565b865550613cfa565b601f198416613c9d8761391b565b9650613ca88661391b565b60005b82811015613cd057848901548255600182019150600185019450602081019050613cab565b86831015613ced5784890154613ce9601f891682613a8d565b8355505b6001600288020188555050505b5050505050505b565b7f4e487b7100000000000000000000000000000000000000000000000000000000600052601160045260246000fd5b6000613d3d82612cff565b9150613d4883612cff565b9250828203905081811115613d6057613d5f613d03565b5b92915050565b7f4e487b7100000000000000000000000000000000000000000000000000000000600052603160045260246000fd5b7f496e76616c696420617574686f72697a6174696f6e2c204f6e6c79204344532060008201527f41646d696e2063616e2061636365737320746869732064617368626f6172642160208201527f2121000000000000000000000000000000000000000000000000000000000000604082015250565b6000613e17604283612d6d565b9150613e2282613d95565b606082019050919050565b60006020820190508181036000830152613e4681613e0a565b9050919050565b7f43616c6c6572206973206e6f7420612072656769737465726564206d656d626560008201527f7200000000000000000000000000000000000000000000000000000000000000602082015250565b6000613ea9602183612d6d565b9150613eb482613e4d565b604082019050919050565b60006020820190508181036000830152613ed881613e9c565b9050919050565b6000613eea82612cff565b9150613ef583612cff565b9250828201905080821115613f0d57613f0c613d03565b5b92915050565b7f4e6f2076616c75652073656e7400000000000000000000000000000000000000600082015250565b6000613f49600d83612d6d565b9150613f5482613f13565b602082019050919050565b60006020820190508181036000830152613f7881613f3c565b9050919050565b7f43616c6c6572206973206e6f742061206d656d626572206f6620616e7920617060008201527f70726f7665642053484700000000000000000000000000000000000000000000602082015250565b6000613fdb602a83612d6d565b9150613fe682613f7f565b604082019050919050565b6000602082019050818103600083015261400a81613fce565b9050919050565b7f4f6e6c7920746865206170706c6963616e742063616e20636c61696d2074686560008201527f20766f74652e0000000000000000000000000000000000000000000000000000602082015250565b600061406d602683612d6d565b915061407882614011565b604082019050919050565b6000602082019050818103600083015261409c81614060565b9050919050565b7f566f7465206973206e6f7420636f6d706c65746564207965742e000000000000600082015250565b60006140d9601a83612d6d565b91506140e4826140a3565b602082019050919050565b60006020820190508181036000830152614108816140cc565b9050919050565b7f4e487b7100000000000000000000000000000000000000000000000000000000600052601260045260246000fd5b600061414982612cff565b915061415483612cff565b9250826141645761416361410f565b5b828204905092915050565b7f4e6f7420656e6f7567682079657320766f74657320746f20636c61696d20746860008201527f6520766f74652e00000000000000000000000000000000000000000000000000602082015250565b60006141cb602783612d6d565b91506141d68261416f565b604082019050919050565b600060208201905081810360008301526141fa816141be565b9050919050565b7f496e76616c6964206465636973696f6e00000000000000000000000000000000600082015250565b6000614237601083612d6d565b915061424282614201565b602082019050919050565b600060208201905081810360008301526142668161422a565b9050919050565b7f566f74696e672069732065697468657220636f6d706c65746564206f7220746960008201527f6d6520686173206578706972656420666f722074686973206c6f616e00000000602082015250565b60006142c9603c83612d6d565b91506142d48261426d565b604082019050919050565b600060208201905081810360008301526142f8816142bc565b9050919050565b600061430a82612cff565b91507fffffffffffffffffffffffffffffffffffffffffffffffffffffffffffffffff820361433c5761433b613d03565b5b600182019050919050565b7f4f6e6c79204344532041646d696e2063616e20637265617465206e6f7469666960008201527f636174696f6e2100000000000000000000000000000000000000000000000000602082015250565b60006143a3602783612d6d565b91506143ae82614347565b604082019050919050565b600060208201905081810360008301526143d281614396565b905091905056fea2646970667358221220704d2c33f0e86d4bdb7e9dd0e8ad9561655898c8abfa4b0b14b5d7c56779bd5f64736f6c63430008180033",
  "linkReferences": {},
  "deployedLinkReferences": {}
}