{
  "_format": "hh-sol-artifact-1",
  "contractName": "DK",
  "sourceName": "contracts/DK.sol",
  "abi": [
    {
      "inputs": [],
      "stateMutability": "nonpayable",
      "type": "constructor"
    },
    {
      "inputs": [
        {
          "internalType": "uint256",
          "name": "",
          "type": "uint256"
        },
        {
          "internalType": "uint256",
          "name": "",
          "type": "uint256"
        }
      ],
      "name": "SHGToMember",
      "outputs": [
        {
          "internalType": "address",
          "name": "memaddress",
          "type": "address"
        },
        {
          "internalType": "string",
          "name": "name",
          "type": "string"
        },
        {
          "internalType": "uint256",
          "name": "aadhaar",
          "type": "uint256"
        },
        {
          "internalType": "string",
          "name": "desig",
          "type": "string"
        },
        {
          "internalType": "uint256",
          "name": "balance",
          "type": "uint256"
        },
        {
          "internalType": "uint256",
          "name": "loan",
          "type": "uint256"
        }
      ],
      "stateMutability": "view",
      "type": "function"
    },
    {
      "inputs": [
        {
          "internalType": "uint256",
          "name": "index",
          "type": "uint256"
        }
      ],
      "name": "approveSHG",
      "outputs": [],
      "stateMutability": "nonpayable",
      "type": "function"
    },
    {
      "inputs": [
        {
          "internalType": "uint256",
          "name": "",
          "type": "uint256"
        }
      ],
      "name": "approvedSHGs",
      "outputs": [
        {
          "internalType": "string",
          "name": "name",
          "type": "string"
        },
        {
          "internalType": "string",
          "name": "applicant",
          "type": "string"
        },
        {
          "internalType": "string",
          "name": "location",
          "type": "string"
        },
        {
          "internalType": "address",
          "name": "applicant_address",
          "type": "address"
        }
      ],
      "stateMutability": "view",
      "type": "function"
    },
    {
      "inputs": [],
      "name": "cdsdash",
      "outputs": [
        {
          "internalType": "uint256",
          "name": "",
          "type": "uint256"
        },
        {
          "internalType": "uint256",
          "name": "",
          "type": "uint256"
        },
        {
          "internalType": "uint256",
          "name": "",
          "type": "uint256"
        }
      ],
      "stateMutability": "view",
      "type": "function"
    },
    {
      "inputs": [
        {
          "internalType": "string",
          "name": "_title",
          "type": "string"
        },
        {
          "internalType": "string",
          "name": "_desc",
          "type": "string"
        },
        {
          "internalType": "string",
          "name": "_link",
          "type": "string"
        }
      ],
      "name": "createNotification",
      "outputs": [],
      "stateMutability": "nonpayable",
      "type": "function"
    },
    {
      "inputs": [
        {
          "internalType": "string",
          "name": "_name",
          "type": "string"
        },
        {
          "internalType": "string",
          "name": "_applicant",
          "type": "string"
        },
        {
          "internalType": "string",
          "name": "_location",
          "type": "string"
        }
      ],
      "name": "createSHG",
      "outputs": [],
      "stateMutability": "nonpayable",
      "type": "function"
    },
    {
      "inputs": [],
      "name": "loanPay",
      "outputs": [],
      "stateMutability": "payable",
      "type": "function"
    },
    {
      "inputs": [
        {
          "internalType": "string",
          "name": "_name",
          "type": "string"
        },
        {
          "internalType": "uint256",
          "name": "_aadhar",
          "type": "uint256"
        },
        {
          "internalType": "uint256",
          "name": "SHGindex",
          "type": "uint256"
        }
      ],
      "name": "memRegandJoin",
      "outputs": [],
      "stateMutability": "nonpayable",
      "type": "function"
    },
    {
      "inputs": [
        {
          "internalType": "address",
          "name": "",
          "type": "address"
        }
      ],
      "name": "memberToSHG",
      "outputs": [
        {
          "internalType": "string",
          "name": "name",
          "type": "string"
        },
        {
          "internalType": "string",
          "name": "applicant",
          "type": "string"
        },
        {
          "internalType": "string",
          "name": "location",
          "type": "string"
        },
        {
          "internalType": "address",
          "name": "applicant_address",
          "type": "address"
        }
      ],
      "stateMutability": "view",
      "type": "function"
    },
    {
      "inputs": [
        {
          "internalType": "uint256",
          "name": "",
          "type": "uint256"
        }
      ],
      "name": "members",
      "outputs": [
        {
          "internalType": "address",
          "name": "memaddress",
          "type": "address"
        },
        {
          "internalType": "string",
          "name": "name",
          "type": "string"
        },
        {
          "internalType": "uint256",
          "name": "aadhaar",
          "type": "uint256"
        },
        {
          "internalType": "string",
          "name": "desig",
          "type": "string"
        },
        {
          "internalType": "uint256",
          "name": "balance",
          "type": "uint256"
        },
        {
          "internalType": "uint256",
          "name": "loan",
          "type": "uint256"
        }
      ],
      "stateMutability": "view",
      "type": "function"
    },
    {
      "inputs": [
        {
          "internalType": "uint256",
          "name": "",
          "type": "uint256"
        }
      ],
      "name": "n",
      "outputs": [
        {
          "internalType": "string",
          "name": "title",
          "type": "string"
        },
        {
          "internalType": "string",
          "name": "desc",
          "type": "string"
        },
        {
          "internalType": "string",
          "name": "link",
          "type": "string"
        }
      ],
      "stateMutability": "view",
      "type": "function"
    },
    {
      "inputs": [
        {
          "internalType": "uint256",
          "name": "",
          "type": "uint256"
        }
      ],
      "name": "pendingSHGs",
      "outputs": [
        {
          "internalType": "string",
          "name": "name",
          "type": "string"
        },
        {
          "internalType": "string",
          "name": "applicant",
          "type": "string"
        },
        {
          "internalType": "string",
          "name": "location",
          "type": "string"
        },
        {
          "internalType": "address",
          "name": "applicant_address",
          "type": "address"
        }
      ],
      "stateMutability": "view",
      "type": "function"
    },
    {
      "inputs": [],
      "name": "weeklyPay",
      "outputs": [],
      "stateMutability": "payable",
      "type": "function"
    }
  ],
  "bytecode": "0x608060405234801561001057600080fd5b5033600560006101000a81548173ffffffffffffffffffffffffffffffffffffffff021916908373ffffffffffffffffffffffffffffffffffffffff1602179055506126e3806100616000396000f3fe6080604052600436106100c25760003560e01c80638881aba41161007f578063b40ebaaf11610059578063b40ebaaf14610291578063cc5870e4146102ba578063cf71355b146102c4578063ff78c7e3146102ed576100c2565b80638881aba41461021a578063a2bc7eb414610247578063a6ef2b5c14610251576100c2565b80631436e435146100c75780632495b5fc146101075780632d22f7fb146101465780632f6f3a841461016f5780635daf08ca146101af5780636005fec6146101f1575b600080fd5b3480156100d357600080fd5b506100ee60048036038101906100e99190611ac9565b61032f565b6040516100fe9493929190611bc7565b60405180910390f35b34801561011357600080fd5b5061012e60048036038101906101299190611ac9565b610527565b60405161013d93929190611c21565b60405180910390f35b34801561015257600080fd5b5061016d60048036038101906101689190611da2565b6106f9565b005b34801561017b57600080fd5b5061019660048036038101906101919190611e3d565b610ba3565b6040516101a69493929190611bc7565b60405180910390f35b3480156101bb57600080fd5b506101d660048036038101906101d19190611ac9565b610d8b565b6040516101e896959493929190611e79565b60405180910390f35b3480156101fd57600080fd5b5061021860048036038101906102139190611ac9565b610f07565b005b34801561022657600080fd5b5061022f6111dc565b60405161023e93929190611ee8565b60405180910390f35b61024f611258565b005b34801561025d57600080fd5b5061027860048036038101906102739190611ac9565b611374565b6040516102889493929190611bc7565b60405180910390f35b34801561029d57600080fd5b506102b860048036038101906102b39190611f1f565b61156c565b005b6102c261165e565b005b3480156102d057600080fd5b506102eb60048036038101906102e69190611f1f565b61177a565b005b3480156102f957600080fd5b50610314600480360381019061030f9190611fc6565b611899565b60405161032696959493929190611e79565b60405180910390f35b6001818154811061033f57600080fd5b906000526020600020906004020160009150905080600001805461036290612035565b80601f016020809104026020016040519081016040528092919081815260200182805461038e90612035565b80156103db5780601f106103b0576101008083540402835291602001916103db565b820191906000526020600020905b8154815290600101906020018083116103be57829003601f168201915b5050505050908060010180546103f090612035565b80601f016020809104026020016040519081016040528092919081815260200182805461041c90612035565b80156104695780601f1061043e57610100808354040283529160200191610469565b820191906000526020600020905b81548152906001019060200180831161044c57829003601f168201915b50505050509080600201805461047e90612035565b80601f01602080910402602001604051908101604052809291908181526020018280546104aa90612035565b80156104f75780601f106104cc576101008083540402835291602001916104f7565b820191906000526020600020905b8154815290600101906020018083116104da57829003601f168201915b5050505050908060030160009054906101000a900473ffffffffffffffffffffffffffffffffffffffff16905084565b6006818154811061053757600080fd5b906000526020600020906003020160009150905080600001805461055a90612035565b80601f016020809104026020016040519081016040528092919081815260200182805461058690612035565b80156105d35780601f106105a8576101008083540402835291602001916105d3565b820191906000526020600020905b8154815290600101906020018083116105b657829003601f168201915b5050505050908060010180546105e890612035565b80601f016020809104026020016040519081016040528092919081815260200182805461061490612035565b80156106615780601f1061063657610100808354040283529160200191610661565b820191906000526020600020905b81548152906001019060200180831161064457829003601f168201915b50505050509080600201805461067690612035565b80601f01602080910402602001604051908101604052809291908181526020018280546106a290612035565b80156106ef5780601f106106c4576101008083540402835291602001916106ef565b820191906000526020600020905b8154815290600101906020018083116106d257829003601f168201915b5050505050905083565b60005b6002805490508110156107c9573373ffffffffffffffffffffffffffffffffffffffff166002828154811061073457610733612066565b5b906000526020600020906006020160000160009054906101000a900473ffffffffffffffffffffffffffffffffffffffff1673ffffffffffffffffffffffffffffffffffffffff16036107bc576040517f08c379a00000000000000000000000000000000000000000000000000000000081526004016107b3906120e1565b60405180910390fd5b80806001019150506106fc565b50600081815481106107de576107dd612066565b5b9060005260206000209060040201600360003373ffffffffffffffffffffffffffffffffffffffff1673ffffffffffffffffffffffffffffffffffffffff1681526020019081526020016000206000820181600001908161083f91906122c3565b506001820181600101908161085491906122c3565b506002820181600201908161086991906122c3565b506003820160009054906101000a900473ffffffffffffffffffffffffffffffffffffffff168160030160006101000a81548173ffffffffffffffffffffffffffffffffffffffff021916908373ffffffffffffffffffffffffffffffffffffffff1602179055509050506060600082815481106108ea576108e9612066565b5b906000526020600020906004020160030160009054906101000a900473ffffffffffffffffffffffffffffffffffffffff1673ffffffffffffffffffffffffffffffffffffffff163373ffffffffffffffffffffffffffffffffffffffff160361098b576040518060400160405280600981526020017f507265736964656e74000000000000000000000000000000000000000000000081525090506109c4565b6040518060400160405280600681526020017f4d656d626572000000000000000000000000000000000000000000000000000081525090505b60006040518060c001604052803373ffffffffffffffffffffffffffffffffffffffff1681526020018681526020018581526020018381526020016000815260200160008152509050600281908060018154018082558091505060019003906000526020600020906006020160009091909190915060008201518160000160006101000a81548173ffffffffffffffffffffffffffffffffffffffff021916908373ffffffffffffffffffffffffffffffffffffffff1602179055506020820151816001019081610a9591906123ab565b50604082015181600201556060820151816003019081610ab591906123ab565b506080820151816004015560a0820151816005015550506004600084815260200190815260200160002081908060018154018082558091505060019003906000526020600020906006020160009091909190915060008201518160000160006101000a81548173ffffffffffffffffffffffffffffffffffffffff021916908373ffffffffffffffffffffffffffffffffffffffff1602179055506020820151816001019081610b6591906123ab565b50604082015181600201556060820151816003019081610b8591906123ab565b506080820151816004015560a0820151816005015550505050505050565b6003602052806000526040600020600091509050806000018054610bc690612035565b80601f0160208091040260200160405190810160405280929190818152602001828054610bf290612035565b8015610c3f5780601f10610c1457610100808354040283529160200191610c3f565b820191906000526020600020905b815481529060010190602001808311610c2257829003601f168201915b505050505090806001018054610c5490612035565b80601f0160208091040260200160405190810160405280929190818152602001828054610c8090612035565b8015610ccd5780601f10610ca257610100808354040283529160200191610ccd565b820191906000526020600020905b815481529060010190602001808311610cb057829003601f168201915b505050505090806002018054610ce290612035565b80601f0160208091040260200160405190810160405280929190818152602001828054610d0e90612035565b8015610d5b5780601f10610d3057610100808354040283529160200191610d5b565b820191906000526020600020905b815481529060010190602001808311610d3e57829003601f168201915b5050505050908060030160009054906101000a900473ffffffffffffffffffffffffffffffffffffffff16905084565b60028181548110610d9b57600080fd5b90600052602060002090600602016000915090508060000160009054906101000a900473ffffffffffffffffffffffffffffffffffffffff1690806001018054610de490612035565b80601f0160208091040260200160405190810160405280929190818152602001828054610e1090612035565b8015610e5d5780601f10610e3257610100808354040283529160200191610e5d565b820191906000526020600020905b815481529060010190602001808311610e4057829003601f168201915b505050505090806002015490806003018054610e7890612035565b80601f0160208091040260200160405190810160405280929190818152602001828054610ea490612035565b8015610ef15780601f10610ec657610100808354040283529160200191610ef1565b820191906000526020600020905b815481529060010190602001808311610ed457829003601f168201915b5050505050908060040154908060050154905086565b6001805490508110610f4e576040517f08c379a0000000000000000000000000000000000000000000000000000000008152600401610f45906124c9565b60405180910390fd5b600060018281548110610f6457610f63612066565b5b9060005260206000209060040201908060018154018082558091505060019003906000526020600020906004020160009091909190915060008201816000019081610faf91906122c3565b5060018201816001019081610fc491906122c3565b5060028201816002019081610fd991906122c3565b506003820160009054906101000a900473ffffffffffffffffffffffffffffffffffffffff168160030160006101000a81548173ffffffffffffffffffffffffffffffffffffffff021916908373ffffffffffffffffffffffffffffffffffffffff1602179055505050600180805490506110549190612518565b811461115757600180808054905061106c9190612518565b8154811061107d5761107c612066565b5b90600052602060002090600402016001828154811061109f5761109e612066565b5b9060005260206000209060040201600082018160000190816110c191906122c3565b50600182018160010190816110d691906122c3565b50600282018160020190816110eb91906122c3565b506003820160009054906101000a900473ffffffffffffffffffffffffffffffffffffffff168160030160006101000a81548173ffffffffffffffffffffffffffffffffffffffff021916908373ffffffffffffffffffffffffffffffffffffffff1602179055509050505b60018054806111695761116861254c565b5b60019003818190600052602060002090600402016000808201600061118e9190611a22565b60018201600061119e9190611a22565b6002820160006111ae9190611a22565b6003820160006101000a81549073ffffffffffffffffffffffffffffffffffffffff02191690555050905550565b6000806000600560009054906101000a900473ffffffffffffffffffffffffffffffffffffffff1673ffffffffffffffffffffffffffffffffffffffff163373ffffffffffffffffffffffffffffffffffffffff161461123b57600080fd5b600080549050600280549050600180549050925092509250909192565b6000341161129b576040517f08c379a0000000000000000000000000000000000000000000000000000000008152600401611292906125c7565b60405180910390fd5b60005b600280549050811015611371573373ffffffffffffffffffffffffffffffffffffffff16600282815481106112d6576112d5612066565b5b906000526020600020906006020160000160009054906101000a900473ffffffffffffffffffffffffffffffffffffffff1673ffffffffffffffffffffffffffffffffffffffff160361136457346002828154811061133857611337612066565b5b906000526020600020906006020160050160008282546113589190612518565b92505081905550611371565b808060010191505061129e565b50565b6000818154811061138457600080fd5b90600052602060002090600402016000915090508060000180546113a790612035565b80601f01602080910402602001604051908101604052809291908181526020018280546113d390612035565b80156114205780601f106113f557610100808354040283529160200191611420565b820191906000526020600020905b81548152906001019060200180831161140357829003601f168201915b50505050509080600101805461143590612035565b80601f016020809104026020016040519081016040528092919081815260200182805461146190612035565b80156114ae5780601f10611483576101008083540402835291602001916114ae565b820191906000526020600020905b81548152906001019060200180831161149157829003601f168201915b5050505050908060020180546114c390612035565b80601f01602080910402602001604051908101604052809291908181526020018280546114ef90612035565b801561153c5780601f106115115761010080835404028352916020019161153c565b820191906000526020600020905b81548152906001019060200180831161151f57829003601f168201915b5050505050908060030160009054906101000a900473ffffffffffffffffffffffffffffffffffffffff16905084565b600160405180608001604052808581526020018481526020018381526020013373ffffffffffffffffffffffffffffffffffffffff16815250908060018154018082558091505060019003906000526020600020906004020160009091909190915060008201518160000190816115e391906123ab565b5060208201518160010190816115f991906123ab565b50604082015181600201908161160f91906123ab565b5060608201518160030160006101000a81548173ffffffffffffffffffffffffffffffffffffffff021916908373ffffffffffffffffffffffffffffffffffffffff1602179055505050505050565b600034116116a1576040517f08c379a0000000000000000000000000000000000000000000000000000000008152600401611698906125c7565b60405180910390fd5b60005b600280549050811015611777573373ffffffffffffffffffffffffffffffffffffffff16600282815481106116dc576116db612066565b5b906000526020600020906006020160000160009054906101000a900473ffffffffffffffffffffffffffffffffffffffff1673ffffffffffffffffffffffffffffffffffffffff160361176a57346002828154811061173e5761173d612066565b5b9060005260206000209060060201600401600082825461175e91906125e7565b92505081905550611777565b80806001019150506116a4565b50565b600560009054906101000a900473ffffffffffffffffffffffffffffffffffffffff1673ffffffffffffffffffffffffffffffffffffffff163373ffffffffffffffffffffffffffffffffffffffff161461180a576040517f08c379a00000000000000000000000000000000000000000000000000000000081526004016118019061268d565b60405180910390fd5b60066040518060600160405280858152602001848152602001838152509080600181540180825580915050600190039060005260206000209060030201600090919091909150600082015181600001908161186591906123ab565b50602082015181600101908161187b91906123ab565b50604082015181600201908161189191906123ab565b505050505050565b600460205281600052604060002081815481106118b557600080fd5b9060005260206000209060060201600091509150508060000160009054906101000a900473ffffffffffffffffffffffffffffffffffffffff16908060010180546118ff90612035565b80601f016020809104026020016040519081016040528092919081815260200182805461192b90612035565b80156119785780601f1061194d57610100808354040283529160200191611978565b820191906000526020600020905b81548152906001019060200180831161195b57829003601f168201915b50505050509080600201549080600301805461199390612035565b80601f01602080910402602001604051908101604052809291908181526020018280546119bf90612035565b8015611a0c5780601f106119e157610100808354040283529160200191611a0c565b820191906000526020600020905b8154815290600101906020018083116119ef57829003601f168201915b5050505050908060040154908060050154905086565b508054611a2e90612035565b6000825580601f10611a405750611a5f565b601f016020900490600052602060002090810190611a5e9190611a62565b5b50565b5b80821115611a7b576000816000905550600101611a63565b5090565b6000604051905090565b600080fd5b600080fd5b6000819050919050565b611aa681611a93565b8114611ab157600080fd5b50565b600081359050611ac381611a9d565b92915050565b600060208284031215611adf57611ade611a89565b5b6000611aed84828501611ab4565b91505092915050565b600081519050919050565b600082825260208201905092915050565b60005b83811015611b30578082015181840152602081019050611b15565b60008484015250505050565b6000601f19601f8301169050919050565b6000611b5882611af6565b611b628185611b01565b9350611b72818560208601611b12565b611b7b81611b3c565b840191505092915050565b600073ffffffffffffffffffffffffffffffffffffffff82169050919050565b6000611bb182611b86565b9050919050565b611bc181611ba6565b82525050565b60006080820190508181036000830152611be18187611b4d565b90508181036020830152611bf58186611b4d565b90508181036040830152611c098185611b4d565b9050611c186060830184611bb8565b95945050505050565b60006060820190508181036000830152611c3b8186611b4d565b90508181036020830152611c4f8185611b4d565b90508181036040830152611c638184611b4d565b9050949350505050565b600080fd5b600080fd5b7f4e487b7100000000000000000000000000000000000000000000000000000000600052604160045260246000fd5b611caf82611b3c565b810181811067ffffffffffffffff82111715611cce57611ccd611c77565b5b80604052505050565b6000611ce1611a7f565b9050611ced8282611ca6565b919050565b600067ffffffffffffffff821115611d0d57611d0c611c77565b5b611d1682611b3c565b9050602081019050919050565b82818337600083830152505050565b6000611d45611d4084611cf2565b611cd7565b905082815260208101848484011115611d6157611d60611c72565b5b611d6c848285611d23565b509392505050565b600082601f830112611d8957611d88611c6d565b5b8135611d99848260208601611d32565b91505092915050565b600080600060608486031215611dbb57611dba611a89565b5b600084013567ffffffffffffffff811115611dd957611dd8611a8e565b5b611de586828701611d74565b9350506020611df686828701611ab4565b9250506040611e0786828701611ab4565b9150509250925092565b611e1a81611ba6565b8114611e2557600080fd5b50565b600081359050611e3781611e11565b92915050565b600060208284031215611e5357611e52611a89565b5b6000611e6184828501611e28565b91505092915050565b611e7381611a93565b82525050565b600060c082019050611e8e6000830189611bb8565b8181036020830152611ea08188611b4d565b9050611eaf6040830187611e6a565b8181036060830152611ec18186611b4d565b9050611ed06080830185611e6a565b611edd60a0830184611e6a565b979650505050505050565b6000606082019050611efd6000830186611e6a565b611f0a6020830185611e6a565b611f176040830184611e6a565b949350505050565b600080600060608486031215611f3857611f37611a89565b5b600084013567ffffffffffffffff811115611f5657611f55611a8e565b5b611f6286828701611d74565b935050602084013567ffffffffffffffff811115611f8357611f82611a8e565b5b611f8f86828701611d74565b925050604084013567ffffffffffffffff811115611fb057611faf611a8e565b5b611fbc86828701611d74565b9150509250925092565b60008060408385031215611fdd57611fdc611a89565b5b6000611feb85828601611ab4565b9250506020611ffc85828601611ab4565b9150509250929050565b7f4e487b7100000000000000000000000000000000000000000000000000000000600052602260045260246000fd5b6000600282049050600182168061204d57607f821691505b6020821081036120605761205f612006565b5b50919050565b7f4e487b7100000000000000000000000000000000000000000000000000000000600052603260045260246000fd5b7f4d656d62657220616c7265616479207265676973746572656400000000000000600082015250565b60006120cb601983611b01565b91506120d682612095565b602082019050919050565b600060208201905081810360008301526120fa816120be565b9050919050565b60008154905061211081612035565b9050919050565b60008190508160005260206000209050919050565b60006020601f8301049050919050565b600082821b905092915050565b6000600883026121797fffffffffffffffffffffffffffffffffffffffffffffffffffffffffffffffff8261213c565b612183868361213c565b95508019841693508086168417925050509392505050565b6000819050919050565b60006121c06121bb6121b684611a93565b61219b565b611a93565b9050919050565b6000819050919050565b6121da836121a5565b6121ee6121e6826121c7565b848454612149565b825550505050565b600090565b6122036121f6565b61220e8184846121d1565b505050565b5b81811015612232576122276000826121fb565b600181019050612214565b5050565b601f8211156122775761224881612117565b6122518461212c565b81016020851015612260578190505b61227461226c8561212c565b830182612213565b50505b505050565b600082821c905092915050565b600061229a6000198460080261227c565b1980831691505092915050565b60006122b38383612289565b9150826002028217905092915050565b8181036122d15750506123a9565b6122da82612101565b67ffffffffffffffff8111156122f3576122f2611c77565b5b6122fd8254612035565b612308828285612236565b6000601f8311600181146123375760008415612325578287015490505b61232f85826122a7565b8655506123a2565b601f19841661234587612117565b965061235086612117565b60005b8281101561237857848901548255600182019150600185019450602081019050612353565b868310156123955784890154612391601f891682612289565b8355505b6001600288020188555050505b5050505050505b565b6123b482611af6565b67ffffffffffffffff8111156123cd576123cc611c77565b5b6123d78254612035565b6123e2828285612236565b600060209050601f8311600181146124155760008415612403578287015190505b61240d85826122a7565b865550612475565b601f19841661242386612117565b60005b8281101561244b57848901518255600182019150602085019450602081019050612426565b868310156124685784890151612464601f891682612289565b8355505b6001600288020188555050505b505050505050565b7f496e76616c696420696e64657800000000000000000000000000000000000000600082015250565b60006124b3600d83611b01565b91506124be8261247d565b602082019050919050565b600060208201905081810360008301526124e2816124a6565b9050919050565b7f4e487b7100000000000000000000000000000000000000000000000000000000600052601160045260246000fd5b600061252382611a93565b915061252e83611a93565b9250828203905081811115612546576125456124e9565b5b92915050565b7f4e487b7100000000000000000000000000000000000000000000000000000000600052603160045260246000fd5b7f4e6f2076616c75652073656e7400000000000000000000000000000000000000600082015250565b60006125b1600d83611b01565b91506125bc8261257b565b602082019050919050565b600060208201905081810360008301526125e0816125a4565b9050919050565b60006125f282611a93565b91506125fd83611a93565b9250828201905080821115612615576126146124e9565b5b92915050565b7f4f6e6c79204344532041646d696e2063616e20637265617465206e6f7469666960008201527f636174696f6e2100000000000000000000000000000000000000000000000000602082015250565b6000612677602783611b01565b91506126828261261b565b604082019050919050565b600060208201905081810360008301526126a68161266a565b905091905056fea26469706673582212204f2587faa284690ab98cbd17dae5ec0a484cda52abef2f6420ddc90bc07b4ac564736f6c63430008180033",
  "linkReferences": {},
  "deployedLinkReferences": {}
}