{
  "_format": "hh-sol-artifact-1",
  "contractName": "DK",
  "sourceName": "contracts/DK.sol",
  "address": "0xB01896705839FA4705c2783dadf92B3381f99e48",
  "abi": [
    {
      "inputs": [],
      "stateMutability": "nonpayable",
      "type": "constructor"
    },
    {
      "inputs": [
        {
          "internalType": "uint256",
          "name": "",
          "type": "uint256"
        },
        {
          "internalType": "uint256",
          "name": "",
          "type": "uint256"
        }
      ],
      "name": "SHGToMember",
      "outputs": [
        {
          "internalType": "address",
          "name": "memaddress",
          "type": "address"
        },
        {
          "internalType": "string",
          "name": "name",
          "type": "string"
        },
        {
          "internalType": "uint256",
          "name": "aadhaar",
          "type": "uint256"
        },
        {
          "internalType": "string",
          "name": "desig",
          "type": "string"
        },
        {
          "internalType": "uint256",
          "name": "balance",
          "type": "uint256"
        },
        {
          "internalType": "uint256",
          "name": "loan",
          "type": "uint256"
        }
      ],
      "stateMutability": "view",
      "type": "function"
    },
    {
      "inputs": [
        {
          "internalType": "uint256",
          "name": "index",
          "type": "uint256"
        }
      ],
      "name": "approveSHG",
      "outputs": [],
      "stateMutability": "nonpayable",
      "type": "function"
    },
    {
      "inputs": [
        {
          "internalType": "uint256",
          "name": "",
          "type": "uint256"
        }
      ],
      "name": "approvedSHGs",
      "outputs": [
        {
          "internalType": "string",
          "name": "name",
          "type": "string"
        },
        {
          "internalType": "string",
          "name": "applicant",
          "type": "string"
        },
        {
          "internalType": "string",
          "name": "location",
          "type": "string"
        },
        {
          "internalType": "address",
          "name": "applicant_address",
          "type": "address"
        },
        {
          "internalType": "uint256",
          "name": "SHGRegisterTime",
          "type": "uint256"
        }
      ],
      "stateMutability": "view",
      "type": "function"
    },
    {
      "inputs": [],
      "name": "cdsdash",
      "outputs": [
        {
          "internalType": "uint256",
          "name": "",
          "type": "uint256"
        },
        {
          "internalType": "uint256",
          "name": "",
          "type": "uint256"
        },
        {
          "internalType": "uint256",
          "name": "",
          "type": "uint256"
        }
      ],
      "stateMutability": "view",
      "type": "function"
    },
    {
      "inputs": [],
      "name": "checkPresidentTenureOver",
      "outputs": [
        {
          "internalType": "bool",
          "name": "",
          "type": "bool"
        }
      ],
      "stateMutability": "view",
      "type": "function"
    },
    {
      "inputs": [
        {
          "internalType": "uint256",
          "name": "_index",
          "type": "uint256"
        }
      ],
      "name": "claimVote",
      "outputs": [],
      "stateMutability": "nonpayable",
      "type": "function"
    },
    {
      "inputs": [
        {
          "internalType": "string",
          "name": "_title",
          "type": "string"
        },
        {
          "internalType": "string",
          "name": "_desc",
          "type": "string"
        },
        {
          "internalType": "string",
          "name": "_link",
          "type": "string"
        }
      ],
      "name": "createNotification",
      "outputs": [],
      "stateMutability": "nonpayable",
      "type": "function"
    },
    {
      "inputs": [
        {
          "internalType": "string",
          "name": "_name",
          "type": "string"
        },
        {
          "internalType": "string",
          "name": "_applicant",
          "type": "string"
        },
        {
          "internalType": "string",
          "name": "_location",
          "type": "string"
        }
      ],
      "name": "createSHG",
      "outputs": [],
      "stateMutability": "nonpayable",
      "type": "function"
    },
    {
      "inputs": [
        {
          "internalType": "uint256",
          "name": "_amount",
          "type": "uint256"
        }
      ],
      "name": "createloan",
      "outputs": [],
      "stateMutability": "nonpayable",
      "type": "function"
    },
    {
      "inputs": [],
      "name": "getApprovedSHGs",
      "outputs": [
        {
          "components": [
            {
              "internalType": "string",
              "name": "name",
              "type": "string"
            },
            {
              "internalType": "string",
              "name": "applicant",
              "type": "string"
            },
            {
              "internalType": "string",
              "name": "location",
              "type": "string"
            },
            {
              "internalType": "address",
              "name": "applicant_address",
              "type": "address"
            },
            {
              "internalType": "uint256",
              "name": "SHGRegisterTime",
              "type": "uint256"
            }
          ],
          "internalType": "struct DK.SHG[]",
          "name": "",
          "type": "tuple[]"
        }
      ],
      "stateMutability": "view",
      "type": "function"
    },
    {
      "inputs": [],
      "name": "getContractBalance",
      "outputs": [
        {
          "internalType": "uint256",
          "name": "",
          "type": "uint256"
        }
      ],
      "stateMutability": "view",
      "type": "function"
    },
    {
      "inputs": [],
      "name": "getNotifications",
      "outputs": [
        {
          "components": [
            {
              "internalType": "string",
              "name": "title",
              "type": "string"
            },
            {
              "internalType": "string",
              "name": "desc",
              "type": "string"
            },
            {
              "internalType": "string",
              "name": "link",
              "type": "string"
            }
          ],
          "internalType": "struct DK.Notification[]",
          "name": "",
          "type": "tuple[]"
        }
      ],
      "stateMutability": "view",
      "type": "function"
    },
    {
      "inputs": [],
      "name": "getNumberOfMembersInSHG",
      "outputs": [
        {
          "internalType": "uint256",
          "name": "",
          "type": "uint256"
        }
      ],
      "stateMutability": "view",
      "type": "function"
    },
    {
      "inputs": [],
      "name": "getPendingSHGs",
      "outputs": [
        {
          "components": [
            {
              "internalType": "string",
              "name": "name",
              "type": "string"
            },
            {
              "internalType": "string",
              "name": "applicant",
              "type": "string"
            },
            {
              "internalType": "string",
              "name": "location",
              "type": "string"
            },
            {
              "internalType": "address",
              "name": "applicant_address",
              "type": "address"
            },
            {
              "internalType": "uint256",
              "name": "SHGRegisterTime",
              "type": "uint256"
            }
          ],
          "internalType": "struct DK.SHG[]",
          "name": "",
          "type": "tuple[]"
        }
      ],
      "stateMutability": "view",
      "type": "function"
    },
    {
      "inputs": [
        {
          "internalType": "uint256",
          "name": "",
          "type": "uint256"
        },
        {
          "internalType": "address",
          "name": "",
          "type": "address"
        }
      ],
      "name": "hasVoted",
      "outputs": [
        {
          "internalType": "bool",
          "name": "",
          "type": "bool"
        }
      ],
      "stateMutability": "view",
      "type": "function"
    },
    {
      "inputs": [],
      "name": "loanPay",
      "outputs": [],
      "stateMutability": "payable",
      "type": "function"
    },
    {
      "inputs": [
        {
          "internalType": "string",
          "name": "_name",
          "type": "string"
        },
        {
          "internalType": "uint256",
          "name": "_aadhar",
          "type": "uint256"
        },
        {
          "internalType": "uint256",
          "name": "SHGindex",
          "type": "uint256"
        }
      ],
      "name": "memRegandJoin",
      "outputs": [],
      "stateMutability": "nonpayable",
      "type": "function"
    },
    {
      "inputs": [
        {
          "internalType": "address",
          "name": "",
          "type": "address"
        }
      ],
      "name": "memberToSHGIndex",
      "outputs": [
        {
          "internalType": "uint256",
          "name": "",
          "type": "uint256"
        }
      ],
      "stateMutability": "view",
      "type": "function"
    },
    {
      "inputs": [
        {
          "internalType": "uint256",
          "name": "",
          "type": "uint256"
        }
      ],
      "name": "members",
      "outputs": [
        {
          "internalType": "address",
          "name": "memaddress",
          "type": "address"
        },
        {
          "internalType": "string",
          "name": "name",
          "type": "string"
        },
        {
          "internalType": "uint256",
          "name": "aadhaar",
          "type": "uint256"
        },
        {
          "internalType": "string",
          "name": "desig",
          "type": "string"
        },
        {
          "internalType": "uint256",
          "name": "balance",
          "type": "uint256"
        },
        {
          "internalType": "uint256",
          "name": "loan",
          "type": "uint256"
        }
      ],
      "stateMutability": "view",
      "type": "function"
    },
    {
      "inputs": [],
      "name": "memdash",
      "outputs": [
        {
          "internalType": "uint256",
          "name": "",
          "type": "uint256"
        },
        {
          "internalType": "uint256",
          "name": "",
          "type": "uint256"
        },
        {
          "internalType": "uint256",
          "name": "",
          "type": "uint256"
        }
      ],
      "stateMutability": "view",
      "type": "function"
    },
    {
      "inputs": [
        {
          "internalType": "uint256",
          "name": "",
          "type": "uint256"
        }
      ],
      "name": "n",
      "outputs": [
        {
          "internalType": "string",
          "name": "title",
          "type": "string"
        },
        {
          "internalType": "string",
          "name": "desc",
          "type": "string"
        },
        {
          "internalType": "string",
          "name": "link",
          "type": "string"
        }
      ],
      "stateMutability": "view",
      "type": "function"
    },
    {
      "inputs": [],
      "name": "nominatePresident",
      "outputs": [],
      "stateMutability": "nonpayable",
      "type": "function"
    },
    {
      "inputs": [
        {
          "internalType": "uint256",
          "name": "",
          "type": "uint256"
        }
      ],
      "name": "pendingSHGs",
      "outputs": [
        {
          "internalType": "string",
          "name": "name",
          "type": "string"
        },
        {
          "internalType": "string",
          "name": "applicant",
          "type": "string"
        },
        {
          "internalType": "string",
          "name": "location",
          "type": "string"
        },
        {
          "internalType": "address",
          "name": "applicant_address",
          "type": "address"
        },
        {
          "internalType": "uint256",
          "name": "SHGRegisterTime",
          "type": "uint256"
        }
      ],
      "stateMutability": "view",
      "type": "function"
    },
    {
      "inputs": [
        {
          "internalType": "uint256",
          "name": "",
          "type": "uint256"
        },
        {
          "internalType": "uint256",
          "name": "",
          "type": "uint256"
        }
      ],
      "name": "shgIndexToLoan",
      "outputs": [
        {
          "internalType": "address payable",
          "name": "applicant_add",
          "type": "address"
        },
        {
          "internalType": "string",
          "name": "applicant_name",
          "type": "string"
        },
        {
          "internalType": "uint256",
          "name": "amount",
          "type": "uint256"
        },
        {
          "internalType": "uint256",
          "name": "yesCount",
          "type": "uint256"
        },
        {
          "internalType": "bool",
          "name": "completed",
          "type": "bool"
        },
        {
          "internalType": "bool",
          "name": "claimed",
          "type": "bool"
        },
        {
          "internalType": "uint256",
          "name": "startTime",
          "type": "uint256"
        }
      ],
      "stateMutability": "view",
      "type": "function"
    },
    {
      "inputs": [
        {
          "internalType": "uint256",
          "name": "",
          "type": "uint256"
        },
        {
          "internalType": "address",
          "name": "",
          "type": "address"
        }
      ],
      "name": "shgNominations",
      "outputs": [
        {
          "internalType": "address",
          "name": "nominee",
          "type": "address"
        },
        {
          "internalType": "uint256",
          "name": "timestamp",
          "type": "uint256"
        }
      ],
      "stateMutability": "view",
      "type": "function"
    },
    {
      "inputs": [],
      "name": "viewNominations",
      "outputs": [
        {
          "internalType": "address[]",
          "name": "",
          "type": "address[]"
        }
      ],
      "stateMutability": "view",
      "type": "function"
    },
    {
      "inputs": [],
      "name": "viewloan",
      "outputs": [
        {
          "components": [
            {
              "internalType": "address payable",
              "name": "applicant_add",
              "type": "address"
            },
            {
              "internalType": "string",
              "name": "applicant_name",
              "type": "string"
            },
            {
              "internalType": "uint256",
              "name": "amount",
              "type": "uint256"
            },
            {
              "internalType": "uint256",
              "name": "yesCount",
              "type": "uint256"
            },
            {
              "internalType": "bool",
              "name": "completed",
              "type": "bool"
            },
            {
              "internalType": "bool",
              "name": "claimed",
              "type": "bool"
            },
            {
              "internalType": "uint256",
              "name": "startTime",
              "type": "uint256"
            }
          ],
          "internalType": "struct DK.Loanvote[]",
          "name": "",
          "type": "tuple[]"
        }
      ],
      "stateMutability": "view",
      "type": "function"
    },
    {
      "inputs": [
        {
          "internalType": "uint256",
          "name": "_index",
          "type": "uint256"
        }
      ],
      "name": "vote",
      "outputs": [],
      "stateMutability": "nonpayable",
      "type": "function"
    },
    {
      "inputs": [],
      "name": "weeklyPay",
      "outputs": [],
      "stateMutability": "payable",
      "type": "function"
    }
  ],
  "bytecode": "0x608060405234801561001057600080fd5b5033600560006101000a81548173ffffffffffffffffffffffffffffffffffffffff021916908373ffffffffffffffffffffffffffffffffffffffff160217905550615b6d80620000626000396000f3fe6080604052600436106101c25760003560e01c80638881aba4116100f7578063b515e12c11610095578063cf71355b11610064578063cf71355b14610642578063eca6e1ae1461066b578063f11021a214610696578063ff78c7e3146106c1576101c2565b8063b515e12c1461058d578063cc5870e4146105d0578063cde23424146105da578063cf48bd2c14610617576101c2565b8063a3a4333b116100d1578063a3a4333b146104bc578063a64fc4ec146104e5578063a6ef2b5c14610523578063b40ebaaf14610564576101c2565b80638881aba4146104585780638916eee314610485578063a2bc7eb4146104b2576101c2565b806343859632116101645780636005fec61161013e5780636005fec6146103ae5780636f9fb98a146103d75780637c276e29146104025780637c3d483e1461042d576101c2565b8063438596321461030457806354736af1146103415780635daf08ca1461036c576101c2565b80631514e44b116101a05780631514e44b1461025a5780632495b5fc146102855780632d22f7fb146102c45780633296fd34146102ed576101c2565b80630121b93f146101c75780630e16199d146101f05780631436e43514610219575b600080fd5b3480156101d357600080fd5b506101ee60048036038101906101e991906140d3565b610703565b005b3480156101fc57600080fd5b50610217600480360381019061021291906140d3565b610933565b005b34801561022557600080fd5b50610240600480360381019061023b91906140d3565b610c27565b6040516102519594939291906141e0565b60405180910390f35b34801561026657600080fd5b5061026f610e25565b60405161027c91906143f6565b60405180910390f35b34801561029157600080fd5b506102ac60048036038101906102a791906140d3565b61109a565b6040516102bb93929190614418565b60405180910390f35b3480156102d057600080fd5b506102eb60048036038101906102e69190614599565b61126c565b005b3480156102f957600080fd5b50610302611697565b005b34801561031057600080fd5b5061032b60048036038101906103269190614634565b6118ff565b604051610338919061468f565b60405180910390f35b34801561034d57600080fd5b5061035661192e565b6040516103639190614838565b60405180910390f35b34801561037857600080fd5b50610393600480360381019061038e91906140d3565b611b66565b6040516103a59695949392919061485a565b60405180910390f35b3480156103ba57600080fd5b506103d560048036038101906103d091906140d3565b611ce2565b005b3480156103e357600080fd5b506103ec611fd3565b6040516103f991906148c9565b60405180910390f35b34801561040e57600080fd5b50610417611fdb565b6040516104249190614993565b60405180910390f35b34801561043957600080fd5b50610442612477565b60405161044f91906143f6565b60405180910390f35b34801561046457600080fd5b5061046d6126ec565b60405161047c939291906149b5565b60405180910390f35b34801561049157600080fd5b5061049a61279e565b6040516104a9939291906149b5565b60405180910390f35b6104ba612bc0565b005b3480156104c857600080fd5b506104e360048036038101906104de91906140d3565b612d44565b005b3480156104f157600080fd5b5061050c60048036038101906105079190614634565b61311b565b60405161051a9291906149ec565b60405180910390f35b34801561052f57600080fd5b5061054a600480360381019061054591906140d3565b61316c565b60405161055b9594939291906141e0565b60405180910390f35b34801561057057600080fd5b5061058b60048036038101906105869190614a15565b61336a565b005b34801561059957600080fd5b506105b460048036038101906105af9190614abc565b61346c565b6040516105c79796959493929190614b0b565b60405180910390f35b6105d861358d565b005b3480156105e657600080fd5b5061060160048036038101906105fc9190614b81565b613838565b60405161060e91906148c9565b60405180910390f35b34801561062357600080fd5b5061062c613850565b6040516106399190614cce565b60405180910390f35b34801561064e57600080fd5b5061066960048036038101906106649190614a15565b613a65565b005b34801561067757600080fd5b50610680613b84565b60405161068d919061468f565b60405180910390f35b3480156106a257600080fd5b506106ab613c09565b6040516106b891906148c9565b60405180910390f35b3480156106cd57600080fd5b506106e860048036038101906106e39190614abc565b613ea3565b6040516106fa9695949392919061485a565b60405180910390f35b6000600360003373ffffffffffffffffffffffffffffffffffffffff1673ffffffffffffffffffffffffffffffffffffffff1681526020019081526020016000205490506009600083815260200190815260200160002060003373ffffffffffffffffffffffffffffffffffffffff1673ffffffffffffffffffffffffffffffffffffffff16815260200190815260200160002060009054906101000a900460ff16156107e5576040517f08c379a00000000000000000000000000000000000000000000000000000000081526004016107dc90614d62565b60405180910390fd5b600060086000838152602001908152602001600020838154811061080c5761080b614d82565b5b906000526020600020906006020190508060040160009054906101000a900460ff161561086e576040517f08c379a000000000000000000000000000000000000000000000000000000000815260040161086590614e23565b60405180910390fd5b603c816005015461087f9190614e72565b4211156108aa5760018160040160006101000a81548160ff0219169083151502179055505050610930565b8060030160008154809291906108bf90614ea6565b919050555060016009600085815260200190815260200160002060003373ffffffffffffffffffffffffffffffffffffffff1673ffffffffffffffffffffffffffffffffffffffff16815260200190815260200160002060006101000a81548160ff02191690831515021790555050505b50565b6000600360003373ffffffffffffffffffffffffffffffffffffffff1673ffffffffffffffffffffffffffffffffffffffff1681526020019081526020016000205490506000600460008381526020019081526020016000209050606060005b8280549050811015610ad7573373ffffffffffffffffffffffffffffffffffffffff168382815481106109c9576109c8614d82565b5b906000526020600020906006020160000160009054906101000a900473ffffffffffffffffffffffffffffffffffffffff1673ffffffffffffffffffffffffffffffffffffffff1603610aca57828181548110610a2957610a28614d82565b5b90600052602060002090600602016001018054610a4590614f1d565b80601f0160208091040260200160405190810160405280929190818152602001828054610a7190614f1d565b8015610abe5780601f10610a9357610100808354040283529160200191610abe565b820191906000526020600020905b815481529060010190602001808311610aa157829003601f168201915b50505050509150610ad7565b8080600101915050610993565b50600860008481526020019081526020016000206040518060e001604052803373ffffffffffffffffffffffffffffffffffffffff1681526020018381526020018681526020016000815260200160001515815260200160001515815260200142815250908060018154018082558091505060019003906000526020600020906006020160009091909190915060008201518160000160006101000a81548173ffffffffffffffffffffffffffffffffffffffff021916908373ffffffffffffffffffffffffffffffffffffffff1602179055506020820151816001019081610bc091906150fa565b50604082015181600201556060820151816003015560808201518160040160006101000a81548160ff02191690831515021790555060a08201518160040160016101000a81548160ff02191690831515021790555060c08201518160050155505050505050565b60018181548110610c3757600080fd5b9060005260206000209060050201600091509050806000018054610c5a90614f1d565b80601f0160208091040260200160405190810160405280929190818152602001828054610c8690614f1d565b8015610cd35780601f10610ca857610100808354040283529160200191610cd3565b820191906000526020600020905b815481529060010190602001808311610cb657829003601f168201915b505050505090806001018054610ce890614f1d565b80601f0160208091040260200160405190810160405280929190818152602001828054610d1490614f1d565b8015610d615780601f10610d3657610100808354040283529160200191610d61565b820191906000526020600020905b815481529060010190602001808311610d4457829003601f168201915b505050505090806002018054610d7690614f1d565b80601f0160208091040260200160405190810160405280929190818152602001828054610da290614f1d565b8015610def5780601f10610dc457610100808354040283529160200191610def565b820191906000526020600020905b815481529060010190602001808311610dd257829003601f168201915b5050505050908060030160009054906101000a900473ffffffffffffffffffffffffffffffffffffffff16908060040154905085565b60606001805480602002602001604051908101604052809291908181526020016000905b8282101561109157838290600052602060002090600502016040518060a0016040529081600082018054610e7c90614f1d565b80601f0160208091040260200160405190810160405280929190818152602001828054610ea890614f1d565b8015610ef55780601f10610eca57610100808354040283529160200191610ef5565b820191906000526020600020905b815481529060010190602001808311610ed857829003601f168201915b50505050508152602001600182018054610f0e90614f1d565b80601f0160208091040260200160405190810160405280929190818152602001828054610f3a90614f1d565b8015610f875780601f10610f5c57610100808354040283529160200191610f87565b820191906000526020600020905b815481529060010190602001808311610f6a57829003601f168201915b50505050508152602001600282018054610fa090614f1d565b80601f0160208091040260200160405190810160405280929190818152602001828054610fcc90614f1d565b80156110195780601f10610fee57610100808354040283529160200191611019565b820191906000526020600020905b815481529060010190602001808311610ffc57829003601f168201915b505050505081526020016003820160009054906101000a900473ffffffffffffffffffffffffffffffffffffffff1673ffffffffffffffffffffffffffffffffffffffff1673ffffffffffffffffffffffffffffffffffffffff16815260200160048201548152505081526020019060010190610e49565b50505050905090565b600781815481106110aa57600080fd5b90600052602060002090600302016000915090508060000180546110cd90614f1d565b80601f01602080910402602001604051908101604052809291908181526020018280546110f990614f1d565b80156111465780601f1061111b57610100808354040283529160200191611146565b820191906000526020600020905b81548152906001019060200180831161112957829003601f168201915b50505050509080600101805461115b90614f1d565b80601f016020809104026020016040519081016040528092919081815260200182805461118790614f1d565b80156111d45780601f106111a9576101008083540402835291602001916111d4565b820191906000526020600020905b8154815290600101906020018083116111b757829003601f168201915b5050505050908060020180546111e990614f1d565b80601f016020809104026020016040519081016040528092919081815260200182805461121590614f1d565b80156112625780601f1061123757610100808354040283529160200191611262565b820191906000526020600020905b81548152906001019060200180831161124557829003601f168201915b5050505050905083565b60005b60028054905081101561133c573373ffffffffffffffffffffffffffffffffffffffff16600282815481106112a7576112a6614d82565b5b906000526020600020906006020160000160009054906101000a900473ffffffffffffffffffffffffffffffffffffffff1673ffffffffffffffffffffffffffffffffffffffff160361132f576040517f08c379a000000000000000000000000000000000000000000000000000000000815260040161132690615218565b60405180910390fd5b808060010191505061126f565b506000805490508110611384576040517f08c379a000000000000000000000000000000000000000000000000000000000815260040161137b90615284565b60405180910390fd5b80600360003373ffffffffffffffffffffffffffffffffffffffff1673ffffffffffffffffffffffffffffffffffffffff168152602001908152602001600020819055506060600082815481106113de576113dd614d82565b5b906000526020600020906005020160030160009054906101000a900473ffffffffffffffffffffffffffffffffffffffff1673ffffffffffffffffffffffffffffffffffffffff163373ffffffffffffffffffffffffffffffffffffffff160361147f576040518060400160405280600981526020017f507265736964656e74000000000000000000000000000000000000000000000081525090506114b8565b6040518060400160405280600681526020017f4d656d626572000000000000000000000000000000000000000000000000000081525090505b60006040518060c001604052803373ffffffffffffffffffffffffffffffffffffffff1681526020018681526020018581526020018381526020016000815260200160008152509050600281908060018154018082558091505060019003906000526020600020906006020160009091909190915060008201518160000160006101000a81548173ffffffffffffffffffffffffffffffffffffffff021916908373ffffffffffffffffffffffffffffffffffffffff160217905550602082015181600101908161158991906150fa565b506040820151816002015560608201518160030190816115a991906150fa565b506080820151816004015560a0820151816005015550506004600084815260200190815260200160002081908060018154018082558091505060019003906000526020600020906006020160009091909190915060008201518160000160006101000a81548173ffffffffffffffffffffffffffffffffffffffff021916908373ffffffffffffffffffffffffffffffffffffffff160217905550602082015181600101908161165991906150fa565b5060408201518160020155606082015181600301908161167991906150fa565b506080820151816004015560a0820151816005015550505050505050565b6000600360003373ffffffffffffffffffffffffffffffffffffffff1673ffffffffffffffffffffffffffffffffffffffff1681526020019081526020016000205490506000805490508110611722576040517f08c379a000000000000000000000000000000000000000000000000000000000815260040161171990615316565b60405180910390fd5b6102586000828154811061173957611738614d82565b5b9060005260206000209060050201600401546117559190614e72565b421115611797576040517f08c379a000000000000000000000000000000000000000000000000000000000815260040161178e906153a8565b60405180910390fd5b60006006600083815260200190815260200160002060003373ffffffffffffffffffffffffffffffffffffffff1673ffffffffffffffffffffffffffffffffffffffff168152602001908152602001600020600101541461182d576040517f08c379a000000000000000000000000000000000000000000000000000000000815260040161182490615414565b60405180910390fd5b60405180604001604052803373ffffffffffffffffffffffffffffffffffffffff168152602001428152506006600083815260200190815260200160002060003373ffffffffffffffffffffffffffffffffffffffff1673ffffffffffffffffffffffffffffffffffffffff16815260200190815260200160002060008201518160000160006101000a81548173ffffffffffffffffffffffffffffffffffffffff021916908373ffffffffffffffffffffffffffffffffffffffff1602179055506020820151816001015590505050565b60096020528160005260406000206020528060005260406000206000915091509054906101000a900460ff1681565b60606000600360003373ffffffffffffffffffffffffffffffffffffffff1673ffffffffffffffffffffffffffffffffffffffff16815260200190815260200160002054905060008054905081106119bb576040517f08c379a00000000000000000000000000000000000000000000000000000000081526004016119b290615316565b60405180910390fd5b60086000828152602001908152602001600020805480602002602001604051908101604052809291908181526020016000905b82821015611b5c57838290600052602060002090600602016040518060e00160405290816000820160009054906101000a900473ffffffffffffffffffffffffffffffffffffffff1673ffffffffffffffffffffffffffffffffffffffff1673ffffffffffffffffffffffffffffffffffffffff168152602001600182018054611a7790614f1d565b80601f0160208091040260200160405190810160405280929190818152602001828054611aa390614f1d565b8015611af05780601f10611ac557610100808354040283529160200191611af0565b820191906000526020600020905b815481529060010190602001808311611ad357829003601f168201915b5050505050815260200160028201548152602001600382015481526020016004820160009054906101000a900460ff161515151581526020016004820160019054906101000a900460ff16151515158152602001600582015481525050815260200190600101906119ee565b5050505091505090565b60028181548110611b7657600080fd5b90600052602060002090600602016000915090508060000160009054906101000a900473ffffffffffffffffffffffffffffffffffffffff1690806001018054611bbf90614f1d565b80601f0160208091040260200160405190810160405280929190818152602001828054611beb90614f1d565b8015611c385780601f10611c0d57610100808354040283529160200191611c38565b820191906000526020600020905b815481529060010190602001808311611c1b57829003601f168201915b505050505090806002015490806003018054611c5390614f1d565b80601f0160208091040260200160405190810160405280929190818152602001828054611c7f90614f1d565b8015611ccc5780601f10611ca157610100808354040283529160200191611ccc565b820191906000526020600020905b815481529060010190602001808311611caf57829003601f168201915b5050505050908060040154908060050154905086565b6001805490508110611d29576040517f08c379a0000000000000000000000000000000000000000000000000000000008152600401611d2090615480565b60405180910390fd5b600060018281548110611d3f57611d3e614d82565b5b9060005260206000209060050201908060018154018082558091505060019003906000526020600020906005020160009091909190915060008201816000019081611d8a91906154b6565b5060018201816001019081611d9f91906154b6565b5060028201816002019081611db491906154b6565b506003820160009054906101000a900473ffffffffffffffffffffffffffffffffffffffff168160030160006101000a81548173ffffffffffffffffffffffffffffffffffffffff021916908373ffffffffffffffffffffffffffffffffffffffff16021790555060048201548160040155505060018080549050611e39919061559e565b8114611f46576001808080549050611e51919061559e565b81548110611e6257611e61614d82565b5b906000526020600020906005020160018281548110611e8457611e83614d82565b5b906000526020600020906005020160008201816000019081611ea691906154b6565b5060018201816001019081611ebb91906154b6565b5060028201816002019081611ed091906154b6565b506003820160009054906101000a900473ffffffffffffffffffffffffffffffffffffffff168160030160006101000a81548173ffffffffffffffffffffffffffffffffffffffff021916908373ffffffffffffffffffffffffffffffffffffffff160217905550600482015481600401559050505b6001805480611f5857611f576155d2565b5b600190038181906000526020600020906005020160008082016000611f7d919061402c565b600182016000611f8d919061402c565b600282016000611f9d919061402c565b6003820160006101000a81549073ffffffffffffffffffffffffffffffffffffffff021916905560048201600090555050905550565b600047905090565b60606000600360003373ffffffffffffffffffffffffffffffffffffffff1673ffffffffffffffffffffffffffffffffffffffff1681526020019081526020016000205490506000805490508110612068576040517f08c379a000000000000000000000000000000000000000000000000000000000815260040161205f90615316565b60405180910390fd5b600060046000838152602001908152602001600020805480602002602001604051908101604052809291908181526020016000905b8282101561226757838290600052602060002090600602016040518060c00160405290816000820160009054906101000a900473ffffffffffffffffffffffffffffffffffffffff1673ffffffffffffffffffffffffffffffffffffffff1673ffffffffffffffffffffffffffffffffffffffff16815260200160018201805461212690614f1d565b80601f016020809104026020016040519081016040528092919081815260200182805461215290614f1d565b801561219f5780601f106121745761010080835404028352916020019161219f565b820191906000526020600020905b81548152906001019060200180831161218257829003601f168201915b50505050508152602001600282015481526020016003820180546121c290614f1d565b80601f01602080910402602001604051908101604052809291908181526020018280546121ee90614f1d565b801561223b5780601f106122105761010080835404028352916020019161223b565b820191906000526020600020905b81548152906001019060200180831161221e57829003601f168201915b50505050508152602001600482015481526020016005820154815250508152602001906001019061209d565b5050505090506000805b825181101561230f5760006006600086815260200190815260200160002060008584815181106122a4576122a3614d82565b5b60200260200101516000015173ffffffffffffffffffffffffffffffffffffffff1673ffffffffffffffffffffffffffffffffffffffff16815260200190815260200160002060010154146123025781806122fe90614ea6565b9250505b8080600101915050612271565b5060008167ffffffffffffffff81111561232c5761232b61446e565b5b60405190808252806020026020018201604052801561235a5781602001602082028036833780820191505090505b5090506000805b845181101561246b57600060066000888152602001908152602001600020600087848151811061239457612393614d82565b5b60200260200101516000015173ffffffffffffffffffffffffffffffffffffffff1673ffffffffffffffffffffffffffffffffffffffff168152602001908152602001600020600101541461245e578481815181106123f6576123f5614d82565b5b60200260200101516000015183838151811061241557612414614d82565b5b602002602001019073ffffffffffffffffffffffffffffffffffffffff16908173ffffffffffffffffffffffffffffffffffffffff1681525050818061245a90614ea6565b9250505b8080600101915050612361565b50819550505050505090565b60606000805480602002602001604051908101604052809291908181526020016000905b828210156126e357838290600052602060002090600502016040518060a00160405290816000820180546124ce90614f1d565b80601f01602080910402602001604051908101604052809291908181526020018280546124fa90614f1d565b80156125475780601f1061251c57610100808354040283529160200191612547565b820191906000526020600020905b81548152906001019060200180831161252a57829003601f168201915b5050505050815260200160018201805461256090614f1d565b80601f016020809104026020016040519081016040528092919081815260200182805461258c90614f1d565b80156125d95780601f106125ae576101008083540402835291602001916125d9565b820191906000526020600020905b8154815290600101906020018083116125bc57829003601f168201915b505050505081526020016002820180546125f290614f1d565b80601f016020809104026020016040519081016040528092919081815260200182805461261e90614f1d565b801561266b5780601f106126405761010080835404028352916020019161266b565b820191906000526020600020905b81548152906001019060200180831161264e57829003601f168201915b505050505081526020016003820160009054906101000a900473ffffffffffffffffffffffffffffffffffffffff1673ffffffffffffffffffffffffffffffffffffffff1673ffffffffffffffffffffffffffffffffffffffff1681526020016004820154815250508152602001906001019061249b565b50505050905090565b6000806000600560009054906101000a900473ffffffffffffffffffffffffffffffffffffffff1673ffffffffffffffffffffffffffffffffffffffff163373ffffffffffffffffffffffffffffffffffffffff1614612781576040517f08c379a000000000000000000000000000000000000000000000000000000000815260040161277890615699565b60405180910390fd5b600080549050600280549050600180549050925092509250909192565b6000806000806000905060008060008060005b6002805490508110156128de573373ffffffffffffffffffffffffffffffffffffffff16600282815481106127e9576127e8614d82565b5b906000526020600020906006020160000160009054906101000a900473ffffffffffffffffffffffffffffffffffffffff1673ffffffffffffffffffffffffffffffffffffffff16036128d157600192506002818154811061284e5761284d614d82565b5b90600052602060002090600602016004015495506002818154811061287657612875614d82565b5b9060005260206000209060060201600501549450600360003373ffffffffffffffffffffffffffffffffffffffff1673ffffffffffffffffffffffffffffffffffffffff1681526020019081526020016000205491506128de565b80806001019150506127b1565b508161291f576040517f08c379a00000000000000000000000000000000000000000000000000000000081526004016129169061572b565b60405180910390fd5b600360003373ffffffffffffffffffffffffffffffffffffffff1673ffffffffffffffffffffffffffffffffffffffff168152602001908152602001600020549050600060046000838152602001908152602001600020805480602002602001604051908101604052809291908181526020016000905b82821015612b6057838290600052602060002090600602016040518060c00160405290816000820160009054906101000a900473ffffffffffffffffffffffffffffffffffffffff1673ffffffffffffffffffffffffffffffffffffffff1673ffffffffffffffffffffffffffffffffffffffff168152602001600182018054612a1f90614f1d565b80601f0160208091040260200160405190810160405280929190818152602001828054612a4b90614f1d565b8015612a985780601f10612a6d57610100808354040283529160200191612a98565b820191906000526020600020905b815481529060010190602001808311612a7b57829003601f168201915b5050505050815260200160028201548152602001600382018054612abb90614f1d565b80601f0160208091040260200160405190810160405280929190818152602001828054612ae790614f1d565b8015612b345780601f10612b0957610100808354040283529160200191612b34565b820191906000526020600020905b815481529060010190602001808311612b1757829003601f168201915b505050505081526020016004820154815260200160058201548152505081526020019060010190612996565b50505050905060005b8151811015612bab57818181518110612b8557612b84614d82565b5b60200260200101516080015185612b9c9190614e72565b94508080600101915050612b69565b50858585985098509850505050505050909192565b60003411612c03576040517f08c379a0000000000000000000000000000000000000000000000000000000008152600401612bfa90615797565b60405180910390fd5b60005b600280549050811015612d41573373ffffffffffffffffffffffffffffffffffffffff1660028281548110612c3e57612c3d614d82565b5b906000526020600020906006020160000160009054906101000a900473ffffffffffffffffffffffffffffffffffffffff1673ffffffffffffffffffffffffffffffffffffffff1603612d345760028181548110612c9f57612c9e614d82565b5b906000526020600020906006020160050154341115612cf3576040517f08c379a0000000000000000000000000000000000000000000000000000000008152600401612cea90615829565b60405180910390fd5b3460028281548110612d0857612d07614d82565b5b90600052602060002090600602016005016000828254612d28919061559e565b92505081905550612d41565b8080600101915050612c06565b50565b6000600360003373ffffffffffffffffffffffffffffffffffffffff1673ffffffffffffffffffffffffffffffffffffffff1681526020019081526020016000205490506000805490508110612dcf576040517f08c379a0000000000000000000000000000000000000000000000000000000008152600401612dc690615316565b60405180910390fd5b6000600860008381526020019081526020016000208381548110612df657612df5614d82565b5b906000526020600020906006020190508060000160009054906101000a900473ffffffffffffffffffffffffffffffffffffffff1673ffffffffffffffffffffffffffffffffffffffff163373ffffffffffffffffffffffffffffffffffffffff1614612e98576040517f08c379a0000000000000000000000000000000000000000000000000000000008152600401612e8f906158bb565b60405180910390fd5b8060040160009054906101000a900460ff16612ee9576040517f08c379a0000000000000000000000000000000000000000000000000000000008152600401612ee090615927565b60405180910390fd5b8060040160019054906101000a900460ff1615612f3b576040517f08c379a0000000000000000000000000000000000000000000000000000000008152600401612f3290615993565b60405180910390fd5b600060046000848152602001908152602001600020805490509050600082600301549050600282612f6c91906159e2565b8111612fad576040517f08c379a0000000000000000000000000000000000000000000000000000000008152600401612fa490615a85565b60405180910390fd5b8260000160009054906101000a900473ffffffffffffffffffffffffffffffffffffffff1673ffffffffffffffffffffffffffffffffffffffff166108fc84600201549081150290604051600060405180830381858888f1935050505015801561301b573d6000803e3d6000fd5b5060005b6002805490508110156130f6573373ffffffffffffffffffffffffffffffffffffffff166002828154811061305757613056614d82565b5b906000526020600020906006020160000160009054906101000a900473ffffffffffffffffffffffffffffffffffffffff1673ffffffffffffffffffffffffffffffffffffffff16036130e9578360020154600282815481106130bd576130bc614d82565b5b906000526020600020906006020160050160008282546130dd9190614e72565b925050819055506130f6565b808060010191505061301f565b5060018360040160016101000a81548160ff0219169083151502179055505050505050565b6006602052816000526040600020602052806000526040600020600091509150508060000160009054906101000a900473ffffffffffffffffffffffffffffffffffffffff16908060010154905082565b6000818154811061317c57600080fd5b906000526020600020906005020160009150905080600001805461319f90614f1d565b80601f01602080910402602001604051908101604052809291908181526020018280546131cb90614f1d565b80156132185780601f106131ed57610100808354040283529160200191613218565b820191906000526020600020905b8154815290600101906020018083116131fb57829003601f168201915b50505050509080600101805461322d90614f1d565b80601f016020809104026020016040519081016040528092919081815260200182805461325990614f1d565b80156132a65780601f1061327b576101008083540402835291602001916132a6565b820191906000526020600020905b81548152906001019060200180831161328957829003601f168201915b5050505050908060020180546132bb90614f1d565b80601f01602080910402602001604051908101604052809291908181526020018280546132e790614f1d565b80156133345780601f1061330957610100808354040283529160200191613334565b820191906000526020600020905b81548152906001019060200180831161331757829003601f168201915b5050505050908060030160009054906101000a900473ffffffffffffffffffffffffffffffffffffffff16908060040154905085565b60016040518060a001604052808581526020018481526020018381526020013373ffffffffffffffffffffffffffffffffffffffff16815260200142815250908060018154018082558091505060019003906000526020600020906005020160009091909190915060008201518160000190816133e791906150fa565b5060208201518160010190816133fd91906150fa565b50604082015181600201908161341391906150fa565b5060608201518160030160006101000a81548173ffffffffffffffffffffffffffffffffffffffff021916908373ffffffffffffffffffffffffffffffffffffffff160217905550608082015181600401555050505050565b6008602052816000526040600020818154811061348857600080fd5b9060005260206000209060060201600091509150508060000160009054906101000a900473ffffffffffffffffffffffffffffffffffffffff16908060010180546134d290614f1d565b80601f01602080910402602001604051908101604052809291908181526020018280546134fe90614f1d565b801561354b5780601f106135205761010080835404028352916020019161354b565b820191906000526020600020905b81548152906001019060200180831161352e57829003601f168201915b5050505050908060020154908060030154908060040160009054906101000a900460ff16908060040160019054906101000a900460ff16908060050154905087565b600034116135d0576040517f08c379a00000000000000000000000000000000000000000000000000000000081526004016135c790615797565b60405180910390fd5b6000600360003373ffffffffffffffffffffffffffffffffffffffff1673ffffffffffffffffffffffffffffffffffffffff168152602001908152602001600020549050600080549050811061365b576040517f08c379a000000000000000000000000000000000000000000000000000000000815260040161365290615316565b60405180910390fd5b60005b600280549050811015613731573373ffffffffffffffffffffffffffffffffffffffff166002828154811061369657613695614d82565b5b906000526020600020906006020160000160009054906101000a900473ffffffffffffffffffffffffffffffffffffffff1673ffffffffffffffffffffffffffffffffffffffff16036137245734600282815481106136f8576136f7614d82565b5b906000526020600020906006020160040160008282546137189190614e72565b92505081905550613731565b808060010191505061365e565b5060008060046000848152602001908152602001600020905060005b81805490508110156137e5573373ffffffffffffffffffffffffffffffffffffffff1682828154811061378357613782614d82565b5b906000526020600020906006020160000160009054906101000a900473ffffffffffffffffffffffffffffffffffffffff1673ffffffffffffffffffffffffffffffffffffffff16036137d8578092506137e5565b808060010191505061374d565b503460046000858152602001908152602001600020838154811061380c5761380b614d82565b5b9060005260206000209060060201600401600082825461382c9190614e72565b92505081905550505050565b60036020528060005260406000206000915090505481565b60606007805480602002602001604051908101604052809291908181526020016000905b82821015613a5c57838290600052602060002090600302016040518060600160405290816000820180546138a790614f1d565b80601f01602080910402602001604051908101604052809291908181526020018280546138d390614f1d565b80156139205780601f106138f557610100808354040283529160200191613920565b820191906000526020600020905b81548152906001019060200180831161390357829003601f168201915b5050505050815260200160018201805461393990614f1d565b80601f016020809104026020016040519081016040528092919081815260200182805461396590614f1d565b80156139b25780601f10613987576101008083540402835291602001916139b2565b820191906000526020600020905b81548152906001019060200180831161399557829003601f168201915b505050505081526020016002820180546139cb90614f1d565b80601f01602080910402602001604051908101604052809291908181526020018280546139f790614f1d565b8015613a445780601f10613a1957610100808354040283529160200191613a44565b820191906000526020600020905b815481529060010190602001808311613a2757829003601f168201915b50505050508152505081526020019060010190613874565b50505050905090565b600560009054906101000a900473ffffffffffffffffffffffffffffffffffffffff1673ffffffffffffffffffffffffffffffffffffffff163373ffffffffffffffffffffffffffffffffffffffff1614613af5576040517f08c379a0000000000000000000000000000000000000000000000000000000008152600401613aec90615b17565b60405180910390fd5b600760405180606001604052808581526020018481526020018381525090806001815401808255809150506001900390600052602060002090600302016000909190919091506000820151816000019081613b5091906150fa565b506020820151816001019081613b6691906150fa565b506040820151816002019081613b7c91906150fa565b505050505050565b600080600360003373ffffffffffffffffffffffffffffffffffffffff1673ffffffffffffffffffffffffffffffffffffffff1681526020019081526020016000205490506000808281548110613bde57613bdd614d82565b5b9060005260206000209060050201600401549050603c81613bff9190614e72565b4210159250505090565b600080600360003373ffffffffffffffffffffffffffffffffffffffff1673ffffffffffffffffffffffffffffffffffffffff1681526020019081526020016000205490506000805490508110613c95576040517f08c379a0000000000000000000000000000000000000000000000000000000008152600401613c8c90615316565b60405180910390fd5b600060046000838152602001908152602001600020805480602002602001604051908101604052809291908181526020016000905b82821015613e9457838290600052602060002090600602016040518060c00160405290816000820160009054906101000a900473ffffffffffffffffffffffffffffffffffffffff1673ffffffffffffffffffffffffffffffffffffffff1673ffffffffffffffffffffffffffffffffffffffff168152602001600182018054613d5390614f1d565b80601f0160208091040260200160405190810160405280929190818152602001828054613d7f90614f1d565b8015613dcc5780601f10613da157610100808354040283529160200191613dcc565b820191906000526020600020905b815481529060010190602001808311613daf57829003601f168201915b5050505050815260200160028201548152602001600382018054613def90614f1d565b80601f0160208091040260200160405190810160405280929190818152602001828054613e1b90614f1d565b8015613e685780601f10613e3d57610100808354040283529160200191613e68565b820191906000526020600020905b815481529060010190602001808311613e4b57829003601f168201915b505050505081526020016004820154815260200160058201548152505081526020019060010190613cca565b50505050905080519250505090565b60046020528160005260406000208181548110613ebf57600080fd5b9060005260206000209060060201600091509150508060000160009054906101000a900473ffffffffffffffffffffffffffffffffffffffff1690806001018054613f0990614f1d565b80601f0160208091040260200160405190810160405280929190818152602001828054613f3590614f1d565b8015613f825780601f10613f5757610100808354040283529160200191613f82565b820191906000526020600020905b815481529060010190602001808311613f6557829003601f168201915b505050505090806002015490806003018054613f9d90614f1d565b80601f0160208091040260200160405190810160405280929190818152602001828054613fc990614f1d565b80156140165780601f10613feb57610100808354040283529160200191614016565b820191906000526020600020905b815481529060010190602001808311613ff957829003601f168201915b5050505050908060040154908060050154905086565b50805461403890614f1d565b6000825580601f1061404a5750614069565b601f016020900490600052602060002090810190614068919061406c565b5b50565b5b8082111561408557600081600090555060010161406d565b5090565b6000604051905090565b600080fd5b600080fd5b6000819050919050565b6140b08161409d565b81146140bb57600080fd5b50565b6000813590506140cd816140a7565b92915050565b6000602082840312156140e9576140e8614093565b5b60006140f7848285016140be565b91505092915050565b600081519050919050565b600082825260208201905092915050565b60005b8381101561413a57808201518184015260208101905061411f565b60008484015250505050565b6000601f19601f8301169050919050565b600061416282614100565b61416c818561410b565b935061417c81856020860161411c565b61418581614146565b840191505092915050565b600073ffffffffffffffffffffffffffffffffffffffff82169050919050565b60006141bb82614190565b9050919050565b6141cb816141b0565b82525050565b6141da8161409d565b82525050565b600060a08201905081810360008301526141fa8188614157565b9050818103602083015261420e8187614157565b905081810360408301526142228186614157565b905061423160608301856141c2565b61423e60808301846141d1565b9695505050505050565b600081519050919050565b600082825260208201905092915050565b6000819050602082019050919050565b600082825260208201905092915050565b600061429082614100565b61429a8185614274565b93506142aa81856020860161411c565b6142b381614146565b840191505092915050565b6142c7816141b0565b82525050565b6142d68161409d565b82525050565b600060a08301600083015184820360008601526142f98282614285565b915050602083015184820360208601526143138282614285565b9150506040830151848203604086015261432d8282614285565b915050606083015161434260608601826142be565b50608083015161435560808601826142cd565b508091505092915050565b600061436c83836142dc565b905092915050565b6000602082019050919050565b600061438c82614248565b6143968185614253565b9350836020820285016143a885614264565b8060005b858110156143e457848403895281516143c58582614360565b94506143d083614374565b925060208a019950506001810190506143ac565b50829750879550505050505092915050565b600060208201905081810360008301526144108184614381565b905092915050565b600060608201905081810360008301526144328186614157565b905081810360208301526144468185614157565b9050818103604083015261445a8184614157565b9050949350505050565b600080fd5b600080fd5b7f4e487b7100000000000000000000000000000000000000000000000000000000600052604160045260246000fd5b6144a682614146565b810181811067ffffffffffffffff821117156144c5576144c461446e565b5b80604052505050565b60006144d8614089565b90506144e4828261449d565b919050565b600067ffffffffffffffff8211156145045761450361446e565b5b61450d82614146565b9050602081019050919050565b82818337600083830152505050565b600061453c614537846144e9565b6144ce565b90508281526020810184848401111561455857614557614469565b5b61456384828561451a565b509392505050565b600082601f8301126145805761457f614464565b5b8135614590848260208601614529565b91505092915050565b6000806000606084860312156145b2576145b1614093565b5b600084013567ffffffffffffffff8111156145d0576145cf614098565b5b6145dc8682870161456b565b93505060206145ed868287016140be565b92505060406145fe868287016140be565b9150509250925092565b614611816141b0565b811461461c57600080fd5b50565b60008135905061462e81614608565b92915050565b6000806040838503121561464b5761464a614093565b5b6000614659858286016140be565b925050602061466a8582860161461f565b9150509250929050565b60008115159050919050565b61468981614674565b82525050565b60006020820190506146a46000830184614680565b92915050565b600081519050919050565b600082825260208201905092915050565b6000819050602082019050919050565b60006146e182614190565b9050919050565b6146f1816146d6565b82525050565b61470081614674565b82525050565b600060e08301600083015161471e60008601826146e8565b50602083015184820360208601526147368282614285565b915050604083015161474b60408601826142cd565b50606083015161475e60608601826142cd565b50608083015161477160808601826146f7565b5060a083015161478460a08601826146f7565b5060c083015161479760c08601826142cd565b508091505092915050565b60006147ae8383614706565b905092915050565b6000602082019050919050565b60006147ce826146aa565b6147d881856146b5565b9350836020820285016147ea856146c6565b8060005b85811015614826578484038952815161480785826147a2565b9450614812836147b6565b925060208a019950506001810190506147ee565b50829750879550505050505092915050565b6000602082019050818103600083015261485281846147c3565b905092915050565b600060c08201905061486f60008301896141c2565b81810360208301526148818188614157565b905061489060408301876141d1565b81810360608301526148a28186614157565b90506148b160808301856141d1565b6148be60a08301846141d1565b979650505050505050565b60006020820190506148de60008301846141d1565b92915050565b600081519050919050565b600082825260208201905092915050565b6000819050602082019050919050565b600061491c83836142be565b60208301905092915050565b6000602082019050919050565b6000614940826148e4565b61494a81856148ef565b935061495583614900565b8060005b8381101561498657815161496d8882614910565b975061497883614928565b925050600181019050614959565b5085935050505092915050565b600060208201905081810360008301526149ad8184614935565b905092915050565b60006060820190506149ca60008301866141d1565b6149d760208301856141d1565b6149e460408301846141d1565b949350505050565b6000604082019050614a0160008301856141c2565b614a0e60208301846141d1565b9392505050565b600080600060608486031215614a2e57614a2d614093565b5b600084013567ffffffffffffffff811115614a4c57614a4b614098565b5b614a588682870161456b565b935050602084013567ffffffffffffffff811115614a7957614a78614098565b5b614a858682870161456b565b925050604084013567ffffffffffffffff811115614aa657614aa5614098565b5b614ab28682870161456b565b9150509250925092565b60008060408385031215614ad357614ad2614093565b5b6000614ae1858286016140be565b9250506020614af2858286016140be565b9150509250929050565b614b05816146d6565b82525050565b600060e082019050614b20600083018a614afc565b8181036020830152614b328189614157565b9050614b4160408301886141d1565b614b4e60608301876141d1565b614b5b6080830186614680565b614b6860a0830185614680565b614b7560c08301846141d1565b98975050505050505050565b600060208284031215614b9757614b96614093565b5b6000614ba58482850161461f565b91505092915050565b600081519050919050565b600082825260208201905092915050565b6000819050602082019050919050565b60006060830160008301518482036000860152614bf78282614285565b91505060208301518482036020860152614c118282614285565b91505060408301518482036040860152614c2b8282614285565b9150508091505092915050565b6000614c448383614bda565b905092915050565b6000602082019050919050565b6000614c6482614bae565b614c6e8185614bb9565b935083602082028501614c8085614bca565b8060005b85811015614cbc5784840389528151614c9d8582614c38565b9450614ca883614c4c565b925060208a01995050600181019050614c84565b50829750879550505050505092915050565b60006020820190508181036000830152614ce88184614c59565b905092915050565b7f596f75206861766520616c726561647920766f74656420666f7220746869732060008201527f696e646578000000000000000000000000000000000000000000000000000000602082015250565b6000614d4c60258361410b565b9150614d5782614cf0565b604082019050919050565b60006020820190508181036000830152614d7b81614d3f565b9050919050565b7f4e487b7100000000000000000000000000000000000000000000000000000000600052603260045260246000fd5b7f566f74696e672069732065697468657220636f6d706c65746564206f7220746960008201527f6d6520686173206578706972656420666f722074686973206c6f616e00000000602082015250565b6000614e0d603c8361410b565b9150614e1882614db1565b604082019050919050565b60006020820190508181036000830152614e3c81614e00565b9050919050565b7f4e487b7100000000000000000000000000000000000000000000000000000000600052601160045260246000fd5b6000614e7d8261409d565b9150614e888361409d565b9250828201905080821115614ea057614e9f614e43565b5b92915050565b6000614eb18261409d565b91507fffffffffffffffffffffffffffffffffffffffffffffffffffffffffffffffff8203614ee357614ee2614e43565b5b600182019050919050565b7f4e487b7100000000000000000000000000000000000000000000000000000000600052602260045260246000fd5b60006002820490506001821680614f3557607f821691505b602082108103614f4857614f47614eee565b5b50919050565b60008190508160005260206000209050919050565b60006020601f8301049050919050565b600082821b905092915050565b600060088302614fb07fffffffffffffffffffffffffffffffffffffffffffffffffffffffffffffffff82614f73565b614fba8683614f73565b95508019841693508086168417925050509392505050565b6000819050919050565b6000614ff7614ff2614fed8461409d565b614fd2565b61409d565b9050919050565b6000819050919050565b61501183614fdc565b61502561501d82614ffe565b848454614f80565b825550505050565b600090565b61503a61502d565b615045818484615008565b505050565b5b818110156150695761505e600082615032565b60018101905061504b565b5050565b601f8211156150ae5761507f81614f4e565b61508884614f63565b81016020851015615097578190505b6150ab6150a385614f63565b83018261504a565b50505b505050565b600082821c905092915050565b60006150d1600019846008026150b3565b1980831691505092915050565b60006150ea83836150c0565b9150826002028217905092915050565b61510382614100565b67ffffffffffffffff81111561511c5761511b61446e565b5b6151268254614f1d565b61513182828561506d565b600060209050601f8311600181146151645760008415615152578287015190505b61515c85826150de565b8655506151c4565b601f19841661517286614f4e565b60005b8281101561519a57848901518255600182019150602085019450602081019050615175565b868310156151b757848901516151b3601f8916826150c0565b8355505b6001600288020188555050505b505050505050565b7f4d656d62657220616c7265616479207265676973746572656400000000000000600082015250565b600061520260198361410b565b915061520d826151cc565b602082019050919050565b60006020820190508181036000830152615231816151f5565b9050919050565b7f496e76616c69642053484720696e646578000000000000000000000000000000600082015250565b600061526e60118361410b565b915061527982615238565b602082019050919050565b6000602082019050818103600083015261529d81615261565b9050919050565b7f43616c6c6572206973206e6f742061206d656d626572206f6620616e7920617060008201527f70726f7665642053484700000000000000000000000000000000000000000000602082015250565b6000615300602a8361410b565b915061530b826152a4565b604082019050919050565b6000602082019050818103600083015261532f816152f3565b9050919050565b7f54696d6520666f72206e6f6d696e6174696f6e7320616c726561647920656e6460008201527f6564000000000000000000000000000000000000000000000000000000000000602082015250565b600061539260228361410b565b915061539d82615336565b604082019050919050565b600060208201905081810360008301526153c181615385565b9050919050565b7f596f75206861766520616c7265616479206e6f6d696e61746564000000000000600082015250565b60006153fe601a8361410b565b9150615409826153c8565b602082019050919050565b6000602082019050818103600083015261542d816153f1565b9050919050565b7f496e76616c696420696e64657800000000000000000000000000000000000000600082015250565b600061546a600d8361410b565b915061547582615434565b602082019050919050565b600060208201905081810360008301526154998161545d565b9050919050565b6000815490506154af81614f1d565b9050919050565b8181036154c457505061559c565b6154cd826154a0565b67ffffffffffffffff8111156154e6576154e561446e565b5b6154f08254614f1d565b6154fb82828561506d565b6000601f83116001811461552a5760008415615518578287015490505b61552285826150de565b865550615595565b601f19841661553887614f4e565b965061554386614f4e565b60005b8281101561556b57848901548255600182019150600185019450602081019050615546565b868310156155885784890154615584601f8916826150c0565b8355505b6001600288020188555050505b5050505050505b565b60006155a98261409d565b91506155b48361409d565b92508282039050818111156155cc576155cb614e43565b5b92915050565b7f4e487b7100000000000000000000000000000000000000000000000000000000600052603160045260246000fd5b7f496e76616c696420617574686f72697a6174696f6e2c204f6e6c79204344532060008201527f41646d696e2063616e2061636365737320746869732064617368626f6172642160208201527f2121000000000000000000000000000000000000000000000000000000000000604082015250565b600061568360428361410b565b915061568e82615601565b606082019050919050565b600060208201905081810360008301526156b281615676565b9050919050565b7f43616c6c6572206973206e6f7420612072656769737465726564206d656d626560008201527f7200000000000000000000000000000000000000000000000000000000000000602082015250565b600061571560218361410b565b9150615720826156b9565b604082019050919050565b6000602082019050818103600083015261574481615708565b9050919050565b7f4e6f2076616c75652073656e7400000000000000000000000000000000000000600082015250565b6000615781600d8361410b565b915061578c8261574b565b602082019050919050565b600060208201905081810360008301526157b081615774565b9050919050565b7f506c656173652073656e6420616e20616d6f756e74206c657373207468616e2060008201527f796f7572206c6f616e2e2e2e0000000000000000000000000000000000000000602082015250565b6000615813602c8361410b565b915061581e826157b7565b604082019050919050565b6000602082019050818103600083015261584281615806565b9050919050565b7f4f6e6c7920746865206170706c6963616e742063616e20636c61696d2074686560008201527f20766f74652e0000000000000000000000000000000000000000000000000000602082015250565b60006158a560268361410b565b91506158b082615849565b604082019050919050565b600060208201905081810360008301526158d481615898565b9050919050565b7f566f7465206973206e6f7420636f6d706c65746564207965742e000000000000600082015250565b6000615911601a8361410b565b915061591c826158db565b602082019050919050565b6000602082019050818103600083015261594081615904565b9050919050565b7f4c6f616e2068617320616c7265616479206265656e20636c61696d65642e0000600082015250565b600061597d601e8361410b565b915061598882615947565b602082019050919050565b600060208201905081810360008301526159ac81615970565b9050919050565b7f4e487b7100000000000000000000000000000000000000000000000000000000600052601260045260246000fd5b60006159ed8261409d565b91506159f88361409d565b925082615a0857615a076159b3565b5b828204905092915050565b7f4e6f7420656e6f7567682079657320766f74657320746f20636c61696d20746860008201527f6520766f74652e00000000000000000000000000000000000000000000000000602082015250565b6000615a6f60278361410b565b9150615a7a82615a13565b604082019050919050565b60006020820190508181036000830152615a9e81615a62565b9050919050565b7f4f6e6c79204344532041646d696e2063616e20637265617465206e6f7469666960008201527f636174696f6e2100000000000000000000000000000000000000000000000000602082015250565b6000615b0160278361410b565b9150615b0c82615aa5565b604082019050919050565b60006020820190508181036000830152615b3081615af4565b905091905056fea26469706673582212206bdf23dde46fef75201e9e47c8915302160eb13c7b0d60d1e8e303505d2c888264736f6c63430008180033",
  "linkReferences": {},
  "deployedLinkReferences": {}
}