{
  "_format": "hh-sol-artifact-1",
  "contractName": "DK",
  "address": "0x79596A688334665146fefc8d13eB9CbdA92E6c15",
  "sourceName": "contracts/DK.sol",
  "abi": [
    {
      "inputs": [],
      "stateMutability": "nonpayable",
      "type": "constructor"
    },
    {
      "anonymous": false,
      "inputs": [
        {
          "indexed": false,
          "internalType": "string",
          "name": "name",
          "type": "string"
        }
      ],
      "name": "NewPresidentAssigned",
      "type": "event"
    },
    {
      "inputs": [
        {
          "internalType": "uint256",
          "name": "",
          "type": "uint256"
        },
        {
          "internalType": "uint256",
          "name": "",
          "type": "uint256"
        }
      ],
      "name": "SHGToMember",
      "outputs": [
        {
          "internalType": "address",
          "name": "memaddress",
          "type": "address"
        },
        {
          "internalType": "string",
          "name": "name",
          "type": "string"
        },
        {
          "internalType": "uint256",
          "name": "aadhaar",
          "type": "uint256"
        },
        {
          "internalType": "string",
          "name": "desig",
          "type": "string"
        },
        {
          "internalType": "uint256",
          "name": "balance",
          "type": "uint256"
        },
        {
          "internalType": "uint256",
          "name": "loan",
          "type": "uint256"
        }
      ],
      "stateMutability": "view",
      "type": "function"
    },
    {
      "inputs": [
        {
          "internalType": "uint256",
          "name": "shgIndex",
          "type": "uint256"
        }
      ],
      "name": "allMembersHaveVoted",
      "outputs": [
        {
          "internalType": "bool",
          "name": "",
          "type": "bool"
        }
      ],
      "stateMutability": "view",
      "type": "function"
    },
    {
      "inputs": [
        {
          "internalType": "uint256",
          "name": "index",
          "type": "uint256"
        }
      ],
      "name": "approveSHG",
      "outputs": [],
      "stateMutability": "nonpayable",
      "type": "function"
    },
    {
      "inputs": [
        {
          "internalType": "uint256",
          "name": "",
          "type": "uint256"
        }
      ],
      "name": "approvedSHGs",
      "outputs": [
        {
          "internalType": "string",
          "name": "name",
          "type": "string"
        },
        {
          "internalType": "string",
          "name": "applicant",
          "type": "string"
        },
        {
          "internalType": "string",
          "name": "location",
          "type": "string"
        },
        {
          "internalType": "address",
          "name": "applicant_address",
          "type": "address"
        },
        {
          "internalType": "uint256",
          "name": "SHGRegisterTime",
          "type": "uint256"
        }
      ],
      "stateMutability": "view",
      "type": "function"
    },
    {
      "inputs": [
        {
          "internalType": "uint256",
          "name": "shgIndex",
          "type": "uint256"
        }
      ],
      "name": "assignNewPresident",
      "outputs": [],
      "stateMutability": "nonpayable",
      "type": "function"
    },
    {
      "inputs": [],
      "name": "cdsdash",
      "outputs": [
        {
          "internalType": "uint256",
          "name": "",
          "type": "uint256"
        },
        {
          "internalType": "uint256",
          "name": "",
          "type": "uint256"
        },
        {
          "internalType": "uint256",
          "name": "",
          "type": "uint256"
        }
      ],
      "stateMutability": "view",
      "type": "function"
    },
    {
      "inputs": [],
      "name": "checkPresidentTenureOver",
      "outputs": [
        {
          "internalType": "bool",
          "name": "",
          "type": "bool"
        }
      ],
      "stateMutability": "view",
      "type": "function"
    },
    {
      "inputs": [
        {
          "internalType": "uint256",
          "name": "_index",
          "type": "uint256"
        }
      ],
      "name": "claimVote",
      "outputs": [],
      "stateMutability": "nonpayable",
      "type": "function"
    },
    {
      "inputs": [
        {
          "internalType": "string",
          "name": "_title",
          "type": "string"
        },
        {
          "internalType": "string",
          "name": "_desc",
          "type": "string"
        },
        {
          "internalType": "string",
          "name": "_link",
          "type": "string"
        }
      ],
      "name": "createNotification",
      "outputs": [],
      "stateMutability": "nonpayable",
      "type": "function"
    },
    {
      "inputs": [
        {
          "internalType": "string",
          "name": "_name",
          "type": "string"
        },
        {
          "internalType": "string",
          "name": "_applicant",
          "type": "string"
        },
        {
          "internalType": "string",
          "name": "_location",
          "type": "string"
        }
      ],
      "name": "createSHG",
      "outputs": [],
      "stateMutability": "nonpayable",
      "type": "function"
    },
    {
      "inputs": [
        {
          "internalType": "uint256",
          "name": "_amount",
          "type": "uint256"
        }
      ],
      "name": "createloan",
      "outputs": [],
      "stateMutability": "nonpayable",
      "type": "function"
    },
    {
      "inputs": [],
      "name": "getApprovedSHGs",
      "outputs": [
        {
          "components": [
            {
              "internalType": "string",
              "name": "name",
              "type": "string"
            },
            {
              "internalType": "string",
              "name": "applicant",
              "type": "string"
            },
            {
              "internalType": "string",
              "name": "location",
              "type": "string"
            },
            {
              "internalType": "address",
              "name": "applicant_address",
              "type": "address"
            },
            {
              "internalType": "uint256",
              "name": "SHGRegisterTime",
              "type": "uint256"
            }
          ],
          "internalType": "struct DK.SHG[]",
          "name": "",
          "type": "tuple[]"
        }
      ],
      "stateMutability": "view",
      "type": "function"
    },
    {
      "inputs": [],
      "name": "getContractBalance",
      "outputs": [
        {
          "internalType": "uint256",
          "name": "",
          "type": "uint256"
        }
      ],
      "stateMutability": "view",
      "type": "function"
    },
    {
      "inputs": [],
      "name": "getNotifications",
      "outputs": [
        {
          "components": [
            {
              "internalType": "string",
              "name": "title",
              "type": "string"
            },
            {
              "internalType": "string",
              "name": "desc",
              "type": "string"
            },
            {
              "internalType": "string",
              "name": "link",
              "type": "string"
            }
          ],
          "internalType": "struct DK.Notification[]",
          "name": "",
          "type": "tuple[]"
        }
      ],
      "stateMutability": "view",
      "type": "function"
    },
    {
      "inputs": [],
      "name": "getNumberOfMembersInSHG",
      "outputs": [
        {
          "internalType": "uint256",
          "name": "",
          "type": "uint256"
        }
      ],
      "stateMutability": "view",
      "type": "function"
    },
    {
      "inputs": [],
      "name": "getPendingSHGs",
      "outputs": [
        {
          "components": [
            {
              "internalType": "string",
              "name": "name",
              "type": "string"
            },
            {
              "internalType": "string",
              "name": "applicant",
              "type": "string"
            },
            {
              "internalType": "string",
              "name": "location",
              "type": "string"
            },
            {
              "internalType": "address",
              "name": "applicant_address",
              "type": "address"
            },
            {
              "internalType": "uint256",
              "name": "SHGRegisterTime",
              "type": "uint256"
            }
          ],
          "internalType": "struct DK.SHG[]",
          "name": "",
          "type": "tuple[]"
        }
      ],
      "stateMutability": "view",
      "type": "function"
    },
    {
      "inputs": [
        {
          "internalType": "uint256",
          "name": "",
          "type": "uint256"
        },
        {
          "internalType": "address",
          "name": "",
          "type": "address"
        }
      ],
      "name": "hasVoted",
      "outputs": [
        {
          "internalType": "bool",
          "name": "",
          "type": "bool"
        }
      ],
      "stateMutability": "view",
      "type": "function"
    },
    {
      "inputs": [
        {
          "internalType": "uint256",
          "name": "",
          "type": "uint256"
        },
        {
          "internalType": "address",
          "name": "",
          "type": "address"
        }
      ],
      "name": "hasVotedForNominee",
      "outputs": [
        {
          "internalType": "bool",
          "name": "",
          "type": "bool"
        }
      ],
      "stateMutability": "view",
      "type": "function"
    },
    {
      "inputs": [],
      "name": "loanPay",
      "outputs": [],
      "stateMutability": "payable",
      "type": "function"
    },
    {
      "inputs": [
        {
          "internalType": "string",
          "name": "_name",
          "type": "string"
        },
        {
          "internalType": "uint256",
          "name": "_aadhar",
          "type": "uint256"
        },
        {
          "internalType": "uint256",
          "name": "SHGindex",
          "type": "uint256"
        }
      ],
      "name": "memRegandJoin",
      "outputs": [],
      "stateMutability": "nonpayable",
      "type": "function"
    },
    {
      "inputs": [
        {
          "internalType": "address",
          "name": "",
          "type": "address"
        }
      ],
      "name": "memberToSHGIndex",
      "outputs": [
        {
          "internalType": "uint256",
          "name": "",
          "type": "uint256"
        }
      ],
      "stateMutability": "view",
      "type": "function"
    },
    {
      "inputs": [
        {
          "internalType": "uint256",
          "name": "",
          "type": "uint256"
        }
      ],
      "name": "members",
      "outputs": [
        {
          "internalType": "address",
          "name": "memaddress",
          "type": "address"
        },
        {
          "internalType": "string",
          "name": "name",
          "type": "string"
        },
        {
          "internalType": "uint256",
          "name": "aadhaar",
          "type": "uint256"
        },
        {
          "internalType": "string",
          "name": "desig",
          "type": "string"
        },
        {
          "internalType": "uint256",
          "name": "balance",
          "type": "uint256"
        },
        {
          "internalType": "uint256",
          "name": "loan",
          "type": "uint256"
        }
      ],
      "stateMutability": "view",
      "type": "function"
    },
    {
      "inputs": [],
      "name": "memdash",
      "outputs": [
        {
          "internalType": "uint256",
          "name": "",
          "type": "uint256"
        },
        {
          "internalType": "uint256",
          "name": "",
          "type": "uint256"
        },
        {
          "internalType": "uint256",
          "name": "",
          "type": "uint256"
        }
      ],
      "stateMutability": "view",
      "type": "function"
    },
    {
      "inputs": [
        {
          "internalType": "uint256",
          "name": "",
          "type": "uint256"
        }
      ],
      "name": "n",
      "outputs": [
        {
          "internalType": "string",
          "name": "title",
          "type": "string"
        },
        {
          "internalType": "string",
          "name": "desc",
          "type": "string"
        },
        {
          "internalType": "string",
          "name": "link",
          "type": "string"
        }
      ],
      "stateMutability": "view",
      "type": "function"
    },
    {
      "inputs": [],
      "name": "nominatePresident",
      "outputs": [],
      "stateMutability": "nonpayable",
      "type": "function"
    },
    {
      "inputs": [
        {
          "internalType": "uint256",
          "name": "",
          "type": "uint256"
        }
      ],
      "name": "pendingSHGs",
      "outputs": [
        {
          "internalType": "string",
          "name": "name",
          "type": "string"
        },
        {
          "internalType": "string",
          "name": "applicant",
          "type": "string"
        },
        {
          "internalType": "string",
          "name": "location",
          "type": "string"
        },
        {
          "internalType": "address",
          "name": "applicant_address",
          "type": "address"
        },
        {
          "internalType": "uint256",
          "name": "SHGRegisterTime",
          "type": "uint256"
        }
      ],
      "stateMutability": "view",
      "type": "function"
    },
    {
      "inputs": [
        {
          "internalType": "uint256",
          "name": "",
          "type": "uint256"
        },
        {
          "internalType": "uint256",
          "name": "",
          "type": "uint256"
        }
      ],
      "name": "shgIndexToLoan",
      "outputs": [
        {
          "internalType": "address payable",
          "name": "applicant_add",
          "type": "address"
        },
        {
          "internalType": "string",
          "name": "applicant_name",
          "type": "string"
        },
        {
          "internalType": "uint256",
          "name": "amount",
          "type": "uint256"
        },
        {
          "internalType": "uint256",
          "name": "yesCount",
          "type": "uint256"
        },
        {
          "internalType": "bool",
          "name": "completed",
          "type": "bool"
        },
        {
          "internalType": "bool",
          "name": "claimed",
          "type": "bool"
        },
        {
          "internalType": "uint256",
          "name": "startTime",
          "type": "uint256"
        }
      ],
      "stateMutability": "view",
      "type": "function"
    },
    {
      "inputs": [
        {
          "internalType": "uint256",
          "name": "",
          "type": "uint256"
        },
        {
          "internalType": "address",
          "name": "",
          "type": "address"
        }
      ],
      "name": "shgNominations",
      "outputs": [
        {
          "internalType": "address",
          "name": "nominee",
          "type": "address"
        },
        {
          "internalType": "string",
          "name": "name",
          "type": "string"
        },
        {
          "internalType": "uint256",
          "name": "timestamp",
          "type": "uint256"
        },
        {
          "internalType": "uint256",
          "name": "supportCount",
          "type": "uint256"
        }
      ],
      "stateMutability": "view",
      "type": "function"
    },
    {
      "inputs": [],
      "name": "viewNominations",
      "outputs": [
        {
          "components": [
            {
              "internalType": "address",
              "name": "nominee",
              "type": "address"
            },
            {
              "internalType": "string",
              "name": "name",
              "type": "string"
            },
            {
              "internalType": "uint256",
              "name": "timestamp",
              "type": "uint256"
            },
            {
              "internalType": "uint256",
              "name": "supportCount",
              "type": "uint256"
            }
          ],
          "internalType": "struct DK.Nomination[]",
          "name": "",
          "type": "tuple[]"
        }
      ],
      "stateMutability": "view",
      "type": "function"
    },
    {
      "inputs": [],
      "name": "viewloan",
      "outputs": [
        {
          "components": [
            {
              "internalType": "address payable",
              "name": "applicant_add",
              "type": "address"
            },
            {
              "internalType": "string",
              "name": "applicant_name",
              "type": "string"
            },
            {
              "internalType": "uint256",
              "name": "amount",
              "type": "uint256"
            },
            {
              "internalType": "uint256",
              "name": "yesCount",
              "type": "uint256"
            },
            {
              "internalType": "bool",
              "name": "completed",
              "type": "bool"
            },
            {
              "internalType": "bool",
              "name": "claimed",
              "type": "bool"
            },
            {
              "internalType": "uint256",
              "name": "startTime",
              "type": "uint256"
            }
          ],
          "internalType": "struct DK.Loanvote[]",
          "name": "",
          "type": "tuple[]"
        }
      ],
      "stateMutability": "view",
      "type": "function"
    },
    {
      "inputs": [
        {
          "internalType": "uint256",
          "name": "_index",
          "type": "uint256"
        }
      ],
      "name": "vote",
      "outputs": [],
      "stateMutability": "nonpayable",
      "type": "function"
    },
    {
      "inputs": [
        {
          "internalType": "address",
          "name": "nominee",
          "type": "address"
        }
      ],
      "name": "voteNominee",
      "outputs": [],
      "stateMutability": "nonpayable",
      "type": "function"
    },
    {
      "inputs": [],
      "name": "weeklyPay",
      "outputs": [],
      "stateMutability": "payable",
      "type": "function"
    }
  ],
  "bytecode": "0x608060405234801561001057600080fd5b50600580546001600160a01b031916331790556143f8806100326000396000f3fe6080604052600436106101ee5760003560e01c80638916eee31161010d578063b515e12c116100a0578063cf71355b1161006f578063cf71355b146105cf578063e11ed6e9146105ef578063eca6e1ae1461062a578063f11021a21461063f578063ff78c7e31461065457600080fd5b8063b515e12c14610545578063cc5870e414610578578063cde2342414610580578063cf48bd2c146105ad57600080fd5b8063a3a4333b116100dc578063a3a4333b146104b5578063a64fc4ec146104d5578063a6ef2b5c14610505578063b40ebaaf1461052557600080fd5b80638916eee3146104585780638a957a6d1461046d57806391e5c0241461048d578063a2bc7eb4146104ad57600080fd5b806343859632116101855780636f9fb98a116101545780636f9fb98a146103d45780637c276e29146103f15780637c3d483e146104135780638881aba41461042857600080fd5b8063438596321461032557806354736af1146103605780635daf08ca146103825780636005fec6146103b457600080fd5b80631cd9ad7b116101c15780631cd9ad7b146102915780632495b5fc146102c15780632d22f7fb146102f05780633296fd341461031057600080fd5b80630121b93f146101f35780630e16199d146102155780631436e435146102355780631514e44b1461026f575b600080fd5b3480156101ff57600080fd5b5061021361020e366004613945565b610674565b005b34801561022157600080fd5b50610213610230366004613945565b610814565b34801561024157600080fd5b50610255610250366004613945565b610a15565b6040516102669594939291906139a4565b60405180910390f35b34801561027b57600080fd5b50610284610bfd565b60405161026691906139fb565b34801561029d57600080fd5b506102b16102ac366004613945565b610e35565b6040519015158152602001610266565b3480156102cd57600080fd5b506102e16102dc366004613945565b611069565b60405161026693929190613abb565b3480156102fc57600080fd5b5061021361030b366004613ba1565b61123b565b34801561031c57600080fd5b50610213611531565b34801561033157600080fd5b506102b1610340366004613c0b565b600a60209081526000928352604080842090915290825290205460ff1681565b34801561036c57600080fd5b506103756117e2565b6040516102669190613c37565b34801561038e57600080fd5b506103a261039d366004613945565b611966565b60405161026696959493929190613ce3565b3480156103c057600080fd5b506102136103cf366004613945565b611ac8565b3480156103e057600080fd5b50475b604051908152602001610266565b3480156103fd57600080fd5b50610406611cd4565b6040516102669190613d35565b34801561041f57600080fd5b50610284612085565b34801561043457600080fd5b5061043d6122b4565b60408051938452602084019290925290820152606001610266565b34801561046457600080fd5b5061043d612358565b34801561047957600080fd5b50610213610488366004613dbf565b6126a2565b34801561049957600080fd5b506102136104a8366004613945565b612877565b610213612ad6565b3480156104c157600080fd5b506102136104d0366004613945565b612c32565b3480156104e157600080fd5b506104f56104f0366004613c0b565b612f11565b6040516102669493929190613de1565b34801561051157600080fd5b50610255610520366004613945565b612fd7565b34801561053157600080fd5b50610213610540366004613e18565b612fe7565b34801561055157600080fd5b50610565610560366004613ea0565b6130b4565b6040516102669796959493929190613ec2565b6102136131aa565b34801561058c57600080fd5b506103e361059b366004613dbf565b60036020526000908152604090205481565b3480156105b957600080fd5b506105c261335d565b6040516102669190613f12565b3480156105db57600080fd5b506102136105ea366004613e18565b613569565b3480156105fb57600080fd5b506102b161060a366004613c0b565b600760209081526000928352604080842090915290825290205460ff1681565b34801561063657600080fd5b506102b1613665565b34801561064b57600080fd5b506103e36136b7565b34801561066057600080fd5b506103a261066f366004613ea0565b6138aa565b33600081815260036020908152604080832054858452600a83528184209484529390915290205460ff16156106fe5760405162461bcd60e51b815260206004820152602560248201527f596f75206861766520616c726561647920766f74656420666f722074686973206044820152640d2dcc8caf60db1b60648201526084015b60405180910390fd5b600081815260096020526040812080548490811061071e5761071e613fa7565b60009182526020909120600690910201600481015490915060ff16156107ac5760405162461bcd60e51b815260206004820152603c60248201527f566f74696e672069732065697468657220636f6d706c65746564206f7220746960448201527f6d6520686173206578706972656420666f722074686973206c6f616e0000000060648201526084016106f5565b60058101546107bc90603c613fd3565b4211156107d557600401805460ff191660011790555050565b6003810180549060006107e783613fec565b909155505050600091825250600a602090815260408083203384529091529020805460ff19166001179055565b336000908152600360209081526040808320548084526004909252822090916060905b825481101561093657336001600160a01b031683828154811061085c5761085c613fa7565b60009182526020909120600690910201546001600160a01b03160361092e5782818154811061088d5761088d613fa7565b906000526020600020906006020160010180546108a990614005565b80601f01602080910402602001604051908101604052809291908181526020018280546108d590614005565b80156109225780601f106108f757610100808354040283529160200191610922565b820191906000526020600020905b81548152906001019060200180831161090557829003601f168201915b50505050509150610936565b600101610837565b506000838152600960209081526040808320815160e081018352338152808401868152928101899052606081018590526080810185905260a081018590524260c082015281546001808201845592865293909420845160069094020180546001600160a01b0319166001600160a01b039094169390931783559051908201906109bf908261408c565b506040820151600282015560608201516003820155608082015160048201805460a085015115156101000261ff00199315159390931661ffff199091161791909117905560c09091015160059091015550505050565b60018181548110610a2557600080fd5b9060005260206000209060050201600091509050806000018054610a4890614005565b80601f0160208091040260200160405190810160405280929190818152602001828054610a7490614005565b8015610ac15780601f10610a9657610100808354040283529160200191610ac1565b820191906000526020600020905b815481529060010190602001808311610aa457829003601f168201915b505050505090806001018054610ad690614005565b80601f0160208091040260200160405190810160405280929190818152602001828054610b0290614005565b8015610b4f5780601f10610b2457610100808354040283529160200191610b4f565b820191906000526020600020905b815481529060010190602001808311610b3257829003601f168201915b505050505090806002018054610b6490614005565b80601f0160208091040260200160405190810160405280929190818152602001828054610b9090614005565b8015610bdd5780601f10610bb257610100808354040283529160200191610bdd565b820191906000526020600020905b815481529060010190602001808311610bc057829003601f168201915b50505050600383015460049093015491926001600160a01b031691905085565b60606001805480602002602001604051908101604052809291908181526020016000905b82821015610e2c57838290600052602060002090600502016040518060a0016040529081600082018054610c5490614005565b80601f0160208091040260200160405190810160405280929190818152602001828054610c8090614005565b8015610ccd5780601f10610ca257610100808354040283529160200191610ccd565b820191906000526020600020905b815481529060010190602001808311610cb057829003601f168201915b50505050508152602001600182018054610ce690614005565b80601f0160208091040260200160405190810160405280929190818152602001828054610d1290614005565b8015610d5f5780601f10610d3457610100808354040283529160200191610d5f565b820191906000526020600020905b815481529060010190602001808311610d4257829003601f168201915b50505050508152602001600282018054610d7890614005565b80601f0160208091040260200160405190810160405280929190818152602001828054610da490614005565b8015610df15780601f10610dc657610100808354040283529160200191610df1565b820191906000526020600020905b815481529060010190602001808311610dd457829003601f168201915b505050918352505060038201546001600160a01b03166020808301919091526004909201546040909101529082526001929092019101610c21565b50505050905090565b600081815260046020908152604080832080548251818502810185019093528083528493849084015b82821015610fe85760008481526020908190206040805160c081019091526006850290910180546001600160a01b031682526001810180549293919291840191610ea790614005565b80601f0160208091040260200160405190810160405280929190818152602001828054610ed390614005565b8015610f205780601f10610ef557610100808354040283529160200191610f20565b820191906000526020600020905b815481529060010190602001808311610f0357829003601f168201915b5050505050815260200160028201548152602001600382018054610f4390614005565b80601f0160208091040260200160405190810160405280929190818152602001828054610f6f90614005565b8015610fbc5780601f10610f9157610100808354040283529160200191610fbc565b820191906000526020600020905b815481529060010190602001808311610f9f57829003601f168201915b505050505081526020016004820154815260200160058201548152505081526020019060010190610e5e565b50505050905060005b815181101561105f5760076000858152602001908152602001600020600083838151811061102157611021613fa7565b602090810291909101810151516001600160a01b031682528101919091526040016000205460ff16611057575060009392505050565b600101610ff1565b5060019392505050565b6008818154811061107957600080fd5b906000526020600020906003020160009150905080600001805461109c90614005565b80601f01602080910402602001604051908101604052809291908181526020018280546110c890614005565b80156111155780601f106110ea57610100808354040283529160200191611115565b820191906000526020600020905b8154815290600101906020018083116110f857829003601f168201915b50505050509080600101805461112a90614005565b80601f016020809104026020016040519081016040528092919081815260200182805461115690614005565b80156111a35780601f10611178576101008083540402835291602001916111a3565b820191906000526020600020905b81548152906001019060200180831161118657829003601f168201915b5050505050908060020180546111b890614005565b80601f01602080910402602001604051908101604052809291908181526020018280546111e490614005565b80156112315780601f1061120657610100808354040283529160200191611231565b820191906000526020600020905b81548152906001019060200180831161121457829003601f168201915b5050505050905083565b60005b6002548110156112d457336001600160a01b03166002828154811061126557611265613fa7565b60009182526020909120600690910201546001600160a01b0316036112cc5760405162461bcd60e51b815260206004820152601960248201527f4d656d62657220616c726561647920726567697374657265640000000000000060448201526064016106f5565b60010161123e565b50600054811061131a5760405162461bcd60e51b8152602060048201526011602482015270092dcecc2d8d2c840a6908e40d2dcc8caf607b1b60448201526064016106f5565b3360009081526003602052604081208290558054606091908390811061134257611342613fa7565b60009182526020909120600360059092020101546001600160a01b0316330361138b5750604080518082019091526009815268141c995cda59195b9d60ba1b60208201526113aa565b5060408051808201909152600681526526b2b6b132b960d11b60208201525b6040805160c081018252338152602081018681529181018590526060810183905260006080820181905260a0820181905260028054600181018255915281517f405787fa12a823e0f2b7631cc41b3ba8828b3321ca811111fa75cd3aa3bb5ace600690920291820180546001600160a01b0319166001600160a01b0390921691909117815592519192839290917f405787fa12a823e0f2b7631cc41b3ba8828b3321ca811111fa75cd3aa3bb5acf0190611464908261408c565b506040820151600282015560608201516003820190611483908261408c565b50608082015160048281019190915560a090920151600590910155600084815260209182526040812080546001808201835591835291839020845160069093020180546001600160a01b0319166001600160a01b039093169290921782559183015183928201906114f4908261408c565b506040820151600282015560608201516003820190611513908261408c565b506080820151816004015560a0820151816005015550505050505050565b33600090815260036020526040812054905481106115615760405162461bcd60e51b81526004016106f59061414c565b6000818154811061157457611574613fa7565b9060005260206000209060050201600401546102586115939190613fd3565b4211156115ed5760405162461bcd60e51b815260206004820152602260248201527f54696d6520666f72206e6f6d696e6174696f6e7320616c726561647920656e64604482015261195960f21b60648201526084016106f5565b6000818152600660209081526040808320338452909152902060020154156116575760405162461bcd60e51b815260206004820152601a60248201527f596f75206861766520616c7265616479206e6f6d696e6174656400000000000060448201526064016106f5565b606060005b60025481101561175e57336001600160a01b03166002828154811061168357611683613fa7565b60009182526020909120600690910201546001600160a01b03160361175657600281815481106116b5576116b5613fa7565b906000526020600020906006020160010180546116d190614005565b80601f01602080910402602001604051908101604052809291908181526020018280546116fd90614005565b801561174a5780601f1061171f5761010080835404028352916020019161174a565b820191906000526020600020905b81548152906001019060200180831161172d57829003601f168201915b5050505050915061175e565b60010161165c565b506040805160808101825233808252602080830185815242848601526000606085018190528781526006835285812093815292909152929020815181546001600160a01b0319166001600160a01b03909116178155915190919060018201906117c7908261408c565b50604082015160028201556060909101516003909101555050565b3360009081526003602052604081205490546060919081106118165760405162461bcd60e51b81526004016106f59061414c565b600081815260096020908152604080832080548251818502810185019093528083529193909284015b8282101561195c5760008481526020908190206040805160e081019091526006850290910180546001600160a01b03168252600181018054929391929184019161188890614005565b80601f01602080910402602001604051908101604052809291908181526020018280546118b490614005565b80156119015780601f106118d657610100808354040283529160200191611901565b820191906000526020600020905b8154815290600101906020018083116118e457829003601f168201915b5050509183525050600282015460208083019190915260038301546040830152600483015460ff80821615156060850152610100909104161515608083015260059092015460a090910152908252600192909201910161183f565b5050505091505090565b6002818154811061197657600080fd5b6000918252602090912060069091020180546001820180546001600160a01b039092169350906119a590614005565b80601f01602080910402602001604051908101604052809291908181526020018280546119d190614005565b8015611a1e5780601f106119f357610100808354040283529160200191611a1e565b820191906000526020600020905b815481529060010190602001808311611a0157829003601f168201915b505050505090806002015490806003018054611a3990614005565b80601f0160208091040260200160405190810160405280929190818152602001828054611a6590614005565b8015611ab25780601f10611a8757610100808354040283529160200191611ab2565b820191906000526020600020905b815481529060010190602001808311611a9557829003601f168201915b5050505050908060040154908060050154905086565b6001548110611b095760405162461bcd60e51b815260206004820152600d60248201526c092dcecc2d8d2c840d2dcc8caf609b1b60448201526064016106f5565b600060018281548110611b1e57611b1e613fa7565b6000918252602080832084546001810186559484529220600591820290920192020180611b4b8382614196565b50600181810190611b5e90840182614196565b50600281810190611b7190840182614196565b5060038281015490820180546001600160a01b0319166001600160a01b0390921691909117905560049182015491015560018054611baf9190614271565b8114611c675760018054611bc4908290614271565b81548110611bd457611bd4613fa7565b906000526020600020906005020160018281548110611bf557611bf5613fa7565b6000918252602090912060059091020180611c108382614196565b50600181810190611c2390840182614196565b50600281810190611c3690840182614196565b5060038281015490820180546001600160a01b0319166001600160a01b039092169190911790556004918201549101555b6001805480611c7857611c78614284565b60008281526020812060001990920191600583020190611c9882826138f7565b611ca66001830160006138f7565b611cb46002830160006138f7565b506003810180546001600160a01b03191690556000600490910155905550565b336000908152600360205260408120549054606091908110611d085760405162461bcd60e51b81526004016106f59061414c565b600081815260046020908152604080832080548251818502810185019093528083529192909190849084015b82821015611ebe5760008481526020908190206040805160c081019091526006850290910180546001600160a01b031682526001810180549293919291840191611d7d90614005565b80601f0160208091040260200160405190810160405280929190818152602001828054611da990614005565b8015611df65780601f10611dcb57610100808354040283529160200191611df6565b820191906000526020600020905b815481529060010190602001808311611dd957829003601f168201915b5050505050815260200160028201548152602001600382018054611e1990614005565b80601f0160208091040260200160405190810160405280929190818152602001828054611e4590614005565b8015611e925780601f10611e6757610100808354040283529160200191611e92565b820191906000526020600020905b815481529060010190602001808311611e7557829003601f168201915b505050505081526020016004820154815260200160058201548152505081526020019060010190611d34565b5050505090506000815167ffffffffffffffff811115611ee057611ee0613afe565b604051908082528060200260200182016040528015611f4557816020015b611f32604051806080016040528060006001600160a01b031681526020016060815260200160008152602001600081525090565b815260200190600190039081611efe5790505b50905060005b825181101561207d576000838281518110611f6857611f68613fa7565b6020908102919091018101515160008781526006835260408082206001600160a01b03808516845290855291819020815160808101909252805490921681526001820180549395509093919291840191611fc190614005565b80601f0160208091040260200160405190810160405280929190818152602001828054611fed90614005565b801561203a5780601f1061200f5761010080835404028352916020019161203a565b820191906000526020600020905b81548152906001019060200180831161201d57829003601f168201915b505050505081526020016002820154815260200160038201548152505083838151811061206957612069613fa7565b602090810291909101015250600101611f4b565b509392505050565b60606000805480602002602001604051908101604052809291908181526020016000905b82821015610e2c57838290600052602060002090600502016040518060a00160405290816000820180546120dc90614005565b80601f016020809104026020016040519081016040528092919081815260200182805461210890614005565b80156121555780601f1061212a57610100808354040283529160200191612155565b820191906000526020600020905b81548152906001019060200180831161213857829003601f168201915b5050505050815260200160018201805461216e90614005565b80601f016020809104026020016040519081016040528092919081815260200182805461219a90614005565b80156121e75780601f106121bc576101008083540402835291602001916121e7565b820191906000526020600020905b8154815290600101906020018083116121ca57829003601f168201915b5050505050815260200160028201805461220090614005565b80601f016020809104026020016040519081016040528092919081815260200182805461222c90614005565b80156122795780601f1061224e57610100808354040283529160200191612279565b820191906000526020600020905b81548152906001019060200180831161225c57829003601f168201915b505050918352505060038201546001600160a01b031660208083019190915260049092015460409091015290825260019290920191016120a9565b600554600090819081906001600160a01b031633146123465760405162461bcd60e51b815260206004820152604260248201527f496e76616c696420617574686f72697a6174696f6e2c204f6e6c79204344532060448201527f41646d696e2063616e2061636365737320746869732064617368626f61726421606482015261212160f01b608482015260a4016106f5565b50506000546002546001549193909250565b600080808080808080805b60025481101561243057336001600160a01b03166002828154811061238a5761238a613fa7565b60009182526020909120600690910201546001600160a01b0316036124285760019250600281815481106123c0576123c0613fa7565b9060005260206000209060060201600401549550600281815481106123e7576123e7613fa7565b906000526020600020906006020160050154945060036000336001600160a01b03166001600160a01b03168152602001908152602001600020549150612430565b600101612363565b50816124885760405162461bcd60e51b815260206004820152602160248201527f43616c6c6572206973206e6f7420612072656769737465726564206d656d62656044820152603960f91b60648201526084016106f5565b5033600090815260036020908152604080832054808452600483528184208054835181860281018601909452808452919493909190849084015b8282101561264c5760008481526020908190206040805160c081019091526006850290910180546001600160a01b03168252600181018054929391929184019161250b90614005565b80601f016020809104026020016040519081016040528092919081815260200182805461253790614005565b80156125845780601f1061255957610100808354040283529160200191612584565b820191906000526020600020905b81548152906001019060200180831161256757829003601f168201915b50505050508152602001600282015481526020016003820180546125a790614005565b80601f01602080910402602001604051908101604052809291908181526020018280546125d390614005565b80156126205780601f106125f557610100808354040283529160200191612620565b820191906000526020600020905b81548152906001019060200180831161260357829003601f168201915b5050505050815260200160048201548152602001600582015481525050815260200190600101906124c2565b50505050905060005b81518110156126915781818151811061267057612670613fa7565b602002602001015160800151856126879190613fd3565b9450600101612655565b509498939750919550919350505050565b33600090815260036020526040812054905481106126d25760405162461bcd60e51b81526004016106f59061414c565b600081815260076020908152604080832033845290915290205460ff161561273c5760405162461bcd60e51b815260206004820152601860248201527f43616c6c65722068617320616c726561647920766f746564000000000000000060448201526064016106f5565b6000818152600460205260408120815b81548110156127a157846001600160a01b031682828154811061277157612771613fa7565b60009182526020909120600690910201546001600160a01b03160361279957600192506127a1565b60010161274c565b50816128005760405162461bcd60e51b815260206004820152602860248201527f4e6f6d696e6565206d7573742062652061206d656d626572206f66207468652060448201526773616d652053484760c01b60648201526084016106f5565b60008381526006602090815260408083206001600160a01b0388168452909152812060030180549161283183613fec565b909155505060008381526007602090815260408083203384529091529020805460ff1916600117905561286383610e35565b156128715761287183612877565b50505050565b60008181526004602052604081209080805b83548110156128f75760008482815481106128a6576128a6613fa7565b600091825260208083206006928302015489845291815260408084206001600160a01b039093168085529290915290912060030154909150838111156128ed578093508194505b5050600101612889565b5060005b8354811015612a7057826001600160a01b031684828154811061292057612920613fa7565b60009182526020909120600690910201546001600160a01b0316036129965760405180604001604052806009815260200168141c995cda59195b9d60ba1b81525084828154811061297357612973613fa7565b90600052602060002090600602016003019081612990919061408c565b50612a68565b604080518082019091526009815268141c995cda59195b9d60ba1b60209091015283547fe4908534c74d6a5bdfd3b1ff6c0cdaff6418140d4c5c84d5c706dfe7e9fdc28e908590839081106129ed576129ed613fa7565b9060005260206000209060060201600301604051612a0b919061429a565b604051809103902003612a68576040518060400160405280600681526020016526b2b6b132b960d11b815250848281548110612a4957612a49613fa7565b90600052602060002090600602016003019081612a66919061408c565b505b6001016128fb565b5060008481526006602090815260408083206001600160a01b03861684529091529081902090517f7a5d29e32af9a8cc7984d4e609b51e96e2dd51aef64e3109b0ba93a70f47a9cc91612ac891600190910190614310565b60405180910390a150505050565b60003411612b165760405162461bcd60e51b815260206004820152600d60248201526c139bc81d985b1d59481cd95b9d609a1b60448201526064016106f5565b60005b600254811015612c2f57336001600160a01b031660028281548110612b4057612b40613fa7565b60009182526020909120600690910201546001600160a01b031603612c275760028181548110612b7257612b72613fa7565b906000526020600020906006020160050154341115612be85760405162461bcd60e51b815260206004820152602c60248201527f506c656173652073656e6420616e20616d6f756e74206c657373207468616e2060448201526b3cb7bab9103637b0b717171760a11b60648201526084016106f5565b3460028281548110612bfc57612bfc613fa7565b90600052602060002090600602016005016000828254612c1c9190614271565b90915550612c2f9050565b600101612b19565b50565b3360009081526003602052604081205490548110612c625760405162461bcd60e51b81526004016106f59061414c565b6000818152600960205260408120805484908110612c8257612c82613fa7565b6000918252602090912060069091020180549091506001600160a01b03163314612cfd5760405162461bcd60e51b815260206004820152602660248201527f4f6e6c7920746865206170706c6963616e742063616e20636c61696d20746865604482015265103b37ba329760d11b60648201526084016106f5565b600481015460ff16612d515760405162461bcd60e51b815260206004820152601a60248201527f566f7465206973206e6f7420636f6d706c65746564207965742e00000000000060448201526064016106f5565b6004810154610100900460ff1615612dab5760405162461bcd60e51b815260206004820152601e60248201527f4c6f616e2068617320616c7265616479206265656e20636c61696d65642e000060448201526064016106f5565b6000828152600460205260409020546003820154612dca6002836143a0565b8111612e285760405162461bcd60e51b815260206004820152602760248201527f4e6f7420656e6f7567682079657320766f74657320746f20636c61696d20746860448201526632903b37ba329760c91b60648201526084016106f5565b825460028401546040516001600160a01b039092169181156108fc0291906000818181858888f19350505050158015612e65573d6000803e3d6000fd5b5060005b600254811015612efa57336001600160a01b031660028281548110612e9057612e90613fa7565b60009182526020909120600690910201546001600160a01b031603612ef257836002015460028281548110612ec757612ec7613fa7565b90600052602060002090600602016005016000828254612ee79190613fd3565b90915550612efa9050565b600101612e69565b505050600401805461ff0019166101001790555050565b6006602090815260009283526040808420909152908252902080546001820180546001600160a01b039092169291612f4890614005565b80601f0160208091040260200160405190810160405280929190818152602001828054612f7490614005565b8015612fc15780601f10612f9657610100808354040283529160200191612fc1565b820191906000526020600020905b815481529060010190602001808311612fa457829003601f168201915b5050505050908060020154908060030154905084565b60008181548110610a2557600080fd5b6040805160a08101825284815260208101849052908101829052336060820152426080820152600180548082018255600091909152815160059091027fb10e2d527612073b26eecdfd717e6a320cf44b4afac2b0732d9fcbe2b7fa0cf601908190613052908261408c565b5060208201516001820190613067908261408c565b506040820151600282019061307c908261408c565b5060608201516003820180546001600160a01b0319166001600160a01b03909216919091179055608090910151600490910155505050565b600960205281600052604060002081815481106130d057600080fd5b6000918252602090912060069091020180546001820180546001600160a01b03909216945091925061310190614005565b80601f016020809104026020016040519081016040528092919081815260200182805461312d90614005565b801561317a5780601f1061314f5761010080835404028352916020019161317a565b820191906000526020600020905b81548152906001019060200180831161315d57829003601f168201915b505050506002830154600384015460048501546005909501549394919390925060ff808316926101009004169087565b600034116131ea5760405162461bcd60e51b815260206004820152600d60248201526c139bc81d985b1d59481cd95b9d609a1b60448201526064016106f5565b336000908152600360205260408120549054811061321a5760405162461bcd60e51b81526004016106f59061414c565b60005b6002548110156132aa57336001600160a01b03166002828154811061324457613244613fa7565b60009182526020909120600690910201546001600160a01b0316036132a257346002828154811061327757613277613fa7565b906000526020600020906006020160040160008282546132979190613fd3565b909155506132aa9050565b60010161321d565b506000818152600460205260408120815b815481101561330f57336001600160a01b03168282815481106132e0576132e0613fa7565b60009182526020909120600690910201546001600160a01b0316036133075780925061330f565b6001016132bb565b50600083815260046020526040902080543491908490811061333357613333613fa7565b906000526020600020906006020160040160008282546133539190613fd3565b9091555050505050565b60606008805480602002602001604051908101604052809291908181526020016000905b82821015610e2c57838290600052602060002090600302016040518060600160405290816000820180546133b490614005565b80601f01602080910402602001604051908101604052809291908181526020018280546133e090614005565b801561342d5780601f106134025761010080835404028352916020019161342d565b820191906000526020600020905b81548152906001019060200180831161341057829003601f168201915b5050505050815260200160018201805461344690614005565b80601f016020809104026020016040519081016040528092919081815260200182805461347290614005565b80156134bf5780601f10613494576101008083540402835291602001916134bf565b820191906000526020600020905b8154815290600101906020018083116134a257829003601f168201915b505050505081526020016002820180546134d890614005565b80601f016020809104026020016040519081016040528092919081815260200182805461350490614005565b80156135515780601f1061352657610100808354040283529160200191613551565b820191906000526020600020905b81548152906001019060200180831161353457829003601f168201915b50505050508152505081526020019060010190613381565b6005546001600160a01b031633146135d35760405162461bcd60e51b815260206004820152602760248201527f4f6e6c79204344532041646d696e2063616e20637265617465206e6f74696669604482015266636174696f6e2160c81b60648201526084016106f5565b604080516060810182528481526020810184905290810182905260088054600181018255600091909152815160039091027ff3f7a9fe364faab93b216da50a3214154f22a0a2b415b23a84c8169e8b636ee301908190613633908261408c565b5060208201516001820190613648908261408c565b506040820151600282019061365d908261408c565b505050505050565b336000908152600360205260408120548154829081908390811061368b5761368b613fa7565b9060005260206000209060050201600401549050806102586136ad9190613fd3565b4210159250505090565b33600090815260036020526040812054815481106136e75760405162461bcd60e51b81526004016106f59061414c565b600081815260046020908152604080832080548251818502810185019093528083529192909190849084015b8282101561389d5760008481526020908190206040805160c081019091526006850290910180546001600160a01b03168252600181018054929391929184019161375c90614005565b80601f016020809104026020016040519081016040528092919081815260200182805461378890614005565b80156137d55780601f106137aa576101008083540402835291602001916137d5565b820191906000526020600020905b8154815290600101906020018083116137b857829003601f168201915b50505050508152602001600282015481526020016003820180546137f890614005565b80601f016020809104026020016040519081016040528092919081815260200182805461382490614005565b80156138715780601f1061384657610100808354040283529160200191613871565b820191906000526020600020905b81548152906001019060200180831161385457829003601f168201915b505050505081526020016004820154815260200160058201548152505081526020019060010190613713565b5050915195945050505050565b600460205281600052604060002081815481106138c657600080fd5b6000918252602090912060069091020180546001820180546001600160a01b0390921694509192506119a590614005565b50805461390390614005565b6000825580601f10613913575050565b601f016020900490600052602060002090810190612c2f91905b80821115613941576000815560010161392d565b5090565b60006020828403121561395757600080fd5b5035919050565b6000815180845260005b8181101561398457602081850181015186830182015201613968565b506000602082860101526020601f19601f83011685010191505092915050565b60a0815260006139b760a083018861395e565b82810360208401526139c9818861395e565b905082810360408401526139dd818761395e565b6001600160a01b039590951660608401525050608001529392505050565b600060208083018184528085518083526040925060408601915060408160051b87010184880160005b83811015613aad57603f19898403018552815160a08151818652613a4a8287018261395e565b915050888201518582038a870152613a62828261395e565b9150508782015185820389870152613a7a828261395e565b6060848101516001600160a01b031690880152608093840151939096019290925250509386019390860190600101613a24565b509098975050505050505050565b606081526000613ace606083018661395e565b8281036020840152613ae0818661395e565b90508281036040840152613af4818561395e565b9695505050505050565b634e487b7160e01b600052604160045260246000fd5b600082601f830112613b2557600080fd5b813567ffffffffffffffff80821115613b4057613b40613afe565b604051601f8301601f19908116603f01168101908282118183101715613b6857613b68613afe565b81604052838152866020858801011115613b8157600080fd5b836020870160208301376000602085830101528094505050505092915050565b600080600060608486031215613bb657600080fd5b833567ffffffffffffffff811115613bcd57600080fd5b613bd986828701613b14565b9660208601359650604090950135949350505050565b80356001600160a01b0381168114613c0657600080fd5b919050565b60008060408385031215613c1e57600080fd5b82359150613c2e60208401613bef565b90509250929050565b600060208083018184528085518083526040925060408601915060408160051b87010184880160005b83811015613aad57888303603f19018552815180516001600160a01b031684528781015160e089860181905290613c998287018261395e565b838a0151878b01526060808501519088015260808085015115159088015260a08085015115159088015260c093840151939096019290925250509386019390860190600101613c60565b6001600160a01b038716815260c060208201819052600090613d079083018861395e565b8660408401528281036060840152613d1f818761395e565b6080840195909552505060a00152949350505050565b600060208083018184528085518083526040925060408601915060408160051b87010184880160005b83811015613aad57888303603f19018552815180516001600160a01b0316845287810151608089860181905290613d978287018261395e565b838a0151878b0152606093840151939096019290925250509386019390860190600101613d5e565b600060208284031215613dd157600080fd5b613dda82613bef565b9392505050565b6001600160a01b0385168152608060208201819052600090613e059083018661395e565b6040830194909452506060015292915050565b600080600060608486031215613e2d57600080fd5b833567ffffffffffffffff80821115613e4557600080fd5b613e5187838801613b14565b94506020860135915080821115613e6757600080fd5b613e7387838801613b14565b93506040860135915080821115613e8957600080fd5b50613e9686828701613b14565b9150509250925092565b60008060408385031215613eb357600080fd5b50508035926020909101359150565b6001600160a01b038816815260e060208201819052600090613ee69083018961395e565b60408301979097525060608101949094529115156080840152151560a083015260c09091015292915050565b600060208083018184528085518083526040925060408601915060408160051b87010184880160005b83811015613aad57603f19898403018552815160608151818652613f618287018261395e565b915050888201518582038a870152613f79828261395e565b91505087820151915084810388860152613f93818361395e565b968901969450505090860190600101613f3b565b634e487b7160e01b600052603260045260246000fd5b634e487b7160e01b600052601160045260246000fd5b80820180821115613fe657613fe6613fbd565b92915050565b600060018201613ffe57613ffe613fbd565b5060010190565b600181811c9082168061401957607f821691505b60208210810361403957634e487b7160e01b600052602260045260246000fd5b50919050565b601f821115614087576000816000526020600020601f850160051c810160208610156140685750805b601f850160051c820191505b8181101561365d57828155600101614074565b505050565b815167ffffffffffffffff8111156140a6576140a6613afe565b6140ba816140b48454614005565b8461403f565b602080601f8311600181146140ef57600084156140d75750858301515b600019600386901b1c1916600185901b17855561365d565b600085815260208120601f198616915b8281101561411e578886015182559484019460019091019084016140ff565b508582101561413c5787850151600019600388901b60f8161c191681555b5050505050600190811b01905550565b6020808252602a908201527f43616c6c6572206973206e6f742061206d656d626572206f6620616e7920617060408201526970726f7665642053484760b01b606082015260800190565b8181036141a1575050565b6141ab8254614005565b67ffffffffffffffff8111156141c3576141c3613afe565b6141d1816140b48454614005565b6000601f82116001811461420557600083156141ed5750848201545b600019600385901b1c1916600184901b17845561426a565b600085815260209020601f19841690600086815260209020845b8381101561423f578286015482556001958601959091019060200161421f565b508583101561425d5781850154600019600388901b60f8161c191681555b50505060018360011b0184555b5050505050565b81810381811115613fe657613fe6613fbd565b634e487b7160e01b600052603160045260246000fd5b60008083546142a881614005565b600182811680156142c057600181146142d557614304565b60ff1984168752821515830287019450614304565b8760005260208060002060005b858110156142fb5781548a8201529084019082016142e2565b50505082870194505b50929695505050505050565b600060208083526000845461432481614005565b8060208701526040600180841660008114614346576001811461436257614392565b60ff19851660408a0152604084151560051b8a01019550614392565b89600052602060002060005b858110156143895781548b820186015290830190880161436e565b8a016040019650505b509398975050505050505050565b6000826143bd57634e487b7160e01b600052601260045260246000fd5b50049056fea26469706673582212205b9da89667ca8714bcec9d54c37471691032abbcc096d273b42fb90f292e897764736f6c63430008180033",
  "linkReferences": {},
  "deployedLinkReferences": {}
}